:020000040800F2
:10000000981200203503000885850008A97A0008A9
:1000100081850008F51E0008BDA100080000000051
:10002000000000000000000000000000BD8B000880
:10003000C91F00080000000025870008158C000873
:100040004F0300084F0300084F0300084F03000848
:100050004F0300084F0300084F0300084F03000838
:100060004F0300084F0300084F0300084F03000828
:100070004F030008F91E0008091F00084F0300087D
:100080004F03000800000000D51D00084F030008C2
:100090004F030008F92000084F0300084F03000831
:1000A0004F0300084F0300084F0300084F030008E8
:1000B000A98C00084F0300084F0300084F030008F5
:1000C0004F0300084F0300084F0300084F030008C8
:1000D0004F0300084F0300084F030008ADA10008BC
:1000E0004F0300084F0300084F0300084F030008A8
:1000F0004F0300084F0300084F03000800000000F2
:10010000000000004F030008000000004F0300083B
:100110004F030008000000004F0300084F030008D1
:100120004F0300084F0300084F0300084F03000867
:100130004F03000800000000000000004F0300080B
:100140004F0300084F0300080000000000000000FB
:10015000000000000000000000000000000000009F
:100160000000000000000000000000004F03000835
:100170004F03000800000000000000000000000025
:10018000000000004F030008000000000000000015
:10019000000000000000000000000000000000005F
:1001A00000000000000000004F0300084F0300089B
:1001B0004F0300084F0300084F0300080000000031
:1001C000000000004F0300080000000000000000D5
:1001D0004F0300084F03000800F002F800F09AF8FF
:1001E0000AA090E8000C82448344AAF10107DA4592
:1001F00001D100F08FF8AFF2090EBAE80F0013F04A
:10020000010F18BFFB1A43F00103184740C5000057
:1002100060C50000103A24BF78C878C1FAD85207E8
:1002200024BF30C830C144BF04680C607047000070
:100230000023002400250026103A28BF78C1FBD8EF
:10024000520728BF30C148BF0B6070476E2900F0CD
:10025000E981702900F01F8366290CF08E816529E1
:100260000CF08B8167290CF0888161290CF0878163
:1002700003681B0A28BF41F08001692900F09681BC
:10028000642900F09381752900F090816F2900F0B6
:10029000AD82782900F0EB82E92900F04782E42959
:1002A00000F04482F52900F04182EF2900F0AA8293
:1002B000F82900F0EA820368DB0928BF41F08001D9
:1002C000632901F00780732901F00C80E32901F014
:1002D0001780F32901F01C80002070471FB50CF037
:1002E0003AF99DE8030001F00DFB01F00BF9040061
:1002F000002000210BF088FC401C606000200021E1
:100300000BF06CFCE06001F00BF81FBD10B501F0C4
:1003100070F810BD01F0C8F81146FFF7DFFF0AF0D2
:10032000ADFB01F08FFA03B4FFF7F0FF03BC01F05F
:1003300099FC00000948804709480047FEE7FEE7AE
:10034000FEE7FEE7FEE7FEE7FEE7FEE7FEE7FEE785
:1003500004480549054A064B70470000958C000883
:10036000D90100089806002098120020980A002061
:10037000980A002053EA020C00F069802DE9F04B46
:100380004FF00006002B1FBFB3FA83F503FA05F404
:1003900024FA05F65E4012BF1643B2FA82F502FA5D
:1003A00005F4C5F120051EBF22FA05FC44EA0C0441
:1003B000203556EA044C4FEA144418BF641C4FF031
:1003C00000084FF00009904271EB030C39D300296B
:1003D00019BFB1FA81F701FA07F6B0FA80F700FA0F
:1003E00007F6C7F120071EBF20FA07FC46EA0C06F5
:1003F0002037B6FBF4FCA7EB0507103F07F01F0BF7
:10040000CBF120062CFA06F60CFA0BFB44BFB346E0
:100410000026202FA4BF5E464FF0000B5BEA060CBF
:1004200008BF4FF0010B19EB0B0948EB0608ABFBBB
:10043000027C06FB02CC0BFB03CCC01B71EB0C0156
:10044000C1E70B46024641464846BDE8F08B13B56E
:10045000084318BF4FF0FF300146AFF30080BDE8FE
:100460001C4070470FB4044910B503AA029800F06D
:10047000EDF810BC5DF814FB6C0000204FF000029A
:1004800000B5134694469646203922BFA0E80C508A
:10049000A0E80C50B1F12001BFF4F7AF090728BF65
:1004A000A0E80C5048BF0CC05DF804EB890028BFE1
:1004B00040F8042B08BF704748BF20F8022B11F00A
:1004C000804F18BF00F8012B704770477047704786
:1004D00010B500F0AFFA006810BD10B5044600F08A
:1004E000A9FA046010BD70B5044685690068C106AC
:1004F00001D5302600E02026C00707D070BDD4E922
:10050000012130469047206A401C20626D1EF6D5BE
:1005100070BD70B5044685690078C00707D170BD0D
:10052000D4E9012120209047206A401C20626D1EE2
:10053000F6D570BD09684A0501D540B27047C905B6
:10054000FCD500B2704709684A0501D5C0B27047B2
:10055000C905FCD580B2704770B50C460546012A26
:1005600005D02878800600D5EA69002302E001233F
:1005700005E05B1C934202D2E05C0028F9D1A86937
:10058000E618C01AA861286A184428622846FFF7AE
:10059000AAFF04E0D5E9012114F8010B9047B44209
:1005A000F8D32846FFF7B5FF70BD00002DE9F041F4
:1005B0000646002410687529314616A510D0FFF7AD
:1005C000B9FF002802DA404213A507E031688A0724
:1005D00001D512A502E0490704D511A5012401E0C7
:1005E000FFF7B1FF00210A2206F1240709E0B0FB62
:1005F000F2FCB0FBF2F302FB1C00303078541846DA
:10060000491C0028F3D123462A463046BDE8F04174
:1006100000F059BA000000002D0000002B0000007F
:100620002000000011680268006A530501D50870B7
:100630000AE0D30501D5088006E0130603D5C217EA
:10064000C1E9000200E0086001207047074B70B567
:100650000D467B4400F021FE0446284600F05CFE77
:1006600010B14FF0FF3070BD204670BD93A2000066
:100670002DE9FF5F15468A460446DFF8AC80F84452
:100680000027D8E900103E46CDE9001010E03AF806
:1006900016106A4602A800F0DFFE411C07D0217840
:1006A000890603D5E269391891420DD80744761CB2
:1006B0002078800602D5E069B84205DDAE42E6DB6F
:1006C0003AF816000028E2D1A069C01BA0612046BC
:1006D000FFF709FFD8E90010CDE90010002017E06E
:1006E0003AF818106A4602A800F0B6FEB0F1FF3FD3
:1006F00081460BD000250DF1080B05E0D4E901215E
:100700001BF8050090476D1C4D45F7D308F101001B
:10071000B0428046E4DB206A384420622046FFF77E
:10072000F8FEBDE8FF9F000002BF00002DE9F04188
:100730008046D21D22F007020025D2E90002F529E9
:1007400015A614D0011E72F1000106DA0023D0EBC9
:10075000030063EB020211A608E0D8F800108B0733
:1007600001D50FA602E0490701D50EA601251146C5
:10077000002408F1240704E000F060F930323A5513
:10078000641C50EA0102F7D12B463246214640460E
:10079000BDE8F04100F097B9000000002D00000016
:1007A0002B0000002000000030B4002100F12404E0
:1007B00008E002F00705D208303542EA4372DB0850
:1007C0006554491C52EA0305F3D10468002310A2C2
:1007D000250708D504F020040C4304D0C469012384
:1007E0000CA2641EC46130BC00F06DB910B50446A3
:1007F00021461068FFF7A7FE02462046BDE81040DC
:100800000023D1E7D21D22F00701D1E90023CBE775
:100810000000000030000000F0B40D46018809051A
:1008200002D5214C7C4402E01F4C7C440E34002154
:1008300000F1240608E002F00F071209E75D42EA22
:1008400003721B097754491C52EA0307F3D102785B
:100850000023120704D5702D06D009B102231134EC
:100860002246F0BC00F02FB901231034F8E770B530
:1008700004460D4621461068FFF765FE02462946EC
:100880002046BDE870400023C6E7D21D22F00703D2
:10089000D3E90023C0E70368126843F02003036034
:1008A0000823C3610023B7E764BD00002DE9F05FB2
:1008B000894604464FF0000ADFF874B1FB44C0F8E3
:1008C00020A02046E1688847002874D0252806D05B
:1008D000D4E901219047206A401C2062F1E70026FC
:1008E0005F462046E16888472028054607DB312D12
:1008F00005D2781910F8200C08B10643F1E7B007CB
:1009000001D526F00406C4F81CA00027C4F818A0DE
:100910002A2D09D028460BF059F938B304EB870883
:10092000303DC8F8185019E059F8041B204604EB74
:1009300087029161E1688847012F054618D1E06977
:10094000002820DA26F020061DE0D8F8180000EB79
:10095000800005EB40003038C8F818002046E168F8
:10096000884705460BF032F90028EED1012F0AD056
:100970002E2D08D12046E16888477F1C0546022FAE
:1009800046F02006C4DBA069002803DA404246F0A6
:100990000106A061F00701D026F010066C2D0BD0E7
:1009A000682D09D04C2D39D06A2D35D0742D35D015
:1009B0007A2D33D016E038E0E1682F46204688478C
:1009C000B842054609D16C2F26D04FF48060E1680B
:1009D000064320468847054604E06C2F1AD04FF4A2
:1009E000807006430DB3A5F14100192802D82035C7
:1009F00046F400664A462946204626604E46FFF7E2
:100A000025FC80B101280BD0F61D26F0070000F16F
:100A1000080956E74020E4E78020D8E70020D6E721
:100A200006F104094DE7284652E7206ABDE8F09F29
:100A3000F4BC0000004870471401002030B5B0F14C
:100A40000A0271F100034FEA900E4EEA817EB0EB8C
:100A50000E0061EB91014FEA101E4EEA017E10EB91
:100A60000E0041EB11114FEA102E4EEA016E10EB11
:100A70000E0041EB11214FEA104E4EEA014E10EBF1
:100A80000E0041EB1141401841F100014FEAD00046
:100A900040EA41704FEAD1014FEA810444EA907480
:100AA00010EB800544EB01046D1944EB0404521B68
:100AB000A3414FF0000348BF0A3200D530BD401CAF
:100AC00041F1000130BD2DE9F0470D4699469246AF
:100AD000044600F124080168880604D5E06921F085
:100AE0001001216000E00120A84201DD471B00E069
:100AF0000027A1697A1902EB0900081AA061207881
:100B0000C00602D42046FFF7EEFC002608E0D4E938
:100B100001211AF806009047206A401C761C2062CA
:100B20004E45F4DB2078C0060AD52046FFF7DBFCF3
:100B300006E0D4E9012130209047206A401C206261
:100B4000381EA7F10107F4DC07E0D4E9012118F809
:100B500005009047206A401C2062281EA5F101056F
:100B6000F3DC2046FFF7D5FC2078000602D50220F2
:100B7000BDE8F0870120FBE72DE9FF4F0C461E463C
:100B80004FF0FF378BB0D2E90001DDF860800A90AA
:100B90008A46C1F30A5505B93D46002108464FF083
:100BA0000000BAF1000F00F4400005DA00EB80000D
:100BB0004FF4400101EA50004FEA9059B9F1010F9A
:100BC00000DDB9460A9850EA4A000ED044F61050AB
:100BD000A5F2FF3545432F14B8F1000F1ED0754222
:100BE000291E1EDDC9F100021CE0B8F1010F4FF013
:100BF000000001D0302103E0F24305E02154401C05
:100C0000B042FBDB30460022002121540B99C1F891
:100C10000880C1E900200FB0BDE8F08FBD1B6D1C3E
:100C2000DEE74A4600DA694206A800F0D7FC06ABC8
:100C300093E8070003AB83E8070050460A990AF0DF
:100C400087F98DE80700A0F500501F380090039841
:100C5000002D0ADD42F21F014A460844002303A981
:100C6000039068460AF0F0FB09E0A0F500504A4600
:100C70001F38002303A9039068460AF0FAFB8DE8A9
:100C800007000004000C03D04FF0FF30410800E0E3
:100C90001046B8F1000F03D00022009215461EE066
:100CA000751E05D4FFF7CAFE303262556D1EF9D5A8
:100CB000B3460122084302D000227F1C04E02078C2
:100CC000302801D100227F1E002A099784D01DE020
:100CD000112D07DAFFF7B2FE303262556D1C50EA73
:100CE0000102F5D1084302D00098C8B10EE00021FE
:100CF000681E05E0235C625C63542254401E491C5C
:100D00008142F7DBAB46A81B401E0990002004F887
:100D10000B000B98099AC0F80880C0E9002B7AE70D
:100D200011264FF0000857E72DE9F04F884604469A
:100D3000D21D22F0070191B0D1E90001CDE90A01ED
:100D40000AF0CEFC02460B98C00F01D02D2007E020
:100D50002068810701D52B2002E0202101EAC00094
:100D6000032A099001D0072A05DB034641462046A5
:100D700000F0F4FB0BE12078800601D5E06900E08B
:100D80000620B8F1650F814606D0B8F1660F18D07D
:100D9000B8F1670F70D131E00020B9F1110F009068
:100DA00001DB112301E009F101030AAA01A90CA842
:100DB000FFF7E2FEDDE90C70002609F1010583462C
:100DC00047E001204B4600904FF000470AAA01A9D6
:100DD0000CA8FFF7D1FEDDE90DB00C995D460026A9
:100DE00010B909F101000D18B9EB050003D4C0F1E9
:100DF000FF3609F10105A5EB09002BE0B9F1010F60
:100E000001DA4FF001090020B9F1110F00904846B6
:100E100001DD112300E003460AAA01A90CA8FFF78F
:100E2000ABFEDDE90C704D460026834620780007B6
:100E30000AD4AB4500DA5D4601A8012D04DD411955
:100E400011F8011C302907D04F4502DA17F1040FC1
:100E500004DA012082460FE06D1EEEE7002F02DC6F
:100E6000ED1B3E4403E0781CA84200DD7D1CB81B4E
:100E700000F1010A4FF000472078000703D4AA458B
:100E800001DB4FF0FF3A0021B7F1004F0DF14308AD
:100E90008DF8431024D002202B23002F01DA7F424B
:100EA0002D230A21021EA0F1010000DC5FB197FB97
:100EB000F1FC97FBF1F201FB1C7C17460CF1300CA6
:100EC00008F801CDEEE7A8F10100037021880905BB
:100ED00001D5452100E06521A0F1010800F8011CC1
:100EE00009980FA9A1EB0807FF1D00B101204119C6
:100EF00001EBEA70A1693844081A401EA06120780D
:100F0000C00602D42046FFF7EEFA099828B1D4E9CA
:100F100001219047206A401C20622078C00622D51B
:100F20002046FFF7E0FA1EE0002E04DBB34502DDA9
:100F300001A8805D00E03020D4E901219047206ABB
:100F4000401C2062761CAAF101005FEA000A0AD167
:100F500000F0D8FAC0680168405CD4E901219047EC
:100F6000206A401C2062281EA5F10105DCDC07E098
:100F7000D4E9012118F8010B9047206A401C206237
:100F8000381EA7F10107F3DC2046FFF7C2FA032061
:100F900011B041E62DE9F04F04460D46D21D22F076
:100FA000070089B0D0E90097484639460AF098FB17
:100FB0000246F80F01D02D2307E02068810701D5F4
:100FC0002B2302E0202101EAC0038DF820300BB171
:100FD000012000E00020032A824601D0072A04DB1A
:100FE0002946204600F0BAFA3FE12078800601D475
:100FF0000D2500E0E569C7F30A560D2D49DA0021F9
:101000004FEA175B08464FF00000002F00F4400045
:1010100007DA00EB80004FF4400100EBD07001EAEA
:1010200060008115012901DD4FF0FF3100224FEAF8
:10103000850CBCF1180F06D31346ACF118004FF025
:101040008052C24003E04FF4801323FA0CF30CF1FA
:101050000C0CBCF1200F04D3ACF1200C09FA0CF0FD
:1010600001E007FA0CF000294FF0004801DD18B943
:101070000FE00ED140450CD319EB02095F4121B9B5
:10108000404502D19F4329EA0209BBEB175F00D01C
:10109000761C2088000502D57B48784402E07A4817
:1010A0007844193808AA302302F80A30037C0AF180
:1010B0000101002E0AF1020A53546A4602DC4FF085
:1010C000300101E04FF031014FF001088DF80010C0
:1010D00002D0A6F2FF3603E059EA470100D06B4E7A
:1010E000002D02DC2178090704D54FF002082E21DB
:1010F0008DF80110C44600210BE0C7F303433F0104
:10110000C35C491C6D1E02F80830052908F101086E
:1011100001DA002DF1DC00210CE000EB1973491C11
:101120001B786D1E082902F808304FEA091908F1EA
:10113000010801DA002DF0DC21688B0602D516E0EB
:10114000A8F10108E04505DD02EB080313F8013CB6
:10115000302BF5D0B8F1000F09DD02EB080313F8CE
:10116000013C2E2B03D1090701D4A8F10108002D61
:1011700005DD3E2102F808106D1E08F10108407CD3
:10118000002E02F8080008F1010804DA2D2076424A
:1011900002F8080002E02B2002F808000A214FF4B0
:1011A0007A70864208F101080BDB96FBF0F33033CE
:1011B00002F8083096FBF0F308F1010800FB136613
:1011C00001E0642E0CDB642096FBF0F3303302F870
:1011D000083096FBF0F308F1010800FB136601E00C
:1011E0000A2E06DB96FBF1F0303002F8080008F119
:1011F000010896FBF1F001FB1060303002F80800A6
:10120000A16908F1010808EB050202EB0A00081ABF
:10121000A0612078C00602D42046FFF764F9216A55
:1012200008AE01EB0A00206204E0D4E9012116F8BF
:10123000010B9047BAF1010AF7D22078C00602D517
:101240002046FFF750F96E4609E016F8010B3E28DC
:101250000FD0D4E901219047206A401C2062B8F1E8
:101260000108F2D22046FFF754F909B00320BDE887
:10127000F08F206A2844206203E0D4E90121302065
:1012800090476D1EEBD3F8E75DB5000002FCFFFF51
:1012900001694A1C02610878704700B58FB0CDE93A
:1012A00001310021059105497944CDE9031011462A
:1012B0006846FFF7FBFA0FB000BD0000E5FFFFFF37
:1012C00010B5436913B1AFF3008001E0FFF744F9B3
:1012D000012010BD127800F124010A7000224A702A
:1012E0000122EDE711684FF0FF32E9E710B54369DD
:1012F00013B1AFF3008001E0FFF7BAF9012010BD90
:10130000128800F1240182840022C2840122EDE7C8
:1013100011684FF0FF32E9E7007B00F08000704772
:1013200010B542485421FFF7A9F841485421FFF76E
:10133000A5F840485421FFF7A1F83F493B483C4AF3
:101340003F4B08603D490A603A491960531C0365E8
:10135000481C1065012008653B48344A39A178448F
:1013600000F0D2F920B9384878440A3800F073FA0E
:1013700037482F4A35A1784400F0C6F920B93448DF
:1013800078440A3800F067FA32482A4A2FA1784494
:1013900000F0BAF920B92F4878440A3800F05BFA17
:1013A00040232248DC000021224600F089F920B1C8
:1013B00025487844543800F04EFA1D482246402310
:1013C000002100F07DF920B121487844543800F024
:1013D00042FA184822461023002100F071F9002833
:1013E00006D01C487844BDE81040563800F033BAA7
:1013F00010BD104870B5006D20F001040B4800F0DE
:10140000FBF90B4800F0F8F90A4800F0F5F909E09B
:10141000206D20F00105204600F0EEF9204600F096
:1014200075F82C46002CF3D170BD00001800002088
:101430006C000020C00000200000002004000020FC
:101440000800002072000000ACB20000770000002D
:1014500098B2000084B200002DE9F04116460C4617
:10146000054600F047F8036893F80101012807D00A
:10147000FF2C12D8185D80B101202C70BDE8F081DE
:10148000D3F807013246214603F20713C71828464E
:10149000BC46BDE8F041002360474FF0FF30EDE768
:1014A00000487047140100207546FFF7F9FFAE466B
:1014B00005006946534620F00700854618B020B560
:1014C000FEF746FFBDE820404FF000064FF0000752
:1014D0004FF000084FF0000BAC46ACE8C009ACE898
:1014E000C009ACE8C009ACE8C00921F007018D468D
:1014F0007047000010B500F005F8001D10BD00BFDA
:1015000009A70000004870473401002070B5044668
:10151000051F00F0DBF90068002C14BF446870BDA3
:10152000002C18BFAC423CBF20466468F8D3016869
:101530000A18AA4218BF456003D12A68054611441B
:10154000016028684119A1421CBF6C6070BD6168D0
:10155000696021680844286070BD00002DE9F041F1
:101560001F46044603260168072A01F4006004DBD5
:1015700008B116A505E016A503E008B115A500E021
:1015800015A521F010002060A069C01EA0610FB158
:10159000401EA0612046FEF7A6FF4FB1D4E901210D
:1015A00038469047206A401C2062C01C206206E03A
:1015B000206AFAE7D4E9012115F8010B9047761E5D
:1015C000F8D22046FEF7A5FFBDE8F0814E414E005F
:1015D0006E616E00494E4600696E66002DE9F04767
:1015E000814616468AB0354878440DC88DE80D000E
:1015F00032487844801C03AC0DC884E80D0041F6E5
:101600009B300844372190FBF1F290FBF1F5A5F1F6
:10161000800501FB12041B3C02D56442012000E05E
:101620000020DFF898A080460027FA44AAF1BE0AFD
:101630000EE0E0070AD03246684607EB4701012377
:101640000AEB810109F015FF8DE8070064107F1C8B
:10165000002CEED1194F7F44AE3F19E0E80715D0BA
:1016600007EB04100DF1180A90E80E008AE80E004E
:10167000C068F04201D1981908903246012306A9AA
:1016800003A809F0F6FE03AB83E807006D10641CA5
:10169000002DE3D14FF0010332466946B8F1000F47
:1016A00003A802D009F0D0FE01E009F0E2FEC9E98A
:1016B0000001C9F808200AB0BDE8F087ACB000000E
:1016C00070B5C468A50713D0650211D4B2F5807F48
:1016D00009D0B2F5007F06D0B2F5806F08D10123A2
:1016E00000F1240106E05D1E6FF07F46B54201D394
:1016F000012070BD0161C361416024F47061114338
:10170000C160002070BD00002DE9F0410C46164676
:10171000070047D0104600F06FF82078611C612860
:101720000AD0722802D077283CD102E0012500249B
:1017300005E00225042402E0082448F2020511F81D
:10174000010B2B2806D0622809D011F8010C74284F
:101750000AD00BE045F0030544F00204EFE745F042
:10176000040544F00104EAE744F010043846214639
:1017700000F078F8411C15D00021316171604FF400
:101780000071F560F1617061200704D530460222D6
:10179000002100F015F9306D40F001003065304651
:1017A000BDE8F0810020FBE72DE9F0410D4606463B
:1017B000104C206DC10704D0410804D020F0010472
:1017C000F7E722460EE0542000F0CBF807000ED0D9
:1017D000206D47F001010843542120653846FEF78B
:1017E0004DFE3A4629463046BDE8F0418CE70020E0
:1017F000D6E70000180000202DE9F04704464FF01E
:1018000000094FF0FF37C568D4E90486A80707D060
:10181000204600F085F9304600F02EF8002802DA64
:101820003846BDE8F087280502D54046FFF76EFE32
:101830004C212046FEF722FE206D20F0010020659D
:101840004846EEE710B50446AFF300802046BDE8F9
:101850001040FEF768BD10B500F0ACF9BDE81040CF
:1018600000F0A2B90EB5CDE9000100F064FA0290D3
:1018700069460120ABBE0EBD08B569460090022046
:10188000ABBE08BD1FB58DE8070069460520ABBE9D
:1018900004B010BD1FB58DE80F0069460620ABBE31
:1018A000F6E708B5694600900920ABBE08BD1CB537
:1018B000CDE9000169460A20ABBE1CBD704708B5E2
:1018C000694600900C20ABBE08BD00000048704780
:1018D0001C010020704770477047704738B50446B8
:1018E0000A4600206946AFF30080002808BF38BDD3
:1018F00002460099204600F0C3F9012038BD0120BE
:1019000000F012BAF8B5AFF30080054600200C468F
:10191000102000BF0646A819A0420DD932466946DC
:101920000020AFF30080070008BF00F0FDF9009829
:10193000A04218BF0546C419FFF7C8FF0560074657
:10194000F01D20F007004619284600F092F9B44235
:1019500008BFF8BDA21B31463868BDE8F84000F06A
:101960008FB970B50646FFF7B1FF056806F10B00A9
:1019700020F00704B4429CBF002070BD2B466A686B
:10198000BAB11068A04210D304F1080188423CBFEC
:101990005068586007D35168101941601168091BDD
:1019A000016058601460101D70BD13465268002A13
:1019B000E7D121462846FFF791FF0028DED170BD10
:1019C0002DE9F041044616460D464769007B800725
:1019D0002ED03846FFF765FF50BB3EB3012E02D034
:1019E000022E25D104E0204600F064F905441DE0F4
:1019F0003846FFF764FFE168002841F01001E1601C
:101A000005DA204600F058F80120BDE8F081C9034E
:101A10000BD56268E16A914200D81146A26911446F
:101A20002269891A814200DD08460544002D01DA49
:101A30000220EAE7E16A6068E268814206D2910327
:101A4000E06203D522F4003141F01002A6690027BC
:101A5000AE4213DCE16A814201D90B4600E0034645
:101A600003EB060C2369ACEB030CAC4506DD8142AD
:101A700001D98C4600E084469C4505D1A7602760CB
:101A800042F02000A5620DE0AD1BE669AE1B81426D
:101A9000A66000D90846C01A281A2060581960604C
:101AA00022F0200003490840E060002084F84870DC
:101AB000ABE70000BFCFD7FFC16821F4001141F0B0
:101AC0008001C16000218160016070472DE9F0470D
:101AD000814614460E464FF0FF383248D5685769A4
:101AE000054209D03846A169FFF7E1FE002811DB65
:101AF0002C48C0430540E5602B46324649463846EF
:101B0000FFF7C0FEA16920F00042B21A114400287C
:101B1000A16103D02046FFF7CFFF4046BDE8F08724
:101B200070B504460569C06A6168884200D80846F5
:101B3000E16821F42011E160C90312D5A84208D060
:101B40002246411B2846FFF7C1FF10B14FF0FF307E
:101B500070BD0020E562C4E90150E06820F48030E7
:101B6000E060002070BD10B50446C06820F0200081
:101B7000E060A16AA06988420DD02046FFF7D0FF3F
:101B8000E06820F4405040F01000E060A06AA061DE
:101B90002069E062606044F24001E0688843E060F0
:101BA00010BD000010000200002801D000F05AB85B
:101BB0007047000010B5014602A000F09CF801201B
:101BC00010BD000053494752545245443A205265D3
:101BD0006469726563743A2063616E2774206F7064
:101BE000656E3A200000000030B44FF0013C50F820
:101BF000042B51F8043BCCFA52F4D51A20D1FCB98D
:101C000050F8042B51F8043BCCFA52F4D51A17D1F2
:101C1000B4B950F8042B51F8043BCCFA52F4D51A5D
:101C20000ED16CB950F8042B51F8043BCCFA52F4A5
:101C3000D51A05D1002CDAD030BC4FF00000704727
:101C400029BAB1FA81F111F01801D1F120008440D4
:101C5000F2D1CA40CB4012F0FF0213F0FF0330BCB8
:101C6000D01A704701491820ABBEFEE726000200DB
:101C7000704700210160C0E90110704710207047D3
:101C8000034640688C46002818BF88423CBF034684
:101C90004068F8D318681844884207D00CF1030054
:101CA00020F00700001D411A521A0146081D0A6063
:101CB000FFF72CBC10B50146C268900703D0900610
:101CC00007D5886A0AE0FEF7B5FE01210160881E8B
:101CD00010BD8B69486818440B69C01A91F84830E8
:101CE0001BB191F84910401A10BD1103FCD5002812
:101CF000FADD401E10BD70B505460C460A2000E016
:101D00006D1C00F037F835B128780028F8D102E0D2
:101D1000641C00F02FF814B120780028F8D1BDE839
:101D200070400A2000F026B810B500F02BF8BDE88E
:101D30001040FFF739BF10B5431C02E010F8011B3B
:101D400071B18107FAD14FF0013202C88C1A8C436D
:101D500014EAC211F9D0C01A0A0603D0C01E10BD81
:101D6000C01A10BD0A0401D0801E10BD0902FCD0AB
:101D7000401E10BD08B569468DF800000320ABBEBB
:101D800008BD000010B5012805D0002103A0FFF711
:101D9000B2FF012010BD09A1F8E7000053494752E6
:101DA000544D454D3A204F7574206F66206865612B
:101DB00070206D656D6F7279000000003A204865F3
:101DC0006170206D656D6F727920636F72727570CE
:101DD0007465640080B540F2C810C2F2000001F0E2
:101DE000DFFA80BD80B584B0029000200090029898
:101DF000006805F0F7FE002874D1FFE7029800683C
:101E000080683F21C8F2000108420ED0FFE7029926
:101E1000C86D40F01000C8650299086E40F00100DE
:101E2000086601208DF80F0060E00298006805F058
:101E300049FE40F20030C5F2000005F061FE0002EC
:101E400000281CD5FFE740F20C00C2F20000006839
:101E5000800942F66351C0F23E51A0FB0110800997
:101E600000EB40010C2000EB81000090FFE70098A0
:101E700020B1FFE7009801380090F8E7FFE702F093
:101E800035FE0190FFE7029800680068C00740BB7C
:101E9000FFE70298006805F0A5FE28B9FFE7029861
:101EA000006805F00FFEFFE702F020FE0199401ADE
:101EB000032815D3FFE7029800680068C00770B9CF
:101EC000FFE70299C86D40F01000C8650299086EDE
:101ED00040F00100086601208DF80F0006E0FFE7E2
:101EE000D1E7FFE700208DF80F00FFE79DF80F0016
:101EF00004B080BDFFE7FEE780B540F23420C2F2B7
:101F0000000001F03DFF80BD80B540F29420C2F298
:101F1000000001F035FF80BD84B003900398006895
:101F200040F20741C4F20201884206D8FFE740F6BA
:101F30000000C4F20200009005E040F62000C4F268
:101F400002000090FFE7009802900398007808389C
:101F50004CF6CD41CCF6CC41A0FB0110000901901C
:101F6000029803994A6C22F0030210448864039992
:101F700040F68000C4F20200C864019800F01F011E
:101F8000012088400399086504B0704782B0019031
:101F9000019800790090009940F6FC00C4F202001C
:101FA00000EB810001994865019940F64010C4F2A8
:101FB000020088650098013800F01F010120884068
:101FC0000199C86502B070477047000080B584B0C1
:101FD000039002A805F046FF02980399C860039990
:101FE00008798A685043D1ED000A91ED030A08F0A0
:101FF00061FD039880ED060A039890ED030A90EDC9
:10200000041A30EE410A80ED050A039890ED050AA6
:102010009FED231AB4EE410AF1EE10FA0ADDFFE754
:10202000039890ED050A9FED211A30EE010A80ED2C
:10203000050A15E0039890ED050A9FED1A1AB4EE13
:10204000410AF1EE10FA0ADAFFE7039890ED050A6B
:102050009FED151A30EE010A80ED050AFFE7FFE754
:10206000039890ED050A9FED121A20EE010A8DEDFE
:10207000010A0399C86808619DED010A9FED0D1AD8
:1020800020EE010A039890ED071A9FED0B2A21EE2E
:10209000021A30EE010A80ED070A04B080BD00BFCD
:1020A000DB0F4940DB0F49C0DB0FC940DB0FC9C064
:1020B00000401C46CDCCCC3E9A99193F80B584B0E7
:1020C00003908DF80B1001928DED000A05F0F4FEDF
:1020D0009DF80B0003990871019803998860009896
:1020E0000399086004B080BD81B0EFF3108072B630
:1020F0000090FFE7FEE7000080B540F2F420C2F256
:10210000000001F0C5FF80BD83B002904AF200409C
:10211000C4F20000009000980299086402980068D8
:10212000D0F8800020F4F810029A1168526B40EA4F
:102130000240C1F88000009870300299486402980B
:102140000068D0F8800020F07060029A1168926BED
:1021500040EA0260C1F880000098B03002998864BB
:10216000009800F5C4700299C864009800F51870D2
:1021700002990865009800F51E700299486500985C
:102180000190FFE70198009901F55471884208D247
:10219000FFE7019900200860FFE7019804300190F3
:1021A000F0E703B07047000081B0009001B07047C5
:1021B00080B5C2B02290219100208DF883001B9041
:1021C0001A902298406908B1FFE7FFE72198C0689C
:1021D0000021C4F27F01884201D0FFE700E0FFE761
:1021E000FFE7229890F85800012805D1FFE7022068
:1021F0008DF88F0000F0B7BC2299012081F85800BB
:10220000FFE7FFE72298406928B1FFE72198006ABD
:1022100001282FD1FFE721984068092829D1FFE73D
:102220002198806A68B1FFE721990A68886AC96ABB
:1022300002F0F84200F07C0040EA524008431A9055
:1022400006E02198006800F0F840400C1A90FFE783
:1022500022980068C06C44F20001C0F210410840AE
:102260001A99084322990968C8641A9822994866FD
:10227000FFE747E02298806EE0B9FFE72198006A07
:10228000229988662299002048662198806A58B170
:10229000FFE72199086A8A6AC96A013802F07C025C
:1022A000104308431A9004E02198006A01381A90FC
:1022B000FFE7FFE7219908684968C0F3846001F0EF
:1022C0001F0100FA01F11A9808431A902299886EAA
:1022D000013888661A9A2299486E104348662298F7
:1022E000806E70B9FFE722980068C06C44F200016C
:1022F000C0F210410840229A1168526E1043C8641F
:10230000FFE7FFE72298006805F042FC30BBFFE7DB
:10231000219890F8250090B9FFE722980068C068DE
:1023200020F44010219991F8242091F826104905B5
:1023300041EA0251084322990968C8600DE02298D9
:102340000068C06820F44010219991F8261040EAF6
:10235000415022990968C860FFE7FFE722980068AA
:1023600005F060FC1D902298006805F011FC1C909F
:102370001D98002840F00982FFE71C98002840F0D3
:102380000482FFE72198806A20B1FFE72198C06AA4
:10239000A8B9FFE7219890F82500012807D1FFE7A9
:1023A00022980168C86840F00070C86006E0229872
:1023B0000168C86820F00070C860FFE716E0219847
:1023C00090F82500012809D1FFE72299C86D40F057
:1023D0002000C86501208DF8830006E0229801687E
:1023E000C86820F00070C860FFE7FFE7219890F808
:1023F0003000012810D1FFE722980068006920F41E
:10240000FF71219A506B926B1043084340F0020019
:1024100022990968086106E022980168086920F09D
:1024200002000861FFE721988068B0F1004F0ED1EB
:10243000FFE72298006821990968002205F006FC50
:10244000229800684FF0004105F0ACFC0CE02298A7
:102450000068219A1168926805F0F8FB22980068DC
:10246000002105F09FFCFFE7219840692299096847
:10247000C96801F01801890888401F9021980069F7
:1024800004281CD0FFE72298006821990A6809698E
:102490001F9B05F02DFC22980068219A1169926912
:1024A00005F058FC22980068219A1169127F013AC0
:1024B000B2FA82F25209520605F038FC64E1229821
:1024C0000068002105F044FB400348B9FFE722986B
:1024D0000068002105F03CFBC0F38460199018E00F
:1024E00022980068002105F033FB90FAA0F02490B8
:1024F000249820B9FFE720208DF8970005E0249864
:10250000B0FA80F08DF89700FFE79DF897001990DA
:10251000FFE71998189021980068400330B9FFE749
:1025200021980068C0F38460179015E02198006836
:1025300090FAA0F02690269820B9FFE720208DF889
:102540009F0005E02698B0FA80F08DF89F00FFE725
:102550009DF89F001790FFE718981799884207D1B8
:10256000FFE7229800680022114605F007FCFFE70C
:1025700022980068012105F0EBFA400348B9FFE713
:1025800022980068012105F0E3FAC0F384601690F8
:1025900018E022980068012105F0DAFA90FAA0F01C
:1025A0002890289820B9FFE720208DF8A70005E0A3
:1025B0002898B0FA80F08DF8A700FFE79DF8A700F3
:1025C0001690FFE71698159021980068400330B9DF
:1025D000FFE721980068C0F38460149015E021980B
:1025E000006890FAA0F02A902A9820B9FFE72020EE
:1025F0008DF8AF0005E02A98B0FA80F08DF8AF00B2
:10260000FFE79DF8AF001490FFE7159814998842F2
:1026100007D1FFE7229800680121002205F0AEFBF8
:10262000FFE722980068022105F092FA400348B9BA
:10263000FFE722980068022105F08AFAC0F384605F
:10264000139018E022980068022105F081FA90FAB0
:10265000A0F02C902C9820B9FFE720208DF8B7002F
:1026600005E02C98B0FA80F08DF8B700FFE79DF8F0
:10267000B7001390FFE71398129021980068400369
:1026800030B9FFE721980068C0F38460119015E02D
:102690002198006890FAA0F02E902E9820B9FFE7BC
:1026A00020208DF8BF0005E02E98B0FA80F08DF85C
:1026B000BF00FFE79DF8BF001190FFE71298119946
:1026C000884207D1FFE7229800680221002205F026
:1026D00055FBFFE722980068032105F039FA400313
:1026E00048B9FFE722980068032105F031FAC0F3EA
:1026F0008460109018E022980068032105F028FA01
:1027000090FAA0F03E903E9820B9FFE720208DF887
:10271000FF0005E03E98B0FA80F08DF8FF00FFE77B
:102720009DF8FF001090FFE710980F902198006827
:10273000400330B9FFE721980068C0F384600E9031
:1027400015E02198006890FAA0F04090409820B9D8
:10275000FFE720208DF8070105E04098B0FA80F0EF
:102760008DF80701FFE79DF807010E90FFE70F982E
:102770000E99884207D1FFE72298006803210022C2
:1027800005F0FCFAFFE7FFE7FFE72298006805F095
:1027900031FA002840F04481FFE722980068219A2E
:1027A0001168D26805F06EFA2198C0680021C4F261
:1027B0007F01884240F03381FFE7229800680D9046
:1027C00021980068400330B9FFE721980068C0F302
:1027D00084600C9015E02198006890FAA0F03C907D
:1027E0003C9820B9FFE720208DF8F70005E03C98E1
:1027F000B0FA80F08DF8F700FFE79DF8F7000C9035
:10280000FFE70C98013000F01F0009287DD8FFE792
:1028100021980068400330B9FFE721980068C0F3B1
:1028200084600B9015E02198006890FAA0F03A902F
:102830003A9820B9FFE720208DF8EF0005E03A989C
:10284000B0FA80F08DF8EF00FFE79DF8EF000B90F5
:10285000FFE70B98013000F01F0080060A902198D6
:102860000068400330B9FFE721980068C0F3846036
:10287000099015E02198006890FAA0F038903898F7
:1028800020B9FFE720208DF8E70005E03898B0FA7E
:1028900080F08DF8E700FFE79DF8E7000990FFE77B
:1028A0000A980999013101F01F0201219140084362
:1028B000089021980068400330B9FFE7219800682C
:1028C000C0F38460079015E02198006890FAA0F0AA
:1028D0003690369820B9FFE720208DF8DF0005E01C
:1028E0003698B0FA80F08DF8DF00FFE79DF8DF0042
:1028F0000790FFE708980799013101F01F0101EBEC
:10290000410140EA0150069082E0219800684003AE
:1029100030B9FFE721980068C0F38460059015E0A6
:102920002198006890FAA0F03490349820B9FFE71D
:1029300020208DF8D70005E03498B0FA80F08DF8AB
:10294000D700FFE79DF8D7000590FFE70598013015
:1029500000F01F008006049021980068400330B901
:10296000FFE721980068C0F38460039015E0219888
:10297000006890FAA0F03290329820B9FFE720204A
:102980008DF8CF0005E03298B0FA80F08DF8CF00D6
:10299000FFE79DF8CF000390FFE70498039901310A
:1029A00001F01F0201219140084302902198006824
:1029B000400330B9FFE721980068C0F384600190BC
:1029C00015E02198006890FAA0F03090309820B976
:1029D000FFE720208DF8C70005E03098B0FA80F0BE
:1029E0008DF8C700FFE79DF8C7000190FFE7029947
:1029F0000198013000F01F0000EB40020020CFF6EC
:102A0000206000EB0250084340F000700690FFE7A2
:102A10000D980699219A926805F018F9FFE7FFE7EB
:102A20002198408848F20801084200F09180FFE7B1
:102A300040F20030C5F2000005F06AF81E902198BF
:102A400000680021CCF22131884208D0FFE72198AC
:102A500000681021C9F2C001884232D1FFE79DF819
:102A60007A00000600282CD4FFE722980068B0F115
:102A7000A04F25D1FFE71E9840F4000140F200303E
:102A8000C5F2000005F026F940F20C00C2F2000089
:102A90000068800942F66351C0F23E51A0FB01106C
:102AA000800900EB4001182000EB81001B90FFE73C
:102AB0001B9820B1FFE71B9801381B90F8E7FFE750
:102AC00045E0219800680021CCF25271884219D16A
:102AD000FFE79DF87B00C007A0B9FFE722980068D8
:102AE00040F20011C5F2000188420AD0FFE71E98AB
:102AF00040F0807140F20030C5F2000005F0EAF8C5
:102B0000FFE723E0219800680021CCF68431884259
:102B10001AD1FFE79DF87A004006002814D4FFE799
:102B20002298006840F20011C5F2000188420AD0E4
:102B3000FFE71E9840F4800140F20030C5F200002B
:102B400005F0C8F8FFE700E0FFE7FFE7FFE7FFE772
:102B5000FFE72299002081F85800FFE79DF88300E5
:102B60008DF88F00FFE79DF88F0042B080BD000018
:102B700080B58EB00D904FF090401021002201F0F2
:102B80009FFF0D980068B0F1A04F40F01A81FFE759
:102B900040F27260C2F20000007800287AD1FFE7AC
:102BA00040F27410C2F20000016801310160006857
:102BB00018B3FFE740F2C810C2F200000168D1F874
:102BC000803040F28012C2F2000211681944116094
:102BD0000168D1F8843040F28C12C2F20002116810
:102BE000194411600068D0F8882040F29811C2F2B0
:102BF0000001086810440860FFE740F27410C2F258
:102C000000000068B0F57A7F43D1FFE740F28013FF
:102C1000C2F2000393ED000AB8EE400A9FEDF41AE9
:102C200080EE010A40F27C10C2F2000080ED000A42
:102C300040F28C12C2F2000292ED000AB8EE400A95
:102C400080EE010A40F28810C2F2000080ED000A16
:102C500040F29811C2F2000191ED000AB8EE400A6C
:102C600080EE010A40F29410C2F2000080ED000AEA
:102C700040F2726CC2F2000C01208CF800000020BF
:102C800018601060086040F27411C2F20001086020
:102C9000FFE795E040F2C811C2F200010868D0F8E1
:102CA000802040F27810C2F20000026090ED000A2D
:102CB000B8EE400A40F27C10C2F2000090ED001A1B
:102CC00030EE410A9FEDCB3A80EE030A9FEDCA2A0F
:102CD00020EE020AB3EE041A20EE010A40F2185068
:102CE000C2F2000080ED000A0A68D2F8843040F297
:102CF0008412C2F20002136092ED000AB8EE400A9C
:102D000040F28812C2F2000292ED004A30EE440A0C
:102D100080EE030A20EE020A20EE010A80ED010A8D
:102D20000968D1F8882040F29011C2F200010A60CF
:102D300091ED000AB8EE400A40F29411C2F200018F
:102D400091ED004A30EE440A80EE030A20EE020ABA
:102D500020EE010A80ED020A90ED000A20EE000A42
:102D60009FEDA61AB4EE410AF1EE10FA20DCFFE75F
:102D700040F21850C2F2000090ED010A20EE000A65
:102D80009FED9E1AB4EE410AF1EE10FA10DCFFE757
:102D900040F21850C2F2000090ED020A20EE000A44
:102DA0009FED961AB4EE410AF1EE10FA07DDFFE747
:102DB00040F27061C2F2000100200870FFE7FFE7F7
:102DC000FFE740F2A810C2F200000990FFF7FEF8FA
:102DD00040F22450C2F200000290016840F22C50F0
:102DE000C2F20000C1600121009104F0E9FF0099E6
:102DF0000298426840F24450C2F20000C26004F0FF
:102E0000DFFF40F27460C2F200000B9040F280617C
:102E1000C2F20001019107F0ADFB029940F2185097
:102E2000C2F20000039007F0A5FB019A0299099BEA
:102E300093ED021A93ED070AB1EE0C2A20EE020A76
:102E4000B8EEC11A20EE010A40F2BC50C2F20000F6
:102E500080ED0C0A9B69C362136843625268826208
:102E60000A68C2614968016205F0EAFC099940F20A
:102E70006C60C2F20000026840F24060C2F20000E2
:102E800005900261C969C16040F27061C2F200013F
:102E90000C9109789FED5A0A8DED070A05F0AAFBFF
:102EA0000398099991ED060A40F25C51C2F20001C3
:102EB000069107F0B1FB069A9DED070A0C9940F2C6
:102EC0006450C2F200000490002303611268C260E3
:102ED000097805F08FFB049B0598069A9DED070A7B
:102EE0000C991B6A40F2886CC2F2000CCDF828C025
:102EF000CCF80030036A40F29050C2F20000089013
:102F000003615268C260097805F074FB089B099A56
:102F10000A980B991B6A436092ED060A07F000FCC1
:102F20000B9840F29C11C2F20001B2EE080A07F0C1
:102F30006BFC0C980078012839D1FFE740F29C1116
:102F4000C2F2000191ED000A42F62C40C4F20100E9
:102F500090ED001AB8EE411A20EE010ABCEEC00A4C
:102F600042F63442C4F2010282ED000A91ED010AF8
:102F700090ED001AB8EE411A20EE010ABCEEC00A2C
:102F800042F63842C4F2010282ED000A91ED020AD3
:102F900090ED001AB8EE411A20EE010ABCEEC00A0C
:102FA00042F63C40C4F2010080ED000A17E042F610
:102FB0002C41C4F20101086842F63442C4F2010215
:102FC000002010600A6842F63842C4F20102106024
:102FD000096842F63C41C4F201010860FFE74FF086
:102FE00090401021012201F06BFD0EB080BD00BFAA
:102FF00000007A4400008045333353400000C8434A
:1030000017B7D13881B0009001B0704780B588B053
:10301000069040F20030C5F2000004F091FD0390EC
:103020000698006804F0B4FD20B1FFE702208DF897
:103030001F00E5E006980068C06800F000400490BA
:1030400006980068C06C10F4C07F0CD1FFE70498AC
:1030500048B9FFE70699C86D40F02000C865012017
:103060008DF81F00CCE0FFE7069890F85800012883
:1030700004D1FFE702208DF81F00C1E0069901206E
:1030800081F85800FFE7FFE70698FEF7ABFE8DF8E2
:1030900017009DF81700002840F0A680FFE706986B
:1030A000C06DC005002806D5FFE70699086E20F020
:1030B0000800086603E0069900200866FFE7069806
:1030C000C06D40F4805042F2010188430699C86502
:1030D0000698006840F20011C5F20001884204D150
:1030E000FFE74FF0A040029003E0069800680290CE
:1030F000FFE7029806990968884203D0FFE7039822
:1031000030B9FFE70699C86D20F48010C865FFE765
:103110000698016860200860FFE70699002081F8A2
:103120005800FFE706980068C0688002002807D5AD
:10313000FFE706980168486840F480604860FFE750
:103140000698806908280DD1FFE70698016848684D
:1031500020F02000486006980168486840F0400070
:1031600048600CE006980168486820F0400048601C
:1031700006980168486840F020004860FFE706981C
:10318000006840F20011C5F20001884204D1FFE757
:103190004FF0A040019003E0069800680190FFE71F
:1031A00001980699096888420BD0FFE7039840B15F
:1031B000FFE70398062804D0FFE7039807280CD1FF
:1031C000FFE70698006804F0D3FC28B9FFE70698EB
:1031D000006804F0F1FCFFE705E00699C86D40F4D3
:1031E0008010C865FFE706E0FFE70699002081F838
:1031F0005800FFE7FFE79DF817008DF81F00FFE775
:103200009DF81F0008B080BD81B0009001B07047EC
:1032100081B0009001B0704780B5A4B02290219198
:1032200000208DF883002198006808B1FFE7FFE7D0
:10323000FFE7229890F85800012804D1FFE7022008
:103240008DF88F009FE02299012081F85800FFE758
:10325000FFE700201B901C9022980068B0F1A04F5F
:1032600006D1FFE740F20010C5F20000049002E032
:1032700000200490FFE7049878B9FFE72299C86D11
:1032800040F02000C865FFE72299002081F858002F
:10329000FFE701208DF88F0075E0049804F0C2FC70
:1032A00003902298006804F0BDFC002857D1FFE786
:1032B0000398002853D1FFE740F20030C5F2000028
:1032C0001F902198006860B3FFE71F98806820F482
:1032D000604021994968229A92F8382041EA4231A7
:1032E00008431F9988604FF0A04004F083FC0290CF
:1032F00040F20010C5F2000004F07CFC0146029888
:10330000084368B9FFE71F98806840F61F7188433B
:10331000219A11689268114308431F998860FFE75A
:103320001CE01F99886820F4604088604FF0A0403E
:1033300004F060FC019040F20010C5F2000004F0BF
:1033400059FC01460198084338B9FFE71F9988687E
:1033500040F61F7290438860FFE7FFE708E022997C
:10336000C86D40F02000C86501208DF88300FFE79C
:10337000FFE72299002081F85800FFE79DF88300BD
:103380008DF88F00FFE79DF88F0024B080BD00000E
:1033900081B0009001B0704781B0009001B07047DB
:1033A00080B58EB00D9000200C900D9800680068DC
:1033B0000B900D98006840680A9040F20030C5F20A
:1033C000000004F0B5FB05909DF82C008007002854
:1033D0001AD5FFE79DF828008007002814D5FFE7DD
:1033E0000D98C06DC006002806D4FFE70D99C86D82
:1033F00040F40060C865FFE70D98FEF7D5FE0D9814
:10340000016802200860FFE79DF82C0040070028B3
:1034100006D5FFE70A9800F0040004280ED0FFE765
:103420009DF82C000007002840F19B80FFE79DF8E5
:1034300028000007002840F19480FFE70D98C06D38
:10344000C006002806D4FFE70D99C86D40F400704F
:10345000C865FFE70D98006804F0ECFB002878D001
:10346000FFE70D98006840F20011C5F200018842A4
:1034700004D1FFE74FF0A040049003E00D980068EE
:103480000490FFE704980D99096888420BD0FFE784
:10349000059840B1FFE70598052804D0FFE7059897
:1034A000092805D1FFE70D980068C068079016E06D
:1034B0000D98006840F20011C5F20001884204D165
:1034C000FFE74FF0A040039003E00D9800680390E1
:1034D000FFE7039806900698C0680790FFE70798F3
:1034E00000F40050B0F5005F32D0FFE70D9800689F
:1034F0000068000700282AD5FFE70D98006804F04F
:1035000089FBC0B9FFE70D980168486820F00C00FE
:1035100048600D99C86D20F48070C8650D98C06D25
:10352000C004002806D4FFE70D99C86D40F00100E3
:10353000C865FFE70AE00D99C86D40F01000C86546
:103540000D99086E40F001000866FFE7FFE7FFE70E
:10355000FFE70D98FFF71CFF0D9801680C2008602D
:10356000FFE79DF82C008006002806D5FFE70A98A3
:1035700000F0200020280ED0FFE79DF82C00400628
:10358000002840F1B280FFE79DF82800400600289F
:1035900040F1AB80FFE70D98C06DC006002806D44F
:1035A000FFE70D99C86D40F40050C865FFE70D981E
:1035B000006804F0F5FA09900D98006804F03AFBF1
:1035C00008900D98006840F20011C5F20001884291
:1035D00004D1FFE74FF0A040029003E00D9800688F
:1035E0000290FFE702980D99096888420BD0FFE727
:1035F000059840B1FFE70598062804D0FFE7059835
:10360000072805D1FFE70D980068C068079016E00D
:103610000D98006840F20011C5F20001884204D103
:10362000FFE74FF0A040019003E00D980068019083
:10363000FFE7019806900698C0680790FFE7099891
:1036400000284AD0FFE79DF81F00800700280AD510
:10365000FFE7089800283FD0FFE79DF81D0080068F
:10366000002839D4FFE70D9800680068400600285C
:1036700031D5FFE79DF81E00800600282AD4FFE719
:103680000D98006804F07CFAC0B9FFE70D98016856
:10369000486820F0600048600D99C86D20F48050A3
:1036A000C8650D98C06DC005002806D4FFE70D99C8
:1036B000C86D40F00100C865FFE70AE00D99C86DCC
:1036C00040F01000C8650D99086E40F001000866D2
:1036D000FFE7FFE7FFE7FFE7FFE70D98FFF748FA8F
:1036E0000D98016860200860FFE79DF82C00000637
:1036F000002813D5FFE79DF82800000600280DD507
:10370000FFE70D99C86D40F48030C8650D9800F052
:1037100029FA0D98016880200860FFE79DF82D00C8
:10372000C00798B1FFE79DF82900C00770B1FFE717
:103730000D99C86D40F40030C8650D98FFF764FD21
:103740000D9801684FF480700860FFE79DF82D0028
:103750008007002814D5FFE79DF82900800700287E
:103760000ED5FFE70D99C86D40F48020C8650D980F
:10377000FFF74EFD0D9801684FF400700860FFE7F9
:103780009DF82C00C00600283ED5FFE79DF82800D4
:10379000C006002838D5FFE70D98C06B18B9FFE7C1
:1037A00001200C9019E0059860B1FFE740F200306D
:1037B000C5F2000004F0B4F918B1FFE701200C9045
:1037C000FFE709E00D980068C068C00718B1FFE77F
:1037D00001200C90FFE7FFE7FFE70C9801280ED1CE
:1037E000FFE70D99C86D40F48060C8650D99086EBB
:1037F00040F0020008660D98FFF7CEFDFFE70D9838
:10380000016810200860FFE79DF82D0040070028A0
:1038100019D5FFE79DF829004007002813D5FFE7D9
:103820000D99C86D40F48040C8650D99086E40F050
:10383000080008660D9801684FF4806008600D98D4
:10384000FFF7E0FBFFE70EB080BD000080B588B059
:10385000069000208DF817000190069820B9FFE728
:1038600001208DF81F0079E10698406940B1FFE71B
:10387000069890F82400012801D1FFE7FFE7FFE751
:103880000698C06D50B9FFE7069800F06FF90699E9
:1038900000200866069981F85800FFE7069800683E
:1038A00004F098F928B1FFE70698006804F0FEF8E4
:1038B000FFE70698006804F0A5F9F0B9FFE706985D
:1038C000006804F00DF940F20C00C2F2000000683C
:1038D000800942F66351C0F23E51A0FB01108109FC
:1038E000022000EB41000190FFE7019820B1FFE7C3
:1038F000019801380190F8E7FFE70698006804F0A6
:1039000081F970B9FFE70699C86D40F01000C865ED
:103910000699086E40F00100086601208DF8170036
:10392000FFE70698006804F075F903900698C06DEB
:10393000C006002800F10481FFE70398002840F04A
:10394000FF80FFE70698C06D40F0020020F4807011
:103950000699C8650698006804F044F9D0B9FFE7F5
:103960004FF0A04004F03EF9009040F20010C5F284
:10397000000004F037F901460098084348B9FFE712
:103980000698416840F20030C5F2000004F094F956
:10399000FFE7FFE706994A7FC86B40EA42308A6832
:1039A000CB681843104391F8241040EA014004907A
:1039B000069890F8240001280BD1FFE70698816A49
:1039C0000020CFF6FE7000EB4141049808430490BC
:1039D000FFE70698C06A50B1FFE70699C86A096B0D
:1039E00000F478700143049808430490FFE70698B8
:1039F0000068C06844F20701CFF6F07108400499EE
:103A0000084306990968C86006980068006920F0B4
:103A10004060069A1168526B10430861069800686E
:103A200004F0AEF802900398002868D1FFE70298EE
:103A3000002864D1FFE70699087F91F838108003C9
:103A400040EA4100049006980068C06844F2020110
:103A500088430499084306990968C8600698006974
:103A6000A0B1FFE706980168086940F4803008615A
:103A700006980068D0F8C00043F6FF718843069AA4
:103A8000116812691043C1F8C00011E0069801687E
:103A9000086920F48030086106980068D0F8C000FA
:103AA00043F6FF71884306990968C1F8C000FFE733
:103AB000069890F84000012819D1FFE706980068A1
:103AC000006940F2FD7120EA0102069B1968586CFA
:103AD000D3F848E0D3F84CC040EA0E0040EA0C00AE
:103AE0001B6D1843104340F00100086106E0069882
:103AF0000168086920F001000861FFE7FFE7069808
:103B0000406901280CD1FFE706980068006B20F09F
:103B10000F00069A1168126A013A1043086306E022
:103B200006980168086B20F00F000863FFE706980D
:103B3000C06D40F0010020F002000699C86508E061
:103B40000699C86D40F01000C86501208DF8170077
:103B5000FFE79DF817008DF81F00FFE79DF81F0095
:103B600008B080BD81B0009001B0704780B59CB0B6
:103B70001B9000201A90199018901790169005A885
:103B80004421FCF77BFC1B980068B0F1A04F45D1A5
:103B9000FFE74FF4004005904FF00050149005A847
:103BA00001F046F918B1FFE7FEF79EFAFFE7FFE7DD
:103BB00041F24C00C4F20200016841F4005101607E
:103BC000006800F4005004900498FFE7FFE741F21A
:103BD0004C00C4F20200016841F00201016000687B
:103BE00000F0020003900398FFE741F603001690EF
:103BF0000320179000200190189040F20040C4F676
:103C0000000016A900F090FD019A122002901146C2
:103C100001F00AF8029800F0FDFFFFE71CB080BD3C
:103C200082B0019000208DF80300019890F82500E3
:103C3000022807D0FFE701990420C86301208DF80E
:103C400003002DE001980168086820F00E0008606C
:103C50000198816C086820F4807008600198016800
:103C6000086820F0010008600198016C406C00F0C9
:103C70001F020120904048600198C16C006D4860AF
:103C80000198406D58B1FFE70198416D086820F434
:103C9000807008600198816DC06D4860FFE7FFE7A4
:103CA0000199012081F82500FFE70199002081F8A2
:103CB0002400FFE79DF8030002B0704780B582B092
:103CC000019000208DF80300019890F8250002284B
:103CD00011D0FFE701990420C8630199012081F800
:103CE0002500FFE70199002081F82400FFE701206B
:103CF0008DF803003FE001980168086820F00E008D
:103D0000086001980168086820F0010008600198C7
:103D1000816C086820F4807008600198016C406C28
:103D200000F01F020120904048600198C16C006DB6
:103D300048600198406D58B1FFE70198416D0868EF
:103D400020F4807008600198816DC06D4860FFE7C5
:103D50000199012081F82500FFE70199002081F8F1
:103D60002400FFE70198806B20B1FFE70198816B89
:103D70008847FFE7FFE79DF8030002B080BD000021
:103D800080B584B003900398006C0068029003989B
:103D900000680068019002980399496C01F01F01C6
:103DA000C8404007002825D5FFE79DF804004007DC
:103DB00000281FD5FFE703980068006880060028E8
:103DC00007D4FFE703980168086820F00400086042
:103DD000FFE70398016C406C00F01F020420904044
:103DE00048600398006B20B1FFE70398016B884798
:103DF000FFE76EE002980399496C01F01F01C8408B
:103E0000800700282FD5FFE79DF8040080070028D1
:103E100029D5FFE7039800680068800600280BD4C6
:103E2000FFE703980168086820F00A00086003991A
:103E3000012081F82500FFE70398016C406C00F039
:103E40001F02022090404860FFE70399002081F89C
:103E50002400FFE70398C06A20B1FFE70398C16A16
:103E60008847FFE734E002980399496C01F01F018D
:103E7000C8400007002829D5FFE79DF80400000787
:103E8000002823D5FFE703980168086820F00E009A
:103E900008600398026C406C00F01F01012000FADA
:103EA00001F151600399C863039981F82500FFE788
:103EB0000399002081F82400FFE70398406B20B1AC
:103EC000FFE70398416B8847FFE700E0FFE7FFE764
:103ED000FFE704B080BD000080B584B00290029876
:103EE00020B9FFE701208DF80F009CE002980068E0
:103EF00040F20741C4F20201884218D8FFE7029954
:103F000008684FF6F872CBF6FD7210444CF6CD42BD
:103F1000CCF6CC42A0FB02026FF0030000EA920054
:103F2000486402990020C4F20200086418E0029973
:103F300008684FF6F832CBF6FD7210444CF6CD42CD
:103F4000CCF6CC42A0FB02026FF0030000EA920024
:103F50004864029940F20040C4F202000864FFE79E
:103F60000299022081F825000298006800680190FB
:103F7000019847F6F0718843019002998868D1F85A
:103F80000CC00B694A6940EA0C00184310438A6967
:103F90001043CA691043096A01430198084301901C
:103FA00001980299096808600298FDF7B5FF029828
:103FB0008068B0F5804F04D1FFE702990020486087
:103FC000FFE702990879896C08600298C16C006D5E
:103FD00048600298406888B1FFE70298406804286A
:103FE0000CD8FFE70298FDF7D1FF0298416D002041
:103FF00008600298816DC06D486007E0029900205A
:104000004865029988650299C865FFE70299002012
:10401000C863029A012182F82510029981F82400D0
:104020008DF80F00FFE79DF80F0004B080BD000081
:1040300080B584B0039000F059FD02900398019080
:104040000198013048B1FFE740F21000C2F20000D1
:104050000168019808440190FFE7FFE700F046FD82
:104060000299401A0199884201D2FFE7F6E704B0AD
:1040700080BD000081B0009001B0704782B0019017
:10408000009102B07047000081B0009001B070470D
:1040900080B58AB0099009980068006D00F4E0507E
:1040A000089009980068416D0898084008900998A0
:1040B0000068006D00F00700079009980068416DE6
:1040C00007980840079009980068006D00F03800D4
:1040D000069009980068416D069808400690099876
:1040E0000068006D00F47100059009980068416D4A
:1040F00005980840059009980068006D00F460205C
:10410000049009980068416D04980840049009984B
:104110000068406D019009980068006D00909DF85E
:10412000000000F040010020B0EB911F12D0FFE72B
:104130009DF8040000F040010020B0EB911F08D072
:10414000FFE709980168402008650998FFF79CFF80
:10415000FFE7FFE79DF80100C007E0B1FFE79DF82A
:104160000500C007B0B1FFE709980068D0F8D80093
:10417000029009980068D0F8E01002980840029078
:10418000099801684FF4807008650998029900F059
:10419000B5FAFFE7FFE7089848B1FFE708980999E3
:1041A000096808650998089900F0B4FAFFE70798CC
:1041B00048B1FFE7079809990968086509980799C0
:1041C00000F088FAFFE7069848B1FFE706980999DA
:1041D000096808650998069900F082FAFFE79DF8DA
:1041E000010000F002010020B0EB510F13D0FFE7F7
:1041F0009DF8050000F002010020B0EB510F09D03E
:10420000FFE7099801684FF400700865099800F00D
:1042100087FAFFE7FFE79DF800100020B0EBD11F01
:104220001DD0FFE79DF804100020B0EBD11F15D082
:10423000FFE709980068D0F8D40003900998006857
:10424000D0F8DC100398084003900998016880209A
:1042500008650998039900F057FAFFE7FFE79DF812
:10426000010000F020010020B0EB511F13D0FFE748
:104270009DF8050000F020010020B0EB511F09D08F
:10428000FFE7099801684FF400500865099800F0AD
:1042900031FAFFE7FFE79DF801100020B0EBD11FD6
:1042A00011D0FFE79DF805100020B0EBD11F09D019
:1042B000FFE7099801684FF400400865099800F08D
:1042C00015FAFFE7FFE79DF8010000F0400100202C
:1042D000B0EB911F15D0FFE79DF8050000F04001FD
:1042E0000020B0EB911F0BD0FFE7099801684FF455
:1042F000804008650999086E40F080000866FFE775
:10430000FFE7049848B1FFE7049809990968086530
:1043100009980499FFF7B2FEFFE7059850B1FFE74F
:104320000598099909680865059A0999086E104366
:104330000866FFE70998006E20B1FFE70998FFF7CC
:1043400099FEFFE70AB080BD80B584B00290029864
:1043500020B9FFE701208DF80F0057E102980068AF
:1043600046F20041C4F20001884201D1FFE7FFE7B5
:1043700002988068B0F5407F01D1FFE7FFE702981F
:1043800090F85C0040B9FFE70299002081F85D00D9
:10439000029800F03FF9FFE702980168886920F071
:1043A0001000886100F0A2FB0190FFE7029800680E
:1043B00080690007002815D5FFE700F097FB0199F9
:1043C000401A0B280DD3FFE70299086E40F0010058
:1043D00008660299032081F85C0001208DF80F0027
:1043E00014E1E3E702980168886940F00100886100
:1043F00000F07CFB0190FFE7029800688069C0072D
:10440000A8B9FFE700F072FB0199401A0B280DD301
:10441000FFE70299086E40F0010008660299032048
:1044200081F85C0001208DF80F00EFE0E4E70298CE
:104430000168886940F0020088610298006846F2CD
:104440000041C4F20001884208D1FFE702984068A9
:1044500046F20051C4F200010860FFE70298007CB8
:10446000012807D1FFE702980168886920F0400021
:10447000886106E002980168886940F04000886120
:10448000FFE70298407C012807D1FFE70298016806
:10449000886940F48040886106E002980168886974
:1044A00020F480408861FFE70298807C012807D1D2
:1044B000FFE702980168886920F48050886106E06F
:1044C00002980168886940F480508861FFE702988B
:1044D0000068806920F44070029A11689268104365
:1044E000886102980168886920F0A40088610298B8
:1044F0000168086920F0100008610298C06801286E
:1045000007D1FFE702980168886940F004008861DC
:104510002BE00298C06830B3FFE70298C068022819
:1045200019D0FFE702980168886940F0800088612F
:1045300002980168086940F0100008610298C0689C
:10454000032807D1FFE702980168886940F020003E
:104550008861FFE706E002980168886940F0200062
:104560008861FFE700E0FFE7FFE7029A11685369FF
:104570009069D2F81CE0A0F1010C6FF0FF0000EB95
:104580000E2040EA4C60126A013A10430022CFF636
:10459000FF7202EB03421043C86102988068B0F5D5
:1045A000407F1CD1FFE7029A1168536A906AD2F8E3
:1045B0002CE001386FF0FF0C0CEB0E2C40EA0C00E5
:1045C000D2F830C06FF00F0202EB0C121043002241
:1045D000CFF6FF7202EB03421043C860FFE7029878
:1045E0000168C26BD1F8C0001043C1F8C000029846
:1045F000FDF78AFD02990020886502990866029AF3
:10460000012182F85C108DF80F00FFE79DF80F0084
:1046100004B080BD80B59CB01B9000201A9019900A
:1046200018901790169005A84421FBF727FF1B98B8
:10463000006846F20041C4F20001884248D1FFE719
:104640004FF4805005904FF00070119005A800F0D5
:10465000EFFB18B1FFE7FDF747FDFFE7FFE741F28A
:104660005800C4F20200016841F000710160006866
:1046700000F0007004900498FFE7FFE741F24C005F
:10468000C4F20200016841F002010160006800F01C
:10469000020003900398FFE74FF440701690022049
:1046A0001790002001901890199009201A9040F25C
:1046B0000040C4F6000016A900F036F8019A152053
:1046C0000290012100F0B0FA029800F0A3FAFFE78F
:1046D0001CB080BD82B00190009102B07047000014
:1046E00082B00190009102B07047000081B000904C
:1046F00001B0704781B0009001B0704782B0019066
:10470000009102B07047000082B00190009102B0A9
:104710007047000082B00190009102B07047000025
:1047200081B0009001B070478BB00A9009910020D1
:104730000890FFE7099800680899C840002800F031
:10474000A581FFE709980068089A01219140084077
:1047500007900798002800F09581FFE709984068C6
:1047600000F00300012807D0FFE70998406800F037
:10477000030002282FD1FFE70A9880680690089866
:104780004100032000FA01F1069888430690099839
:10479000C0680899490000FA01F10698084306909C
:1047A00006980A9988600A9840680690089901203E
:1047B00000FA01F106988843069009984068C0F312
:1047C0000010089900FA01F106980843069006982F
:1047D0000A994860FFE70998406800F00300032841
:1047E00018D0FFE70A98C068069008984100032097
:1047F00000FA01F1069888430690099880680899A4
:10480000490000FA01F106980843069006980A99B3
:10481000C860FFE70998406800F00300022826D12D
:10482000FFE70A9808996FF0030202EA5101084471
:10483000006A0690089800F0070081000F2000FA37
:1048400001F106988843069009980069089901F0DB
:104850000701890000FA01F10698084306900698BE
:104860000A99089B02EA530211440862FFE70A987A
:104870000068069008984100032000FA01F10698AC
:10488000884306900998406800F0030008994900A1
:1048900000FA01F106980843069006980A99086004
:1048A000099880798007002800F0EB80FFE7FFE798
:1048B00041F26000C4F20200016841F001010160B0
:1048C000006800F0010005900598FFE7089820F0C7
:1048D00003000821C4F2010140580690089800F036
:1048E000030081000F2000FA01F10698884306902A
:1048F0000A98B0F1904F03D1FFE70020049042E006
:104900000A9840F20041C4F60001884203D1FFE753
:104910000120039034E00A9840F60001C4F600013B
:10492000884203D1FFE70220029026E00A9840F671
:104930000041C4F60001884203D1FFE70320019043
:1049400018E00A9841F20001C4F60001884203D140
:10495000FFE7042000900AE00A9941F20042C4F601
:1049600000020620914208BF05200090FFE7009852
:104970000190FFE701980290FFE702980390FFE79C
:1049800003980490FFE70498089901F00301890057
:1049900000FA01F10698084306900698089921F05C
:1049A00003010822C4F20102885040F20840C4F218
:1049B00001000068069007990698884306900998B8
:1049C0008079C006002805D5FFE7079906980843B7
:1049D0000690FFE7069840F20841C4F20101086022
:1049E00040F20C40C4F20100006806900799069856
:1049F00088430690099880798006002805D5FFE74E
:104A00000799069808430690FFE7069840F20C4184
:104A1000C4F20101086040F20440C4F201000068E1
:104A20000690079906988843069009988079800730
:104A3000002805D5FFE70799069808430690FFE789
:104A4000069840F20441C4F20101086040F20040BF
:104A5000C4F2010000680690079906988843069002
:104A600009988079C00728B1FFE70799069808439D
:104A70000690FFE7069840F20041C4F20101086089
:104A8000FFE7FFE708980130089053E60BB0704746
:104A900082B00190ADF8021001980069BDF80210D3
:104AA000084204D0FFE701208DF8010003E0002058
:104AB0008DF80100FFE79DF8010002B0704700008B
:104AC00082B00190ADF802108DF801209DF8010030
:104AD00028B1FFE7BDF802000199886104E0BDF844
:104AE000020001998862FFE702B0704740F29060CF
:104AF000C2F200000068704740F21000C2F20000ED
:104B0000026840F29061C2F2000108681044086037
:104B10007047000080B582B000208DF807000320A8
:104B200000F09AF80F2000F00DF820B1FFE7012007
:104B30008DF8070002E000F049F8FFE79DF8070054
:104B400002B080BD80B582B0019000208DF80300D6
:104B500040F21000C2F20000006878B3FFE740F2B4
:104B60000C00C2F20000006840F21001C2F2000125
:104B70000A684FF47A71B1FBF2F1B0FBF1F001F089
:104B8000A1F9B0B9FFE701980F280DD8FFE7019907
:104B90004FF0FF30002200F047F8019840F2140176
:104BA000C2F20001086003E001208DF80300FFE776
:104BB00003E001208DF80300FFE703E001208DF8FA
:104BC0000300FFE79DF8030002B080BD80B582B00E
:104BD000FFE741F26000C4F20200016841F0010108
:104BE0000160006800F0010001900198FFE7FFE715
:104BF00041F25800C4F20200016841F080510160A6
:104C0000006800F0805000900098FFE700F006F97F
:104C100002B080BD80B582B08DF807009DF9070015
:104C200005F048FC02B080BD80B586B08DF8170055
:104C30000491039205F056FC02909DF91700019033
:104C400002980499039A03F09FFC0146019805F02D
:104C500051FC06B080BD000080B582B00190019883
:104C600005F06AFC02B080BD85B00390039800286F
:104C70005ED1FFE747F20000C4F20000006800F4D4
:104C8000C060B0F5806F49D1FFE747F28001C4F200
:104C90000001086820F48070086047F20002C4F246
:104CA00000021168012060F34A21116040F20C01FA
:104CB000C2F200010968322251434DF68362C4F208
:104CC0001B32A1FB022100EB91400290FFE747F26B
:104CD0001400C4F200000168002049050029019079
:104CE00006D5FFE70298002818BF01200190FFE7D2
:104CF0000198C00720B1FFE7029801380290E6E76B
:104D000047F21400C4F2000000684005002804D5F2
:104D1000FFE703208DF813007CE008E047F28001F4
:104D2000C4F20001086820F480700860FFE76DE0BD
:104D30000398B0F5007F5ED1FFE747F20000C4F2B0
:104D40000000006800F4C060B0F5806F49D1FFE753
:104D500047F28001C4F20001086840F480700860E6
:104D600047F20002C4F200021168012060F34A21F8
:104D7000116040F20C01C2F2000109683222514375
:104D80004DF68362C4F21B32A1FB022100EB91407D
:104D90000290FFE747F21400C4F20000016800200F
:104DA00049050029009006D5FFE70298002818BFA2
:104DB00001200090FFE70098C00720B1FFE70298AC
:104DC00001380290E6E747F21400C4F200000068E0
:104DD0004005002804D5FFE703208DF8130019E0F3
:104DE00008E047F28001C4F20001086840F48070D6
:104DF0000860FFE709E047F20001C4F2000108681B
:104E0000022262F34A200860FFE7FFE700208DF8E6
:104E10001300FFE79DF8130005B0704747F2080143
:104E2000C4F20001086840F4804008607047000048
:104E300080B586B0059000208DF80B008DF80A0033
:104E4000059880780007002840F1B580FFE7002032
:104E50008DF8090041F25800C4F202000068C00059
:104E6000002813D4FFE7FFE741F25800C4F2020024
:104E7000016841F080510160006800F080500190AD
:104E80000198FFE701208DF80900FFE747F20001D4
:104E9000C4F20001086840F480700860FFF726FE45
:104EA0000390FFE747F20000C4F200000068C0056D
:104EB00000280CD4FFE7FFF719FE0399401A0328D6
:104EC00004D3FFE703208DF80B0000E0EAE79DF82C
:104ED0000B0000285BD1FFE741F29000C4F2020012
:104EE000006800F4407004900498C8B1FFE704988B
:104EF0000599096C884213D0FFE741F29001C4F292
:104F00000201086820F440700490086840F4803082
:104F10000860086820F48030086004980860FFE7A3
:104F20009DF81000C007E0B1FFE7FFF7DFFD039039
:104F3000FFE741F29000C4F20200006880070028F9
:104F40000ED4FFE7FFF7D2FD0399401A41F28931F1
:104F5000884204D3FFE703208DF80B0000E0E8E768
:104F6000FFE79DF80B0060B9FFE741F29001C4F242
:104F70000201086820F44070059A126C1043086022
:104F800004E09DF80B008DF80A00FFE704E09DF8AF
:104F90000B008DF80A00FFE79DF80900012809D1F0
:104FA000FFE741F25801C4F20201086820F0805086
:104FB0000860FFE7FFE705980078C00760B1FFE7EA
:104FC00041F28801C4F20201086820F00300059A4A
:104FD000526810430860FFE70598007880070028B2
:104FE0000CD5FFE741F28801C4F20201086820F005
:104FF0000C00059A926810430860FFE70598007856
:10500000400700280CD5FFE741F28801C4F20201F5
:10501000086820F03000059AD26810430860FFE766
:1050200005980078000700280CD5FFE741F28801B9
:10503000C4F20201086820F0C000059A126910430A
:105040000860FFE705980078800600280CD5FFE788
:1050500041F28801C4F20201086820F44060059A18
:10506000526910430860FFE7059800784006002861
:105070000CD5FFE741F28801C4F20201086820F470
:105080004050059A926910430860FFE70598007840
:10509000000600280CD5FFE741F28801C4F20201A6
:1050A000086820F44040059AD26910430860FFE781
:1050B00005984078C00760B1FFE741F28801C4F26B
:1050C0000201086820F44030059A126A1043086013
:1050D000FFE705984078800700280CD5FFE741F2EC
:1050E0008801C4F20201086820F44020059A526A3F
:1050F00010430860FFE705984078400700281BD55B
:10510000FFE741F28801C4F20201086820F4401070
:10511000059A926A104308600598806AB0F5801F6E
:1051200009D1FFE741F20C01C4F20201086840F422
:1051300080100860FFE7FFE7059840780007002827
:105140001BD5FFE741F28801C4F20201086820F490
:105150004000059AD26A104308600598C06AB0F50D
:10516000800F09D1FFE741F20C01C4F20201086887
:1051700040F480100860FFE7FFE705984078C0061C
:1051800000281BD5FFE741F28801C4F2020108683C
:1051900020F04070059A126B104308600598006B70
:1051A000B0F1807F09D1FFE741F20C01C4F20201A6
:1051B000086840F480100860FFE7FFE70598407832
:1051C000800600281BD5FFE741F28801C4F20201E6
:1051D000086820F04060059A526B104308600598FB
:1051E000406BB0F1006F09D1FFE741F20C01C4F24E
:1051F0000201086840F480100860FFE7FFE70598A7
:105200004078400600281BD5FFE741F28801C4F230
:105210000201086820F04060059A926B1043086014
:105220000598806BB0F1006F09D1FFE741F20C01E6
:10523000C4F20201086840F480100860FFE7FFE74D
:1052400005984078000600281BD5FFE741F2880149
:10525000C4F20201086820F04050059AD26B104356
:1052600008600598C06BB0F1805F09D1FFE741F29B
:105270000C01C4F20201086840F480300860FFE7C6
:10528000FFE79DF80A0006B080BD000080B586B03B
:105290000490039100200090049820B9FFE70120BA
:1052A0008DF8170081E1039842F20001C4F2020177
:1052B000096801F00F01884216D9FFE742F20000A9
:1052C000C4F20200016821F00F01039A114301604A
:1052D000006800F00F000399884204D0FFE7012026
:1052E0008DF8170061E1FFE704980078C0070028F7
:1052F00000F0A380FFE704984068032839D1FFE756
:1053000041F20000C4F2020000688001002804D4C9
:10531000FFE701208DF8170047E103F005FA01903F
:1053200001984BF20141C0F2C441884220D3FFE70B
:1053300041F20800C4F20200006810F0F00F0AD039
:10534000FFE7049800788007002810D5FFE704984D
:10535000806860B9FFE741F20801C4F20201086801
:10536000082262F30710086080200090FFE7FFE743
:1053700038E00498406802280ED1FFE741F20000AF
:10538000C4F2020000688003002804D4FFE7012073
:105390008DF8170009E10DE041F20000C4F20200AF
:1053A00000684005002804D4FFE701208DF81700AD
:1053B000FBE0FFE700F02CF9019001984BF201416E
:1053C000C0F2C44188420CD3FFE741F20801C4F2A5
:1053D00002010868082262F307100860802000902C
:1053E000FFE7FFE741F20801C4F20201086820F07C
:1053F0000300049A526810430860FFF777FB02909D
:10540000FFE741F20800C4F20200006800F00C005F
:1054100004994968B0EB810F0ED0FFE7FFF766FBF8
:105420000299401A41F28931884204D3FFE70320F0
:105430008DF81700B9E0E4E7FFE7049800788007EB
:1054400000282CD5FFE7049800784007002809D5EC
:10545000FFE741F20801C4F20201086840F4E0608D
:105460000860FFE704980078000700280BD5FFE7E5
:1054700041F20801C4F20201086840F4E06020F43F
:1054800060500860FFE741F20801C4F202010868B9
:1054900020F0F000049A9268104308600DE0009834
:1054A000802809D1FFE741F20801C4F2020108682F
:1054B00020F0F0000860FFE7FFE7039842F20001E8
:1054C000C4F20201096801F00F01884228D2FFE707
:1054D00042F20001C4F20201086820F00F00039AB2
:1054E00010430860FFF702FB0290FFE742F2000062
:1054F000C4F20200006800F00F00039988420ED049
:10550000FFE7FFF7F3FA0299401A41F28931884226
:1055100004D3FFE703208DF8170046E0E6E7FFE736
:1055200004980078400700280CD5FFE741F20801F5
:10553000C4F20201086820F4E060049AD2681043C3
:105540000860FFE704980078000700280DD5FFE702
:1055500041F20801C4F20201086820F46050049A84
:10556000126940EAC2000860FFE700F051F841F21A
:105570000801C4F202010968C9B20A094CF2B0611B
:10558000C0F60001895C01F01F01C84040F20C0127
:10559000C2F20001086040F21400C2F2000000688C
:1055A000FFF7D0FA8DF81700FFE79DF8170006B057
:1055B00080BD000040F20C00C2F20000006870479D
:1055C00080B5FFF7F7FF41F20801C4F20201096854
:1055D000C1F302224CF2C061C0F60001895C01F007
:1055E0001F01C84080BD000080B5FFF7E3FF41F216
:1055F0000801C4F202010968C1F3C2224CF2C06181
:10560000C0F60001895C01F01F01C84080BD0000A8
:1056100086B041F20800C4F20200006800F00C00FD
:10562000042806D1FFE742F20040C0F2F4000190E6
:1056300069E041F20800C4F20200006800F00C00CA
:10564000082806D1FFE741F20020C0F27A0001905D
:1056500058E041F20800C4F20200006800F00C00BB
:105660000C284BD1FFE741F20C00C4F202000168A4
:1056700001F0030104910068C1B2012000EB111098
:10568000029004980090022815D0FFE700980328A4
:1056900012D1FFE7029941F20020C0F27A00B0FB7C
:1056A000F1F041F20C01C4F202010968C1F30621D4
:1056B0004843059011E0FFE7029942F20040C0F232
:1056C000F400B0FBF1F041F20C01C4F202010968F0
:1056D000C1F3062148430590FFE741F20C00C4F2F4
:1056E0000200006800F0C061022000EB116003902E
:1056F00005980399B0FBF1F0019002E000200190C1
:10570000FFE7FFE7FFE7019806B07047B0B588B044
:105710000690069820B9FFE701208DF81F00CCE322
:1057200006980078C007002800F09B80FFE741F250
:105730000800C4F20200006800F00C00049041F27E
:105740000C00C4F20200006800F00300039004980B
:105750000C2804D1FFE70398032804D0FFE704983E
:10576000082812D1FFE741F20000C4F202000068ED
:105770008003002808D5FFE70698406820B9FFE7B6
:1057800001208DF81F0098E36AE0FFE70698406863
:10579000B0F5803F09D1FFE741F20001C4F20201F8
:1057A000086840F48030086020E006984068B0F552
:1057B000A02F0DD1FFE741F20001C4F202010868F9
:1057C00040F480200860086840F4803008600CE0F5
:1057D00041F20001C4F20201086820F48030086040
:1057E000086820F480200860FFE7FFE7FFE70698DD
:1057F0004068D0B1FFE7FFF779F90590FFE741F284
:105800000000C4F202000068800300280CD4FFE707
:10581000FFF76CF90599401A652804D3FFE70320C8
:105820008DF81F0049E3EAE719E0FFF75FF90590FB
:10583000FFE741F20000C4F2020000688003002884
:105840000CD5FFE7FFF752F90599401A652804D3F4
:10585000FFE703208DF81F002FE3EAE7FFE7FFE7EC
:10586000FFE7069800788007002840F19F80FFE757
:1058700041F20800C4F20200006800F00C0004903D
:1058800041F20C00C4F20200006800F00300039033
:1058900004980C2804D1FFE70398022804D0FFE7FE
:1058A000049804282CD1FFE741F20000C4F2020062
:1058B00000684005002808D5FFE70698C06820B9B1
:1058C000FFE701208DF81F00F7E241F20401C4F266
:1058D0000201086820F0FE40069A126940EA026060
:1058E000086040F21400C2F200000068FFF72AF9D5
:1058F00020B1FFE701208DF81F00DEE2FFE754E052
:105900000698C06870B3FFE741F20001C4F20201DB
:10591000086840F480700860FFF7E8F80590FFE73A
:1059200041F20000C4F202000068400500280CD4D7
:10593000FFE7FFF7DBF80599401A032804D3FFE7D8
:1059400003208DF81F00B8E2EAE741F20401C4F237
:105950000201086820F0FE40069A126940EA0260DF
:10596000086021E041F20001C4F20201086820F45D
:1059700080700860FFF7BAF80590FFE741F2000079
:10598000C4F202000068400500280CD5FFE7FFF7CD
:10599000ADF80599401A032804D3FFE703208DF8DA
:1059A0001F008AE2EAE7FFE7FFE7FFE706980078D3
:1059B0000007002849D5FFE70698406910B3FFE7C4
:1059C00041F29401C4F20201086840F0010008604D
:1059D000FFF78CF80590FFE741F29400C4F2020053
:1059E0000068800700280CD4FFE7FFF77FF80599CF
:1059F000401A032804D3FFE703208DF81F005CE260
:105A0000EAE721E041F29401C4F20201086820F0C3
:105A100001000860FFF76AF80590FFE741F2940083
:105A2000C4F202000068800700280CD5FFE7FFF7EA
:105A30005DF80599401A032804D3FFE703208DF889
:105A40001F003AE2EAE7FFE7FFE706980078400721
:105A5000002840F1C680FFE700208DF80B0041F2DE
:105A60005800C4F202000068C000002813D4FFE709
:105A7000FFE741F25800C4F20200016841F0805192
:105A80000160006800F0805001900198FFE701205C
:105A90008DF80B00FFE747F20000C4F20000006839
:105AA000C005002822D4FFE747F20001C4F200013C
:105AB000086840F480700860FFF718F80590FFE769
:105AC00047F20000C4F200000068C00500280CD4B2
:105AD000FFE7FFF70BF80599401A032804D3FFE707
