:020000040800F2
:1000000000800020F56C0008291800082B18000853
:100010002D1800082F1800083118000800000000F3
:10002000000000000000000000000000331800087D
:1000300035180008000000003718000839180008BB
:10004000456D0008456D0008456D0008456D0008C8
:10005000456D0008456D0008456D0008456D0008B8
:10006000456D0008456D0008456D0008456D0008A8
:10007000456D0008456D0008456D0008456D000898
:10008000456D00080000000041180008456D00089B
:10009000456D0008456D0008456D0008456D000878
:1000A0005918000869180008456D0008456D0008DA
:1000B000456D0008456D0008456D0008456D000858
:1000C000456D0008456D0008456D0008456D000848
:1000D000456D0008456D0008456D0008456D000838
:1000E00079180008456D0008456D0008456D000849
:1000F000456D0008456D0008456D000800000000D2
:1001000000000000456D000800000000456D00087B
:10011000456D000800000000456D0008456D0008B1
:10012000456D0008456D0008456D0008456D0008E7
:10013000456D00080000000000000000456D00084B
:1001400095180008456D0008000000000000000040
:10015000000000000000000000000000000000009F
:10016000000000000000000000000000456D0008D5
:10017000456D0008000000000000000000000000C5
:1001800000000000456D00080000000000000000B5
:10019000000000000000000000000000000000005F
:1001A0000000000000000000456D0008456D0008DB
:1001B000456D0008456D0008456D00080000000011
:1001C00000000000456D0008000000000000000075
:0801D000456D0008456D0008B3
:1001E00010B5054C237833B9044B13B10448AFF371
:1001F00000800123237010BDE801002000000000F2
:1002000080C6000808B5034B1BB103490348AFF390
:10021000008008BD00000000EC01002080C600083E
:1002200081F0004102E000BF83F0004330B54FEAA7
:1002300041044FEA430594EA050F08BF90EA020F14
:100240001FBF54EA000C55EA020C7FEA645C7FEAA7
:10025000655C00F0E2804FEA5454D4EB5555B8BFCA
:100260006D420CDD2C4480EA020281EA030382EA3B
:10027000000083EA010180EA020281EA0303362DCD
:1002800088BF30BD11F0004F4FEA01314FF4801CA0
:100290004CEA113102D0404261EB410113F0004FB2
:1002A0004FEA03334CEA133302D0524263EB430369
:1002B00094EA050F00F0A780A4F10104D5F1200E07
:1002C0000DDB02FA0EFC22FA05F2801841F1000162
:1002D00003FA0EF2801843FA05F359410EE0A5F136
:1002E00020050EF1200E012A03FA0EFC28BF4CF067
:1002F000020C43FA05F3C01851EBE37101F000451D
:1003000007D54FF0000EDCF1000C7EEB00006EEB29
:100310000101B1F5801F1BD3B1F5001F0CD34908B3
:100320005FEA30004FEA3C0C04F101044FEA44520A
:1003300012F5800F80F09A80BCF1004F08BF5FEA91
:10034000500C50F1000041EB045141EA050130BD71
:100350005FEA4C0C404141EB0101013C28BFB1F583
:10036000801FE9D291F0000F04BF01460020B1FACE
:1003700081F308BF2033A3F10B03B3F120020CDAA1
:100380000C3208DD02F1140CC2F10C0201FA0CF07F
:1003900021FA02F10CE002F11402D8BFC2F1200CE4
:1003A00001FA02F120FA0CFCDCBF41EA0C0190409A
:1003B000E41AA2BF01EB0451294330BD6FEA0404E3
:1003C0001F3C1CDA0C340EDC04F11404C4F12002CE
:1003D00020FA04F001FA02F340EA030021FA04F3E0
:1003E00045EA030130BDC4F10C04C4F1200220FA37
:1003F00002F001FA04F340EA0300294630BD21FA75
:1004000004F0294630BD94F0000F83F4801306BF3A
:1004100081F480110134013D4EE77FEA645C18BF2E
:100420007FEA655C29D094EA050F08BF90EA020FC5
:1004300005D054EA000C04BF1946104630BD91EABD
:10044000030F1EBF0021002030BD5FEA545C05D1C0
:100450004000494128BF41F0004130BD14F58004FF
:100460003CBF01F5801130BD01F0004545F0FE4173
:1004700041F470014FF0000030BD7FEA645C1ABFA8
:10048000194610467FEA655C1CBF0B46024650EADF
:10049000013406BF52EA033591EA030F41F400210B
:1004A00030BD00BF90F0000F04BF0021704730B591
:1004B0004FF4806404F132044FF000054FF0000166
:1004C00050E700BF90F0000F04BF0021704730B527
:1004D0004FF4806404F1320410F0004548BF4042FC
:1004E0004FF000013EE700BF42004FEAE2014FEA51
:1004F00031014FEA02701FBF12F07F4393F07F4F2C
:1005000081F06051704732F07F4208BF704793F02E
:100510007F4F04BF41F40021704730B54FF4607441
:1005200001F0004521F000411CE700BF50EA010244
:1005300008BF704730B54FF000050AE050EA0102ED
:1005400008BF704730B511F0004502D5404261EB5D
:1005500041014FF4806404F132045FEA915C3FF49E
:10056000D8AE4FF003025FEADC0C18BF03325FEA3B
:10057000DC0C18BF033202EBDC02C2F1200300FAEC
:1005800003FC20FA02F001FA03FE40EA0E0021FA11
:1005900002F11444BDE600BF4FEA410212F5001219
:1005A00015D211D56FF47873B3EB625212D94FEABA
:1005B000C12343F0004343EA505311F0004F23FAA4
:1005C00002F018BF404270474FF00000704750EAF9
:1005D000013005D111F0004008BF6FF000407047B6
:1005E0004FF00000704700BF4A0011D212F5001210
:1005F00011D20DD56FF47873B3EB62520ED44FEA7B
:10060000C12343F0004343EA505323FA02F07047FA
:100610004FF00000704750EA013002D14FF0FF3038
:1006200070474FF00000704753B94AB9002908BF1E
:1006300000281CBF4FF0FF314FF0FF3000F074B9BD
:10064000ADF1080C6DE904CE00F006F8DDF804E029
:10065000DDE9022304B070472DE9F047089D044608
:100660008E46002B4DD18A42944669D9B2FA82F265
:1006700052B101FA02F3C2F1200120FA01F10CFAA1
:1006800002FC41EA030E94404FEA1C48210CBEFBD9
:10069000F8F61FFA8CF708FB16E341EA034306FB62
:1006A00007F199420AD91CEB030306F1FF3080F0F1
:1006B0001F81994240F21C81023E63445B1AA4B23E
:1006C000B3FBF8F008FB103344EA034400FB07F7E0
:1006D000A7420AD91CEB040400F1FF3380F00A8121
:1006E000A74240F207816444023840EA0640E41B16
:1006F00000261DB1D4400023C5E900433146BDE8C2
:10070000F0878B4209D9002D00F0EF800026C5E963
:10071000000130463146BDE8F087B3FA83F6002E7B
:100720004AD18B4202D3824200F2F980841A61EBF3
:10073000030301209E46002DE0D0C5E9004EDDE711
:1007400002B9FFDEB2FA82F2002A40F09280A1EBF9
:100750000C014FEA1C471FFA8CFE0126200CB1FB4E
:10076000F7F307FB131140EA01410EFB03F0884247
:1007700008D91CEB010103F1FF3802D2884200F2D4
:10078000CB804346091AA4B2B1FBF7F007FB101166
:1007900044EA01440EFB00FEA64508D91CEB040404
:1007A00000F1FF3102D2A64500F2BB800846A4EB5F
:1007B0000E0440EA03409CE7C6F12007B34022FA4A
:1007C00007FC4CEA030C20FA07F401FA06F31C4379
:1007D000F9404FEA1C4900FA06F3B1FBF9F8200C86
:1007E0001FFA8CFE09FB181140EA014108FB0EF0CC
:1007F000884202FA06F20BD91CEB010108F1FF3A1C
:1008000080F08880884240F28580A8F10208614427
:10081000091AA4B2B1FBF9F009FB101144EA014135
:1008200000FB0EFE8E4508D91CEB010100F1FF34E0
:100830006CD28E456AD90238614440EA0840A0FB78
:100840000294A1EB0E01A142C846A64656D353D04E
:100850005DB1B3EB080261EB0E0101FA07F722FA72
:1008600006F3F1401F43C5E9007100263146BDE89B
:10087000F087C2F12003D8400CFA02FC21FA03F3FE
:10088000914001434FEA1C471FFA8CFEB3FBF7F07F
:1008900007FB10360B0C43EA064300FB0EF69E42A4
:1008A00004FA02F408D91CEB030300F1FF382FD23D
:1008B0009E422DD9023863449B1B89B2B3FBF7F6E5
:1008C00007FB163341EA034106FB0EF38B4208D9BE
:1008D0001CEB010106F1FF3816D28B4214D9023EFF
:1008E0006144C91A46EA004638E72E46284605E71D
:1008F0000646E3E61846F8E64B45A9D2B9EB0208EE
:1009000064EB0C0E0138A3E74646EAE7204694E77D
:100910004046D1E7D0467BE7023B614432E73046B0
:1009200009E76444023842E7704700BF034613F802
:10093000012B002AFBD1181A013870470000000073
:1009400001F0FF01102A2BDB10F0070F08D010F880
:10095000013B013A8B422DD010F0070F42B3F6D184
:10096000F0B441EA012141EA014122F007047FF09D
:1009700000070023F0E80256083C85EA010586EAF4
:10098000010685FA47F5A3FA87F586FA47F6A5FA30
:1009900087F68EB9EED1F0BC01F0FF0102F007023C
:1009A00032B110F8013B013A83EA010313B1F8D1E7
:1009B0000020704701387047002D06BF35460338C8
:1009C000073815F0010F07D1013015F4807F02BF01
:1009D000013015F4C03F0130F0BC0138704700BF52
:1009E00070B54FF0FF0C4CF4E06C1CEA11541DBFC5
:1009F0001CEA135594EA0C0F95EA0C0F00F0DEF890
:100A00002C4481EA030621EA4C5123EA4C5350EA74
:100A1000013518BF52EA033541F4801143F48013C5
:100A200038D0A0FB02CE4FF00005E1FB02E506F056
:100A30000042E0FB03E54FF00006E1FB03569CF0AB
:100A4000000F18BF4EF0010EA4F1FF04B6F5007FB1
:100A500064F5407404D25FEA4E0E6D4146EB060623
:100A600042EAC62141EA55514FEAC52040EA5E50AC
:100A70004FEACE2EB4F1FD0C88BFBCF5E06F1ED856
:100A8000BEF1004F08BF5FEA500E50F1000041EB8D
:100A9000045170BD06F0004646EA010140EA02003A
:100AA00081EA0301B4EB5C04C2BFD4EB0C0541EA5C
:100AB000045170BD41F480114FF0000E013C00F371
:100AC000AB8014F1360FDEBF002001F0004170BD95
:100AD000C4F10004203C35DA0C341BDC04F11404AE
:100AE000C4F1200500FA05F320FA04F001FA05F23A
:100AF00040EA020001F0004221F0004110EBD37007
:100B000021FA04F642EB06015EEA430E08BF20EA32
:100B1000D37070BDC4F10C04C4F1200500FA04F3D5
:100B200020FA05F001FA04F240EA020001F0004167
:100B300010EBD37041F100015EEA430E08BF20EADA
:100B4000D37070BDC4F1200500FA05F24EEA020E22
:100B500020FA04F301FA05F243EA020321FA04F051
:100B600001F0004121FA04F220EA020000EBD37008
:100B70005EEA430E08BF20EAD37070BD94F0000F08
:100B80000FD101F00046400041EB010111F4801F3C
:100B900008BF013CF7D041EA060195F0000F18BFED
:100BA000704703F00046520043EB030313F4801F29
:100BB00008BF013DF7D043EA0603704794EA0C0FE3
:100BC0000CEA135518BF95EA0C0F0CD050EA4106F9
:100BD00018BF52EA4306D1D181EA030101F0004176
:100BE0004FF0000070BD50EA410606BF104619469E
:100BF00052EA430619D094EA0C0F02D150EA0136AA
:100C000013D195EA0C0F05D152EA03361CBF1046EA
:100C100019460AD181EA030101F0004141F0FE4189
:100C200041F470014FF0000070BD41F0FE4141F40D
:100C3000780170BD70B54FF0FF0C4CF4E06C1CEA0D
:100C400011541DBF1CEA135594EA0C0F95EA0C0FC2
:100C500000F0A7F8A4EB050481EA030E52EA03357D
:100C60004FEA013100F088804FEA03334FF080559E
:100C700045EA131343EA12634FEA022245EA1115CB
:100C800045EA10654FEA00260EF000419D4208BF7C
:100C9000964244F1FD0404F5407402D25B084FEA29
:100CA0003202B61A65EB03055B084FEA32024FF4D5
:100CB00080104FF4002CB6EB020E75EB030E22BF32
:100CC000B61A754640EA0C005B084FEA3202B6EBF2
:100CD000020E75EB030E22BFB61A754640EA5C00A1
:100CE0005B084FEA3202B6EB020E75EB030E22BF31
:100CF000B61A754640EA9C005B084FEA3202B6EB32
:100D0000020E75EB030E22BFB61A754640EADC00F0
:100D100055EA060E18D04FEA051545EA16754FEA52
:100D200006164FEAC30343EA52734FEAC2025FEA70
:100D30001C1CC0D111F4801F0BD141EA00014FF0FF
:100D400000004FF0004CB6E711F4801F04BF0143D0
:100D50000020B4F1FD0C88BFBCF5E06F3FF6AFAEEC
:100D6000B5EB030C04BFB6EB020C5FEA500C50F17C
:100D7000000041EB045170BD0EF0004E4EEA1131FF
:100D800014EB5C04C2BFD4EB0C0541EA045170BD06
:100D900041F480114FF0000E013C90E645EA060E4A
:100DA0008DE60CEA135594EA0C0F08BF95EA0C0F78
:100DB0003FF43BAF94EA0C0F0AD150EA01347FF4C0
:100DC00034AF95EA0C0F7FF425AF104619462CE797
:100DD00095EA0C0F06D152EA03353FF4FDAE1046FA
:100DE000194622E750EA410618BF52EA43067FF44B
:100DF000C5AE50EA41047FF40DAF52EA43057FF4DB
:100E0000EBAE12E74FF0FF3C06E000BF4FF0010CE5
:100E100002E000BF4FF0010C4DF804CD4FEA410C49
:100E20007FEA6C5C4FEA430C18BF7FEA6C5C1BD016
:100E300001B050EA410C0CBF52EA430C91EA030F97
:100E400002BF90EA020F0020704710F1000F91EAF4
:100E5000030F58BF994208BF90422CBFD8176FEAC2
:100E6000E37040F0010070474FEA410C7FEA6C5C90
:100E700002D150EA013C07D14FEA430C7FEA6C5C97
:100E8000D6D152EA033CD3D05DF8040B704700BFC3
:100E90008446104662468C461946634600E000BF11
:100EA00001B5FFF7B7FF002848BF10F1000F01BDE3
:100EB0004DF808EDFFF7F4FF0CBF012000205DF8AE
:100EC00008FB00BF4DF808EDFFF7EAFF34BF012033
:100ED00000205DF808FB00BF4DF808EDFFF7E0FFCC
:100EE00094BF012000205DF808FB00BF4DF808ED1D
:100EF000FFF7CEFF94BF012000205DF808FB00BF84
:100F00004DF808EDFFF7C4FF34BF012000205DF865
:100F100008FB00BF4FEA410C7FEA6C5C02D150EA4B
:100F2000013C0AD14FEA430C7FEA6C5C02D152EAE1
:100F3000033C02D14FF0000070474FF001007047B2
:100F40004FEA4102B2F1E04324BFB3F5001CDCF1EB
:100F5000FE5C0DD901F0004C4FEAC0024CEA507023
:100F6000B2F1004F40EB830008BF20F00100704752
:100F700011F0804F21D113F13872BCBF01F0004055
:100F8000704741F480114FEA5252C2F11802C2F187
:100F9000200C10FA0CF320FA02F018BF40F0010008
:100FA0004FEAC1234FEAD32303FA0CFC40EA0C00BA
:100FB00023FA02F34FEA4303CCE77FEA625307D1F7
:100FC00050EA01331EBF4FF0FE4040F4400070472E
:100FD00001F0004040F0FE4040F40000704700BFC8
:100FE00038B50022002304460D46FFF76BFF28B9F1
:100FF00020462946BDE8384000F00AB8204605F1F1
:10100000004100F005F8404261EB410138BD00BFEE
:10101000D0B50C4B002206460F46FFF7E1FCFFF768
:10102000E3FA0446FFF73EFA074B0022FFF7D8FC2D
:1010300002460B4630463946FFF7F6F8FFF7D4FA7A
:101040002146D0BD0000F03D0000F04110B59AB03F
:101050000024179418941994202221460FA806F012
:10106000B9FD3C222146684606F0B4FD37484FF0F2
:10107000A04303604FF4002343608460C4600461B4
:10108000012343610422826104774477036280F87C
:101090002440C462046380F83840C46380F8404050
:1010A00000F044FE002841D10023179317A92748D8
:1010B00002F0BEF800283CD1254B0F930623109375
:1010C000002311937F2212920422139214930FA9EA
:1010D0001E4801F095F878BB1E4B0093092301933D
:1010E000002302937F22039204220492059302229A
:1010F00008928DF824308DF825308DF82630842222
:101100000A9280220B928DF8303069460F4801F028
:101110007FFDA0B9104B009340F20F130193694675
:101120000A4801F075FD68B91AB010BD00F066FA02
:10113000BAE700F063FABFE700F060FACCE700F02E
:101140005DFAE7E700F05AFAEEE700BF0802002078
:101150000008302E0800900C0010603200B599B0E5
:101160002022002110A806F035FD3C22002101A814
:1011700006F030FD2B482C4B03604FF400234360F6
:1011800000238360C36003614361042282610377AB
:1011900043770122026280F82430C362036380F83F
:1011A0003830C36380F8403000F0C0FD002830D1F3
:1011B0001E4B109306231193002312937F22139248
:1011C00004221492159310A9164801F019F818BBBF
:1011D000174B019309230293002303937F22049268
:1011E000042205920693012209928DF828308DF889
:1011F00029308DF82A3084220B9280220C928DF8AF
:10120000343001A9074801F003FD40B919B05DF879
:1012100004FB00F0F3F9CBE700F0F0F9D8E700F0B9
:10122000EDF9F3E7740200200001005002003004E1
:101230000800900C30B59DB004460021179118911C
:1012400019911A911B91442206A806F0C3FC236849
:10125000B3F1A04F04D0484A934250D01DB030BDE6
:101260004FF4004306934FF00053159306A803F084
:101270000FF9002835D1414A136801331360012B5F
:1012800032D03F4BDA6C42F00102DA64DA6C02F0E1
:1012900001020292029ADA6C42F00202DA64DB6C1A
:1012A00003F002030393039B04231793032518956C
:1012B0000024199417A94FF0904002F0A5FA41F2CA
:1012C000020317931895199417A92E4802F09CFA57
:1012D00022462146122002F021F9122002F056F98E
:1012E000BCE700F08BF9C6E7254BDA6C42F40052FC
:1012F000DA64DB6C03F400530193019BC1E74FF404
:10130000004306934FF00053159306A803F0C0F86E
:1013100018BB1A4A136801331360012B20D0184BF5
:10132000DA6C42F00102DA64DB6C03F0010305932E
:10133000059B41231793032318930024199417A99D
:101340004FF0904002F060FA22462146122002F04F
:10135000E5F8122002F01AF980E700F04FF9D8E71B
:10136000074BDA6C42F40052DA64DB6C03F400538E
:101370000493049BD3E700BF000100500402002047
:10138000001002400004004808B50A480A4B0360F8
:101390004FF4807343604023836000230361C36084
:1013A00043611123836101F0CDFF00B908BD00F056
:1013B00025F9FBE7E00200200002014000B587B0FC
:1013C000002301930293039304930593026803F1AE
:1013D000804303F581339A4202D007B05DF804FBE5
:1013E00003F58733DA6C42F00202DA64DB6C03F057
:1013F00002030093009B022301930323029301A99C
:10140000054802F001FA00221146402002F086F859
:10141000402002F0BBF8E0E70004004800B58DB0C2
:1014200030220021684606F0D5FB1148114B0360BD
:1014300002F0CEF8A8B90223009300228DF8042010
:101440008DF80520029203920492059201230693DF
:1014500007926946064802F0CDF828B90DB05DF84C
:1014600004FB00F0CBF8E6E700F0C8F8F6E700BFB1
:10147000040300200008005000B58DB03022002188
:10148000684606F0A7FB1048104B036002F0A0F876
:10149000A0B90223009300228DF804208DF80520C6
:1014A00002920392049205930693079269460648B6
:1014B00002F0A0F828B90DB05DF804FB00F09EF82A
:1014C000E7E700F09BF8F6E7180300200010005053
:1014D00000B589B000230393049305930693079303
:1014E0000368184A934205D0174A93421FD009B0A7
:1014F0005DF804FB154BDA6C42F48032DA64DA6C86
:1015000002F480320092009ADA6C42F00102DA644E
:10151000DB6C03F001030193019B1023039303236E
:10152000049303A94FF0904002F06EF9DFE7074BF8
:10153000DA6C42F48022DA64DB6C03F480230293D9
:10154000029BD4E700080050001000500010024039
:1015500030B58BB000240594069407940894099440
:10156000244BDA6C42F00402DA64DA6C02F0040212
:101570000192019ADA6C42F02002DA64DA6C02F02D
:1015800020020292029ADA6C42F00102DA64DA6C0A
:1015900002F001020392039ADA6C42F00202DA646A
:1015A000DB6C03F002030493049B134D224650218D
:1015B000284602F013FA4FF4305305934FF4881382
:1015C0000693079405A9284602F01EF950230593B7
:1015D000012306930794089405A9284602F014F9FC
:1015E00022462146282001F099FF282001F0CEFF55
:1015F0000BB030BD001002400008004872B6FEE794
:1016000000B595B03822002106A806F0E3FA0020C4
:101610000190029003900490059002F0A3FA012338
:1016200006934FF48033079302230D9303220E9207
:101630000F922822109211931293139306A802F08E
:101640004BFB80B90F2301930323029300230393E1
:101650000493059304210DEB010002F0F3FD20B982
:1016600015B05DF804FBFFF7C9FFFFF7C7FF08B52A
:1016700000F026FBFFF7C4FFFFF76AFFFFF7E6FC69
:10168000FFF76CFDFFF780FEFFF7F6FE00F00EF8A7
:1016900000F024F800F03AF800F0B6F900F070FA23
:1016A000FFF7BCFE05F072F9FEE7000008B5094837
:1016B000094B0360002343608360C36003610375CB
:1016C0008361C36202F09EF900B908BDFFF796FF7F
:1016D000FBE700BF2C0300200003014008B50948C8
:1016E000094B0360002343608360C360036103759B
:1016F0008361C36202F086F900B908BDFFF77EFF7F
:10170000FBE700BF680300200403014008B5094857
:10171000094B0360002343608360C360036103756A
:101720008361C36202F06EF900B908BDFFF766FF7E
:10173000FBE700BFA40300200803014000B589B007
:101740000023039304930593069307930368234AA6
:10175000934208D0224A934219D0224A93422AD077
:1017600009B05DF804FB204BDA6C42F00102DA6448
:10177000DB6C03F001030093009B0E230393032310
:10178000049303A94FF0904002F03EF8E8E7164BAF
:10179000DA6C42F00102DA64DB6C03F001030193BE
:1017A000019BE02303930323049303A94FF090408C
:1017B00002F02AF8D4E70C4BDA6C42F00202DA6449
:1017C000DB6C03F002030293029B072303930323C2
:1017D000049303A9054802F017F8C1E7000301408C
:1017E00004030140080301400010024000040048C7
:1017F00000B583B00B4B1A6E42F001021A661A6EE6
:1018000002F001020092009A9A6D42F080529A65AD
:101810009B6D03F080530193019B02F029FA03B002
:101820005DF804FB00100240FEE7FEE7FEE7FEE77E
:10183000FEE770477047704708B500F051FA08BDE1
:1018400008B5034800F092FB024800F08FFB08BD8A
:10185000080200207402002008B5024803F046F98F
:1018600008BD00BFE403002008B5024803F03EF9BC
:1018700008BD00BFE403002008B54FF4806002F00B
:10188000B3F84FF4006002F0AFF84FF4005002F0EC
:10189000ABF808BD08B5024801F008FE08BD00BF5E
:1018A000E00200200120704708B506F069F9162310
:1018B00003604FF0FF3008BD08B54FF0FF31FFF770
:1018C000F3FFFEE710B503460C4A0D490D480068CA
:1018D00040B10C4800680344521A934206D8094AA2
:1018E000136010BD0748084C0460F2E706F048F9A1
:1018F0000C2303604FF0FF30F3E700BF00800020AF
:1019000000040000E003002078050020034AD2F81C
:10191000883043F47003C2F88830704700ED00E06F
:101920000268124B9A4200D0704700B583B003F5AD
:1019300064431A6E42F400621A661B6E03F400637D
:101940000193019B00221146182001F0E7FD1820A9
:1019500001F01CFE00221146192001F0DFFD1920C4
:1019600001F014FE03B05DF804FB00BF002C014041
:10197000F0B589B00023039304930593069307936E
:1019800002681F4B9A4201D009B0F0BD03F56443D1
:10199000DA6C42F00202DA64DA6C02F002020192BE
:1019A000019ADA6C42F00102DA64DB6C03F00103A5
:1019B0000293029B4FF4C04303930225049506262D
:1019C0000796104F03A9384601F01EFF4FF400435D
:1019D000039304950024059406940423079303A914
:1019E000384601F011FF4FF4E0630393049505942A
:1019F0000694079603A94FF0904001F005FFC3E756
:101A0000002C01400004004810B59EB000241A9438
:101A10001B941C941D941794189419941494159461
:101A200016940D940E940F94109411941294139490
:101A300034222146684606F0CDF84F484F4B0360EC
:101A400044602023836041F63F73C3604FF480738A
:101A500003614461846103F0A3F900286DD14FF460
:101A600080531A931AA9444803F0EAFA002867D170
:101A7000414803F0C5F9002865D17023179300236E
:101A80001893199317A93C4803F054FD00285DD121
:101A900002231493012115910023169314AA3648AA
:101AA00003F0E2FD002854D160230D9300220E9232
:101AB0000F9210921192129213920DA92E4803F0D8
:101AC00015FA002848D104220DA92B4803F00EFA7C
:101AD000002844D108220DA9274803F007FA00285E
:101AE00040D170230D9341F63E730E930C220DA945
:101AF000214803F0FBF9002837D10023009301931C
:101B00000293782203924FF4805204924FF40052D1
:101B1000059202220692079308934FF000720992F1
:101B20000A930B930C936946134803F04DFDF8B9E3
:101B30001148FFF71DFF1EB010BDFFF75FFD8EE7D8
:101B4000FFF75CFD94E7FFF759FD96E7FFF756FDB9
:101B50009EE7FFF753FDA7E7FFF750FDB3E7FFF759
:101B60004DFDB7E7FFF74AFDBBE7FFF747FDC4E7C9
:101B7000FFF744FDDCE700BFE4030020002C014038
:101B800008B51748174B03604FF4E1334360002357
:101B90008360C36003610C2242618361C36103629D
:101BA0004362836204F0B0F970B900210C4804F07C
:101BB00024FA60B900210A4804F044FA50B90848F0
:101BC00004F0FCF948B908BDFFF718FDEDE7FFF791
:101BD00015FDEFE7FFF712FDF1E7FFF70FFDF2E765
:101BE000300400200048004010B598B004460021A1
:101BF00013911491159116911791442202A805F0A2
:101C0000E9FF2268174B9A4201D018B010BD042397
:101C1000029302A802F03CFC08BB134B9A6D42F4FD
:101C200080229A659A6D02F480220092009ADA6C02
:101C300042F00202DA64DB6C03F002030193019BC1
:101C40004FF44063139302231493002315931693C8
:101C50000723179313A9054801F0D6FDD5E7FFF731
:101C6000CDFCDAE7004800400010024000040048C4
:101C7000104B1B680BB90120704710B504464FF498
:101C80007A70B0FBF3F30C4A1068B0FBF3F001F08C
:101C90008BFC68B90F2C01D901200AE000222146F3
:101CA0004FF0FF3001F03AFC044B1C60002000E0D4
:101CB000012010BD040000200000002008000020CA
:101CC00010B5032001F018FC0F20FFF7D1FF10B171
:101CD0000124204610BD0446FFF78AFDF9E7000005
:101CE000034A1368034909680B441360704700BF37
:101CF000C404002004000020014B1868704700BF96
:101D0000C404002038B50446FFF7F6FF0546B4F1D9
:101D1000FF3F02D0044B1B681C44FFF7EDFF401B44
:101D2000A042FAD338BD00BF0400002030B583B014
:101D300000230193002800F007810446C36D13B30C
:101D400023689A6812F0005F05D09A6822F020425A
:101D500022F03F029A602268936813F0805F1FD1DF
:101D6000936823F0104323F03F0343F080539360C4
:101D7000764B1B689B09764AA2FB03239B09013320
:101D80005B00019309E0FFF755FA0023236684F80E
:101D90005830D5E7019B013B0193019B002BF9D102
:101DA0002268936813F0805F40F09680E36D43F003
:101DB0001003E365236E43F001032366012093685B
:101DC00013F0040300D00123E16D11F0100F40F077
:101DD000B480002B40F0B180E36D23F4817343F0B5
:101DE0000203E365936813F0010F15D14FF0A04390
:101DF0009B6813F0010300D00123564A926812F049
:101E0000010200D00122134306D1636852498A6857
:101E100022F47C1213438B60627FE36B43EA42330C
:101E2000E2681343A268134394F8242043EA024370
:101E3000012A53D0E26A22B102F47872216B0A437C
:101E400013432168CD68454A2A401343CB6022687A
:101E5000136923F04063616B0B431361226893683D
:101E600013F0080300D001233BBB217F94F83830E6
:101E70005B0043EA8131D36823F4804323F00203FB
:101E80000B43D360236973B32268136943F480332F
:101E900013612268D2F8C03023F47F5323F03F034C
:101EA00021690B43C2F8C03094F84030012B29D08F
:101EB0002268136923F0010313616369012B33D096
:101EC0002268136B23F00F031363E36D23F0030306
:101ED00043F00103E36535E0002070E7A26A013AB0
:101EE00043EA4243A6E72268136923F4803313616F
:101EF0002268D2F8C03023F47F5323F03F03C2F8A6
:101F0000C030D1E721680B6923F4FF6323F0040399
:101F1000626CA56C2A43E56C2A43256D2A43134362
:101F200043F001030B61C8E721680B6B23F00F033B
:101F3000226A013A13430B63C7E7E36D43F01003D2
:101F4000E365012003B030BD0120FBE70000002065
:101F5000632D3E0500010050000300500740F0FFD4
:101F60000368186C7047704770477047F8B50446AF
:101F700003681F685D68984B9E6806F01F0617F09F
:101F8000020F10D015F0020F0DD0C36D13F0100F1B
:101F900003D1C36D43F40063C365204600F037FEF0
:101FA000236802221A6017F0040F02D015F0040F04
:101FB00005D117F0080F4AD015F0080F47D0E36D90
:101FC00013F0100F03D1E36D43F40073E36523684E
:101FD000DA6812F4406F34D1804A934209D01A462D
:101FE000934209D046B1052E06D0092E04D0D268FE
:101FF00003E04FF0A042F3E7DA6812F4005F20D16B
:102000001A6812F0080F1CD09A6812F0040F10D151
:102010005A6822F00C025A60E36D23F48073E36582
:10202000E36D13F4805F0CD1E36D43F00103E365CE
:1020300007E0E36D43F01003E365236E43F0010313
:1020400023662046FFF78FFF23680C221A6017F0E3
:10205000200F02D015F0200F05D117F0400F5CD0F3
:1020600015F0400F59D0E36D13F0100F03D1E36D5D
:1020700043F40053E3652368DA6C12F4C07F12D195
:102080000121DA6812F4406F0FD10120534A9342C4
:102090000DD01A4693420DD066B1062E0AD0072EF7
:1020A00008D0D26807E00021EBE70020EEE74FF010
:1020B000A042EFE7DA6851B312F0007F03D030B3EB
:1020C00012F4005F23D1196811F0400F1FD012F4F1
:1020D000001F1CD19A6812F0080F10D15A6822F024
:1020E00060025A60E36D23F48053E365E36D13F4FB
:1020F000807F0CD1E36D43F00103E36507E0E36DFE
:1021000043F01003E365236E43F00103236620468A
:1021100004F0E4FC236860221A6017F0800F02D0FC
:1021200015F0800F2FD117F4807F02D015F4807F37
:1021300034D117F4007F02D015F4007F3AD117F0A4
:10214000100F19D015F0100F16D0E36B33B1002E1D
:102150003CD0214B9B6813F4604F0AD0E36D43F4ED
:102160008063E365236E43F0020323662046FFF796
:10217000FCFE236810221A6017F4806F02D015F459
:10218000806F2DD1F8BDE36D43F48033E3652046C5
:10219000FFF7EAFE236880221A60C4E7E36D43F488
:1021A0000033E365204600F030FD23684FF4807271
:1021B0001A60BEE7E36D43F48023E365204600F038
:1021C00025FD23684FF400721A60B8E72368DB68C6
:1021D00013F0010FCDD0C1E7000300500001005003
:1021E000E36D43F48043E365236E43F00803236605
:1021F00023684FF480621A60204600F005FDC1E7B5
:10220000F0B583B00022019290F85820012A00F026
:102210005E820346012280F858200568A86810F005
:10222000040F09D0DA6D42F02002DA6501200022A5
:1022300083F8582003B0F0BD4C683035220A920074
:1022400002F00C02A85804F01F0E1F2404FA0EF42A
:1022500020EA04000C68C4F3846C0CFA0EFC40EA1B
:102260000C00A8501868826812F0040200D0012205
:10227000846814F0080400D00124002A50D1002CF6
:102280004ED18D68B5F1004F00F082800F68143098
:102290007A0E920002F004028658C7F3045E4FF0F3
:1022A000070C0CFA0EFC26EA0C0C05FA0EF54CEAAB
:1022B000050585501868426922F0004242614D6967
:1022C0001868C268C2F3C102520005FA02F20E6930
:1022D000042E75D0603050F82670A84D3D400F6830
:1022E00007F0F8473A43154345F0004540F82650BB
:1022F0001A680E698869603252F8265025F0807598
:10230000284342F826001A680D69087F012854D036
:10231000603252F8250020F00070044342F8254056
:102320001868826812F0010F17D10A68CD68D0F8DA
:10233000B040C2F3120C24EA0C0405F0180C904DC6
:1023400025FA0CF52A40C2F312022243C0F8B0204D
:10235000C8688C4A904200F09B800A688A490A4209
:1023600000F0AD818949896801F0E070884CA24293
:1023700000F05C81874CA24200F05881864CA2425A
:1023800000F07A81854CA24200F0888100204EE75F
:102390000D6814306A0E920002F004028658C5F3EC
:1023A0000455072707FA05F526EA0505855018683C
:1023B000426942F00042426181E74FF00074A7E7B2
:1023C000026E046EC4F384640A68C2F3120585BB0E
:1023D000C2F38462944234D01C68626E606EC0F3B3
:1023E00084600A68C2F3120585BBC2F3846290421E
:1023F00034D01C68A26EA06EC0F384600A68C2F379
:10240000120585BBC2F38462904234D01C68E26E30
:10241000E06EC0F384600A68C2F3120585BBC2F3A4
:10242000846290427FF47CAFE26E22F00042E2666A
:1024300076E792FAA2F212B1B2FA82F2CAE7202249
:10244000C8E7026E22F000420266C5E792FAA2F2E5
:1024500012B1B2FA82F2CAE72022C8E7626E22F015
:1024600000426266C5E792FAA2F212B1B2FA82F2B3
:10247000CAE72022C8E7A26E22F00042A266C5E7A2
:1024800092FAA2F212B1B2FA82F2CAE72022C8E7A7
:102490001C680A68C2F31205002D38D1900E013075
:1024A00000F01F0009288CBF00200120002877D0F1
:1024B000002D3BD1900E0130800600F0F840002D39
:1024C00040D1960E013606F01F070126BE4030436C
:1024D000002D45D1920E013202F01F0202EB4202A2
:1024E00012050243886804F11406550EAD0005F08C
:1024F00004057459C2F304524FF0070C0CFA02FCA5
:1025000024EA0C0C90404CEA0000705125E792FA46
:10251000A2F048B1B0FA80F0013000F01F000928A5
:102520008CBF00200120C1E72020F5E792FAA2F03D
:1025300030B1B0FA80F00130800600F0F840BEE71C
:102540002020F8E792FAA2F646B1B6FA86F60136EE
:1025500006F01F06012707FA06F6B8E72026F6E779
:1025600092FAA2F242B1B2FA82F2013202F01F02F2
:1025700002EB42021205B4E72022F6E700F0FF0367
:10258000FFFF070000007F400000088000030050AC
:10259000000021C31000C090000052C7000084CB8F
:1025A000CDB9900E0130800600F0F840FDB9960ECE
:1025B000013606F01F070126BE4030432DBB920EA8
:1025C000013202F01F0202EB42021E3A120542F0F3
:1025D0000072024386E792FAA2F030B1B0FA80F0BE
:1025E0000130800600F0F840E0E72020F8E792FA9A
:1025F000A2F646B1B6FA86F6013606F01F060127A6
:1026000007FA06F6D9E72026F6E792FAA2F25AB1BF
:10261000B2FA82F2013202F01F0202EB42021E3ACB
:10262000120542F00072D4E72022F3E711F4000F04
:102630007FF4A4AE1A68B2F1A04F01D00020F6E5F5
:1026400040F4000023498A6822F0E0721043886059
:10265000214A126892092149A1FB02129209013212
:1026600002EB420292000192019A1AB1019A013AD8
:102670000192F9E70020DAE511F0807F7FF482AE65
:102680001968174A91421CD040F0807011498A683D
:1026900022F0E072104388600020C8E511F4800F3A
:1026A00011D119680E4A91420FD040F480020948B6
:1026B000816821F0E0710A4382600020B7E50020C4
:1026C000B5E50020B3E50020B1E50020AFE502202C
:1026D000B0E500BF0003005000000020632D3E0560
:1026E0000001005030B583B00023019303689A685D
:1026F00012F0010F58D1044699682D4A114219D1A0
:102700009A6822F0004222F03F0242F001029A60F1
:10271000284B9B6813F4000F1CD0274B1B689B09A8
:10272000264AA2FB03239B09013303EB43039B00CF
:1027300001930CE0C36D43F01003C365036E43F0D7
:1027400001030366012030E0019B013B0193019BE3
:10275000002BF9D1FFF7D0FA054623681A6812F06A
:10276000010F1FD19A6812F0010F07D19A6822F069
:10277000004222F03F0242F001029A60FFF7BCFAE9
:10278000431B022BE9D923681B6813F0010FE4D126
:10279000E36D43F01003E365236E43F0010323660A
:1027A000012002E0002000E0002003B030BD00BFA7
:1027B0003F0000800003005000000020632D3E0514
:1027C00038B53A4B9D6803689B6813F0040F69D1D4
:1027D000044605F01F0590F85830012B64D0012302
:1027E00080F85830FFF77EFF002857D1E36D23F4BF
:1027F000706323F0010343F48073E36523682C4A7C
:1028000093422FD01A46934200D01DB9E26D22F4B4
:102810008012E265E26D12F4805F26D0226E22F013
:10282000060222661C221A60002384F858302268AF
:102830001F4B9A421CD013469A421CD0DDB1052D85
:1028400019D0092D17D0E26D42F48012E265DB68E1
:1028500013F0007F27D0E36D23F4405343F48053FB
:10286000E36520E04FF0A042CDE700222266D9E7E1
:102870004FF0A043E0E7D36813F0007F05D0E36D8D
:1028800023F4405343F48053E365936823F00043FB
:1028900023F03F0343F00403936004E0002384F833
:1028A000583000E0022038BD0220FCE70003005051
:1028B0000001005038B504460268936813F0020323
:1028C00000D00123916811F0010F39D0002B39D1CC
:1028D000936803F00D03012B09D0E36D43F010035F
:1028E000E365236E43F001032366012029E093682A
:1028F00023F0004323F03F0343F002039360236877
:1029000003221A60FFF7F8F9054623689B6813F065
:10291000010F13D0FFF7F0F9401B0228F5D9236807
:102920009B6813F0010FF0D0E36D43F01003E365F3
:10293000236E43F001032366012002E0002000E043
:10294000002038BD0020FCE730B583B000230193A0
:1029500090F85830012B41D004460D46012380F8F1
:102960005830FFF7A7FF80BBE36D23F4885323F0B3
:10297000020343F00203E3652268936823F04043B7
:1029800023F03F0305F080452B4343F00043936061
:1029900023689B68002B06DBE36D23F0030343F001
:1029A0000103E36515E0019B01330193019A0C4B90
:1029B0009A42EDD9E36D23F0120343F01003E3656F
:1029C000002384F85830012006E0E36D43F0100343
:1029D000E365002384F8583003B030BD0220FBE7E4
:1029E00001DE040038B5394B9D6803689A6812F01F
:1029F000080F67D1044605F01F05DA68DB6C13F495
:102A0000C07F01D1002A3DDA94F85830012B5BD009
:102A1000012384F858302046FFF764FE00284DD18A
:102A2000E36D13F4807F33D0236E23F00803236615
:102A3000E36D23F4405323F0010343F48053E36533
:102A40002368234A934226D01A46934200D01DB9E8
:102A5000E26D22F48012E26560221A60002384F89D
:102A6000583023681A4A934218D01A46934218D015
:102A7000BDB1062D15D0072D13D0E36D43F480139F
:102A8000E36520E0C36D43F02003C36501201AE035
:102A900000232366CCE74FF0A042D6E74FF0A042D8
:102AA000E4E7DA6812F0007F0DD19A6822F0004264
:102AB00022F03F0242F008029A6004E0002384F80A
:102AC000583000E0022038BD0220FCE7000300502F
:102AD0000001005038B54A4B9D6803689A6812F0AF
:102AE000080F40F08980044605F01F05DA68DB6CAA
:102AF00013F4C07F01D1002A53DA94F85830012B27
:102B00007CD0012384F858302046FFF7EBFD0028E5
:102B10006ED1E36D13F4807F49D0236E23F0080358
:102B20002366E36D23F4405323F0010343F4805301
:102B3000E3652368334A93423CD01A46934200D05F
:102B40001DB9E26D22F48012E26560221A60002352
:102B500084F858302368DA6812F4001F03D05A68EA
:102B600042F480625A60A369082B26D02268536819
:102B700023F0400353602268536843F020035360FE
:102B80002368204A934223D01A46934223D015B398
:102B9000062D20D0072D1ED0E36D43F48013E3658E
:102BA0002BE0C36D43F02003C365012025E0002323
:102BB0002366B6E74FF0A042C0E72268536823F0CF
:102BC000200353602268536843F040035360D7E703
:102BD0004FF0A042D9E7DA6812F0007F0DD19A6871
:102BE00022F0004222F03F0242F008029A6004E024
:102BF000002384F8583000E0022038BD0220FCE7B2
:102C00000003005000010050704770477047704744
:102C1000F0B583B0034600220192406993F8582032
:102C2000012A00F0FA82012283F85820A8B10A6A2A
:102C3000012A12D0986E002840F0CD809A660022BA
:102C40005A668C6A002C00F0C3800A6A013A04F0CC
:102C50007C042243CC6A1443BEE04A68092A00F08F
:102C600097801A68906810F0080F10D191F825002D
:102C7000002840F0D080D06820F4401091F8265011
:102C800091F82440240544EA45542043D0601C6850
:102C9000A26812F0040200D00122A56815F0080510
:102CA00000D00125002A40F06181002D40F099817B
:102CB0008A6A1AB1CA6A002A40F0BC8091F82520BD
:102CC000012A00F0B180E26822F00072E260002088
:102CD00091F83020012A00F0BC801C68226922F0A3
:102CE000020222618C68B4F1004F00F0BE801A68C5
:102CF0000F6802F1140C7A0E920002F004025CF8E4
:102D00000260C7F304574FF0070E0EFA07FE26EADB
:102D10000E06BC4034434CF802401C68626922F045
:102D2000004262614C691E68F268C2F3C10252003F
:102D300004FA02F2D1F810C0BCF1040F00F0AF8029
:102D4000603656F82C40A84F27400C6804F0F84431
:102D50002243174347F0004746F82C701A680F6962
:102D60008C69603252F8276026F08076344342F84E
:102D700027401A680E690C7F012C00F08D806032AC
:102D800052F8264024F00074254342F82650EEE025
:102D90008C6ABCB10868820E520202F4785204F0C8
:102DA0007C042243C86A02431C68E06C20F07B402C
:102DB00020F46F0020F43F4020F0FF001043E06457
:102DC0005A664EE70A68920E520202F47852EBE716
:102DD0000A6A541E00E000240868C0F384604A6850
:102DE00002F01F0200FA02F22243986E0138986640
:102DF0005C6E22435A6600287FF433AF1C68E06C97
:102E000020F07B4020F46F0020F43F4020F0FF00D2
:102E10000243E26425E7D06820F4401091F8264090
:102E200040EA4450D06032E7E26842F00072E2606B
:102E300000204DE791F82500012805D0E26822F036
:102E40000072E260002043E7DA6D42F02002DA65AA
:102E50003EE71E68326922F4FF724C6B8F6B3C4375
:102E6000224342F0020232613CE71C680E681434CF
:102E7000720E920002F00402A758C6F304564FF0F7
:102E8000070C0CFA06F627EA0606A6501C686269CB
:102E900042F00042626145E74FF000756FE7326E25
:102EA000346EC4F384640A68C2F312057DBBC2F3B6
:102EB0008462944233D01D686A6E6C6EC4F384647D
:102EC0000A68C2F312067EBBC2F38462944233D016
:102ED0001D68AA6EAC6EC4F384640A68C2F312065D
:102EE0007EBBC2F38462944233D01D68EA6EEC6EFE
:102EF000C4F384640A68C2F312067EBBC2F3846220
:102F0000944234D1EA6E22F00042EA662FE092FA4F
:102F1000A2F212B1B2FA82F2CBE72022C9E7326EF6
:102F200022F000423266C6E792FAA2F212B1B2FA79
:102F300082F2CBE72022C9E76A6E22F000426A667D
:102F4000C6E792FAA2F212B1B2FA82F2CBE72022DD
:102F5000C9E7AA6E22F00042AA66C6E792FAA2F278
:102F600012B1B2FA82F2CBE72022C9E700201D6835
:102F7000AA6812F0010F17D10A68CE68D5F8B040E0
:102F8000C2F3120724EA070406F0180C174E26FABB
:102F90000CFC02EA0C02C2F312022243C5F8B02074
:102FA000CC68134A944231D00A6812490A4213D0BD
:102FB0001149896801F0E074104DAA4200F0E480E4
:102FC0000F4DAA4200F0E0800E4DAA4200F00181B0
:102FD0000D4DAA4200F00F81002283F8582003B063
:102FE000F0BD0020C3E700BF00F0FF03FFFF0700B4
:102FF00000007F400000088000030050000021C353
:103000001000C090000052C7000084CB1D680A6801
:10301000C2F31206002E37D1940E013404F01F04BF
:10302000092C8CBF00240124002C65D0002E3AD13D
:10303000940E0134A40604F0F844002E3FD1970EFC
:10304000013707F01F0C012707FA0CF73C43002E4D
:1030500044D1920E013202F01F0202EB420212052D
:1030600022438C681435560EB60006F00406AF599C
:10307000C2F304524FF0070C0CFA02FC27EA0C07CB
:1030800094403C43AC518FE792FAA2F44CB1B4FAAD
:1030900084F4013404F01F04092C8CBF00240124A3
:1030A000C2E72024F5E792FAA2F434B1B4FA84F42A
:1030B0000134A40604F0F844BFE72024F8E792FAAC
:1030C000A2F74FB1B7FA87F7013707F01F074FF0A4
:1030D000010C0CFA07F7B9E72027F5E792FAA2F2FC
:1030E00042B1B2FA82F2013202F01F0202EB420256
:1030F0001205B5E72022F6E7D6B9940E0134A406EE
:1031000004F0F84406BB970E013707F01F0C0127A7
:1031100007FA0CF73C4336BB920E013202F01F0255
:1031200002EB42021E3A120542F00072224398E777
:1031300092FAA2F434B1B4FA84F40134A40604F08F
:10314000F844DFE72024F8E792FAA2F74FB1B7FA84
:1031500087F7013707F01F074FF0010C0CFA07F74C
:10316000D8E72027F5E792FAA2F25AB1B2FA82F232
:10317000013202F01F0202EB42021E3A120542F037
:103180000072D3E72022F3E711F4000F7FF41CAFA5
:103190001A68B2F1A04F7FF41FAF44F40004204935
:1031A0008A6822F0E07214438C601E4A1268920909
:1031B0001D49A1FB0212920902EB42029200183251
:1031C000019202E0019A013A0192019A002AF9D192
:1031D00002E711F0807F7FF4FBAE1968134A914239
:1031E0003FF4FAAE44F080740D498A6822F0E07230
:1031F00014438C60F0E611F4800F7FF4EDAE196893
:103200000A4A91423FF4E8AE44F4800404498A68D3
:1032100022F0E07214438C60DEE60220DFE600BF9D
:103220000003005000000020632D3E050001005007
:1032300090F85820012A7FD010B49DB00346012297
:1032400080F858200022189219920068B0F1A04F1F
:1032500039D000220192019A002A37D0926812F0E8
:10326000040200D00122806810F0040F54D1002A1B
:1032700052D10A68002A32D0304CA26822F460424F
:10328000486893F838C040EA4C300243A2604FF0DF
:10329000A042926812F0010200D001222848806802
:1032A00010F0010000D00120024341D1234CA2685C
:1032B00022F4716222F00F020868896801430A4310
:1032C000A26000202DE01E4A0192C4E7DA6D42F0B0
:1032D0002002DA65002283F85820012024E01749F3
:1032E0008A6822F460428A604FF0A042926812F02D
:1032F000010200D001221249896811F0010100D0B9
:1033000001210A4316D10D498A6822F4716222F024
:103310000F028A60002004E0DA6D42F02002DA65D4
:103320000120002283F858201DB05DF8044B70473F
:103330000020F6E70020F4E7022070470003005069
:103340000001005030B583B000230193002800F045
:103350009A80044603681B68002BC0F29780437F65
:1033600023B32168086800F40000A368626813436F
:1033700062691343E2681343226913430D68454AA7
:103380002A4013430B602268136813F4000F18D00F
:10339000B8B9414B1B689B094049A1FB03139B092A
:1033A000013303EB83039B00019307E00377036280
:1033B000FEF704F8D5E7019B013B0193019B002B2D
:1033C000F9D1374B9A4230D004339A4230D004338B
:1033D0009A4227D04FF08043A26912F0030F42D0E7
:1033E00012F0100F27D02F498A681A438A60A26909
:1033F00012F0200F25D02B49CA681A43CA60294A07
:103400005361A26912F0020F21D026494A681A437B
:103410004A60A26912F0010F1FD022490A681343C3
:103420000B6029E04FF00053D6E74FF40013D3E7C9
:103430004FF48003D0E71B498A6822EA03028A60BE
:10344000D5E71849CA6822EA0302CA60D7E71549D6
:103450004A6822EA03024A60DBE712490A6822EA64
:1034600003030B6008E00F4A516821EA0301516031
:10347000116821EA03031360637F03F0FF003BB987
:103480000123637700E0012003B030BD0120FBE79A
:103490000020F9E70F7E00FF00000020632D3E05AD
:1034A00000020140000401407047000008B50368B5
:1034B0000F4A934210D00432934210D00432934208
:1034C00007D04FF080430B4A526933EA020209D019
:1034D00008BD4FF00053F6E74FF40013F3E74FF445
:1034E0008003F0E7034A5361FFF7DEFFF0E700BF18
:1034F0000002014000040140074AD36823F4E0635E
:103500001B041B0C000200F4E060034343F0BF63A4
:1035100043F40033D360704700ED00E000B5194B71
:10352000DB68C3F30223C3F1070CBCF1040F28BF0F
:103530004FF0040C03F1040EBEF1060F18D9033B43
:103540004FF0FF3E0EFA0CFC21EA0C0199400EFAF6
:1035500003F322EA0303194300280BDB0901C9B274
:1035600000F1604000F5614080F800135DF804FB55
:103570000023E5E700F00F000901C9B2024B19541E
:10358000F4E700BF00ED00E014ED00E0002807DBE9
:1035900000F01F02400901239340024A42F8203004
:1035A000704700BF00E100E00138B0F1807F0BD22E
:1035B0004FF0E0235861054AF02182F823100020E3
:1035C000986107221A6170470120704700ED00E002
:1035D00070B110B50446037933B102232371002082
:1035E00020610123237110BD4371FDF771FFF4E7E2
:1035F00001207047002800F0FC802DE9F0410C46C6
:1036000015460646002900F0F6804379012B00F0AC
:10361000F48001234371022303718B68042B17D0BC
:10362000E369012B5FD03368DF6B05F010050723DA
:10363000AB4027EA0307A369012B61D0022B00F0FE
:10364000BE806369002B40F0BD804FF0010859E057
:10365000FEF752FB07469DB133685A6B002A3FDAEA
:10366000FEF74AFBC01B0128F6D933685B6B002BC1
:10367000F2DA336943F008033361032030719CE0D0
:1036800033685A6B12F4004F10D0FEF735FBC01BA5
:103690000128F5D933685B6B13F4004FF0D0336920
:1036A00043F0080333610320307186E0626A1A64D4
:1036B0003068826C05F0100140F2FF338B4022EA43
:1036C0000302A36A8B401A4382643068C36CFF22F2
:1036D0008A4023EA0203E26A8A401343C3649FE7F5
:1036E000626A5A64E4E731688A6B05F010001F23B0
:1036F000834022EA0302236A834013438B6392E7E9
:103700004FF00008A3686269134343EA08034FF4CB
:103710008072AA4027EA02072279012A55D04FF089
:10372000000848EA03034FF40072AA4027EA0207A0
:103730006279012A4CD04FF0000848EA030827F4C8
:1037400040472368022B46D01F4308FA05F848EA91
:1037500007073368DF6331680B684FF48042AA4083
:1037600023EA02030B6031680B6840F6FE72AA4040
:1037700023EA0202E368AB4013430B6031680B6835
:10378000C022AA4023EA02030B60E268C2F383036B
:1037900022699208120202F470621A433068036EC2
:1037A00040F60F71A94023EA010302FA05F51D4313
:1037B00005660123337100207071BDE8F0814FF080
:1037C00001089FE74FF000089CE74FF48078A8E7D6
:1037D0004FF40078B1E700F031FE094B984202D96E
:1037E00047F40047B1E7074B9842AED947F480470A
:1037F000ABE7012070470120DFE70220DDE700BFD3
:103800000068890900B4C404F0B583B0002362E005
:1038100085685E000324B44025EA0405CC68B44002
:103820002C438460446824EA0C0C4C68C4F30014F4
:103830009C4044EA0C0444605EE0DD08083550F822
:10384000256003F007044FEA840C0F2404FA0CF4FB
:1038500026EA040E0C6904FA0CF444EA0E0440F85B
:10386000254060E0052400E0002404FA0EF42C4317
:103870000CF1020C554D45F82C40554CA568D4432D
:1038800025EA02064F6817F4801F01D042EA0506B8
:103890004F4DAE60ED6804EA05064F6817F4001F4F
:1038A00001D042EA05064A4DEE606D6804EA05065D
:1038B0004F6817F4003F01D042EA0506444D6E60A0
:1038C0002D682C404E6816F4803F01D042EA050472
:1038D0003F4A146001330A6832FA03F474D04FF09F
:1038E000010C0CFA03FC1CEA0202F3D04C6804F051
:1038F0000304013C012C8BD94C6804F00304032C15
:103900000CD0C4685D004FF0030C0CFA05FC24EAEF
:103910000C0C8C68AC4044EA0C04C4604C6804F0A5
:103920000304022C89D004684FEA430E4FF0030CC5
:103930000CFA0EFC24EA0C0C4C6804F0030404FAA4
:103940000EF444EA0C0404604C6814F4403FC1D007
:10395000204C256E45F001052566246E04F0010417
:103960000194019C4FEA930C0CF10205174C54F89A
:10397000255003F003044FEA840E0F2404FA0EF4DA
:1039800025EA0405B0F1904F3FF46EAF124CA0420F
:1039900012D004F58064A04210D004F58064A042E7
:1039A0000ED004F58064A0420CD004F58064A042DF
:1039B0003FF458AF062458E7012456E7022454E7A1
:1039C000032452E7042450E703B0F0BD0000014097
:1039D0000004014000100240000400480AB1816167
:1039E000704781627047000008B5054B5B69034270
:1039F00000D108BD024B586103F030F9F9E700BF70
:103A000000040140002800F0868010B582B0044612
:103A100090F83A30DBB2052B7FD090F83A30DBB229
:103A2000022B7CD03F4B1A6E42F001021A661B6ECD
:103A300003F001030193019B90F83A300BB980F831
:103A400039302046FDF77AFEA368402B25D0602B45
:103A500023D02268136823F01003E16A0B4313603C
:103A600021680B68304A1A406368A0680343E06825
:103A7000034320690343207D012849D000200343EC
:103A8000606A0343A06A0343206B43EAC043606B50
:103A900043EA006313430B6020E02268136823F0BD
:103AA0001003E16A0B43136021680B681E4A1A4039
:103AB0006368A068034320690343207D012824D064
:103AC00000200343606A0343A06A0343206B43EA78
:103AD000C043606B43EA006313430B6021688B694A
:103AE000002B09DB8B6923F03F03A269E0690243E5
:103AF000206A024313438B6194F83A3013B90123CF
:103B000084F83A30002002B010BD4FF48070D8E73E
:103B10004FF48070B3E7012070470120F3E70120E4
:103B2000F1E700BF00100240113E00E0A8B190F89C
:103B30003A30DBB2052B12D090F83A30DBB2012BD1
:103B400001D00120704701680B6843F001030B604E
:103B5000042380F83A30002070470120704701208C
:103B600070470000002836D13E4B1B6803F4C06349
:103B7000B3F5806F08D03B4AD2F8803023F48073CD
:103B8000C2F8803000207047364AD2F8803023F4E3
:103B90008073C2F88030136823F4C06343F4007369
:103BA0001360314B1B68322202FB03F32F4AA2FB46
:103BB00003239B0C013300E0013B2A4A526912F4B3
:103BC000806F01D0002BF7D1264B5B6913F4806F17
:103BD00044D100207047B0F5007F08D0214A136817
:103BE00023F4C06343F480631360002070471D4BCF
:103BF0001B6803F4C063B3F5806F08D0194AD2F88C
:103C0000803043F48073C2F8803000207047154A3A
:103C1000D2F8803043F48073C2F88030136823F404
:103C2000C06343F4007313600F4B1B68322202FB26
:103C300003F30E4AA2FB03239B0C013300E0013B7C
:103C4000084A526912F4806F01D0002BF7D1054B5E
:103C50005B6913F4806F03D1002070470320704725
:103C600003207047007000400000002083DE1B43EB
:103C7000024A936843F480439360704700700040A9
:103C8000124BDA6802F00302D868C0F30310431C39
:103C9000032A11D00E48B0FBF3F00C4BDB68C3F3E2
:103CA000062303FB00F0094BDB68C3F341630133D8
:103CB0005B00B0FBF3F070470648B0FBF3F0034B3A
:103CC000DB68C3F3062303FB00F0ECE700100240BF
:103CD0000024F40000366E01002800F04F8270B519
:103CE00082B00446036813F0010F37D0A44A9368EA
:103CF00003F00C03D26802F003020C2B23D0082B34
:103D000023D06368B3F5803F4ED0B3F5A02F51D0D8
:103D10009B4B1A6822F480321A601A6822F48022BF
:103D20001A606368002B52D0FDF7E6FF0546944BFE
:103D30001B6813F4003F11D1FDF7DEFF401B642820
:103D4000F5D9032023E2032AD9D18D4B1B6813F444
:103D5000003F03D06368002B00F01282236813F049
:103D6000020F5DD0864A936803F00C03D26802F01C
:103D700003020C2B3AD0042B3AD0E368002B75D009
:103D80007F4A136843F480731360FDF7B5FF05465F
:103D90007B4B1B6813F4806F5FD1FDF7ADFF401BB9
:103DA0000228F5D90320F2E1754A136843F4803301
:103DB0001360B6E703F18043A3F53C331A6842F47D
:103DC00080221A601A6842F480321A60A9E7FDF76F
:103DD00093FF05466A4B1B6813F4003FBED0FDF706
:103DE0008BFF401B6428F5D90320D0E1022AC2D101
:103DF000634B1B6813F4806F03D0E368002B00F063
:103E0000C1815F4A536823F0FE43216943EA01639D
:103E100053605C4B1868FDF72BFF002840F0B4811D
:103E2000236813F0080F4CD063699BB3544AD2F84F
:103E3000943043F00103C2F89430FDF75DFF05466E
:103E40004F4BD3F8943013F0020F3AD1FDF754FFE3
:103E5000401B0228F4D9032099E1494A536823F012
:103E6000FE43216943EA01635360D9E7444A13687A
:103E700023F480731360FDF73FFF0546404B1B683A
:103E800013F4806FCCD0FDF737FF401B0228F5D923
:103E900003207CE13A4AD2F8943023F00103C2F8BF
:103EA0009430FDF729FF0546354BD3F8943013F0D5
:103EB000020F06D0FDF720FF401B0228F4D9032093
:103EC00065E1236813F0040F00F081802C4B9B6D9B
:103ED00013F0805F36D12A4B9A6D42F080529A657A
:103EE0009B6D03F080530193019B0125264B1B68BA
:103EF00013F4807F28D0A368012B39D0052B45D03F
:103F00001F4BD3F8902022F00102C3F89020D3F881
:103F1000902022F00402C3F89020A368002B43D025
:103F2000FDF7EAFE0646164BD3F8903013F0020F69
:103F30004CD1FDF7E1FE801B41F288339842F2D963
:103F4000032024E10025D1E70F4A136843F480736E
:103F50001360FDF7D1FE06460B4B1B6813F4807F00
:103F6000C9D1FDF7C9FE801B0228F5D903200EE157
:103F7000034AD2F8903043F00103C2F89030CCE706
:103F8000001002400800002000700040884BD3F869
:103F9000902042F00402C3F89020D3F8902042F021
:103FA0000102C3F89020B8E7FDF7A6FE0646804B55
:103FB000D3F8903013F0020F08D0FDF79DFE801B60
:103FC00041F288339842F2D90320E0E0E5B9236852
:103FD00013F0200F35D0A369E3B1754AD2F89830B9
:103FE00043F00103C2F89830FDF786FE0546704B9A
:103FF000D3F8983013F0020F23D1FDF77DFE401B5C
:104000000228F4D90320C2E0694A936D23F080535B
:104010009365DCE7664AD2F8983023F00103C2F8D2
:104020009830FDF769FE0546614BD3F8983013F0E0
:10403000020F06D0FDF760FE401B0228F4D90320D2
:10404000A5E0E369002B00F0A180594A926802F0D4
:104050000C020C2A64D0022B13D0554A136823F0AB
:1040600080731360FDF748FE0446514B1B6813F044
:10407000007F4ED0FDF740FE001B0228F5D903203B
:1040800085E04B4A136823F080731360FDF734FE1C
:104090000546474B1B6813F0007F06D0FDF72CFE4A
:1040A000401B0228F5D9032071E0414AD3684149F9
:1040B0001940236A606A013843EA0013A06A43EAA0
:1040C0000023206B4008013843EA4053606B4008EE
:1040D000013843EA4063E06A43EAC0630B43D360BC
:1040E000136843F080731360D36843F08073D36028
:1040F000FDF702FE04462E4B1B6813F0007F06D12D
:10410000FDF7FAFD001B0228F5D903203FE000204F
:104110003DE0274AD168284B0B40D360002036E0B1
:10412000012B36D0224BDB6803F00301226A914257
:1041300031D103F0F002616A0139B2EB011F2CD1D9
:1041400003F4FE42A16AB2EB012F28D103F07842BA
:10415000E16AB2EBC16F24D103F4C001226B5208B3
:10416000013AB1EB425F1ED103F0C063626B5208AB
:10417000013AB3EB426F18D1002008E001207047EC
:10418000012004E0012002E0012000E0002002B054
:1041900070BD0120FBE70120F9E70120F7E70120CE
:1041A000F5E70120F3E70120F1E70120EFE700BF89
:1041B000001002400C809F01FCFFEEFE1E4B9B682E
:1041C00003F00C03042B33D01B4B9B6803F00C0350
:1041D000082B2FD0184B9B6803F00C030C2B01D03D
:1041E00000207047144BDA6802F00302D868C0F36D
:1041F0000310431C032A11D01048B0FBF3F00E4B00
:10420000DB68C3F3062303FB00F00B4BDB68C3F34F
:10421000416301335B00B0FBF3F070470848B0FB2B
:10422000F3F0054BDB68C3F3062303FB00F0ECE778
:104230000248704702487047001002400024F40012
:1042400000366E01002800F0E680F8B50C46054601
:10425000744B1B6803F00F038B420BD2714A136837
:1042600023F00F030B431360136803F00F038B421B
:1042700040F0D3802E6816F001065FD06B68032BE8
:104280002FD0022B4DD0684B1B6813F4806F00F0C9
:10429000C680FFF793FF654B98424DD9624A9368F9
:1042A00023F0F00343F08003936080265E4A936816
:1042B00023F0030369680B439360FDF71DFD074678
:1042C000594B9B6803F00C036A68B3EB820F35D03F
:1042D000FDF712FDC01B41F288339842F0D903204C
:1042E00078E0514B1B6813F0007F01D1012071E091
:1042F000FFF7C6FC4D4B98421AD94B4B9B6813F005
:10430000F00F05D02E6816F00206CFD0AB688BB93F
:10431000454A936823F0F00343F0800393608026BE
:10432000C4E7414B1B6813F4003FB2D1012051E0B8
:104330000026BBE70026B9E70026B7E72B6813F095
:10434000020F48D013F0040F04D0374A936843F4A7
:10435000E06393602B6813F0080F06D0324A93682D
:1043600023F47C5343F4E06393602F4A936823F073
:10437000F003A9680B4393602A4B1B6803F00F03FB
:10438000A34230D82B6813F0040F06D0264A936856
:1043900023F4E063E9680B4393602B6813F0080F84
:1043A00007D0214A936823F46053296943EAC10383
:1043B0009360FFF703FF1C4B9B68C3F303131C4A76
:1043C000D35C03F01F03D8401A4B18601A4B1868CF
:1043D000FDF74EFCF8BD802ECED1134A936823F032
:1043E000F0039360C8E70F4A136823F00F032343D9
:1043F0001360FDF781FC06460A4B1B6803F00F03B0
:10440000A342BFD0FDF778FC801B41F2883398426D
:10441000F2D90320DEE7012070470120DAE701200E
:10442000D8E700BF002002400010024000B4C404DE
:1044300098C600080000002008000020014B186802
:10444000704700BF0000002008B5FFF7F7FF054BDD
:104450009B68C3F30223044AD35C03F01F03D840D4
:1044600008BD00BF00100240A8C6000808B5FFF74D
:10447000E5FF054B9B68C3F3C223044AD35C03F0FA
:104480001F03D84008BD00BF00100240A8C60008A6
:10449000F0B583B00446036813F4002F69D0AE4B27
:1044A0009B6D13F0805F1ED1AB4B9A6D42F0805232
:1044B0009A659B6D03F080530193019B0126A74AE7
:1044C000136843F480731360FDF716FC0546A34B95
:1044D0001B6813F4807F08D1FDF70EFC401B0228F7
:1044E000F5D9032502E00026E9E7002545BB9A4BF4
:1044F000D3F8903013F4407315D0226C9A4212D046
:10450000954AD2F8903023F44073D2F8901041F4D9
:104510008031C2F89010D2F8901021F48031C2F8A6
:104520009010C2F8903013F0010F10D145B98A4AAB
:10453000D2F8903023F44073216C0B43C2F89030D2
:10454000C6B1854A936D23F08053936512E0FDF761
:10455000D3FB0746804BD3F8903013F0020FE5D120
:10456000FDF7CAFBC01B41F288339842F2D90325FC
:10457000DCE70025236813F0010F08D0764AD2F853
:10458000883023F0030361680B43C2F88830236846
:1045900013F0020F08D0704AD2F8883023F00C03D1
:1045A000A1680B43C2F88830236813F0040F08D0C9
:1045B000694AD2F8883023F03003E1680B43C2F82F
:1045C0008830236813F0080F08D0634AD2F8883087
:1045D00023F0C00321690B43C2F88830236813F02D
:1045E000200F08D05C4AD2F8883023F44063616918
:1045F0000B43C2F88830236813F0400F08D0564AA6
:10460000D2F8883023F44053A1690B43C2F88830B4
:10461000236813F0800F08D04F4AD2F8883023F473
:104620004043E1690B43C2F88830236813F4807F6C
:1046300008D0494AD2F8883023F44033216A0B432A
:10464000C2F88830236813F4007F08D0424AD2F8B9
:10465000883023F44023616A0B43C2F88830236812
:1046600013F4806F0CD03C4AD2F8883023F4401306
:10467000A16A0B43C2F88830A36AB3F5801F57D0F4
:10468000236813F4006F0CD0334AD2F8883023F437
:104690004003E16A0B43C2F88830E36AB3F5800F48
:1046A0004BD0236813F4805F0CD02B4AD2F88830AB
:1046B00023F04073216B0B43C2F88830236BB3F1B6
:1046C000807F3FD0236813F4005F0CD0224AD2F8D9
:1046D000883023F04063616B0B43C2F88830636B12
:1046E000B3F1006F33D0236813F4804F0CD01A4A13
:1046F000D2F8883023F04063A16B0B43C2F88830B6
:10470000A36BB3F1006F2BD0236813F4004F0CD0D0
:10471000114AD2F8883023F04053E16B0B43C2F8C2
:104720008830E36BB3F1805F1FD0284603B0F0BD43
:10473000D36843F48013D360A2E7D36843F48013B3
:10474000D360AEE7D36843F48013D360BAE7D3688D
:1047500043F48013D360C6E70010024000700040AD
:10476000D36843F48013D360CEE7D36843F4803337
:10477000D360DAE730B4036A026A22F0010202620F
:104780004568826922F4803222F073020C68224369
:1047900023F002038C6823431D4CA0420FD004F584
:1047A0000064A0420BD004F54064A04207D004F599
:1047B0008064A04203D004F58064A04205D123F0B8
:1047C0000803CC68234323F00403114CA0420FD00C
:1047D00004F50064A0420BD004F54064A04207D069
:1047E00004F58064A04203D004F58064A04207D1A0
:1047F00025F4407C4C6944EA0C0C8D6945EA0C05B3
:10480000456082614A684263036230BC704700BF02
:10481000002C014030B4036A026A22F48072026202
:104820004468C26922F4803222F073020D682A4380
:1048300023F400738D6843EA0523184DA84203D082
:1048400005F50065A84206D123F40063CD6843EA6C
:10485000052323F48063114DA8420FD005F50065B0
:10486000A8420BD005F54065A84207D005F5806544
:10487000A84203D005F58065A84207D124F4405C26
:104880004C694CEA041C8C694CEA04144460C26113
:104890004A68C263036230BC704700BF002C01400D
:1048A00030B4036A026A22F4805202624468C26928
:1048B00022F0807222F4E6420D6842EA052223F4D7
:1048C00000538D6843EA0533174DA84203D005F520
:1048D0000065A84206D123F40043CD6843EA0533BE
:1048E00023F48043104DA8420FD005F50065A8427F
:1048F0000BD005F54065A84207D005F58065A842B4
:1049000003D005F58065A84207D124F4404C4C69DA
:104910004CEA841C8C694CEA84144460C2614A6885
:104920000264036230BC7047002C014030B4036A5B
:10493000026A22F4803202624468026D22F48032FC
:1049400022F070020D682A4323F400338D6843EA95
:1049500005430F4DA8420FD005F50065A8420BD0C6
:1049600005F54065A84207D005F58065A84203D04B
:1049700005F58065A84204D124F480344D6944EAE9
:104980000524446002654A688264036230BC704753
:10499000002C014030B4036A026A22F480120262E1
:1049A0004468026D22F0807222F4E0420D6842EA0F
:1049B000052223F400138D6843EA05530F4DA842E6
:1049C0000FD005F50065A8420BD005F54065A8425B
:1049D00007D005F58065A84203D005F58065A8429B
:1049E00004D124F480244D6944EA8524446002659E
:1049F0004A68C264036230BC704700BF002C0140AB
:104A000010B4036A046A24F001040462846924F087
:104A1000F00C4CEA021223F00A030B43826103629A
:104A20005DF8044B704710B4036A046A24F0100464
:104A30000462846924F4704C4CEA023223F0A0032F
:104A400043EA0113826103625DF8044B7047836897
:104A500023F4401323F070030B4343F007038360F8
:104A60007047000090F83D30DBB2012B2DD10223BE
:104A700080F83D300368184A934218D0B3F1804F54
:104A800015D0A2F59432934211D002F58062934280
:104A90000DD002F59632934209D002F5406293425E
:104AA00005D01A6842F001021A6000207047996828
:104AB0000A4A0A40062A0AD0B2F5803F09D01A688D
:104AC00042F001021A600020704701207047002068
:104AD00070470020704700BF002C01400700010014
:104AE00070477047704770477047704770B505460C
:104AF0000368DE681C6914F0020F10D016F0020F74
:104B00000DD06FF002021A610123037703689B69DD
:104B100013F0030F7CD0FFF7E6FF00232B7714F090
:104B2000040F12D016F0040F0FD02B686FF00402A0
:104B30001A6102232B772B689B6913F4407F6DD099
:104B40002846FFF7D0FF00232B7714F0080F12D070
:104B500016F0080F0FD02B686FF008021A610423BB
:104B60002B772B68DB6913F0030F5ED02846FFF725
:104B7000BAFF00232B7714F0100F12D016F0100F8D
:104B80000FD02B686FF010021A6108232B772B6867
:104B9000DB6913F4407F4FD02846FFF7A4FF0023C2
:104BA0002B7714F0010F02D016F0010F4BD114F443
:104BB000025F02D016F0800F4DD114F4807F02D036
:104BC00016F0800F4FD114F0400F02D016F0400FB6
:104BD00051D114F0200F02D016F0200F53D114F44D
:104BE000801F02D016F4801F55D114F4001F02D08C
:104BF00016F4001F57D114F4800F02D016F4800F62
:104C000059D114F4000F02D016F4000F5BD170BD1F
:104C1000FFF768FF2846FFF767FF7EE72846FFF7A4
:104C200061FF2846FFF760FF8DE72846FFF75AFF30
:104C30002846FFF759FF9CE72846FFF753FF284611
:104C4000FFF752FFABE72B686FF001021A612846AD
:104C5000FFF747FFABE72B686FF402521A61284653
:104C600000F06FFDA9E72B686FF480721A61284687
:104C700000F068FDA7E72B686FF040021A61284634
:104C8000FFF733FFA5E72B686FF020021A61284673
:104C900000F056FDA3E72B686FF480121A612846D6
:104CA00000F051FDA1E72B686FF400121A6128464D
:104CB00000F04AFD9FE72B686FF480021A612846D6
:104CC00000F043FD9DE72B686FF400021A6128464F
:104CD00000F03CFD9BE700000368304A90420ED094
:104CE000B0F1804F0BD0A2F59432904207D002F57C
:104CF0008062904203D002F59632904203D123F0B5
:104D000070034A681343254A90421AD0B0F1804F8D
:104D100017D0A2F59432904213D002F580629042EF
:104D20000FD002F5963290420BD002F540629042CD
:104D300007D002F58062904203D002F58062904273
:104D400003D123F44073CA68134323F080034A69F4
:104D5000134303608B68C3620B6883620F4B9842F6
:104D60000FD003F5006398420BD003F540639842DF
:104D700007D003F58063984203D003F5806398421F
:104D800001D10B69036301234361036913F0010F30
:104D900003D0036923F0010303617047002C014035
:104DA00060B310B5044690F83D3013B3022384F885
:104DB0003D30214651F8040BFFF78EFF012384F8A4
:104DC000483084F83E3084F83F3084F8403084F82E
:104DD000413084F8423084F8433084F8443084F819
:104DE000453084F8463084F8473084F83D30002060
:104DF00010BD80F83C30FCF793FDD7E701207047E9
:104E000060B310B5044690F83D3013B3022384F824
:104E10003D30214651F8040BFFF75EFF012384F873
:104E2000483084F83E3084F83F3084F8403084F8CD
:104E3000413084F8423084F8433084F8443084F8B8
:104E4000453084F8463084F8473084F83D300020FF
:104E500010BD80F83C30FFF743FED7E701207047D4
:104E600030B4036A026A22F0100202624468826966
:104E700022F0807222F4E6420D6842EA052223F015
:104E800020038D6843EA0513174DA84203D005F5AA
:104E90000065A84206D123F08003CD6843EA0513DC
:104EA00023F04003104DA8420FD005F50065A8423D
:104EB0000BD005F54065A84207D005F58065A842EE
:104EC00003D005F58065A84207D124F4406C4C69F5
:104ED0004CEA840C8C694CEA8404446082614A6820
:104EE0008263036230BC7047002C014038B590F8F3
:104EF0003C30012B00F0958004460D46012380F8DC
:104F00003C30142A00F28880DFE802F00B868686A7
:104F10001F86868634868686488686865D86868651
:104F200071000068FFF726FC2268936943F00803CC
:104F300093612268936923F0040393612268936963
:104F400029690B439361002067E00068FFF788FF41
:104F50002268936943F4006393612268936923F4A0
:104F60008063936122689369296943EA012393610D
:104F7000002052E00068FFF74DFC2268D36943F03F
:104F80000803D3612268D36923F00403D361226844
:104F9000D36929690B43D36100203EE00068FFF725
:104FA0007FFC2268D36943F40063D3612268D3692C
:104FB00023F48063D3612268D369296943EA01231A
:104FC000D361002029E00068FFF7B0FC2268136D70
:104FD00043F0080313652268136D23F0040313657F
:104FE0002268136D29690B431365002015E00068E2
:104FF000FFF7D0FC2268136D43F400631365226849
:10500000136D23F4806313652268136D296943EAE5
:1050100001231365002000E00120002384F83C30C8
:1050200038BD0220FCE710B4846824F47F4C42EAC7
:1050300003220A4342EA0C0282605DF8044B704787
:1050400090F83C30012B00F08F8010B5044601230E
:1050500080F83C30022380F83D3002689068434B72
:10506000034093600B68702B55D031D8502B6CD017
:105070000CD9602B2AD1CA6849682068FFF7D3FC95
:1050800060212068FFF7E3FC002035E0402B0AD1C7
:10509000CA6849682068FFF7B3FC40212068FFF721
:1050A000D6FC002028E05BD8202B07D003D9302B7A
:1050B00004D0012020E00BB1102B05D11946206847
:1050C000FFF7C5FC002017E0012015E0012013E0E8
:1050D000B3F5005F2CD00BD9254A9342EED012D9FC
:1050E000244A9342EAD030329342E7D0012003E0D1
:1050F000B3F5805F36D10020012384F83D300023D2
:1051000084F83C3010BDB3F1101FD7D0103A934251
:10511000D4D00120F0E7CB684A6889682068FFF79F
:1051200082FF2268936843F0770393600020E3E7EF
:10513000CB684A6889682068FFF775FF2268936822
:1051400043F4804393600020D6E7CA68496820682A
:10515000FFF756FC50212068FFF779FC0020CBE7D1
:105160000120C9E70120C7E7022070478800CEFF71
:10517000300010004000100001F01F01012303FA6D
:1051800001FC036A23EA0C030362036A02FA01F1D9
:105190000B4303627047000010B50446084600291F
:1051A00047D194F83E30DBB2013B18BF0123002BFE
:1051B00040F09480002867D1022384F83E30012219
:1051C00001462068FFF7D8FF2368474A93420FD073
:1051D00002F5006293420BD002F54062934207D081
:1051E00002F58062934203D002F58062934203D1BC
:1051F0005A6C42F400425A6423683B4A93425FD09F
:10520000B3F1804F5CD0A2F59432934258D002F5AE
:105210008062934254D002F59632934250D002F508
:10522000406293424CD01A6842F001021A6000209A
:1052300055E004290CD0082911D00C2916D01029CA
:105240001BD094F84330DBB2013B18BF0123AEE71B
:1052500094F83F30DBB2013B18BF0123A7E794F875
:105260004030DBB2013B18BF0123A0E794F8413086
:10527000DBB2013B18BF012399E794F84230DBB25F
:10528000013B18BF012392E7042809D008280BD05E
:105290000C280DD010280FD0022384F843308EE75D
:1052A000022384F83F308AE7022384F8403086E7FF
:1052B000022384F8413082E7022384F842307EE7FB
:1052C00099680A4A0A40062A0AD0B2F5803F09D0F6
:1052D0001A6842F001021A60002000E0012010BDAF
:1052E0000020FCE70020FAE7002C01400700010045
:1052F00038B504460D4600220068FFF73DFF2368DD
:10530000284A93420FD002F5006293420BD002F577
:105310004062934207D002F58062934203D002F5C7
:10532000806293420DD1196A41F21112114208D1E3
:10533000196A44F24442114203D15A6C22F40042E9
:105340005A642368196A41F21112114208D1196A8C
:1053500044F24442114203D11A6822F001021A6059
:1053600025B9012384F83E30002038BD042D09D032
:10537000082D0BD00C2D0DD0102D0FD0012384F84B
:105380004330F1E7012384F83F30EDE7012384F84F
:105390004030E9E7012384F84130E5E7012384F850
:1053A0004230E1E7002C014001F00F01042303FA31
:1053B00001FC036A23EA0C030362036A02FA01F1A7
:1053C0000B4303627047000010B5044608460029ED
:1053D00033D194F84430DBB2013B18BF0123002BDA
:1053E00062D1002842D1022384F8443004220146CD
:1053F0002068FFF7D9FF2268536C43F400435364DD
:1054000023682C4A934241D0B3F1804F3ED0A2F59D
:10541000943293423AD002F58062934236D002F53C
:105420009632934232D002F5406293422ED01A68EF
:1054300042F001021A60002037E0042908D0082950
:105440000DD094F84730DBB2013B18BF0123C6E70B
:1054500094F84530DBB2013B18BF0123BFE794F855
:105460004630DBB2013B18BF0123B8E7042805D062
:10547000082807D0022384F84730B7E7022384F8CE
:105480004530B3E7022384F84630AFE799680A4A0B
:105490000A40062A0AD0B2F5803F09D01A6842F0C5
:1054A00001021A60002000E0012010BD0020FCE78E
:1054B0000020FAE7002C01400700010038B504463F
:1054C0000D4600220068FFF76FFF2368196A41F25A
:1054D0001112114208D1196A44F24442114203D117
:1054E0005A6C22F400425A642368196A41F211127C
:1054F000114208D1196A44F24442114203D11A6898
:1055000022F001021A6025B9012384F844300020FA
:1055100038BD042D05D0082D07D0012384F847306D
:10552000F5E7012384F84530F1E7012384F846309C
:10553000EDE7000090F83C30012B40D030B401235F
:1055400080F83C30022380F83D300268536894684C
:105550001C4DAA4203D005F50065AA4203D123F4ED
:1055600070034D682B4323F0007323F070030D6824
:105570002B4353600368134A934212D0B3F1804F18
:105580000FD0A2F5943293420BD002F58062934281
:1055900007D002F59632934203D002F5406293425F
:1055A00004D124F080048A6814439C60012380F8AD
:1055B0003D30002380F83C30184630BC7047022054
:1055C000704700BF002C014090F83C30012B46D0C2
:1055D00010B4012380F83C30CB6823F440738A6810
:1055E000134323F480634A68134323F400630A6877
:1055F000134323F480530A69134323F400534A6985
:10560000134323F480430A6B134323F470238A6902
:1056100043EA024323F08053CA6913430268114CE2
:10562000A24203D004F50064A24210D123F4700317
:105630008C6A43EA045323F080730C6A234323F0FB
:1056400000734C6A234323F00053C96A0B4353642D
:10565000002380F83C3018465DF8044B7047022068
:10566000704700BF002C0140034690F83C00012821
:1056700064D0F0B5012083F83C001568681E0F283F
:1056800029D8DFE800F0082E280E2828281C282812
:105690002828282828224FF0090C00264FF4007EE5
:1056A00004E04FF00B0C02264FF4006E01291ED0CF
:1056B00002292FD00120002283F83C20F0BD4FF0BA
:1056C0000C0C03264FF4805EF0E74FF00D0C04261F
:1056D0004FF4005EEAE74FF0000C6646E64665468A
:1056E000E4E74FF00A0C01264FF4806EDEE71C68F9
:1056F000206E5168B140414029404140926802FA11
:105700000CFC8CEA010C0CEA0E0E8EEA01012166FB
:105710000020D0E71C68676E506800FA06F17940F7
:1057200029407940926802FA0CFC8CEA010C0CEAE0
:105730000E0E8EEA010161660020BCE70220704770
:1057400070477047704770477047704770470268EE
:1057500052E8003F23F4907342E800310029F6D16B
:10576000026802F1080353E8003F23F0805323F05E
:105770000103083242E800310029F1D1C36E012B48
:1057800006D02023C0F88C300023C36643677047DF
:10579000026852E8003F23F0100342E8003100297C
:1057A000F6D1EEE770B504460168836802691343D9
:1057B00042691343C269134308688B4A024013438A
:1057C0000B602268536823F44053E1680B43536035
:1057D000A1692268854B9A4201D0236A19439368D4
:1057E00023F06E4323F430630B4393602268D36A43
:1057F00023F00F03616A0B43D36223687C4A934210
:1058000023D07C4A934234D07B4A93424AD07B4A8D
:10581000934259D0754A934268D0102273498B4203
:1058200000F09580E069B0F5004F00F0D280082AC2
:1058300000F24F81DFE812F01201340110014D0136
:1058400037014D014D014D013A0102F55842D2F8A0
:10585000882002F00302032A09D8DFE802F00204DC
:105860005C060122DAE70422D8E70822D6E71022F4
:10587000D4E702F5E632D2F8882002F00C020C2AB6
:105880000ED8DFE802F0070D0D0D090D0D0D4A0DC4
:105890000D0D0B000022C1E70422BFE70822BDE77F
:1058A0001022BBE702F5E432D2F8882002F0300281
:1058B000202A34D004D8A2B3102A34D10422ADE770
:1058C000302A32D10822A9E702F5E232D2F8882044
:1058D00002F0C002802A2AD004D852B3402A2AD12A
:1058E00004229BE7C02A28D1082297E702F5C83294
:1058F000D2F8882002F44062B2F5006F1FD005D8BC
:10590000FAB1B2F5806F1ED1042287E7B2F5406F7D
:105910001BD1082282E7022280E702227EE70222D0
:105920007CE700227AE7102278E7102276E702224D
:1059300074E7002272E7102270E710226EE702225D
:105940006CE700226AE7102268E7102266E7082A5F
:1059500000F2AF80DFE802F008AD3BAD38ADADAD91
:1059600005004FF4004004E0FEF76EFD002800F053
:10597000A280626A224B33F81220B0FBF2F3656812
:1059800005EB4501994200F29880B3EB053F00F228
:105990009680002633463146FAF746FE090241EA70
:1059A000106100026B08C0182A46334641F100011D
:1059B000FAF73AFEA0F54072124B9A4200F281804B
:1059C0002368D860304662E0FEF7F8FBCEE70E4869
:1059D000CFE7082A77D8DFE802F0193905763C7658
:1059E00076761D00084815E0F369FFCF008000407F
:1059F000003801400044004000480040004C004096
:105A0000B0C60008FFFC0F000024F400FEF71CFDE8
:105A100000285AD0626A324B33F81230B0FBF3F0F0
:105A20006268530803EB4000B0FBF2F0A0F11002F3
:105A30004FF6EF739A424AD883B223F00F03C0F3B4
:105A4000420018432368D860002020E0FEF70EFDD6
:105A5000DEE7FEF7B3FBDBE7224803E0FEF7F4FCEA
:105A6000002838D0626A1E4B33F81230B0FBF3F0D6
:105A7000636800EB5300B0FBF3F0A0F110024FF6A7
:105A8000EF739A4229D8236880B2D860002001239E
:105A9000A4F86A30A4F8683000236367A36770BD78
:105AA000FEF7E4FCDCE7FEF789FBD9E74FF40040A2
:105AB000D8E70120EBE70020E9E70120E7E7012034
:105AC000E5E70120E3E70120E1E70020DFE701202F
:105AD000DDE70120DBE70020D9E70120D7E700BFA1
