:020000040800F2
:1000000000040020390200083B0200083B020008FF
:100010003B0200083B0200083B0200083B020008CC
:100020003B0200083B0200083B0200088110000868
:100030003B0200083B0200083B0200083B020008AC
:100040003B0200083B0200083B0200083B0200089C
:100050003B0200083B0200083B0200083B0200088C
:100060003B0200083B0200083B0200083B0200087C
:100070003B0200083B0200083B0200083B0200086C
:100080003B0200083B0200083B0200083B0200085C
:100090003B0200083B0200083B0200083B0200084C
:1000A0003B0200083B0200083B0200083B0200083C
:1000B000611300083B0200083B0200083B020008F5
:1000C0003B0200083B0200083B0200083B0200081C
:1000D0003B0200083B020008B11100083B02000887
:1000E0003B0200083B0200083B0200083B020008FC
:1000F0003B0200083B0200083B0200083B020008EC
:100100003B0200083B0200083B0200083B020008DB
:100110003B0200083B0200083B0200083B020008CB
:100120003B0200083B0200083B0200083B020008BB
:100130003B0200083B0200083B0200083B020008AB
:100140003B0200083B0200083B0200083B0200089B
:100150003B0200083B0200083B0200083B0200088B
:1001600072B6264880F30888254880F30988254818
:1001700025490860022080F31488BFF36F8F01F0D7
:10018000B7F900F0D5FF4FF0553020491B4A914296
:100190003CBF41F8040BFAE71D49194A91423CBFA4
:1001A00041F8040BFAE71B491B4A1C4B9A423EBF1D
:1001B00051F8040B42F8040BF8E700201849194ADB
:1001C00091423CBF41F8040BFAE701F049F901F014
:1001D00087F9154C154DAC4203DA54F8041B8847D7
:1001E000F9E700F0BDFC124C124DAC4203DA54F8B2
:1001F000041B8847F9E701F06BB9000000040020F8
:10020000000800200000000808ED00E000000020C9
:1002100000040020D4150008000800200008002079
:1002200000080020900C0020600100086001000818
:10023000600100086001000892E700F000F8FEE7A6
:100240002DE9F04FC1F80CD0C3689D46BDE8F08F92
:10025000002383F311882846A047002000F020FFE8
:10026000FEE700F045FF00DFFEE70000844641EABC
:10027000000313F0030349D1403A23D30B68036012
:100280004B6843608B688360CB68C3600B69036114
:100290004B6943618B698361CB69C3610B6A0362FC
:1002A0004B6A43628B6A8362CB6AC3620B6B0363E4
:1002B0004B6B43638B6B8363CB6BC36340304031C9
:1002C000403ADBD230320BD30B6803604B6843609B
:1002D0008B688360CB68C36010301031103AF3D262
:1002E0000C3205D351F8043B40F8043B043AF9D2F0
:1002F000043208D0D2071CBF11F8013B00F8013BC3
:1003000001D30B8803806046704700BF082A13D3CF
:100310008B07B1D010F00303AED0C3F10403D21A9F
:10032000DB071CBF11F8013B00F8013BA4D331F8F7
:10033000023B20F8023B9FE7043AD9D3013A11F877
:10034000013B00F8013BF9D20B7803704B78437006
:100350008B7883706046704700000000000000004A
:10036000FEE700BF000000000000000000000000E9
:10037000302330B483F311880B4B4942D3E9004555
:10038000281A0840821AA24207D3954205D35A6020
:10039000002383F3118830BC70470020002383F3CF
:1003A000118830BC704700BFC80A00200000000060
:1003B000024AD36843F0C003D36070470044004052
:1003C000302383F311880D4B5B6813F4006302D173
:1003D00083F311887047EFF309834FF08072203B5D
:1003E000DA6183F30988064A1168D26889689268DD
:1003F00091428CBF034A044A9A61704700ED00E0C5
:100400008008002063020008660200080000000067
:10041000084B10B4D3E900424942101A0840A042E8
:1004200004D3824202D310BC58607047002010BC35
:10043000704700BFC80A0020000000000000000054
:100440000E4A0F4B91685B6882685B1A9B1AC26800
:1004500030B4D0E9044541680132E418C0E9023201
:10046000026845F100058B4288BF43609342C0E9B2
:10047000044530BC38BF0360704700BFD00A00207D
:10048000001000E00000000000000000000000007C
:10049000014B5B6883607047001000E000000000C3
:1004A000012914BF6FF01300002070470000000006
:1004B00030B4174C256A8D4213D8B1F57F4F28BF51
:1004C0004FF47F414FF0804243189BB25363536A0D
:1004D0009BB2181A80B2814298BF294604D930BC19
:1004E00070472946EEE703460131581880B2506341
:1004F000506A80B2C31A9BB28B42F4D28D42EED2C4
:10050000E36B216243F00103E36330BC704700BF3B
:100510008008002000000000000000000000000033
:100520001E4BF0B403F110049983C0E901421E6A26
:100530001C69B24204606060186117D3B2F57F4F46
:1005400028BF4FF47F424FF08040022500278C18CF
:10055000A4B244630761C560446AA4B2651AADB22F
:10056000AA4298BF354605D9F0BC70473246EAE743
:10057000214614460135294489B24163426A92B248
:10058000111B89B2A942F3D2AE42EDD2DA6B1D62E1
:1005900042F00102DA63F0BC704700BF800800201F
:1005A000302383F311880B7F0C2B10D8DFE803F086
:1005B000290F0F250B070F0B0F0F0F0F0B004A6BA7
:1005C000936801339360D1E9003213605A600022CE
:1005D00010B44FF0FF340B6988684C630A771B68CE
:1005E0009A688242FBD25A680020C1E90032116049
:1005F000596080F3118810BC704700224B6B1A6061
:10060000E5E7002383F31188704700BF0000000076
:1006100000220369816802771B689A688A42FBD2CC
:100620005A68C0E90032106058607047000000004E
:10063000F8B5154F57F8044FBC421FD005460026A9
:1006400004E00B2A1BD02468BC4217D0E3682B437C
:10065000E36015B123691D42F5D0D4E90103416C73
:10066000027F0B430A2A4364EBD1426B1342EAD068
:100670004663FFF7CDFF2468BC42E7D1F8BD426B6B
:1006800032EA0303DFD1F3E7000800200000000096
:1006900030B40125064BD9681A68087714681046EB
:1006A000636015771C6030BCDA60FFF7C9BD00BF1E
:1006B0008008002000000000000000000000000092
:1006C0002DE9F0433D4D4B1CD5F80C9087B045D03B
:1006D0000022A8464FF08043059258F8102F064696
:1006E000586A374B42450C46CDF8109080B20393C0
:1006F00058D0AB8B9768C31A9BB2CB1838BF1C4637
:10070000A74232D893689C4204D91268E41A9368CD
:10071000A342FAD36F464FF0FF300294D2E9013181
:100720000C1BCDE900231F60C2E90174A8613046AB
:10073000FFF7AEFF009B63B12A69BA4219D0DDE929
:1007400001144FF0FF309A680B602244C3E9011294
:10075000A861D9F8340007B0BDE8F083FFF798FF2F
:10076000D9F8340007B0BDE8F083FFF7A1FE2A698D
:10077000C8E700212B61C3F804802A690091424533
:1007800017D04FF080409168029CAB8B2144916060
:10079000406A80B2C31A9BB29942DAD9C91AFFF7EC
:1007A00087FED6E76F460A4601463846FFF7B8FE91
:1007B000BDE74FF08043D960CBE700BF8008002041
:1007C000A10500080000000000000000000000007B
:1007D000084AD26851B1034610B44468C2E9000423
:1007E0002260042010BC5A60FFF76ABF4FF0FF3050
:1007F000704700BF800800200000000000000000DB
:10080000F8B504460F461646302383F3118805E0F9
:1008100031462046FFF7DCFF002817DBA568002DD6
:10082000F6D06269A368511C013B6161A360177037
:10083000D4E904329A4224BFE3686361E3690BB1EF
:1008400020469847002080F31188F8BD85F3118871
:10085000F8BD00BF00000000000000000000000024
:100860003030FFF7CDBF00BF0000000000000000E7
:100870004FF0FF323030FFF7C3BF00BF0000000071
:1008800070B5302305460E4683F3118805E03146E6
:100890002846FFF79DFF002818DBAC68002CF6D037
:1008A000A969AB6828694A1C013B8242AB6028BF3A
:1008B000EB68AA610C7828BFAB61EB690BB12846E5
:1008C0009847002383F31188204670BD84F3118874
:1008D00070BD00BF0000000000000000000000002C
:1008E0000C30FFF7CDBF00BF00000000000000008B
:1008F0004FF0FF310C30FFF7C3BF00BF0000000016
:1009000008B50146302383F311880820FFF7D8FE8D
:10091000002383F3118808BD0000000000000000E0
:100920004FF400552E4608B5074B084ADB68084CC3
:100930001A624FF47A702661FFF7E2FF4FF47A7083
:100940006561FFF7DDFFF4E780080020F41400087C
:100950000010014000000000000000000000000046
:100960002DE9F04F85B04FF03009CDE90232C7696B
:1009700089F31188AAB304460E464FF0000ADDF849
:100980000CB0A268934598BF5D46D4E9042088BFA7
:10099000A568A2EB0008A84544D829D2A5EB080316
:1009A000424631460193FFF761FC06EB0801DDF892
:1009B0000480E0684246FFF759FC4346A268E168BC
:1009C000521BCB186361A2600FB12046B8478AF36F
:1009D0001188ABEB050B2E4489F31188BBF1000F96
:1009E000CFD10023039883F3118805B0BDE8F08FC1
:1009F0002A463146FFF73AFCE2686261A268521B60
:100A0000A260002DE0D120460299FFF7E1FE002808
:100A1000B7D0039BA3EB0B00002383F3118805B031
:100A2000BDE8F08F2A463146FFF720FC62692A4470
:100A30006261E3E700000000000000000000000029
:100A40003030FFF78DBF00BF000000000000000045
:100A50004FF0FF333030FFF783BF00BF00000000CE
:100A60002DE9F04F85B04FF03009CDE90232C7696A
:100A700089F31188002A35D004460E464FF0000A4B
:100A8000DDF80CB0A268A169934598BF5D46226964
:100A900088BFA568A2EB0108A84544D829D2A5EBD8
:100AA0000803424630460193FFF7E0FB06EB0800DF
:100AB000DDF80480E1684246FFF7D8FB4346A268B0
:100AC000E168521BCB18A361A2600FB12046B84762
:100AD0008AF31188ABEB050B2E4489F31188BBF127
:100AE000000FCFD10023039883F3118805B0BDE830
:100AF000F08F2A463046FFF7B9FBE268A261A26890
:100B0000521BA260002DE0D120460299FFF760FE43
:100B10000028B7D0039BA3EB0B00002383F31188BD
:100B200005B0BDE8F08F2A463046FFF79FFBA2696B
:100B30002A44A261E3E700BF0000000000000000BB
:100B40000C30FFF78DBF00BF000000000000000068
:100B50004FF0FF330C30FFF783BF00BF00000000F1
:100B60004FF0FF3600204FF4807A2DE980484FF097
:100B700060094FF0400E8027C449DFF870B30A695E
:100B80000E610A6908610A69CA68CE60CA68C860ED
:100B9000CA68CA694FF0010C42F08052CA61CA6942
:100BA000CA69BB4B42F00062CA61CA69DBF8002027
:100BB000984642EA0A02CBF80020B64A4FF0804538
:100BC00082F80693C2F880E1C2F800E082F8079349
:100BD000C2F8807117604FF4007782F80893C2F86A
:100BE00080A1C2F800A082F80993C2F88071176052
:100BF0004FF4806782F80A93C2F8807117604FF44F
:100C0000000782F81793C2F8807117604FF0883799
:100C100082F82893C2F884A1C2F804A0D1F81890F1
:100C2000DFF8CCA249F07D09C1F81890DFF8C49232
:100C3000D1F818B0CAF80C60CAF80470CAF800708D
:100C4000C9F80C60C9F80470C9F80070DFF8A89200
:100C5000CAF80C68CAF80498DFF8A092CAF80078BD
:100C600083F808C0C9F80C60C9F80470443FC9F89B
:100C70000070894F0424F86078603860874F5861AD
:100C800048F8047BC3F8048003F1540703F10C080F
:100C90009F615F62C3E903881F6210279F636FF043
:100CA0003F0782F82673C2F884E1C2F804E0CF69F6
:100CB000986247EA0C07CF61794FC9697968DB62AE
:100CC00041F400611B65796048F69F41A9624FF6C7
:100CD000FF71E9627349A861D96473496863596710
:100CE0007249E86099676FF07F016860C5F814C0C9
:100CF000C5F800C003F1740582F81C1303F1640108
:100D00001D6403F13005C3E91111C3E90C55D96124
:100D1000D9634FF08053C2F8803113600022002362
:100D2000634F87B0CDE90423CDE90060CDE902002F
:100D3000C7E9010087F800C06846FFF7A9FB6846CD
:100D4000FFF77EFB013CF7D14FF0140E04204FF06B
:100D50001C0C5849584E594A751A594B9560594DB3
:100D6000DFF89C816E6003F124065E6203F12806C1
:100D7000516029609E6202EB0E05534903F13C0667
:100D8000C2E90555C3F818E0DE6303F1400E03F134
:100D90004406C2E90344D461C2F8008003F11002A2
:100DA0004A4D1A61C3E90033C3E910E6484A9C6022
:100DB0005C61DC62C3F830C0D86158631962996322
:100DC000009B4FF03009C7E90153AC632A6489F3F3
:100DD000118862B64FF6FF0C20263E4B3E4AD9687A
:100DE0006D6001EA0C010A430CF1604CDA60ACF66C
:100DF0000F3CDCF80C20394942F08072CCF80C2012
:100E00000A684FF0804042F00102AC600A600021A5
:100E10004FF0FF3C8022DE774FF00208012683F876
:100E20002290406A2E4B80B2C5E90A012D49C5F8CF
:100E300018C0C5F8AC10DFF8CCC005F1CC012A48C9
:100E4000C5F8CC10C5F89C2005F11001C5F8E020CC
:100E500005F19402C5E90411C5F8A800C5E93044BC
:100E6000C5E936442D60EC63AC8385F8B140C5F824
:100E7000A450C5F8E440C5F8208085F8B260C5F8F4
:100E8000B4C0EA6003F58072EA653DE000100240FC
:100E90000008002000E100E000180140AC15000847
:100EA000002004E0B1030008004400400051250286
:100EB000D00A0020900C002000500020DC0A002006
:100EC000800A0020C80A00201104000880080020C1
:100ED0001815000800ED00E00003FA05001000E01E
:100EE000800900200008002000040020007000405D
:100EF00000080140000C0140888838880014014037
:100F000071030008FC140008534905F17C02DFF866
:100F100060A1EA6703F1DC02AB65C3F8E0402A6533
:100F2000C3F8DC1005EB0902C3F8FCA04B4805F13F
:100F3000B80305F1D001C5F8BC20AA662B6305F102
:100F40008002EB6605F168036866C5E91C44C5E9E3
:100F50002346C5E93411C5E9202285F8B060EE6466
:100F60006D65C5F88840A5F8608085F8626005F178
:100F70004400C5F8B8306B63FFF74AFB87F8008080
:100F800084F311888122364B364F03F5C8713648F9
:100F9000C3E9553183F85E6103F5BC7C03F58E76B9
:100FA00003F5BE71C3E95B44C3E96144C3E95F1162
:100FB000A3F85C81C3F85051C3F82041C3F83CA1A9
:100FC000C3F878C1C3F86071C3F84C61C3F81C0161
:100FD000C3F84821C3F88C2189F31188D3F8502134
:100FE00003F5B27002EB0901C3F86411566BE968AE
:100FF000C3F86861306050638868D3F84861C3F80B
:101000007441864218D90A690C7712689468A04224
:10101000FBD3012654681548C1E9002421605160C2
:1010200083F85C61E860FFF70BF9002383F3118814
:101030006420FFF765FCFBE783F85C411268916868
:101040008E42FBD9C3F8402150680849C3F84401D7
:1010500001605160E9E700BF610300080415000862
:10106000000B00200C15000821090008400C00208E
:101070005102000800000000000000000000000015
:10108000EFF30983203383F30988002383F3118866
:10109000704700BF000000000000000000000000DA
:1010A00038B5302383F31188104BDC68A36B04F14F
:1010B00038059D42606306D1A37F7BB1BDE838400F
:1010C0000F20FFF7E5BA1A681846A263FFF7A0FAE7
:1010D000A36BAB42F7D1A37F002BEFD1E36A002BC8
:1010E000ECD1D4E9093213605A60E7E780080020A8
:1010F000012330B400250B4A1068D168046862608F
:1011000003770B6914600D778C68D0601B689A6850
:10111000A242FBD830BC5A68C1E900321160596064
:10112000FFF78EB8800800200000000000000000DB
:101130001B4A1346116841F0010111601A689107BA
:10114000FCD500201968164A01F0F90119605860B1
:10115000536813F00C0FFBD11168114B41F480312F
:1011600011601A689203FCD559680D4A41F4E811E0
:101170005960196841F08071196013689B01FCD5B2
:101180001221084B0848506019605368044943F025
:10119000020353604B6803F00C03082BFAD170472D
:1011A000001002400020024000841D0000000000EA
:1011B0002DE9F843654C666F3368DA059DB27DD43E
:1011C000302383F3118815F02F0F4CD04FF0000817
:1011D0005F4F08E0AD06D6F804901ED4336813F0D4
:1011E0002F0F9DB23FD02B07F4D015F0080F0CBF86
:1011F00000204FF48070E90748BF40F02000AA07A4
:1012000048BF40F040006B0748BF40F08000FFF748
:101210000FFAAD06D6F80490E0D5636994F87C50D7
:10122000002B3CD0D4E9083293423FD06269591C6C
:10123000013205EA0905626121621D70D4E90732B5
:101240009A4201D3A3692362E068B842C6D003681A
:10125000E3605F60C0F83480FFF7DAF9336813F0B9
:101260002F0F9DB2BFD1002383F31188F3681806B6
:101270009FB201D529062FD47A060BD56B0609D566
:10128000302383F31188D4E911239A424AD00023F2
:1012900083F31188F760BDE8F843FFF791B80420A5
:1012A000FFF7C6F9D4E908329342BFD16269002A38
:1012B000BCD04FF40060FFF7BBF98FE7302383F316
:1012C00011884FF48060FFF7B3F96FF48072002348
:1012D000326083F3118873E7302383F31188D4E9F4
:1012E00011239A4228D0A26B206C591C0132A263B0
:1012F000A164814293F8008001D3E36BA364206B67
:10130000144B984206D00021026822635360416367
:10131000FFF77EF9C6F80480002383F311887A066C
:10132000B8D5ABE7A36B002BB1D0102027F0400756
:10133000FFF77EF9BFB2AAE7A26B002AD3D008203C
:1013400027F08007FFF774F9BFB2E5E70008002037
:101350000C08002030080020000000000000000001
:101360002DE9F0474FF080452B69EA681340DAB267
:10137000D2439B072A6103D4BDE8F047FFF720B8AA
:10138000302383F311880027324E06F110094FF005
:101390003008686AB38B346980B2A268C11A89B216
:1013A000134491421FFA83FA35D3D4E90032A6F8E8
:1013B0001CA013605A60276033694B4508BFEF607B
:1013C00087F3118820462169E368984788F31188DC
:1013D0006369002BDDD0696A89B2A1EB0A0A1FFAA2
:1013E0008AFA534525D3306948452BD08268934209
:1013F00004D900689B1A82689A42FAD34FF0FF31F1
:10140000A36082682060D31A426862601460C0E9F9
:101410000143B161BBE74C4504D0511AB083A160D0
:10142000FFF746F8002383F31188BDE8F047FEF785
:10143000C7BFF36B306943F002034845F36307D03D
:101440005346D3E7A3EB0A022046FFF769F8E9E722
:101450000022F9E7800800200000000000000000E2
:10146000F0B40026134F144D1448154B154907F1DD
:10147000700C984211D91A46043951F8044F42F8B9
:10148000044B9042F9D8421ED21A22F003020432D1
:1014900013449D4203D943F8046B9D42FBD8674532
:1014A00005D0D7E90413D7E906051037E1E7F0BC0A
:1014B000704700BF2C150008900C0020900C0020F5
:1014C000900C0020D415000800000000000000006F
:1014D000FEE700BF00000000000000000000000068
:1014E000704700BF00000000000000000000000086
:0414F000704700BF82
:1014F400626C696E6B6572006D61696E000000005C
:1015040069646C65000000006E6F6E616D650000BB
:1015140063300000141500080004002000080020B7
:1015240080090020800A0020D4150008900C0020B7
:10153400900C0020900C0020D4150008000000003E
:101544000000000000000000D415000800000000A6
:101554000000000000000000D41500080000000096
:101564000000000000000000D41500080000000086
:101574000000000000000000D41500080000000076
:101584000000000000000000D41500080000000066
:101594000000000000000000D41500080000000056
:1015A400000000000000000000000000510A0008D4
:1015B400510B000871080008F108000861080008D0
:1015C400E1080008410A0008410B0008A1040008D2
:0400000508000239B4
:00000001FF
