:020000040800F2
:100000000007002079020008EB18000867170008B5
:10001000E91800087F030008A31E00080000000084
:10002000000000000000000000000000AB19000804
:100030008103000800000000A9190008AD1900089C
:10004000930200089302000893020008930200083C
:10005000930200089302000893020008930200082C
:10006000930200089302000893020008930200081C
:10007000930200089302000893020008930200080C
:100080009302000800000000930200089302000899
:1000900093020008930200089302000893020008EC
:1000A00093020008251A0008930200089302000832
:1000B00093020008930200089302000893020008CC
:1000C00093020008930200089302000893020008BC
:1000D00093020008930200089302000893020008AC
:1000E000930200089302000893020008930200089C
:1000F0009302000893020008930200080000000029
:1001000000000000930200080000000093020008B5
:100110009302000800000000930200089302000808
:10012000930200089302000893020008930200085B
:100130009302000800000000000000009302000885
:100140009302000893020008000000000000000075
:10015000000000000000000000000000000000009F
:1001600000000000000000000000000093020008F2
:1001700093020008000000000000000000000000E2
:1001800000000000930200080000000000000000D2
:10019000000000000000000000000000000000005F
:1001A0000000000000000000930200089302000815
:1001B0009302000893020008930200080000000068
:1001C0000000000093020008000000000000000092
:1001D000930200089302000800F002F800F03CF8D7
:1001E0000AA090E8000C82448344AAF10107DA4592
:1001F00001D100F031F8AFF2090EBAE80F0013F0A8
:10020000010F18BFFB1A43F001031847081F000035
:10021000281F0000103A24BF78C878C1FAD85207C6
:1002200024BF30C830C144BF04680C607047000070
:100230000023002400250026103A28BF78C1FBD8EF
:10024000520728BF30C148BF0B6070471FB501F08F
:1002500053FF1FBD10B510BD00F058F81146FFF751
:10026000F5FF01F03BFF00F076F803B4FFF7F2FF73
:1002700003BC00F07DF800000948804709480047AA
:10028000FEE7FEE7FEE7FEE7FEE7FEE7FEE7FEE746
:10029000FEE7FEE704480549054A064B70470000A3
:1002A000151A0008D90100080001002000070020ED
:1002B00000030020000300204FF0000200B51346A9
:1002C00094469646203922BFA0E80C50A0E80C5076
:1002D000B1F12001BFF4F7AF090728BFA0E80C5027
:1002E00048BF0CC05DF804EB890028BF40F8042B20
:1002F00008BF704748BF20F8022B11F0804F18BF8D
:1003000000F8012B7047704770477047754600F042
:100310002BF8AE4605006946534620F00700854697
:1003200018B020B5FFF7B6FFBDE820404FF000063B
:100330004FF000074FF000084FF0000B21F00701CD
:10034000AC46ACE8C009ACE8C009ACE8C009ACE810
:10035000C0098D46704710B50446AFF300802046B3
:10036000BDE81040FFF781BF00487047A0000020A3
:1003700001491820ABBEFEE7260002007047FEE7E9
:10038000704772B6FEE700002DE9F04FDFF82092CB
:10039000002301260324A9F1040B85B00F2709F1DE
:1003A000040AABF1040EFAE006FA03F52A407CD009
:1003B00091F804C00CF0030CBCF1010F02D0BCF1A9
:1003C000020F26D1D0F808C0CDF800C04FEA430C88
:1003D00004FA0CF8CDF810C0DDF800C02CEA080CC7
:1003E000CDF800C0D1F80C80DDF810C008FA0CF888
:1003F000DDF800C048EA0C08C0F80880D0F804C056
:100400002CEA050C0D79C5F300159D4045EA0C0555
:1004100045600D79ED43AD070ED0C5684FEA43083E
:1004200004FA08FC25EA0C05D1F808C00CFA08FC0F
:100430004CEA050CC0F80CC00D7905F00305022D3F
:1004400016D1DD0800EB850CCDF808C0DCF8208063
:100450005D074FEAD56C07FA0CF528EA05080D6927
:1004600005FA0CF5DDF808C045EA0805CCF820507F
:1004700005684FEA430CCDF808C004FA0CFC25EAE5
:100480000C0591F804C00CF00308DDF808C008FA68
:100490000CF848EA0508C0F800804D6815F4403FA4
:1004A0007CD0444DD5F860C000E077E04CF0010C02
:1004B000C5F860C02D6E23F0030C05F00105009512
:1004C0003D4D65440295AD684FEA837C4FEA1C7848
:1004D00007FA08FC25EA0C05B0F1904F06D0DFF8CA
:1004E000DCC0604505D14FF0010C20E04FF0000C5E
:1004F0001DE0DFF8CCC0604502D14FF0020C16E0E1
:10050000DFF8C0C0604502D14FF0030C0FE0DFF808
:10051000B8C0604502D14FF0040C08E0DFF8ACC071
:10052000604502D14FF0050C01E04FF0060C0CFACB
:1005300008FC4CEA050C029DC5F808C0D9F800502B
:10054000CC46D1F8048095435FEAC82800D515430E
:10055000CCF80050DAF80050D446D1F80480954326
:100560005FEA882800D51543CCF80050DBF800502E
:10057000DC46D1F8048095435FEA883800D51543FE
:10058000CCF80050DEF80050F446D1F804809543D2
:100590005FEAC83800D51543CCF800505B1C0A68E8
:1005A00032FA03F57FF400AF05B0BDE8F08F00002C
:1005B000080401400010024000000140000400480F
:1005C00000080048000C00480010004800140048D3
:1005D0000069084000D0012070470AB1816170476E
:1005E0008162704701488068704700000000002069
:1005F0000248816842681144816070470000002011
:1006000010B50024032000F073F80F2000F008F864
:1006100008B1012401E000F025F8204610BD0000DB
:1006200070B50E4E05460024706898B14FF47A718B
:10063000B1FBF0F00A490968B1FBF0F000F0F8FBFB
:1006400040B9102D06D200222946501E00F030F885
:10065000356000E00124204670BD0000000000204D
:100660000C0000200A4882B0016E41F001010166D1
:10067000016E01F001010091816D41F080518165B1
:10068000806D00F08050009002B000F0A1B8000032
:1006900000100240002809DB00F01F0201219140F8
:1006A0004009800000F1E020C0F800117047000010
:1006B000F0B40E4B1B680C46C3F30223C3F10705CD
:1006C000042D00D90425191D072901D2002300E0BB
:1006D000DB1E012606FA05F1491E214099409E4085
:1006E000761E16403143F0BC01F0DCBB0CED00E09F
:1006F000064900F0070208684FF6FF03184040EA79
:100700000220034A10430860704700000CED00E02F
:100710000000FA052B492C4B0A6832214A432B4929
:1007200040B1B0F5007F086829D020F4C06040F4E3
:1007300080602CE00868C0F34120022804D051F802
:10074000800F20F4807022E0D1F8800020F48070C7
:10075000C1F88000086820F4C06040F400700860B0
:10076000B2FBF3F0401C00E0401E4A69520501D57F
:100770000028F9D1486940050AD503207047C0F325
:100780004120022806D051F8800F40F480700860A4
:1007900000207047D1F8800040F48070C1F88000DC
:1007A000086820F4C06040F400700860B2FBF3F009
:1007B000401C00E0401E4A695205DBD50028F9D1F3
:1007C000D8E700000C00002040420F0000700040FD
:1007D0000248816841F480418160704700700040A8
:1007E0002DE9F0470E4605004FF0000725D0DFF851
:1007F000AC81D8F8000000F00F00B0420CD2D8F85D
:10080000001021F00F013143C8F80010D8F80000A3
:1008100000F00F00B04210D12968614CC80741F2C6
:10082000883A5AD06868DFF87C91032808D00228FB
:1008300020682DD0400500282CDB0120BDE8F08782
:1008400020688001F9D5E06800F00302E068C0F399
:100850000310401C032A19D0534A00BFB2FBF0F02A
:10086000E268C2F306225043E268C2F34162521CBE
:100870005200B0FBF2F0484517D9A06810F0F00F15
:100880000CD0880711D5A86840B10EE0474AE5E7CB
:100890008003D0E700F092F8484506D9A06820F020
:1008A000F00040F08000A0608027A068696820F018
:1008B00003000843A060FFF795FE814606E000BFF5
:1008C000FFF790FEA0EB090151453AD8A06869688E
:1008D00000F00C00B0EB810FF2D12868810714D52D
:1008E000400703D5A06840F4E060A06028780007C6
:1008F00005D5A06820F4605040F4E060A060A068D6
:10090000A96820F0F000084304E0802F03D1A0681C
:1009100020F0F000A060D8F80010404601F00F0170
:10092000B14216D9016821F00F0131430160FFF790
:1009300059FE074607E000BFFFF754FEC11B5145B3
:1009400001D903207AE7D8F8000000F00F00B04288
:10095000F2D12878400705D5A068E96820F4E06066
:100960000843A0602878000706D5A068296920F40C
:10097000605040EAC100A06000F020F8A1680C4A75
:10098000C1F30311515C01F01F01C840094908601F
:1009900009480068BDE8F047FFF742BE002002406A
:1009A0000010024000B4C4040024F40000366E01BC
:1009B000022100080C00002000000020184910B59A
:1009C0008868C0F381021748012A0BD08A68164B49
:1009D000C2F38102022A06D08A68C2F38102032A86
:1009E00003D0002010BD184610BDCA6802F00304F1
:1009F000CA68C2F30312521C032C02D0B0FBF2F0FF
:100A000001E0B3FBF2F0CA68C968C2F306225043A2
:100A1000C1F34161491C4900B0FBF1F010BD000079
:100A2000001002400024F40000366E012DE9F84366
:100A300004007AD02078F84DC00747D0A868E9684C
:100A400000F00C0001F003010C2802D0082817D098
:100A500001E0032914D06068B0F5803F17D0B0F5ED
:100A6000A02F286817D020F480302860286820F450
:100A7000802028606068E0B1FFF7B4FD064614E00E
:100A80002868800322D560680028D2D01EE028683C
:100A900040F48030EDE740F480202860F7E700BFA5
:100AA000FFF7A0FD801B642870D828688003F7D565
:100AB0000CE0FFF797FD064605E000BFFFF792FD4B
:100AC000801B6428F0D828688003F7D4207880073A
:100AD0004CD5A868E96800F00C0001F003010C286F
:100AE00002D004280DD001E002290AD0E0680028D5
:100AF00028682BD040F480702860FFF773FD06460D
:100B000019E02868400502D5E068002891D068689F
:100B1000217C20F0FE4040EA01606860BF48006828
:100B2000FFF77EFD002800D120E072E1FFF75AFDBB
:100B3000801B0228B8D828684005F7D56868217C52
:100B400020F0FE4040EA016068600FE020F4807011
:100B50002860FFF747FD064605E000BFFFF742FDAE
:100B6000801B0228A0D828684005F7D42078000709
:100B700029D560690028D5F8940013D040F0010011
:100B8000C5F89400FFF72EFD064606E090E000BF92
:100B9000FFF728FD801B022886D8D5F8940080072F
:100BA000F6D510E020F00100C5F89400FFF71AFD1B
:100BB000064604E0FFF716FD801B022878D8D5F81A
:100BC00094008007F6D42078400761D5A86D0026F0
:100BD000C00008D4A86D40F08050A865A86D01261B
:100BE00000F0805000908E480168C90511D401685A
:100BF000804641F480710160FFF7F4FC074604E091
:100C0000FFF7F0FCC01B022852D8D8F80000C0053E
:100C1000F6D5A068012815D00528D5F8900016D083
:100C200020F00100C5F89000D5F8900020F00400F5
:100C3000C5F89000A06841F28838B8B1FFF7D2FC3F
:100C400007460EE0D5F8900040F00100F0E740F0D4
:100C50000400C5F89000F5E7FFF7C4FCC11B41454F
:100C600026D8D5F890008007F6D50CE0FFF7BAFC3F
:100C7000074604E0FFF7B6FCC11B414518D8D5F87C
:100C800090008007F6D41EB1A86D20F08050A865B2
:100C90002078800629D5A0690028D5F8980013D0BF
:100CA00040F00100C5F89800FFF79CFC064606E0FE
:100CB00075E000BFFFF796FC801B02286FD8D5F8BF
:100CC00098008007F6D510E020F00100C5F89800E4
:100CD000FFF788FC064604E0FFF784FC801B02282F
:100CE0005DD8D5F898008007F6D4E069F0B3A9681C
:100CF000C1F3810103295DD00228286820F08070AB
:100D0000286003D0FFF76EFC04464BE0FFF76AFC57
:100D1000064604E0FFF766FC801B02283FD82868DF
:100D20008001F7D4F4E908016FF00F0202EB011122
:100D30000843218A5204490802EB4151A26841EA62
:100D400002210843217D4FF07E42490802EB4161B8
:100D50000843217B40EAC160E968324A11400843F8
:100D6000E860286840F08070286000E05EE0E86895
:100D700040F08070E860FFF735FC044605E000BFF6
:100D8000FFF730FC001B022809D828688001F7D53E
:100D90004CE000BFFFF726FC001B022802D903200D
:100DA000BDE8F88328688001F4D4E8681E4908404B
:100DB000E8603BE00128F3D0E868226A00F0030114
:100DC000914226D1616A00F0F00209011039914286
:100DD0001FD1A26A00F4FE41B1EB022F19D194F8A1
:100DE0002C2000F07841B1EBC26F12D1218E00F4BB
:100DF000C00249084905A1F50011914209D194F8B2
:100E0000341000F0C06049084906A1F10071814228
:100E10000CD00120C4E700000010024000000020B8
:100E2000007000400C809F01FCFFEEFE0020B7E741
:100E300010B5401EB0F1807F01D3012010BD4FF0EE
:100E4000E02460610F21601701F02CF80020A06100
:100E500007202061002010BD7047704770470000D8
:100E600030B590F83C20012A42D0012280F83C2085
:100E7000CA688B6822F440721A434B6822F480627D
:100E80001A430B6822F400621A430B6922F4805261
:100E90001A434B6922F400521A430B6B22F480422E
:100EA0001A430B8B22F4702242EA0342CB6922F0F0
:100EB00080521A430F4D03680024AB4202D00E4DFE
:100EC000AB4210D10D8D22F4700242EA05520D6A38
:100ED00022F080722A434D6A22F000722A43C96AC6
:100EE00022F000520A435A6480F83C40002030BD92
:100EF000022030BD002C0140003401407047704793
:100F000070470000F0B590F83C20012A3AD0012546
:100F100080F83C50022280F83D2003685A689C68A3
:100F2000194E1A4FB34201D0BB4204D122F4700CC7
:100F30004A6842EA0C02DFF858C002EA0C02D1F813
:100F400000C04CEA020CC3F804C00268B2420DD0E3
:100F5000B2F1804F0AD00F4B9A4207D00E4B9A4203
:100F600004D0BA4202D00D4B9A4204D1896824F0D1
:100F700080031943916080F83D50002180F83C10B7
:100F80000846F0BD0220F0BD002C014000340140B5
:100F90008FFFFFFD000400400008004000400140BA
:100FA000704710B5040003D094F83D0010B107E07D
:100FB000012010BD002084F83C00204600F022F8FB
:100FC000022084F83D00211D206800F031FD012041
:100FD00084F8480084F83E0084F83F0084F840001C
:100FE00084F8410084F8420084F8430084F8440007
:100FF00084F8450084F8460084F8470084F83D00F2
:10100000002010BD08B500680B49884212D10B487A
:10101000016E41F400610166006E002200F4006080
:10102000009011461920FFF743FBBDE80840192046
:10103000FFF730BB08BD0000002C0140001002404B
:1010400090F83D10012901D001207047022180F85D
:101050003D100168CA6842F00102CA600068104988
:1010600088420ED0B0F1804F0BD00E49884208D094
:101070000D49884205D00D49884202D00C4988426A
:1010800007D181680B4A1140062906D0B1F5803F8F
:1010900003D0016841F001010160002070470000A9
:1010A000002C0140000400400008004000340140D2
:1010B000004001400700010070B5044690F83C0074
:1010C0000025012814D0012684F83C60022084F811
:1010D0003D0022689068364B184020F47F409060B5
:1010E000086870282ED010DC10F00F0F03D021E01C
:1010F0004FF0020070BD4FEA2012072A1AD2DFE833
:1011000002F0525252524A3840002A4BC21A9842B8
:1011100049D009DCB0F5805F0DD0B0F5005F1CD080
:10112000B0F1101F06D13EE0102A3CD0202A3AD060
:10113000502A38D0012584F83D60002084F83C0016
:10114000284670BDCB68D1E90121206800F0DBFCA6
:101150002068816841F0770109E0CB68D1E901217D
:10116000206800F0D0FC2068816841F480418160F3
:10117000E1E7CA684968206800F070FE50212068E5
:1011800006E0CA684968206800F079FE602120689E
:1011900000F0C4FCCFE7CA684968206800F05EFE32
:1011A00040212068F4E7226801461046F0E700007D
:1011B00088FFCEFF2000100070472DE9F041044663
:1011C0000068C66805694FF00007A90713D5B10785
:1011D00011D5F91E01610120207720688069800700
:1011E000204602D0FFF7E8FF04E000F0E1F82046D7
:1011F00000F0A3F92777680716D5700714D5216882
:101200006FF004000861022020772068806910F4E4
:10121000407F204602D0FFF7CFFF04E000F0C8F87F
:10122000204600F08AF92777280715D5300713D50F
:1012300021686FF008000861042020772068C069E9
:101240008007204602D0FFF7B7FF04E000F0B0F8B7
:10125000204600F072F92777E80616D5F00614D577
:1012600021686FF010000861082020772068C069AD
:1012700010F4407F204602D0FFF79EFF04E000F00C
:1012800097F8204600F059F92777E80708D0F007CB
:1012900006D021686FF001000861204600F0CCF90B
:1012A000280601D4A80408D5300606D521686FF4B5
:1012B000025008612046FFF7D0FDE80508D530064A
:1012C00006D521686FF4807008612046FFF7C4FDE1
:1012D000680608D5700606D521686FF040000861E1
:1012E000204600F03FFAA80608D5B00606D52168CA
:1012F0006FF0200008612046FFF7B0FDE80208D536
:10130000F00206D521686FF4801008612046FFF7CF
:10131000F6FDA80208D5B00206D521686FF40010CA
:1013200008612046FFF7EAFD680208D5700206D57D
:1013300021686FF4800008612046FFF7E1FD280274
:101340000AD5300208D521686FF4000008612046F4
:10135000BDE8F041FFF724BEBDE8F08110B586B0CE
:10136000044614216846FEF7A7FF0F49206888420B
:1013700017D10E48C16C41F00101C164C06C6946CF
:1013800000F0010005904FF4E06000900220019011
:10139000002002900390062004904FF09040FEF74A
:1013A000F3FF06B010BD0000002C01400010024009
:1013B000704770B5044690F83C0000260D460128A1
:1013C0000BD0012084F83C000C2A4AD007DC82B103
:1013D000042A20D0082A06D131E0022070BD102A4C
:1013E00053D0142A63D00126002084F83C003046F4
:1013F00070BD206800F09CFB2068816941F0080105
:1014000081612068816921F004018161206881691E
:101410002A69114311E0206800F0D8FB2068816937
:1014200041F4006181612068816921F480618161FA
:10143000206881692A6941EA02218161D4E7206834
:1014400000F00CFC2068C16941F00801C16120680E
:10145000C16921F00401C1612068C1692A69114391
:1014600011E0206800F042FC2068C16941F400618D
:10147000C1612068C16921F48061C1612068C169CE
:101480002A6941EA0221C161AEE7206800F076FCDA
:101490002068016D41F0080101652068016D21F0AF
:1014A000040101652068016D2A69114311E020687B
:1014B00000F09CFC2068016D41F40061016520682A
:1014C000016D21F4806101652068016D2A6941EA9E
:1014D0000221016588E710B5040003D094F83D00AF
:1014E00010B107E0012010BD002084F83C00204628
:1014F00000F022F8022084F83D00211D206800F051
:1015000097FA012084F8480084F83E0084F83F00F0
:1015100084F8400084F8410084F8420084F84300D5
:1015200084F8440084F8450084F8460084F84700B5
:1015300084F83D00002010BD7047704730B5044668
:10154000022269B1042912D0082917D00C291CD015
:10155000102921D094F84300012824D0012030BD67
:1015600094F83E000128F9D184F83E201DE094F85B
:101570003F000128F2D184F83F2016E094F84000A3
:101580000128EBD184F840200FE094F841000128B5
:10159000E4D184F8412008E094F842000128DDD12C
:1015A00084F8422001E084F843200122206800F002
:1015B0009DFA194B20681949194A984209D0884266
:1015C00007D0904205D0174DA84202D0164DA84230
:1015D00003D1456C45F400454564206898420CD021
:1015E000B0F1804F09D0114B984206D0104B984271
:1015F00003D0884201D0904207D181680D4A114042
:10160000062906D0B1F5803F03D0016841F0010101
:101610000160002030BD0000002C0140003401407A
:1016200000400140004401400048014000040040E7
:10163000000800400700010070B54449884276D197
:101640004349481E00F0E6FC414C641EE088401C03
:10165000E080607800F0D0FCA070002520B1012867
:101660001DD002282BD11DE0E07810B101280AD04E
:1016700015E0E0883749C000B1FBF0F000EE100A39
:10168000B8EE400A09E0E0883249C000494291FBC7
:10169000F0F000EE100AB8EEC00A84ED020AA58050
:1016A000E5800CE0A08843F69821401C80B2A08021
:1016B000884204D9A5809FED280A84ED020A274EAE
:1016C00094ED020A012186ED030A94ED040A3046E6
:1016D00086ED040A9FED220A00F008F996ED080A4B
:1016E00084ED030AB5EEC00AF1EE10FA06D2B1EEAF
:1016F000400A84ED030A0120E07000E0E570E07824
:1017000050B1012821D1207807280ED2DFE800F05F
:101710000D160D18121410002078072805D2DFE8E6
:1017200000F004070B090F040D00012009E00CE094
:10173000022006E0032004E0042002E0052000E08F
:101740000620BDE8704000F0BDBB70BD2800002041
:1017500011000020C02709000000000074000020D4
:1017600017B7D1387047FEE730B587B01421684607
:10177000FEF7A2FD1B48C16C41F02001C164C16CA1
:1017800001F020010591C16C41F00201C164C16CFE
:1017900001F002010591C16C41F00101C164C06C0E
:1017A000114D00F001004FF46044059000222146E5
:1017B0002846FEF712FF0120CDE9004000240294E4
:1017C000694628460394FEF7DFFD4FF4E070CDE94B
:1017D00000040220029069462846FEF7D5FD07B0B6
:1017E00030BD0000001002400004004810B59CB05D
:1017F000002419941A9417941894149415941C2185
:101800000DA81694FEF758FD34216846FEF754FDE6
:101810003448334901600321C0E9011440F69F7147
:10182000C0E9031444618461FFF7BBFB08B1FEF714
:10183000A8FD4FF48050179017A92A48FFF73CFCE9
:1018400008B1FEF79EFD2748FFF745FE08B1FEF7F9
:1018500098FD1494159414A922481694FFF752FB8E
:1018600008B1FEF78EFD6020CDE90D040F941094B1
:101870001194129400220DA91A481394FFF799FDB0
:1018800008B1FEF77EFD04220DA91648FFF791FD71
:1018900008B1FEF776FD08220DA91248FFF789FD71
:1018A00008B1FEF76EFD00944FF40050CDE90440FE
:1018B00003940003CDE90840019402940694079430
:1018C0000A940B94694607480C94FFF7C9FA08B1CB
:1018D000FEF757FD0348FFF741FD1CB010BD0000A7
:1018E000002C014028000020FEE7FEE700EE901AE1
:1018F00090ED041AF8EE600A21EE201A00EE901A1C
:1019000080ED041AF8EE600AD0ED031A61EEA00A29
:10191000C0ED030A71EE600AC0ED050A90ED071AEA
:1019200090ED002A70EEC11A61EE821A90ED012A44
:1019300022EE000AB0EE002A40EE201AB0EE600A55
:1019400001EE420A90ED062A30EE020A90ED022ADC
:1019500042EE001A90ED080A31EE800A01EE901A6C
:10196000F8EE611A60EE211AC0ED081A80ED061A31
:10197000C0ED070A90ED090AF4EEC01AF1EE10FA74
:1019800001DD80ED080AD0ED080AB1EE400AF4EE60
:10199000C00AF1EE10FA01D280ED080A7047C0EDDE
:1019A000091A80EC030A704770477047FEF720BEA3
:1019B00010B594B038216846FEF77EFC14210EA8BD
:1019C000FEF77AFC0020FEF7A5FE0120009000043F
:1019D000019002200324CDE907042821CDE90A1053
:1019E0000C900D9009946846FFF720F808B172B684
:1019F000FEE70F20CDE90E04002010901190129008
:101A000004210EA8FEF7ECFE002801D072B6FEE716
:101A100014B010BD0248016841F4700101607047C4
:101A200088ED00E00148FFF7C8BB00002800002057
:101A30002DE9F0430268264B264D274E274C4FF0E8
:101A40008049984207D0484505D0A84203D0B0420B
:101A500001D0A04203D122F070074A683A43204FD8
:101A6000DFF880C0DFF8808098420DD048450BD069
:101A7000A84209D0B04207D0A04205D0B84203D056
:101A8000604501D0404503D122F44075CA682A431D
:101A90004D6922F080022A4302608A68C2620A68A5
:101AA0008262984207D0A04205D0B84203D0604578
:101AB00001D0404501D109690163012141610169FA
:101AC000C90703D0016921F001010161BDE8F0837C
:101AD000002C014000040040000800400034014098
:101AE00000400140004401400048014010B501F0B1
:101AF0001F030121046A99408C430462016A9A40E1
:101B00001143016210BD10B5846842EA032224F437
:101B10007F440A432243826010BD00008268034B69
:101B20001A400A4342F00701816070478FFFCFFFE0
:101B30002DE9F043056A026A22F00102026243685D
:101B400082691C4C25F0020522400C6822F0030239
:101B500014438A68194E2A43174D194FDFF864C0A1
:101B6000DFF86490A84207D0B04205D0B84203D055
:101B7000604501D0484506D122F00808CA6842EA0B
:101B8000080222F00402A84207D0B04205D0B842B1
:101B900003D0604501D0484505D14D6923F4407319
:101BA0001D438B692B434360846149684163026232
:101BB000BDE8F0838FFFFEFF002C014000340140A0
:101BC000004001400044014000480140F0B5056A72
:101BD000026A22F01002026242688369194C1B4EAD
:101BE00023400C6823F4407343EA042425F02003C7
:101BF0008D6843EA0513144DA84201D0B04206D1C6
:101C0000CF6823F0800343EA071323F04003A84280
:101C10000AD0B04208D00E4DA84205D00D4DA842C2
:101C200002D00D4DA84207D14D6922F4406242EA2C
:101C300085028D6942EA8502426084614968816358
:101C40000362F0BDFF8FFFFE002C01400034014015
:101C5000004001400044014000480140F0B5056AE1
:101C6000026A22F4807202624368C269194C1B4EF8
:101C700022400C6822F00302144325F400728D68A0
:101C800042EA0522144DA84201D0B04206D1CF68E5
:101C900022F4006242EA072222F48062A8420AD0BB
:101CA000B04208D00E4DA84205D00E4DA84202D039
:101CB0000D4DA84207D14D6923F4405343EA051363
:101CC0008D6943EA05134360C4614968C1630262D8
:101CD000F0BD00008FFFFEFF002C014000340140EA
:101CE000004001400044014000480140F0B5056A51
:101CF000026A22F4805202624268C369194C1B4E88
:101D000023400C6823F4407343EA042425F4005371
:101D10008D6843EA0533144DA84201D0B04206D184
:101D2000CF6823F4004343EA073323F48043A842F7
:101D30000AD0B04208D00E4DA84205D00D4DA842A1
:101D400002D00D4DA84207D14D6922F4404242EA2B
:101D500085128D6942EA85124260C4614968016456
:101D60000362F0BDFF8FFFFE002C014000340140F4
:101D700000400140004401400048014030B5056A80
:101D8000026A22F4803202624268036D114C2340E1
:101D90000C681C4325F400330D8943EA05430E4DBE
:101DA000A8420BD00D4DA84208D00D4DA84205D039
:101DB0000C4DA84202D00C4DA84204D14D6922F42A
:101DC000803242EA05224260046549688164036208
:101DD00030BD00008FFFFEFF002C014000340140A9
:101DE00000400140004401400048014030B5046A11
:101DF000026A22F4801202624268036D114D24F4DB
:101E000000142B400D6843EA05230D8944EA05546C
:101E10000D4DA8420BD00D4DA84208D00C4DA84244
:101E200005D00C4DA84202D00B4DA84204D14D69FB
:101E300022F4802242EA8522426003654968C16437
:101E4000046230BDFF8FFFFE002C014000340140D2
:101E500000400140004401400048014010B5036AC1
:101E6000046A24F001040462846924F0F00444EA62
:101E7000021423F00A020A438461026210BD10B505
:101E8000036A046A24F010040462846923F0A00346
:101E900024F4704444EA023243EA0111826101628F
:101EA00010BDFEE70907090E002804DB00F1E02061
:101EB00080F80014704700F00F0000F1E02080F877
:101EC000141D70472DE9F0478446494948480831B8
:101ED0000B1D471400221E1D464C7D004FF4004987
:101EE000BCF1070F7ED2DFE80CF0800413213B4ADF
:101EF0005F00006800EE900AF8EE600A20EE800AAB
:101F0000BCEEC00A10EE100A08601A60326059E098
:101F1000006800EE900AF8EE600A20EE800ABCEE3F
:101F2000C00A10EE100A08601A600CE00A6000682F
:101F300000EE900AF8EE600A20EE800ABCEEC00ABD
:101F400010EE100A18603260002239462046FEF773
:101F500044FB002229462046FEF73FFB01223CE0DD
:101F60000A60006800EE900AF8EE600A20EE800A2F
:101F7000BCEEC00A10EE100A186032600DE00A6074
:101F80001A60006800EE900AF8EE600A20EE800AFF
:101F9000BCEEC00A10EE100A30600122394620461D
:101FA000FEF71BFB002213E00A601A60006800EED7
:101FB000900AF8EE600A20EE800ABCEEC00A10EE2D
:101FC000100A3060002239462046FEF706FB012247
:101FD00029462046FEF701FB002249462046BDE87F
:101FE000F04700E001E0FEF7F8BABDE8F087000036
:101FF0002C2C01400004004805490A78824204D094
:102000000870002800D001207047022070470000AF
:10201000240000202DE9F0410D4E88460546402160
:102020003046FEF7D5FA044680213046FEF7D0FA56
:1020300007464FF480713046FEF7CAFA800040EA46
:1020400047002043287088F80040BDE8F081000078
:102050000004004810B5F7EE001A9FED191ADFEDE5
:10206000190A9FED190A1948FFF799FC1849002031
:102070000860091D0860091D0860164C02464914D5
:102080002046FEF7AAFA00224FF480412046FEF7D0
:10209000A4FA002261012046FEF79FFA0E48FEF7DF
:1020A000CFFF00210C48FFF749FA04210A48FFF747
:1020B00045FABDE8104008210748FFF73FBA000085
:1020C000000000006F12833A17B7D1387400002067
:1020D000342C01400004004828000020FEF790FA4C
:1020E000FFF766FCFFF740FBFFF780FB00F001F80D
:1020F000FEE7FFF7AFFFFEE74FF04070E1EE100A9A
:102100007047000000000000000001020304060701
:102110000809000034210008000000202800000009
:10212000140200085C21000828000020D8060000E6
:102130003002000810000000010000000000000054
:102140000024F40000000000000000000000000077
:0C21500000000000000000000000000083
:04000005080001D915
:00000001FF
