:020000040800F2
:1000000000000320191F0008D50C0008D70C0008B9
:10001000D90C0008DB0C0008DD0C00080000000013
:10002000000000000000000000000000DF0C0008DD
:10003000E10C000800000000E30C0008E50C0008DB
:10004000691F0008691F0008691F0008691F000870
:10005000691F0008691F0008691F0008691F000860
:10006000691F0008691F0008691F0008691F000850
:10007000691F0008691F0008691F0008691F000840
:10008000691F0008691F0008691F0008691F000830
:10009000ED0C0008691F0008691F0008691F0008AF
:1000A000691F0008691F0008691F0008691F000810
:1000B000691F0008691F0008691F0008691F000800
:1000C000691F0008691F0008691F0008691F0008F0
:1000D000691F0008691F0008691F0008691F0008E0
:1000E000691F0008691F0008691F0008691F0008D0
:1000F000691F0008691F0008691F0008691F0008C0
:10010000691F0008691F0008691F0008691F0008AF
:10011000691F0008691F0008691F0008691F00089F
:10012000691F0008691F0008691F0008691F00088F
:10013000691F0008691F0008691F0008691F00087F
:10014000FD0C0008691F0008691F0008691F0008EE
:10015000691F0008691F0008691F0008691F00085F
:10016000691F0008691F0008691F0008691F00084F
:10017000691F0008691F0008691F000800000000CF
:10018000691F0008691F0008691F0008691F00082F
:10019000691F0008691F0008691F0008691F00081F
:0C01A0000000000000000000691F0008C3
:1001AC0010B5054C237833B9044B13B10448AFF3A5
:1001BC0000800123237010BD2C00002000000000E3
:1001CC007020000808B5034B1BB103490348AFF37B
:1001DC00008008BD000000003000002070200008E6
:1001EC0053B94AB9002908BF00281CBF4FF0FF3192
:1001FC004FF0FF3000F074B9ADF1080C6DE904CE8E
:10020C0000F006F8DDF804E0DDE9022304B07047E5
:10021C002DE9F047089D04468E46002B4DD18A42AD
:10022C00944669D9B2FA82F252B101FA02F3C2F1E0
:10023C00200120FA01F10CFA02FC41EA030E944071
:10024C004FEA1C48210CBEFBF8F61FFA8CF708FB92
:10025C0016E341EA034306FB07F199420AD91CEB6A
:10026C00030306F1FF3080F01F81994240F21C819C
:10027C00023E63445B1AA4B2B3FBF8F008FB1033E4
:10028C0044EA034400FB07F7A7420AD91CEB040419
:10029C0000F1FF3380F00A81A74240F207816444E9
:1002AC00023840EA0640E41B00261DB1D44000236E
:1002BC00C5E900433146BDE8F0878B4209D9002DD2
:1002CC0000F0EF800026C5E9000130463146BDE85C
:1002DC00F087B3FA83F6002E4AD18B4202D38242C6
:1002EC0000F2F980841A61EB030301209E46002D75
:1002FC00E0D0C5E9004EDDE702B9FFDEB2FA82F2CA
:10030C00002A40F09280A1EB0C014FEA1C471FFA27
:10031C008CFE0126200CB1FBF7F307FB131140EA0E
:10032C0001410EFB03F0884208D91CEB010103F1DB
:10033C00FF3802D2884200F2CB804346091AA4B29D
:10034C00B1FBF7F007FB101144EA01440EFB00FE71
:10035C00A64508D91CEB040400F1FF3102D2A645D6
:10036C0000F2BB800846A4EB0E0440EA03409CE775
:10037C00C6F12007B34022FA07FC4CEA030C20FA22
:10038C0007F401FA06F31C43F9404FEA1C4900FA42
:10039C0006F3B1FBF9F8200C1FFA8CFE09FB1811BF
:1003AC0040EA014108FB0EF0884202FA06F20BD932
:1003BC001CEB010108F1FF3A80F08880884240F282
:1003CC008580A8F102086144091AA4B2B1FBF9F0C6
:1003DC0009FB101144EA014100FB0EFE8E4508D9C1
:1003EC001CEB010100F1FF346CD28E456AD9023846
:1003FC00614440EA0840A0FB0294A1EB0E01A1422B
:10040C00C846A64656D353D05DB1B3EB080261EB98
:10041C000E0101FA07F722FA06F3F1401F43C5E972
:10042C00007100263146BDE8F087C2F12003D840A8
:10043C000CFA02FC21FA03F3914001434FEA1C47EA
:10044C001FFA8CFEB3FBF7F007FB10360B0C43EADC
:10045C00064300FB0EF69E4204FA02F408D91CEB8C
:10046C00030300F1FF382FD29E422DD9023863448A
:10047C009B1B89B2B3FBF7F607FB163341EA03412A
:10048C0006FB0EF38B4208D91CEB010106F1FF3879
:10049C0016D28B4214D9023E6144C91A46EA004670
:1004AC0038E72E46284605E70646E3E61846F8E602
:1004BC004B45A9D2B9EB020864EB0C0E0138A3E74B
:1004CC004646EAE7204694E74046D1E7D0467BE72C
:1004DC00023B614432E7304609E76444023842E7A4
:1004EC00704700BF31EE607AF4EEC00AF1EE10FAFC
:1004FC0007DCB4EEC01AF1EE10FA04D4B0EE401AD8
:10050C0001E0B0EE601A31EE601A0123834007EE71
:10051C00903AF8EEE77AC7EE870A21EE201AFDEE44
:10052C00C17A17EE900A704707EE900A70EEC00A77
:10053C00F8EEE77A67EEA00A01238B40013B07EE49
:10054C00903AF8EEE77A80EEA77A37EE000A704719
:10055C0000B585B0ADF800000023ADF802308DF881
:10056C00043008228DF8052006E003F110026A44DD
:10057C00FF2102F80A1C0133062BF6DDFC238DF853
:10058C000D30034BDB696846984705B05DF804FBFA
:10059C000000002000B585B0ADF800000023ADF8D8
:1005AC0002308DF8043008228DF8052006E003F1A6
:1005BC0010026A44FF2102F80A1C0133062BF6DDF7
:1005CC00FE238DF80D30034BDB696846984705B068
:1005DC005DF804FB000000202DE9F0412DED068BA9
:1005EC0084B015461C46ADF800000023ADF802306F
:1005FC008DF8043008238DF80530464801F0B0FC26
:10060C00454901F0CBFC0AEE100A444F2946384606
:10061C0001F0A6FCDFF81C81414601F0BFFC09EE9D
:10062C00900A00262146304601F09AFC3C4C2146AB
:10063C0001F0B4FC09EE100A1099304601F090FC60
:10064C00384901F0ABFC08EE900A1199364801F0DC
:10065C0087FC364901F0A2FC08EE100A1020B2EE1D
:10066C00091AFAEE090AB0EE4A0AFFF73BFF0546F3
:10067C000C2001EE108A00EE907AB0EE690AFFF7BA
:10068C0031FF07460C2001EE104A00EE906AB0EEE6
:10069C00490AFFF727FF04460C20B1EE041A00EEBE
:1006AC00906AB0EE680AFFF71DFF06460C20B2EE0A
:1006BC000E1AFAEE0E0AB0EE480AFFF713FF0346C5
:1006CC00C5F307228DF80620EDB28DF80750C7F35D
:1006DC0007128DF80820221242EA0712D2B28DF8C6
:1006EC000920E4B28DF80A40C6F307128DF80B20EE
:1006FC00021242EA0610C0B28DF80C00DBB28DF883
:10070C000D300B4BDB696846984704B0BDEC068B8B
:10071C00BDE8F081000048C100004841000034C22F
:10072C000000FA430000A040000070C100007041BE
:10073C0000000020000034422DE9F04706460C462C
:10074C0091F8008048788A78C97823791F0947EA9C
:10075C0001171D0205F4706563791D4394F806902A
:10076C001021F2EE090ABAEE090A42EA0020FFF75C
:10077C00DBFE10EE10AA0C21DFED120A9FED120A1F
:10078C003846FFF7D1FE10EE107A0C21DFED0F0A80
:10079C009FED0F0A2846FFF7C7FEB04501D0BDE814
:1007AC00F08707EE909AF8EEE77A0A4B83ED020A8F
:1007BC00C3F804A01F60FDEEE77AC3ED037AE2797B
:1007CC001A61ECE700003442000034C200007042B1
:1007DC00000070C24800002008B50268114B1B686D
:1007EC009A4200D008BD104B104A002100F0FFFCCB
:1007FC00A0B90F4B0C4A11685268C3F80610C3F825
:10080C000A200A4A11881980117C59719368002BAF
:10081C00E8D108490220FFF78FFFE3E700F0A2F9C7
:10082C00E7E700BFA0000020600000206800002067
:10083C00000000200600002000B58BB000230593BB
:10084C00069301220792009301930293039304935E
:10085C0008920E2309936946044800F067FB10B90F
:10086C000BB05DF804FB00F07DF9F9E7A000002067
:10087C0008B50221034800F05FFD00B908BD00F087
:10088C0071F9FBE7A000002008B5024800F0EAFB74
:10089C0008BD00BFA000002010B504464379DBB2B0
:1008AC00082B48D8DFE803F005272B2F33373B3FC5
:1008BC0043002B4B00221A612379012B3DD0284B8E
:1008CC000022DA6063889BB2254A936063889BB2EE
:1008DC00002B36D123889BB21360224800F06EFCAB
:1008EC000028FAD0204BA21D1D491E4800F0E8FB41
:1008FC00002831D110BD1A4B01221A61DCE7184BCC
:10090C0002221A61D8E7164B03221A61D4E7144B62
:10091C0004221A61D0E7124B05221A61CCE7104B66
:10092C0006221A61C8E70E4B07221A61C4E70C4B6A
:10093C0008221A61C0E70020DCE7094B0222DA60CA
:10094C00C0E763889BB2042BC7D1054A0023136010
:10095C0023889BB25360C0E700F004F9CAE700BFDC
:10096C0084000020A00000205C00002008B50C488A
:10097C000C4B03600923436000238360C3604FF476
:10098C00003202614361037643768376C376037744
:10099C00437700F025FA00B908BD00F0E3F8FBE757
:1009AC00A00000200064004008B50C480C4B03600C
:1009BC000923436000238360C3604FF4003202615B
:1009CC004361037643768376C3760377437700F0EF
:1009DC0007FA00B908BD00F0C5F8FBE7C800002015
:1009EC000068004010B58AB0002305930693079366
:1009FC000893099303683D4A934204D03C4A9342BE
:100A0C0034D00AB010BD3B4A136801331360012B7C
:100A1C001FD000240194384B1A6B42F008021A6361
:100A2C001B6B03F008030193019B03230593022224
:100A3C00069208930923099305A9304800F02CFE6F
:100A4C0022462146142000F0CDFD142000F002FEB9
:100A5C00D7E700230093284B1A6C42F000721A64FB
:100A6C001B6C03F000730093009BD2E700230293EE
:100A7C00214B1A6C42F080621A641B6C03F0806389
:100A8C000293029B1B4A136801331360012B20D085
:100A9C0000240494184B1A6B42F002021A631B6B6D
:100AAC0003F002030493049B602305930223069333
:100ABC00032308930923099305A9114800F0ECFDC1
:100ACC0022462146402000F08DFD402000F0C2FD62
:100ADC0097E700230393084B1A6C42F000721A64D8
:100AEC001B6C03F000730393039BD1E7006400407D
:100AFC00006800409C00002000380240000C0240BE
:100B0C000004024084B000220092154B196B41F096
:100B1C0002011963196B01F0020100910099019215
:100B2C00196B41F001011963196B01F0010101917D
:100B3C0001990292196B41F008011963196B01F0CC
:100B4C0008010291029903921A6B42F080021A6317
:100B5C001B6B03F080030393039B04B0704700BF2F
:100B6C000038024072B6FEE700B595B03022002185
:100B7C0008A801F06FFA00230393049305930693DE
:100B8C0007930193234A116C41F080511164126C4C
:100B9C0002F080520192019A02931F4B1A6842F4A0
:100BAC0040421A601B6803F440430293029B0123EA
:100BBC0008934FF48033099302230E934FF4800271
:100BCC000F9206221092B4221192129304231393C3
:100BDC0008A800F09DFEB0B900F05CFEA8B90F2388
:100BEC00039302230493002305934FF4A05306931D
:100BFC004FF480530793052103A801F0D7F830B9BF
:100C0C0015B05DF804FBFFF7ADFFFFF7ABFFFFF787
:100C1C00A9FF00BF003802400070004000B583B04F
:100C2C0000F09EF8FFF7A0FFFFF76CFFFFF79EFEAA
:100C3C00FFF7BAFE134C6369984723699847A36979
:100C4C0098474FF47A7000F0B7F80220FFF780FC59
:100C5C004FF47A7000F0B0F80220FFF79BFC4FF4D1
:100C6C007A7000F0A9F8002201924FF07E530093A5
:100C7C00054B06490220FFF7AFFC012000F09CF861
:100C8C00F1E700BF0000002000004040C3F548C061
:100C9C0082B0002100910B4B5A6C42F480425A6492
:100CAC005A6C02F480420092009A01911A6C42F044
:100CBC0080521A641B6C03F080530193019B02B0A9
:100CCC00704700BF00380240FEE7FEE7FEE7FEE794
:100CDC00FEE770477047704708B500F05BF808BD39
:100CEC0008B5024800F046FB08BD00BFA00000207C
:100CFC0008B5024800F03EFB08BD00BFC80000204C
:100D0C00034AD2F8883043F47003C2F88830704735
:100D1C0000ED00E010B504460E4B18784FF47A73D2
:100D2C00B3FBF0F30C4A1068B0FBF3F000F0A0FC3E
:100D3C0068B90F2C01D901200AE0002221464FF09E
:100D4C00FF3000F04FFC054B1C60002000E0012040
:100D5C0010BD00BF2400002020000020280000202F
:100D6C0008B50B4B1A6842F400721A601A6842F408
:100D7C0080621A601A6842F480721A60032000F0D4
:100D8C001FFC0F20FFF7C6FFFFF782FF002008BDF6
:100D9C00003C0240034A1168034B1B780B44136060
:100DAC00704700BFF000002024000020014B1868A1
:100DBC00704700BFF000002038B50446FFF7F6FF7F
:100DCC000546B4F1FF3F02D0044B1B781C44FFF7DF
:100DDC00EDFF401BA042FAD338BD00BF2400002019
:100DEC00002800F0A18038B5044690F82030D3B12B
:100DFC002268136843F001031360FFF7D7FF054621
:100E0C0023685A6812F0010F10D1FFF7CFFF401B77
:100E1C000A28F5D9636A43F400336362052384F826
:100E2C002030012038BDFFF7DDFDE1E71A6822F024
:100E3C0002021A60FFF7BAFF054623685A6812F0DF
:100E4C00020F0DD0FFF7B2FF401B0A28F5D9636AD9
:100E5C0043F400336362052384F820300120E1E77A
:100E6C00227E012A3DD01A6822F080021A60637E2D
:100E7C00012B3BD02268136823F040031360A37E40
:100E8C00012B39D02268136823F020031360E37E12
:100E9C00012B37D02268136843F010031360237FB3
:100EAC00012B35D02268136823F008031360637F8D
:100EBC00012B33D02268136823F004031360A3685A
:100ECC00E268134322691343626913436268013A6F
:100EDC0021681343CB6100206062012384F8203029
:100EEC00A0E71A6842F080021A60C0E72268136813
:100EFC0043F040031360C2E72268136843F02003F9
:100F0C001360C4E72268136823F010031360C6E76C
:100F1C002268136843F008031360C8E7226813685B
:100F2C0043F004031360CAE70120704790F82030A7
:100F3C00013BDBB2012B05D9436A43F480234362A6
:100F4C000120704730B5464BD3F8002242F0010225
:100F5C00C3F80022D3F8002222F47C52C3F80022FA
:100F6C00D3F80022486A42EA0022C3F800224A69F8
:100F7C0002F01F02012000FA02F2D3F81C026FEA01
:100F8C00020C20EA0200C3F81C02CB69C3B9344B33
:100F9C00D3F80C020CEA0000C3F80C028C884869E8
:100FAC00CD6844EA0544483043F830408C680888E2
:100FBC0040EA04404C6904F1480E03EBCE03586040
:100FCC00CB69012B1ED08B69002B33D12448D0F870
:100FDC0004320CEA0303C0F804320B698BBB2048C3
:100FEC00D0F814320CEA0303C0F814320B6A012B4C
:100FFC002ED01B4AD2F8003223F00103C2F8003283
:10100C00002030BD164BD3F80C021043C3F80C0271
:10101C008C8848690D6844EA0544483043F83040F0
:10102C0088894C698D6840EA0540483403EBC40359
:10103C005860C8E70A48D0F804321343C0F80432A9
:10104C00CBE70748D0F814321343C0F81432CDE77D
:10105C000349D1F81C321A43C1F81C22C9E700BF5E
:10106C000064004070B5044690F82050EDB2012D9C
:10107C0006D0436A43F4002343620125284670BD21
:10108C00022380F820300268136823F001031360F8
:10109C00FFF78CFE064623685B6813F0010F0CD03B
:1010AC00FFF784FE831B0A2BF5D9636A43F40033E4
:1010BC006362052384F82030E0E700256562DDE7F4
:1010CC0030B590F820C00468A4680CF1FF3C5FFABE
:1010DC008CFCBCF1010F6BD814F0E05F62D0C4F350
:1010EC00016CBCF1020F05D9436A43F4000343625F
:1010FC00012062E0012404FA0CF41C608B68002BC4
:10110C003DD10D68CB68046843EA45550CF11803D2
:10111C001B01E55003680C690CF1180E03EB0E1360
:10112C005C600B7D012B35D0D17993791B0443EA9C
:10113C000163517943EA012314790168234301EBDC
:10114C000C11C1F88C31D17893781B0443EA0163FC
:10115C00517843EA0123117802680B4302EB0C121D
:10116C00C2F8883102680CF1180C4FEA0C1C52F8CA
:10117C000C3043F0010342F80C3000201DE04C68A9
:10118C0043EAC403CC6823430CF11804240105681A
:10119C002B51BFE7036803EB0E13596841F48071C0
:1011AC005960C1E7436A43F400134362012004E031
:1011BC00436A43F480234362012030BD90F8203011
:1011CC00013BDBB2012B01D9002070470368986802
:1011DC0010F0806000D001209A6812F0006F00D0EF
:1011EC0001309B6813F0805FEFD00130704790F8AE
:1011FC0020C00CF1FF3C5FFA8CFCBCF1010F00F23B
:10120C00958030B451B90468E46814F0030F10D120
:10121C00436A43F400134362012077E004682469B5
:10122C0014F0030F05D1436A43F400134362012009
:10123C006CE001F11B04240105682C5904F0040432
:10124C009460002C64D101F11B04240105682C5915
:10125C00640D1460046801F11B0C4FEA0C1C54F86B
:10126C000C4004F00204D46004686444646804F024
:10127C000F041461046864446468C4F30724946123
:10128C00046864446468240C5461026802EB011223
:10129C00D2F8B8211A70026802EB0112D2F8B82108
:1012AC00C2F307225A70026802EB0112D2F8B8217D
:1012BC00C2F307429A70026802EB0112D2F8B8210D
:1012CC00120EDA70026802EB0112D2F8BC211A710C
:1012DC00026802EB0112D2F8BC21C2F307225A7148
:1012EC00026802EB0112D2F8BC21C2F307429A71D8
:1012FC00026802EB0112D2F8BC21120EDA7179B934
:10130C000268D36843F02003D360002030BC7047E0
:10131C0001F11B04240105682C59E408546099E779
:10132C000268136943F020031361EEE7436A43F448
:10133C00802343620120704790F82030013BDBB2E0
:10134C00012B05D9436A43F4802343620120704783
:10135C000268536919435161002070477047704708
:10136C0070477047704770477047704770477047B9
:10137C00704770472DE9F84F054603685C69D3F850
:10138C0004809F68D3F80CB0D3F810A0D3F8189051
:10139C0014F001063BD017F0010616D001229A601A
:1013AC0017F0020F08D117F0040F0CD117F0080634
:1013BC0006D04FF4805608E0FFF7D0FF002604E07B
:1013CC00FFF7CFFF01E04FF4006617F4807F0DD0DC
:1013DC002B684FF480729A6017F4007F40F086807F
:1013EC0017F4806F00F0868046F4005617F4803FA7
:1013FC000DD02B684FF480329A6017F4003F40F008
:10140C00838017F4802F00F0838046F4004614F09C
:10141C00080F07D01BF0100F04D046F400762B6891
:10142C001022DA6014F0040F02D01BF0080F79D1EF
:10143C0014F0020F04D02B68DB6813F0030F78D183
:10144C0014F0400F07D01AF0100F04D046F4806649
:10145C002B6810221A6114F0200F02D01AF0080F1A
:10146C006BD114F0100F04D02B681B6913F0030F11
:10147C006AD114F4003F02D018F0100F68D114F4A4
:10148C00803F02D018F0080F69D114F4004F7AD0C5
:10149C0018F0040F74D014F4807F04D019F0010FED
:1014AC0001D046F0010614F4007F04D019F0020FAD
:1014BC0001D046F0020614F4806F04D019F0040F2A
:1014CC0001D046F0040614F4006F59D019F07009DD
:1014DC0056D0B9F1400F65D058D8B9F1200F5ED075
:1014EC00B9F1300F42D146F0200644E02846FFF710
:1014FC0036FF7BE717F4006F02D046F4804675E7A1
:10150C002846FFF72FFF71E72846FFF729FF7EE7F4
:10151C0017F4002F02D046F4803678E72846FFF700
:10152C0022FF74E72B680822DA602846FFF71CFFBD
:10153C007EE72846FFF750F982E72B6808221A61EC
:10154C002846FFF713FF8CE72846FFF70EFF90E7BE
:10155C002B6810225A602846FFF709FF8FE72B688B
:10156C0008225A602846FFF703FF8EE7B9F1100FE7
:10157C0001D146F008062A68936923F07003936141
:10158C002B6804225A609EB9BDE8F88FB9F1500F50
:10159C000BD0B9F1600FEED146F48076EBE746F054
:1015AC001006E8E746F04006E5E746F08006E2E77D
:1015BC006B6A1E436E622846FFF7DBFEE4E7000011
:1015CC00074AD36823F4E0631B041B0C000200F4ED
:1015DC00E060034343F0BF6343F40033D3607047D0
:1015EC0000ED00E000B5194BDB68C3F30223C3F137
:1015FC00070CBCF1040F28BF4FF0040C03F1040ED0
:10160C00BEF1060F18D9033B4FF0FF3E0EFA0CFC4F
:10161C0021EA0C0199400EFA03F322EA0303194361
:10162C0000280BDB0901C9B200F1604000F56140F4
:10163C0080F800135DF804FB0023E5E700F00F00D1
:10164C000901C9B2024B1954F4E700BF00ED00E0E8
:10165C0014ED00E0002807DB00F01F024009012315
:10166C009340024A42F82030704700BF00E100E08E
:10167C000138B0F1807F0BD24FF0E0235861054A5E
:10168C00F02182F823100020986107221A6170471C
:10169C000120704700ED00E000230F2B00F2F180D9
:1016AC0070B582B061E085685E000324B44025EA21
:1016BC000405CC68B4402C438460456825EA0205D7
:1016CC004C68C4F300129A402A4342605BE0DC0889
:1016DC00083450F8246003F0070295000F22AA404A
:1016EC0026EA020E0A69AA4042EA0E0240F82420B9
:1016FC005DE0092200E0002202FA0EF22A430234D5
:10170C00604D45F82420604A94686FEA0C0224EA84
:10171C000C054E6816F4801F01D04CEA04055A4C97
:10172C00A560E46802EA04054E6816F4001F01D0B7
:10173C004CEA0405544CE560646802EA04054E6802
:10174C0016F4003F01D04CEA04054F4C6560246848
:10175C0022404D6815F4803F01D04CEA04024A4CFB
:10176C00226001330F2B00F28A8001229A400C6810
:10177C0004EA020C32EA0404F3D14C6804F00304CA
:10178C00013C012C8FD94A6802F00302032A09D0CC
:10179C00C4685D000322AA4024EA02048A68AA40B5
:1017AC002243C2604A6802F00302022A8FD0046806
:1017BC004FEA430E032202FA0EF224EA02044A68AC
:1017CC0002F0030202FA0EF2224302604A6812F49B
:1017DC00403FC6D0002201922C4A546C44F4804401
:1017EC005464526C02F480420192019A9C08A51C2C
:1017FC00244A52F8255003F003024FEA820E0F22BE
:10180C0002FA0EF225EA0205214A90423FF473AF28
:10181C0002F58062904222D002F58062904220D084
:10182C0002F5806290421ED002F5806290421CD07C
:10183C0002F5806290421AD002F58062904218D074
:10184C0002F58062904216D002F58062904214D06C
:10185C0002F5806290423FF44CAF0A224CE7012221
:10186C004AE7022248E7032246E7042244E705221E
:10187C0042E7062240E707223EE708223CE702B097
:10188C0070BD704700380140003C014000380240F8
:10189C000000024010B582B000230193194B1A6C62
:1018AC0042F080521A641B6C03F080530193019B2D
:1018BC00154B01221A64FFF779FA0446134B5B6847
:1018CC0013F4803F08D1FFF771FA001BB0F57A7F53
:1018DC00F4D9032002B010BD0B4B01225A64FFF760
:1018EC0065FA0446094B5B6813F4003F07D1FFF718
:1018FC005DFA001BB0F57A7FF4D90320EAE70020EB
:10190C00E8E700BF0038024000000E4200700040C3
:10191C00002800F0E08170B582B00446036813F033
:10192C00010F3BD09F4B9B6803F00C03042B2CD076
:10193C009C4B9B6803F00C03082B21D06368B3F518
:10194C00803F4FD0B3F5A02F52D0964B1A6822F49B
:10195C0080321A601A6822F480221A606368002BA5
:10196C0050D0FFF723FA05468E4B1B6813F4003F4B
:10197C0014D1FFF71BFA401B6428F5D90320B1E101
:10198C00884B5B6813F4800FD8D0864B1B6813F41C
:10199C00003F03D06368002B00F09F81236813F095
:1019AC00020F54D07F4B9B6813F00C0F3ED07D4B35
:1019BC009B6803F00C03082B33D0E368002B68D032
:1019CC00794B01221A60FFF7F1F90546754B1B683C
:1019DC0013F0020F54D1FFF7E9F9401B0228F5D997
:1019EC0003207FE16F4A136843F480331360B5E73B
:1019FC006C4B1A6842F480221A601A6842F48032E6
:101A0C001A60ABE7FFF7D2F90546664B1B6813F477
:101A1C00003FC3D0FFF7CAF9401B6428F5D9032057
:101A2C0060E1604B5B6813F4800FC6D15D4B1B68A3
:101A3C0013F0020F03D0E368012B40F05081594A98
:101A4C00136823F0F803216943EAC1031360236888
:101A5C0013F0080F42D063696BB3534B0122C3F8E8
:101A6C00802EFFF7A3F905464E4B5B6F13F0020F68
:101A7C0034D1FFF79BF9401B0228F5D9032031E143
:101A8C00484A136823F0F803216943EAC103136041
:101A9C00DDE7454B00221A60FFF788F90546414BFC
:101AAC001B6813F0020FD2D0FFF780F9401B0228FD
:101ABC00F5D9032016E13C4B0022C3F8802EFFF72A
:101ACC0075F90546374B5B6F13F0020F06D0FFF725
:101ADC006DF9401B0228F5D9032003E1236813F0AC
:101AEC00040F77D02F4B1B6C13F0805F33D1002386
:101AFC0001932C4B1A6C42F080521A641B6C03F04D
:101B0C0080530193019B0125284B1B6813F4807FA4
:101B1C0023D0A368012B34D0052B38D0214B1A6F5E
:101B2C0022F001021A671A6F22F004021A67A368E6
:101B3C00002B3DD0FFF73AF906461A4B1B6F13F0FA
:101B4C00020F46D1FFF732F9801B41F288339842DD
:101B5C00F3D90320C6E00025D6E7144A136843F4F2
:101B6C0080731360FFF722F90646104B1B6813F4C1
:101B7C00807FCED1FFF71AF9801B0228F5D90320FC
:101B8C00B0E0084A136F43F001031367CFE7054B2E
:101B9C001A6F42F004021A671A6F42F001021A67B8
:101BAC00C5E700BF0038024000004742007000400B
:101BBC00FFF7FCF80646524B1B6F13F0020F08D0D0
:101BCC00FFF7F4F8801B41F288339842F3D90320D5
:101BDC0088E0EDB9A369002B00F08380484A926835
:101BEC0002F00C02082A51D0022B17D0454B0022D0
:101BFC001A66FFF7DBF80446414B1B6813F0007FB5
:101C0C0042D0FFF7D3F8001B0228F5D9032069E076
:101C1C003B4A136C23F080531364DBE7394B0022EF
:101C2C001A66FFF7C3F80546354B1B6813F0007FA7
:101C3C0006D0FFF7BBF8401B0228F5D9032051E072
:101C4C00E369226A1343626A43EA8213A26A520866
:101C5C00013A43EA0243E26A43EA0263284A5360C8
:101C6C00284B01221A66FFF7A1F80446244B1B6887
:101C7C0013F0007F06D1FFF799F8001B0228F5D965
:101C8C0003202FE000202DE000202BE0012B2BD097
:101C9C001B4B5B6803F48001E269914226D103F08F
:101CAC003F02216A8A4223D1616A47F6C0721A4008
:101CBC00B2EB811F1ED103F44031A26A5208013AE3
:101CCC00B1EB024F18D103F07063E26AB3EB026F11
:101CDC0014D1002006E001207047012002E0012011
:101CEC0000E0002002B070BD0120FBE70120F9E705
:101CFC000120F7E70120F5E70120F3E70120F1E7E8
:101D0C00003802400000474208B5254B9B6803F0A1
:101D1C000C03042B3FD0082B3FD1214B5A6802F007
:101D2C003F025B6813F4800F12D01D4B5968C1F34E
:101D3C0088111C480023A1FB0001FEF751FA184B37
:101D4C005B68C3F3014301335B00B0FBF3F025E0A8
:101D5C00134B5968C1F3881C4FEA4C11B1EB0C00C2
:101D6C006EEB0E0E4FEA8E1343EA90638101091A53
:101D7C0063EB0E03DB0043EA5173C90011EB0C0C4F
:101D8C0043F10003990200234FEA8C2041EA9C5155
:101D9C00FEF726FAD3E7034800E0034808BD00BF6E
:101DAC0000380240001BB7000024F400002800F0AB
:101DBC009B8070B50D4604464F4B1B6803F00F0318
:101DCC008B4208D2CBB24C4A1370136803F00F034A
:101DDC008B4240F08B80236813F0020F17D013F066
:101DEC00040F04D0454A936843F4E053936023688E
:101DFC0013F0080F04D0414A936843F46043936096
:101E0C003E4A936823F0F003A1680B439360236868
:101E1C0013F0010F32D06368012B21D09A1E012AD6
:101E2C0025D9364A126812F0020F61D033498A68FC
:101E3C0022F0030213438B60FEF7B8FF06462F4BCC
:101E4C009B6803F00C036268B3EB820F16D0FEF7AD
:101E5C00ADFF801B41F288339842F0D9032042E059
:101E6C00264A126812F4003FE0D101203BE0234ADD
:101E7C00126812F0007FD9D1012034E01E4B1B6890
:101E8C0003F00F03AB4207D9EAB21B4B1A701B6865
:101E9C0003F00F03AB422DD1236813F0040F06D0CF
:101EAC00164A936823F4E053E1680B43936023686C
:101EBC0013F0080F07D0114A936823F4604321698B
:101ECC0043EAC1039360FFF71FFF0C4B9B68C3F3FE
:101EDC0003130B4AD35CD8400A4B18600A4B1868A2
:101EEC00FEF718FF002070BD012070470120FAE7B3
:101EFC000120F8E70120F6E7003C024000380240E0
:101F0C00882000082000002028000020DFF834D0B2
:101F1C000D480E490E4A002302E0D458C450043335
:101F2C00C4188C42F9D30B4A0B4C002301E013600C
:101F3C000432A242FBD3FEF7E3FE00F067F8FEF793
:101F4C006DFE704700000320000000202C000020D4
:101F5C00A82000082C000020F4000020FEE7000060
:101F6C0010B52DED028B0C4608EE100A00F034F87B
:101F7C0018B9BDEC028B204610BD204600F02CF8A1
:101F8C0030B107EE904AB4EEE78AF1EE10FAF0DDCC
:101F9C0018EE100ABDEC028B10BD00BF10B52DED74
:101FAC00028B0C4608EE100A00F016F818B9BDECBE
:101FBC00028B204610BD204600F00EF830B107EE23
:101FCC00904AB4EEE78AF1EE10FAF0D518EE100A4A
:101FDC00BDEC028B10BD00BF30F000400ED0A0F560
:101FEC000003B3F1FE4F0DD3074B421E9A4207D9A3
:101FFC00A0F1FF40B0FA80F0400970470220704712
:10200C000320704704207047FEFF7F0070B50D4D14
:10201C000D4C641BA4100026A64209D10B4D0C4C90
:10202C0000F020F8641BA4100026A64205D170BD58
:10203C0055F8043B98470136EEE755F8043B9847B2
:10204C000136F2E7A0200008A0200008A02000081C
:10205C00A420000802440346934200D1704703F8C1
:10206C00011BF9E7F8B500BFF8BC08BC9E467047E9
:0C207C00F8B500BFF8BC08BC9E467047D9
:102088000000000000000000010203040607080920
:0820980084E1FF7F010000005C
:0420A000D101000862
:0420A400AD01000882
:1020A8000000000000000000000000000000000028
:1020B80095080008450800087D080008A5080008DC
:0C20C8000024F4000100000010000000E3
:0400000508001F19B7
:00000001FF
