:020000040800F2
:1000000000000320B5180008A5070008A70700088E
:10001000A9070008AB070008AD07000800000000B2
:10002000000000000000000000000000AF07000812
:10003000B107000800000000B3070008B50700087A
:100040000519000805190008051900080519000818
:100050000519000805190008051900080519000808
:1000600005190008051900080519000805190008F8
:1000700005190008051900080519000805190008E8
:1000800005190008051900080519000805190008D8
:10009000BD07000805190008051900080519000822
:1000A00005190008051900080519000805190008B8
:1000B00005190008051900080519000805190008A8
:1000C0000519000805190008051900080519000898
:1000D0000519000805190008051900080519000888
:1000E0000519000805190008051900080519000878
:1000F0000519000805190008051900080519000868
:100100000519000805190008051900080519000857
:100110000519000805190008051900080519000847
:100120000519000805190008051900080519000837
:100130000519000805190008051900080519000827
:100140000519000805190008051900080519000817
:100150000519000805190008051900080519000807
:1001600005190008051900080519000805190008F7
:10017000051900080519000805190008000000000D
:1001800005190008051900080519000805190008D7
:1001900005190008051900080519000805190008C7
:0C01A0000000000000000000051900082D
:1001AC0010B5054C237833B9044B13B10448AFF3A5
:1001BC0000800123237010BD0C0000200000000003
:1001CC006019000808B5034B1BB103490348AFF392
:1001DC00008008BD0000000010000020601900081D
:1001EC0053B94AB9002908BF00281CBF4FF0FF3192
:1001FC004FF0FF3000F074B9ADF1080C6DE904CE8E
:10020C0000F006F8DDF804E0DDE9022304B07047E5
:10021C002DE9F047089D04468E46002B4DD18A42AD
:10022C00944669D9B2FA82F252B101FA02F3C2F1E0
:10023C00200120FA01F10CFA02FC41EA030E944071
:10024C004FEA1C48210CBEFBF8F61FFA8CF708FB92
:10025C0016E341EA034306FB07F199420AD91CEB6A
:10026C00030306F1FF3080F01F81994240F21C819C
:10027C00023E63445B1AA4B2B3FBF8F008FB1033E4
:10028C0044EA034400FB07F7A7420AD91CEB040419
:10029C0000F1FF3380F00A81A74240F207816444E9
:1002AC00023840EA0640E41B00261DB1D44000236E
:1002BC00C5E900433146BDE8F0878B4209D9002DD2
:1002CC0000F0EF800026C5E9000130463146BDE85C
:1002DC00F087B3FA83F6002E4AD18B4202D38242C6
:1002EC0000F2F980841A61EB030301209E46002D75
:1002FC00E0D0C5E9004EDDE702B9FFDEB2FA82F2CA
:10030C00002A40F09280A1EB0C014FEA1C471FFA27
:10031C008CFE0126200CB1FBF7F307FB131140EA0E
:10032C0001410EFB03F0884208D91CEB010103F1DB
:10033C00FF3802D2884200F2CB804346091AA4B29D
:10034C00B1FBF7F007FB101144EA01440EFB00FE71
:10035C00A64508D91CEB040400F1FF3102D2A645D6
:10036C0000F2BB800846A4EB0E0440EA03409CE775
:10037C00C6F12007B34022FA07FC4CEA030C20FA22
:10038C0007F401FA06F31C43F9404FEA1C4900FA42
:10039C0006F3B1FBF9F8200C1FFA8CFE09FB1811BF
:1003AC0040EA014108FB0EF0884202FA06F20BD932
:1003BC001CEB010108F1FF3A80F08880884240F282
:1003CC008580A8F102086144091AA4B2B1FBF9F0C6
:1003DC0009FB101144EA014100FB0EFE8E4508D9C1
:1003EC001CEB010100F1FF346CD28E456AD9023846
:1003FC00614440EA0840A0FB0294A1EB0E01A1422B
:10040C00C846A64656D353D05DB1B3EB080261EB98
:10041C000E0101FA07F722FA06F3F1401F43C5E972
:10042C00007100263146BDE8F087C2F12003D840A8
:10043C000CFA02FC21FA03F3914001434FEA1C47EA
:10044C001FFA8CFEB3FBF7F007FB10360B0C43EADC
:10045C00064300FB0EF69E4204FA02F408D91CEB8C
:10046C00030300F1FF382FD29E422DD9023863448A
:10047C009B1B89B2B3FBF7F607FB163341EA03412A
:10048C0006FB0EF38B4208D91CEB010106F1FF3879
:10049C0016D28B4214D9023E6144C91A46EA004670
:1004AC0038E72E46284605E70646E3E61846F8E602
:1004BC004B45A9D2B9EB020864EB0C0E0138A3E74B
:1004CC004646EAE7204694E74046D1E7D0467BE72C
:1004DC00023B614432E7304609E76444023842E7A4
:1004EC00704700BF08B50D480D4B03600C234360EB
:1004FC0000238360C3604FF4C02202614FF4A0025A
:10050C004261037643768376C3760377437700F0B4
:10051C00C7F900B908BD00F08BF8FBE728000020F4
:10052C000064004010B588B0002303930493059336
:10053C00069307930268184B9A4201D008B010BD7D
:10054C000024019403F5EA331A6C42F000721A6429
:10055C001A6C02F000720192019A02941A6B42F02A
:10056C0008021A631B6B03F008030293029B03231C
:10057C0003930222049206930923079303A90748C5
:10058C0000F0AEFC22462146142000F04FFC142053
:10059C0000F084FCD2E700BF00640040000C024075
:1005AC0030B58BB0002405940694079408940994F4
:1005BC0001941D4B1A6B42F001021A631A6B02F084
:1005CC0001020192019A02941A6B42F008021A631A
:1005DC001A6B02F008020292029A03941A6B42F010
:1005EC0080021A631A6B02F080020392039A04943D
:1005FC001A6B42F040021A631B6B03F04003049326
:10060C00049B0A4D22460421284600F067FD042372
:10061C000593012306930794089405A9284600F036
:10062C005FFC0BB030BD00BF003802400018024028
:10063C0072B6FEE700B595B03022002108A801F093
:10064C0081F9002303930493059306930793019375
:10065C00204A116C41F080511164126C02F08052EE
:10066C000192019A02931C4B1A6842F440421A60A0
:10067C001B6803F440430293029B012308934FF43D
:10068C008033099302230E934FF480020F920622BB
:10069C001092A822119212930423139308A800F02D
:1006AC0023FD98B90F23039302230493002305938E
:1006BC004FF4A05306934FF480530793052103A8DE
:1006CC0000F060FF20B915B05DF804FBFFF7B0FF38
:1006DC00FFF7AEFF003802400070004000B589B053
:1006EC0000F09EF8FFF7A6FFFFF75AFFFFF7FAFEA0
:1006FC0001F0A4F8184D10232B600123EB62642049
:10070C0000F0BAF86C4605F1100CBCE80F000FC4F1
:10071C009CE8070084E8070095E80F00DFED0F0A5E
:10072C00B0EE000A01F08EF80B4CEC4604F1100E02
:10073C00BEE80F00ACE80F009EE807008CE807004D
:10074C0094E80F00DFED050AB0EE000A01F07AF82C
:10075C000A2000F091F8E7E7880000200000000074
:10076C0082B0002100910B4B5A6C42F480425A64C7
:10077C005A6C02F480420092009A01911A6C42F079
:10078C0080521A641B6C03F080530193019B02B0DE
:10079C00704700BF00380240FEE7FEE7FEE7FEE7C9
:1007AC00FEE770477047704708B500F053F808BD76
:1007BC0008B5024800F003FA08BD00BF280000206D
:1007CC00034AD2F8883043F47003C2F8883070477B
:1007DC0000ED00E010B504460E4B18784FF47A7318
:1007EC00B3FBF0F30C4A1068B0FBF3F000F064FBC1
:1007FC0068B90F2C01D901200AE0002221464FF0E4
:10080C00FF3000F013FB054B1C60002000E00120C2
:10081C0010BD00BF040000200000002008000020D4
:10082C0008B50B4B1A6842F400721A601A6842F44D
:10083C0080621A601A6842F480721A60032000F019
:10084C00E3FA0F20FFF7C6FFFFF78AFF002008BD71
:10085C00003C0240034A1168034B1B780B441360A5
:10086C00704700BF5000002004000020014B1868A6
:10087C00704700BF5000002038B50446FFF7F6FF64
:10088C000546B4F1FF3F02D0044B1B781C44FFF724
:10089C00EDFF401BA042FAD338BD00BF040000207E
:1008AC00002800F0A18038B5044690F82030D3B170
:1008BC002268136843F001031360FFF7D7FF054666
:1008CC0023685A6812F0010F10D1FFF7CFFF401BBD
:1008DC000A28F5D9636A43F400336362052384F86C
:1008EC002030012038BDFFF71DFEE1E71A6822F029
:1008FC0002021A60FFF7BAFF054623685A6812F025
:10090C00020F0DD0FFF7B2FF401B0A28F5D9636A1E
:10091C0043F400336362052384F820300120E1E7BF
:10092C00227E012A3DD01A6822F080021A60637E72
:10093C00012B3BD02268136823F040031360A37E85
:10094C00012B39D02268136823F020031360E37E57
:10095C00012B37D02268136843F010031360237FF8
:10096C00012B35D02268136823F008031360637FD2
:10097C00012B33D02268136823F004031360A3689F
:10098C00E268134322691343626913436268013AB4
:10099C0021681343CB6100206062012384F820306E
:1009AC00A0E71A6842F080021A60C0E72268136858
:1009BC0043F040031360C2E72268136843F020033E
:1009CC001360C4E72268136823F010031360C6E7B2
:1009DC002268136843F008031360C8E722681368A1
:1009EC0043F004031360CAE70120704790F82030ED
:1009FC00013BDBB2012B05D9436A43F480234362EC
:100A0C000120704730B5464BD3F8002242F001026A
:100A1C00C3F80022D3F8002222F47C52C3F800223F
:100A2C00D3F80022486A42EA0022C3F800224A693D
:100A3C0002F01F02012000FA02F2D3F81C026FEA46
:100A4C00020C20EA0200C3F81C02CB69C3B9344B78
:100A5C00D3F80C020CEA0000C3F80C028C8848692D
:100A6C00CD6844EA0544483043F830408C68088827
:100A7C0040EA04404C6904F1480E03EBCE03586085
:100A8C00CB69012B1ED08B69002B33D12448D0F8B5
:100A9C0004320CEA0303C0F804320B698BBB204808
:100AAC00D0F814320CEA0303C0F814320B6A012B91
:100ABC002ED01B4AD2F8003223F00103C2F80032C8
:100ACC00002030BD164BD3F80C021043C3F80C02B7
:100ADC008C8848690D6844EA0544483043F8304036
:100AEC0088894C698D6840EA0540483403EBC4039F
:100AFC005860C8E70A48D0F804321343C0F80432EF
:100B0C00CBE70748D0F814321343C0F81432CDE7C2
:100B1C000349D1F81C321A43C1F81C22C9E700BFA3
:100B2C000064004070B5044690F82050EDB2012DE1
:100B3C0006D0436A43F4002343620125284670BD66
:100B4C00022380F820300268136823F0010313603D
:100B5C00FFF78CFE064623685B6813F0010F0CD080
:100B6C00FFF784FE831B0A2BF5D9636A43F4003329
:100B7C006362052384F82030E0E700256562DDE739
:100B8C0090F82030013BDBB2012B05D9436A43F4CA
:100B9C0080234362012070470268536919435161F5
:100BAC000020704770477047704770477047704718
:100BBC0070477047704770477047704770472DE912
:100BCC00F84F054603685C69D3F804809F68D3F836
:100BDC000CB0D3F810A0D3F8189014F001063BD049
:100BEC0017F0010616D001229A6017F0020F08D1F7
:100BFC0017F0040F0CD117F0080606D04FF48056EE
:100C0C0008E0FFF7CFFF002604E0FFF7CEFF01E07E
:100C1C004FF4006617F4807F0DD02B684FF4807270
:100C2C009A6017F4007F40F0868017F4806F00F014
:100C3C00868046F4005617F4803F0DD02B684FF495
:100C4C0080329A6017F4003F40F0838017F4802FB5
:100C5C0000F0838046F4004614F0080F07D01BF018
:100C6C00100F04D046F400762B681022DA6014F0D2
:100C7C00040F02D01BF0080F79D114F0020F04D02E
:100C8C002B68DB6813F0030F78D114F0400F07D0FA
:100C9C001AF0100F04D046F480662B6810221A61EB
:100CAC0014F0200F02D01AF0080F6BD114F0100FB3
:100CBC0004D02B681B6913F0030F6AD114F4003FA6
:100CCC0002D018F0100F68D114F4803F02D018F045
:100CDC00080F69D114F4004F7AD018F0040F74D0B7
:100CEC0014F4807F04D019F0010F01D046F00106F6
:100CFC0014F4007F04D019F0020F01D046F0020664
:100D0C0014F4806F04D019F0040F01D046F00406DF
:100D1C0014F4006F59D019F0700956D0B9F1400F86
:100D2C0065D058D8B9F1200F5ED0B9F1300F42D14F
:100D3C0046F0200644E02846FFF735FF7BE717F422
:100D4C00006F02D046F4804675E72846FFF72EFF69
:100D5C0071E72846FFF728FF7EE717F4002F02D033
:100D6C0046F4803678E72846FFF721FF74E72B68B6
:100D7C000822DA602846FFF71CFF7EE72846FFF7BB
:100D8C0017FF82E72B6808221A612846FFF713FF2A
:100D9C008CE72846FFF70EFF90E72B6810225A606D
:100DAC002846FFF709FF8FE72B6808225A60284670
:100DBC00FFF703FF8EE7B9F1100F01D146F00806DB
:100DCC002A68936923F0700393612B6804225A609C
:100DDC009EB9BDE8F88FB9F1500F0BD0B9F1600F87
:100DEC00EED146F48076EBE746F01006E8E746F0E5
:100DFC004006E5E746F08006E2E76B6A1E436E624A
:100E0C002846FFF7DBFEE4E7074AD36823F4E063E8
:100E1C001B041B0C000200F4E060034343F0BF63AF
:100E2C0043F40033D360704700ED00E000B5194B7C
:100E3C00DB68C3F30223C3F1070CBCF1040F28BF1A
:100E4C004FF0040C03F1040EBEF1060F18D9033B4E
:100E5C004FF0FF3E0EFA0CFC21EA0C0199400EFA01
:100E6C0003F322EA0303194300280BDB0901C9B27F
:100E7C0000F1604000F5614080F800135DF804FB60
:100E8C000023E5E700F00F000901C9B2024B195429
:100E9C00F4E700BF00ED00E014ED00E0002807DBF4
:100EAC0000F01F02400901239340024A42F820300F
:100EBC00704700BF00E100E00138B0F1807F0BD239
:100ECC004FF0E0235861054AF02182F823100020EE
:100EDC00986107221A6170470120704700ED00E00D
:100EEC0000230F2B00F2F18070B582B061E08568B1
:100EFC005E000324B44025EA0405CC68B4402C43BE
:100F0C008460456825EA02054C68C4F300129A40D7
:100F1C002A4342605BE0DC08083450F8246003F09C
:100F2C00070295000F22AA4026EA020E0A69AA407F
:100F3C0042EA0E0240F824205DE0092200E0002283
:100F4C0002FA0EF22A430234604D45F82420604A1E
:100F5C0094686FEA0C0224EA0C054E6816F4801FA4
:100F6C0001D04CEA04055A4CA560E46802EA040579
:100F7C004E6816F4001F01D04CEA0405544CE56091
:100F8C00646802EA04054E6816F4003F01D04CEA8E
:100F9C0004054F4C6560246822404D6815F4803F71
:100FAC0001D04CEA04024A4C226001330F2B00F2B0
:100FBC008A8001229A400C6804EA020C32EA04048A
:100FCC00F3D14C6804F00304013C012C8FD94A681E
:100FDC0002F00302032A09D0C4685D000322AA4070
:100FEC0024EA02048A68AA402243C2604A6802F0DA
:100FFC000302022A8FD004684FEA430E032202FA3E
:10100C000EF224EA02044A6802F0030202FA0EF21B
:10101C00224302604A6812F4403FC6D0002201927B
:10102C002C4A546C44F480445464526C02F4804254
:10103C000192019A9C08A51C244A52F8255003F0F1
:10104C0003024FEA820E0F2202FA0EF225EA020583
:10105C00214A90423FF473AF02F58062904222D055
:10106C0002F58062904220D002F5806290421ED040
:10107C0002F5806290421CD002F5806290421AD038
:10108C0002F58062904218D002F58062904216D030
:10109C0002F58062904214D002F5806290423FF4D7
:1010AC004CAF0A224CE701224AE7022248E703220E
:1010BC0046E7042244E7052242E7062240E70722DE
:1010CC003EE708223CE702B070BD70470038014093
:1010DC00003C014000380240000002400AB181612E
:1010EC007047090481617047002800F0E08170B5F9
:1010FC0082B00446036813F0010F3BD09F4B9B68F2
:10110C0003F00C03042B2CD09C4B9B6803F00C03BA
:10111C00082B21D06368B3F5803F4FD0B3F5A02FD7
:10112C0052D0964B1A6822F480321A601A6822F454
:10113C0080221A606368002B50D0FFF797FB05469E
:10114C008E4B1B6813F4003F14D1FFF78FFB401B31
:10115C006428F5D90320B1E1884B5B6813F4800F48
:10116C00D8D0864B1B6813F4003F03D06368002B68
:10117C0000F09F81236813F0020F54D07F4B9B68C3
:10118C0013F00C0F3ED07D4B9B6803F00C03082B27
:10119C0033D0E368002B68D0794B01221A60FFF73B
:1011AC0065FB0546754B1B6813F0020F54D1FFF716
:1011BC005DFB401B0228F5D903207FE16F4A1368C1
:1011CC0043F480331360B5E76C4B1A6842F4802209
:1011DC001A601A6842F480321A60ABE7FFF746FBDC
:1011EC000546664B1B6813F4003FC3D0FFF73EFB6C
:1011FC00401B6428F5D9032060E1604B5B6813F455
:10120C00800FC6D15D4B1B6813F0020F03D0E3684F
:10121C00012B40F05081594A136823F0F8032169DF
:10122C0043EAC1031360236813F0080F42D06369CB
:10123C006BB3534B0122C3F8802EFFF717FB054607
:10124C004E4B5B6F13F0020F34D1FFF70FFB401BBB
:10125C000228F5D9032031E1484A136823F0F8033A
:10126C00216943EAC1031360DDE7454B00221A6094
:10127C00FFF7FCFA0546414B1B6813F0020FD2D066
:10128C00FFF7F4FA401B0228F5D9032016E13C4B7A
:10129C000022C3F8802EFFF7E9FA0546374B5B6F47
:1012AC0013F0020F06D0FFF7E1FA401B0228F5D924
:1012BC00032003E1236813F0040F77D02F4B1B6C32
:1012CC0013F0805F33D1002301932C4B1A6C42F046
:1012DC0080521A641B6C03F080530193019B01250F
:1012EC00284B1B6813F4807F23D0A368012B34D0C8
:1012FC00052B38D0214B1A6F22F001021A671A6F96
:10130C0022F004021A67A368002B3DD0FFF7AEFA57
:10131C0006461A4B1B6F13F0020F46D1FFF7A6FAC5
:10132C00801B41F288339842F3D90320C6E0002594
:10133C00D6E7144A136843F480731360FFF796FAE8
:10134C000646104B1B6813F4807FCED1FFF78EFA44
:10135C00801B0228F5D90320B0E0084A136F43F034
:10136C0001031367CFE7054B1A6F42F004021A67AB
:10137C001A6F42F001021A67C5E700BF003802403D
:10138C000000474200700040FFF770FA0646524BCF
:10139C001B6F13F0020F08D0FFF768FA801B41F2A5
:1013AC0088339842F3D9032088E0EDB9A369002B68
:1013BC0000F08380484A926802F00C02082A51D04F
:1013CC00022B17D0454B00221A66FFF74FFA044642
:1013DC00414B1B6813F0007F42D0FFF747FA001B0C
:1013EC000228F5D9032069E03B4A136C23F08053A3
:1013FC001364DBE7394B00221A66FFF737FA054610
:10140C00354B1B6813F0007F06D0FFF72FFA401BFB
:10141C000228F5D9032051E0E369226A1343626A7A
:10142C0043EA8213A26A5208013A43EA0243E26A8F
:10143C0043EA0263284A5360284B01221A66FFF7DD
:10144C0015FA0446244B1B6813F0007F06D1FFF7F6
:10145C000DFA001B0228F5D903202FE000202DE007
:10146C0000202BE0012B2BD01B4B5B6803F480017D
:10147C00E269914226D103F03F02216A8A4223D1CC
:10148C00616A47F6C0721A40B2EB811F1ED103F499
:10149C004031A26A5208013AB1EB024F18D103F065
:1014AC007063E26AB3EB026F14D1002006E00120F6
:1014BC007047012002E0012000E0002002B070BD66
:1014CC000120FBE70120F9E70120F7E70120F5E710
:1014DC000120F3E70120F1E7003802400000474209
:1014EC0008B5254B9B6803F00C03042B3FD0082B4D
:1014FC003FD1214B5A6802F03F025B6813F4800F16
:10150C0012D01D4B5968C1F388111C480023A1FB54
:10151C000001FEF765FE184B5B68C3F30143013312
:10152C005B00B0FBF3F025E0134B5968C1F3881C4A
:10153C004FEA4C11B1EB0C006EEB0E0E4FEA8E1312
:10154C0043EA90638101091A63EB0E03DB0043EA63
:10155C005173C90011EB0C0C43F1000399020023E9
:10156C004FEA8C2041EA9C51FEF73AFED3E7034840
:10157C0000E0034808BD00BF00380240001BB70064
:10158C000024F400002800F09B8070B50D46044642
:10159C004F4B1B6803F00F038B4208D2CBB24C4A63
:1015AC001370136803F00F038B4240F08B80236899
:1015BC0013F0020F17D013F0040F04D0454A9368B0
:1015CC0043F4E0539360236813F0080F04D0414AAE
:1015DC00936843F4604393603E4A936823F0F003AE
:1015EC00A1680B439360236813F0010F32D063683A
:1015FC00012B21D09A1E012A25D9364A126812F0E5
:10160C00020F61D033498A6822F0030213438B60C6
:10161C00FFF72CF906462F4B9B6803F00C0362680E
:10162C00B3EB820F16D0FFF721F9801B41F2883300
:10163C009842F0D9032042E0264A126812F4003F87
:10164C00E0D101203BE0234A126812F0007FD9D18F
:10165C00012034E01E4B1B6803F00F03AB4207D98B
:10166C00EAB21B4B1A701B6803F00F03AB422DD16F
:10167C00236813F0040F06D0164A936823F4E05342
:10168C00E1680B439360236813F0080F07D0114AED
:10169C00936823F46043216943EAC1039360FFF725
:1016AC001FFF0C4B9B68C3F303130B4AD35CD8404E
:1016BC000A4B18600A4B1868FFF78CF8002070BDB5
:1016CC00012070470120FAE70120F8E70120F6E736
:1016DC00003C02400038024078190008000000204D
:1016EC000800002010B40268D2F88C310023C2F834
:1016FC008C310268D2F88841C2F888310268D2F87D
:10170C008441C2F884310268D2F88041C2F8803139
:10171C000B68002B3BD00A2B46D04B68002B50D0CB
:10172C000A2B56D003680A69C3F884210268D2F8E0
:10173C00843123F48073C2F884310A6BCB6A1B04A6
:10174C0043EA02638A6A43EA022302684C6A23432F
:10175C00C2F88C310A6ACB691B0443EA02638A69BA
:10176C0043EA0223496902680B43C2F888310268D4
:10177C00D2F8803143F00103C2F880310368D3F80A
:10178C00803113F0010FF9D15DF8044B7047CB6831
:10179C0002685B05C2F880310268D2F8803123F010
:1017AC000703C2F88031B8E7CB680268DB00C2F8E7
:1017BC0080310268D2F8803143F00403C2F88031E2
:1017CC00ABE70268D2F8803123F00203C2F8803113
:1017DC00A8E70268D2F8803143F00203C2F88031E6
:1017EC00A0E7000010B441EA4011044CE160226013
:1017FC006360019B23615DF8044B7047540000202B
:10180C0010B58AB00122089200230593049300932B
:10181C0001930293039306930792074C6946204663
:10182C00FFF7E4F82046FFF77DF902212046FFF789
:10183C00A7F90AB010BD00BF2800002008B5FFF7BB
:10184C00DFFF08BD84B030B583B006AC84E80F0070
:10185C0010EE104A10EE905A0823009300231A46FB
:10186C000D21FFF7BFFFE2B20D494A61C4F3072215
:10187C008A61C4F30742CA61230E0B62EAB24A6260
:10188C00C5F307228A62C5F30742CA622B0E0B63AB
:10189C000448FFF727FF03B0BDE8304004B07047A1
:1018AC005400002028000020DFF834D0FEF788FF19
:1018BC000C480D490D4A002302E0D458C45004339F
:1018CC00C4188C42F9D30A4A0A4C002301E0136075
:1018DC000432A242FBD300F011F8FEF7FFFE704772
:1018EC0000000320000000200C00002098190008C4
:1018FC000C000020E0000020FEE7000070B50D4D4C
:10190C000D4C641BA4100026A64209D10B4D0C4CA7
:10191C0000F020F8641BA4100026A64205D170BD6F
:10192C0055F8043B98470136EEE755F8043B9847C9
:10193C000136F2E790190008901900089019000878
:10194C009419000802440346934200D1704703F8EF
:10195C00011BF9E7F8B500BFF8BC08BC9E46704700
:0C196C00F8B500BFF8BC08BC9E467047F0
:101978000000000000000000010203040607080937
:0819880094E8FF7F010000005C
:04199000D101000879
:04199400AD01000899
:0C1998000024F40001000000100000001A
:04000005080018B522
:00000001FF
