:020000040800F2
:1000000000000220712B00089111000893110008D4
:1000100095110008971100089911000800000000D0
:100020000000000000000000000000009B1100081C
:100030009D110008000000009F110008A111000898
:10004000C12B0008C12B0008C12B0008C12B0008E0
:10005000C12B0008C12B0008C12B0008C12B0008D0
:10006000C12B0008C12B0008C12B0008C12B0008C0
:10007000C12B0008C12B0008C12B0008C12B0008B0
:10008000C12B0008C12B0008C12B0008C12B0008A0
:10009000C12B0008C12B0008C12B0008C12B000890
:1000A000C12B0008C12B0008C12B0008C12B000880
:1000B000C12B0008C12B0008A9110008C12B0008A2
:1000C000C12B0008C12B0008C12B0008C12B000860
:1000D000C12B0008C12B0008C12B0008C12B000850
:1000E000C12B0008C12B0008C12B0008C12B000840
:1000F000C12B0008C12B0008C12B0008C12B000830
:10010000C12B0008C12B0008C12B0008C12B00081F
:10011000C12B0008C12B0008C12B0008C12B00080F
:10012000C12B0008C12B0008C12B0008C12B0008FF
:10013000C12B0008C12B0008C12B0008C12B0008EF
:10014000C12B0008C12B0008C12B0008C12B0008DF
:10015000C12B0008C12B0008C12B0008C12B0008CF
:10016000C12B0008C12B0008C12B0008C12B0008BF
:10017000C12B0008C12B0008C12B000800000000A3
:08018000C12B0008C12B00088F
:1001880010B5054C237833B9044B13B10448AFF3C9
:1001980000800123237010BD0C0000200000000027
:1001A8001C2C000808B5034B1BB103490348AFF3E7
:1001B800008008BD00000000100000201C2C000872
:1001C80081F0004102E000BF83F0004330B54FEA00
:1001D80041044FEA430594EA050F08BF90EA020F6D
:1001E8001FBF54EA000C55EA020C7FEA645C7FEA00
:1001F800655C00F0E2804FEA5454D4EB5555B8BF23
:100208006D420CDD2C4480EA020281EA030382EA93
:10021800000083EA010180EA020281EA0303362D25
:1002280088BF30BD11F0004F4FEA01314FF4801CF8
:100238004CEA113102D0404261EB410113F0004F0A
:100248004FEA03334CEA133302D0524263EB4303C1
:1002580094EA050F00F0A780A4F10104D5F1200E5F
:100268000DDB02FA0EFC22FA05F2801841F10001BA
:1002780003FA0EF2801843FA05F359410EE0A5F18E
:1002880020050EF1200E012A03FA0EFC28BF4CF0BF
:10029800020C43FA05F3C01851EBE37101F0004575
:1002A80007D54FF0000EDCF1000C7EEB00006EEB82
:1002B8000101B1F5801F1BD3B1F5001F0CD349080C
:1002C8005FEA30004FEA3C0C04F101044FEA445263
:1002D80012F5800F80F09A80BCF1004F08BF5FEAEA
:1002E800500C50F1000041EB045141EA050130BDCA
:1002F8005FEA4C0C404141EB0101013C28BFB1F5DC
:10030800801FE9D291F0000F04BF01460020B1FA26
:1003180081F308BF2033A3F10B03B3F120020CDAF9
:100328000C3208DD02F1140CC2F10C0201FA0CF0D7
:1003380021FA02F10CE002F11402D8BFC2F1200C3C
:1003480001FA02F120FA0CFCDCBF41EA0C019040F2
:10035800E41AA2BF01EB0451294330BD6FEA04043B
:100368001F3C1CDA0C340EDC04F11404C4F1200226
:1003780020FA04F001FA02F340EA030021FA04F338
:1003880045EA030130BDC4F10C04C4F1200220FA8F
:1003980002F001FA04F340EA0300294630BD21FACD
:1003A80004F0294630BD94F0000F83F4801306BF93
:1003B80081F480110134013D4EE77FEA645C18BF87
:1003C8007FEA655C29D094EA050F08BF90EA020F1E
:1003D80005D054EA000C04BF1946104630BD91EA16
:1003E800030F1EBF0021002030BD5FEA545C05D119
:1003F8004000494128BF41F0004130BD14F5800458
:100408003CBF01F5801130BD01F0004545F0FE41CB
:1004180041F470014FF0000030BD7FEA645C1ABF00
:10042800194610467FEA655C1CBF0B46024650EA37
:10043800013406BF52EA033591EA030F41F4002163
:1004480030BD00BF90F0000F04BF0021704730B5E9
:100458004FF4806404F132044FF000054FF00001BE
:1004680050E700BF90F0000F04BF0021704730B57F
:100478004FF4806404F1320410F0004548BF404254
:100488004FF000013EE700BF42004FEAE2014FEAA9
:1004980031014FEA02701FBF12F07F4393F07F4F84
:1004A80081F06051704732F07F4208BF704793F087
:1004B8007F4F04BF41F40021704730B54FF460749A
:1004C80001F0004521F000411CE700BF50EA01029D
:1004D80008BF704730B54FF000050AE050EA010246
:1004E80008BF704730B511F0004502D5404261EBB6
:1004F80041014FF4806404F132045FEA915C3FF4F7
:10050800D8AE4FF003025FEADC0C18BF03325FEA93
:10051800DC0C18BF033202EBDC02C2F1200300FA44
:1005280003FC20FA02F001FA03FE40EA0E0021FA69
:1005380002F11444BDE600BF70B54FF0FF0C4CF457
:10054800E06C1CEA11541DBF1CEA135594EA0C0F09
:1005580095EA0C0F00F0DEF82C4481EA030621EA44
:100568004C5123EA4C5350EA013518BF52EA03357F
:1005780041F4801143F4801338D0A0FB02CE4FF031
:100588000005E1FB02E506F00042E0FB03E54FF061
:100598000006E1FB03569CF0000F18BF4EF0010E59
:1005A800A4F1FF04B6F5007F64F5407404D25FEA55
:1005B8004E0E6D4146EB060642EAC62141EA555108
:1005C8004FEAC52040EA5E504FEACE2EB4F1FD0C4A
:1005D80088BFBCF5E06F1ED8BEF1004F08BF5FEAC8
:1005E800500E50F1000041EB045170BD06F000467A
:1005F80046EA010140EA020081EA0301B4EB5C0427
:10060800C2BFD4EB0C0541EA045170BD41F480111E
:100618004FF0000E013C00F3AB8014F1360FDEBF43
:10062800002001F0004170BDC4F10004203C35DA1F
:100638000C341BDC04F11404C4F1200500FA05F3A2
:1006480020FA04F001FA05F240EA020001F0004243
:1006580021F0004110EBD37021FA04F642EB0601B9
:100668005EEA430E08BF20EAD37070BDC4F10C04E3
:10067800C4F1200500FA04F320FA05F001FA04F2A7
:1006880040EA020001F0004110EBD37041F1000193
:100698005EEA430E08BF20EAD37070BDC4F120059E
:1006A80000FA05F24EEA020E20FA04F301FA05F206
:1006B80043EA020321FA04F001F0004121FA04F2AE
:1006C80020EA020000EBD3705EEA430E08BF20EA7E
:1006D800D37070BD94F0000F0FD101F000464000B8
:1006E80041EB010111F4801F08BF013CF7D041EA3A
:1006F800060195F0000F18BF704703F0004652003E
:1007080043EB030313F4801F08BF013DF7D043EA0E
:100718000603704794EA0C0F0CEA135518BF95EAC4
:100728000C0F0CD050EA410618BF52EA4306D1D14B
:1007380081EA030101F000414FF0000070BD50EA6A
:10074800410606BF1046194652EA430619D094EAF4
:100758000C0F02D150EA013613D195EA0C0F05D1DE
:1007680052EA03361CBF104619460AD181EA030132
:1007780001F0004141F0FE4141F470014FF00000EA
:1007880070BD41F0FE4141F4780170BD70B54FF085
:10079800FF0C4CF4E06C1CEA11541DBF1CEA135505
:1007A80094EA0C0F95EA0C0F00F0A7F8A4EB0504E7
:1007B80081EA030E52EA03354FEA013100F08880DE
:1007C8004FEA03334FF0805545EA131343EA1263A7
:1007D8004FEA022245EA111545EA10654FEA00265C
:1007E8000EF000419D4208BF964244F1FD0404F515
:1007F800407402D25B084FEA3202B61A65EB030571
:100808005B084FEA32024FF480104FF4002CB6EB2D
:10081800020E75EB030E22BFB61A754640EA0C00AD
:100828005B084FEA3202B6EB020E75EB030E22BFED
:10083800B61A754640EA5C005B084FEA3202B6EB2E
:10084800020E75EB030E22BFB61A754640EA9C00ED
:100858005B084FEA3202B6EB020E75EB030E22BFBD
:10086800B61A754640EADC0055EA060E18D04FEA7B
:10087800051545EA16754FEA06164FEAC30343EA1B
:1008880052734FEAC2025FEA1C1CC0D111F4801FE8
:100898000BD141EA00014FF000004FF0004CB6E7E1
:1008A80011F4801F04BF01430020B4F1FD0C88BF80
:1008B800BCF5E06F3FF6AFAEB5EB030C04BFB6EB8B
:1008C800020C5FEA500C50F1000041EB045170BD7E
:1008D8000EF0004E4EEA113114EB5C04C2BFD4EBAB
:1008E8000C0541EA045170BD41F480114FF0000E2F
:1008F800013C90E645EA060E8DE60CEA135594EAAB
:100908000C0F08BF95EA0C0F3FF43BAF94EA0C0FAD
:100918000AD150EA01347FF434AF95EA0C0F7FF422
:1009280025AF104619462CE795EA0C0F06D152EA76
:1009380003353FF4FDAE1046194622E750EA41065A
:1009480018BF52EA43067FF4C5AE50EA41047FF46B
:100958000DAF52EA43057FF4EBAE12E74FEA4102CE
:10096800B2F1E04324BFB3F5001CDCF1FE5C0DD905
:1009780001F0004C4FEAC0024CEA5070B2F1004F4F
:1009880040EB830008BF20F00100704711F0804F52
:1009980021D113F13872BCBF01F00040704741F417
:1009A80080114FEA5252C2F11802C2F1200C10FA1B
:1009B8000CF320FA02F018BF40F001004FEAC123FF
:1009C8004FEAD32303FA0CFC40EA0C0023FA02F3A3
:1009D8004FEA4303CCE77FEA625307D150EA013379
:1009E8001EBF4FF0FE4040F44000704701F0004049
:1009F80040F0FE4040F40000704700BF53B94AB9C8
:100A0800002908BF00281CBF4FF0FF314FF0FF300E
:100A180000F074B9ADF1080C6DE904CE00F006F8E9
:100A2800DDF804E0DDE9022304B070472DE9F04762
:100A3800089D04468E46002B4DD18A42944669D9BA
:100A4800B2FA82F252B101FA02F3C2F1200120FA9D
:100A580001F10CFA02FC41EA030E94404FEA1C48EB
:100A6800210CBEFBF8F61FFA8CF708FB16E341EAE7
:100A7800034306FB07F199420AD91CEB030306F16D
:100A8800FF3080F01F81994240F21C81023E63448E
:100A98005B1AA4B2B3FBF8F008FB103344EA034432
:100AA80000FB07F7A7420AD91CEB040400F1FF3347
:100AB80080F00A81A74240F207816444023840EA84
:100AC8000640E41B00261DB1D4400023C5E90043BD
:100AD8003146BDE8F0878B4209D9002D00F0EF8040
:100AE8000026C5E9000130463146BDE8F087B3FA73
:100AF80083F6002E4AD18B4202D3824200F2F9805B
:100B0800841A61EB030301209E46002DE0D0C5E95D
:100B1800004EDDE702B9FFDEB2FA82F2002A40F0A9
:100B28009280A1EB0C014FEA1C471FFA8CFE0126AC
:100B3800200CB1FBF7F307FB131140EA01410EFB50
:100B480003F0884208D91CEB010103F1FF3802D2F7
:100B5800884200F2CB804346091AA4B2B1FBF7F0F1
:100B680007FB101144EA01440EFB00FEA64508D914
:100B78001CEB040400F1FF3102D2A64500F2BB8051
:100B88000846A4EB0E0440EA03409CE7C6F12007A0
:100B9800B34022FA07FC4CEA030C20FA07F401FAE6
:100BA80006F31C43F9404FEA1C4900FA06F3B1FB6F
:100BB800F9F8200C1FFA8CFE09FB181140EA0141D4
:100BC80008FB0EF0884202FA06F20BD91CEB010171
:100BD80008F1FF3A80F08880884240F28580A8F1C9
:100BE80002086144091AA4B2B1FBF9F009FB10111B
:100BF80044EA014100FB0EFE8E4508D91CEB0101B9
:100C080000F1FF346CD28E456AD90238614440EA5B
:100C18000840A0FB0294A1EB0E01A142C846A646DB
:100C280056D353D05DB1B3EB080261EB0E0101FA64
:100C380007F722FA06F3F1401F43C5E900710026C1
:100C48003146BDE8F087C2F12003D8400CFA02FC17
:100C580021FA03F3914001434FEA1C471FFA8CFE27
:100C6800B3FBF7F007FB10360B0C43EA064300FB17
:100C78000EF69E4204FA02F408D91CEB030300F1B5
:100C8800FF382FD29E422DD9023863449B1B89B26C
:100C9800B3FBF7F607FB163341EA034106FB0EF3F5
:100CA8008B4208D91CEB010106F1FF3816D28B42A2
:100CB80014D9023E6144C91A46EA004638E72E466E
:100CC800284605E70646E3E61846F8E64B45A9D266
:100CD800B9EB020864EB0C0E0138A3E74646EAE7D5
:100CE800204694E74046D1E7D0467BE7023B614483
:100CF80032E7304609E76444023842E7704700BFEC
:100D0800034B1A68D36A0F3B984200D2506370476E
:100D18008C000020034B1B685B6A034A106803EBD6
:100D28000040704744000020280000200000000018
:100D38002DE9F04180462A4C65682368EB1A07EED6
:100D4800903AF8EEE77AC4ED027A17EE900AFFF7C8
:100D58009BFB06460F464FF47A7090FBF8F0FFF7BE
:100D680081FB00221F4BFFF7E7FB02460B4630468C
:100D78003946FFF7E1FB00221B4BFFF707FD002276
:100D88001A4BFFF703FDFFF7E9FD06462560184FEC
:100D98007868FFF779FB0EA3D3E90023FFF7CCFBB4
:100DA80004460D463046FFF76FFB0BA3D3E900233B
:100DB800FFF7C2FB02460B4620462946FFF706FA14
:100DC800FFF7CCFD7860BDE8F08100BFAFF300808D
:100DD800A4703D0AD7A3E03FB81E85EB51B8DE3FAB
:100DE8002C00002000004E4000003E4000004A4019
:100DF8003800002038B50024094B1C70094D2246E4
:100E08004FF48061284600F033FD22464FF48051AC
:100E1800284600F02DFD2146034801F0F9FC38BDB5
:100E280038000020001002408C00002010B5044655
:100E380000210D4801F0ECFC04B110BD04F1804420
:100E480004F5043401224FF48061204600F010FDBF
:100E580000224FF48051204600F00AFD002102488C
:100E680001F054FCE9E700BF8C00002010B5FDEE4E
:100E7800C07A17EE904A002C06DB0020FFF7D6FF59
:100E8800A0B2FFF73DFF10BD0120FFF7CFFF604282
:100E980080B2FFF735FFF6E710B50122094B1A704B
:100EA800094C4FF48061204600F0E2FC00224FF428
:100EB8008051204600F0DCFC0021044801F026FCAB
:100EC80010BD00BF38000020001002408C00002038
:100ED80008B503680F4A934203D00F4A934210D0D3
:100EE80008BD0E4B1B681B6813F0100F04D00C4A8A
:100EF8001368013B1360F3E7094A13680133136071
:100F0800EEE7FFF707FF074B58600520FFF710FFD4
:100F1800E6E700BF00000140000800408C00002008
:100F2800280000202C00002038B5114C0021204654
:100F380001F0B4FC0421204601F0B0FC2368DA6813
:100F480042F00102DA606FF001041C61094D284685
:100F580001F07CF82B681C61FFF74CFF0020FFF7BD
:100F680065FF9FED050AFFF781FFFFF795FF38BD85
:100F780044000020D40000200000000008B507EE5F
:100F8800900A9FED167AF4EEC77AF1EE10FA09DCB2
:100F98009FED137AF4EEC77AF1EE10FA04D5DFED7F
:100FA800107A01E0DFED0D7A0E4B1B78012B06D08D
:100FB8009FED0D0AB8EEC00AFFF758FF08BD0B4BAE
:100FC8001B6893ED0B7AB8EE477A67EE277A9FEDA8
:100FD800037A87EE870ABDEEC00AEBE70000B74345
:100FE8000000B7C338000020000000008C0000207B
:100FF80030B589B0002403940494059406940794AA
:101008000094194B1A6B42F080021A631A6B02F0B3
:1010180080020092009A01941A6B42F001021A634E
:101028001A6B02F001020192019A02941A6B42F0C3
:1010380010021A631B6B03F010030293029B0B4D03
:1010480022464FF4A051284600F012FC4FF4A0535A
:101058000393012304930594069403A9284600F0FA
:1010680015FB09B030BD00BF003802400010024037
:1010780072B6FEE700B595B03022002108A801F04D
:10108800C1FD0023039304930593069307930193EB
:10109800214A116C41F080511164126C02F08052A7
:1010A8000192019A02931D4B1A6842F480421A6019
:1010B8001B6803F480430293029B012308934FF4B7
:1010C8008033099302230E934FF480020F92192262
:1010D80010924FF4A872119212930423139308A844
:1010E80000F0CCFB98B90F23039302230493002349
:1010F80005934FF4A05306934FF4805307930521AB
:1011080003A800F009FE20B915B05DF804FBFFF74D
:10111800AFFFFFF7ADFF00BF00380240007000408E
:1011280008B500F01BFAFFF7A5FFFFF761FF00F015
:1011380049F800F045F900F079F800F095F9FFF763
:10114800F3FE0248FFF71AFFFBE700BF0000484321
:1011580082B0002100910B4B5A6C42F480425A64D1
:101168005A6C02F480420092009A01911A6C42F083
:1011780080521A641B6C03F080530193019B02B0E8
:10118800704700BF00380240FEE7FEE7FEE7FEE7D3
:10119800FEE770477047704708B500F0F9F908BDD9
:1011A80008B5024800F09BFF08BD00BFD40000202E
:1011B800034AD2F8883043F47003C2F88830704785
:1011C80000ED00E000B58DB02422002103A801F055
:1011D80019FD0023019302931248134A02604360E9
:1011E80083604FF6FF72C26003614361836103232A
:1011F800039301230593099303A901F0E9F850B972
:1012080000230193029301A9064801F0ADFB28B918
:101218000DB05DF804FBFFF72BFFF1E7FFF728FFA0
:10122800F6E700BF440000200000014000B587B089
:1012380000230293039304930593009301931548A5
:10124800154A0260A7224260836041F28732C26079
:101258000361836101F064F890B94FF480530293FD
:1012680002A90C4801F0C3F968B90023009301935F
:101278006946084801F078FB40B907B05DF804FBFF
:10128800FFF7F6FEE9E7FFF7F3FEEEE7FFF7F0FEFC
:10129800F3E700BFD40000200008004000B589B083
:1012A8000023039304930593069307930268144B52
:1012B8009A4202D009B05DF804FB0021019103F5C0
:1012C8009C335A6C42F001025A645A6C02F00102D3
:1012D8000192019A02911A6B42F010021A631B6B79
:1012E80003F010030293029B4FF42063039302233D
:1012F80004930123079303A9024800F0C7F9D9E72B
:10130800000001400010024000B583B00368B3F14B
:10131800804F05D0134A93420FD003B05DF804FB09
:1013280000230093104B1A6C42F001021A641B6CE4
:1013380003F001030093009BEFE7002101910A4BA2
:101348001A6C42F004021A641B6C03F00403019344
:10135800019B0A461E2000F03FF91E2000F074F998
:10136800DBE700BF000800400038024000B587B046
:101378000023019302930393049305930368B3F145
:10138800804F02D007B05DF804FB002300930A4B9E
:101398001A6B42F001021A631B6B03F001030093FE
:1013A800009B0123019302220292059301A903489D
:1013B80000F06CF9E6E700BF003802400000024088
:1013C80000B58FB000230A930B930C930D930893E9
:1013D8000993019302930393049305930693079348
:1013E80020484FF0804202604360836044F29F12BD
:1013F800C2600361836100F093FF20BB4FF4805308
:101408000A930AA9174801F0F2F8F8B9154800F04C
:10141800B3FFF0B900230893099308A9114801F014
:10142800A3FAC8B96023019300220292039205929D
:1014380001A90C4801F060F888B90A48FFF796FF3F
:101448000FB05DF804FBFFF713FED7E7FFF710FEB8
:10145800DCE7FFF70DFEDDE7FFF70AFEE2E7FFF73F
:1014680007FEEAE78C00002008B50A480A4B03602B
:101478004FF4E133436000238360C36003610C22AF
:1014880042618361C36101F03FFB00B908BDFFF70A
:10149800EFFDFBE71C0100200010014000B589B0FA
:1014A800002303930493059306930793026803F1BB
:1014B800804303F588339A4202D009B05DF804FBF3
:1014C8000021019103F594335A6C42F010025A64DA
:1014D8005A6C02F010020192019A02911A6B42F0C2
:1014E80001021A631B6B03F001030293029B4FF482
:1014F800C0630393022304930323069307230793EC
:1015080003A9024800F0C2F8D7E700BF0000024074
:1015180010B504460E4B18784FF47A73B3FBF0F30A
:101528000C4A1068B0FBF3F000F09CF868B90F2C77
:1015380001D901200AE0002221464FF0FF3000F0D7
:101548004BF8054B1C60002000E0012010BD00BFD7
:1015580004000020000000200800002008B50B4B04
:101568001A6842F400721A601A6842F480621A60BB
:101578001A6842F480721A60032000F01BF80F20EA
:10158800FFF7C6FFFFF7E4FD002008BD003C02405E
:10159800034A1168034B1B780B441360704700BF64
:1015A8006001002004000020014B1868704700BF4C
:1015B80060010020074AD36823F4E0631B041B0C76
:1015C800000200F4E060034343F0BF6343F40033D8
:1015D800D360704700ED00E000B5194BDB68C3F33A
:1015E8000223C3F1070CBCF1040F28BF4FF0040C11
:1015F80003F1040EBEF1060F18D9033B4FF0FF3E6E
:101608000EFA0CFC21EA0C0199400EFA03F322EAC7
:101618000303194300280BDB0901C9B200F160403C
:1016280000F5614080F800135DF804FB0023E5E74E
:1016380000F00F000901C9B2024B1954F4E700BFCA
:1016480000ED00E014ED00E0002807DB00F01F02C9
:10165800400901239340024A42F82030704700BFF6
:1016680000E100E00138B0F1807F0BD24FF0E023B9
:101678005861054AF02182F823100020986107225A
:101688001A6170470120704700ED00E000230F2B1E
:1016980000F2E48070B582B060E085685E000324E3
:1016A800B44025EA0405CC68B4402C4384604568FE
:1016B80025EA02054C68C4F300129A402A434260A6
:1016C8005AE0DC08083450F8246003F0070295005B
:1016D8000F22AA4026EA020E0A69AA4042EA0E022E
:1016E80040F824205CE0072200E0002202FA0EF213
:1016F8002A4302345A4D45F824205A4A94686FEA1E
:101708000C0224EA0C054E6816F4801F01D04CEA3E
:101718000405544CA560E46802EA04054E6816F412
:10172800001F01D04CEA04054E4CE560646802EAEB
:1017380004054E6816F4003F01D04CEA0405494CF4
:101748006560246822404D6815F4803F01D04CEA5A
:101758000402444C226001330F2B7DD801229A40A9
:101768000C6804EA020C32EA0404F4D14C6804F070
:101778000304013C012C90D94A6802F00302032AB1
:1017880009D0C4685D000322AA4024EA02048A68DA
:10179800AA402243C2604A6802F00302022A90D09B
:1017A80004684FEA430E032202FA0EF224EA020406
:1017B8004A6802F0030202FA0EF2224302604A6803
:1017C80012F4403FC7D000220192274A546C44F4D7
:1017D80080445464526C02F480420192019A9C083D
:1017E800A51C1F4A52F8255003F003024FEA820E47
:1017F8000F2202FA0EF225EA02051C4A90423FF433
:1018080074AF02F5806290421AD002F5806290426D
:1018180018D002F58062904216D002F5806290429C
:1018280014D002F58062904212D002F58062904294
:1018380010D002F5806290423FF455AF082255E778
:10184800012253E7022251E703224FE704224DE722
:1018580005224BE7062249E702B070BD704700BF7A
:1018680000380140003C01400038024000000240BE
:101878000AB181617047090481617047002800F04E
:10188800E08170B582B00446036813F0010F3BD0C5
:101898009F4B9B6803F00C03042B2CD09C4B9B683C
:1018A80003F00C03082B21D06368B3F5803F4FD0B9
:1018B800B3F5A02F52D0964B1A6822F480321A60E2
:1018C8001A6822F480221A606368002B50D0FFF750
:1018D8006BFE05468E4B1B6813F4003F14D1FFF7CF
:1018E80063FE401B6428F5D90320B1E1884B5B688F
:1018F80013F4800FD8D0864B1B6813F4003F03D035
:101908006368002B00F09F81236813F0020F54D006
:101918007F4B9B6813F00C0F3ED07D4B9B6803F008
:101928000C03082B33D0E368002B68D0794B0122D5
:101938001A60FFF739FE0546754B1B6813F0020F56
:1019480054D1FFF731FE401B0228F5D903207FE16F
:101958006F4A136843F480331360B5E76C4B1A6819
:1019680042F480221A601A6842F480321A60ABE7A7
:10197800FFF71AFE0546664B1B6813F4003FC3D0F9
:10198800FFF712FE401B6428F5D9032060E1604B85
:101998005B6813F4800FC6D15D4B1B6813F0020F10
:1019A80003D0E368012B40F05081594A136823F0B3
:1019B800F803216943EAC1031360236813F0080F91
:1019C80042D063696BB3534B0122C3F8802EFFF7F3
:1019D800EBFD05464E4B5B6F13F0020F34D1FFF75A
:1019E800E3FD401B0228F5D9032031E1484A13687A
:1019F80023F0F803216943EAC1031360DDE7454B8F
:101A080000221A60FFF7D0FD0546414B1B6813F012
:101A1800020FD2D0FFF7C8FD401B0228F5D90320DA
:101A280016E13C4B0022C3F8802EFFF7BDFD0546AA
:101A3800374B5B6F13F0020F06D0FFF7B5FD401B65
:101A48000228F5D9032003E1236813F0040F77D0A7
:101A58002F4B1B6C13F0805F33D1002301932C4B69
:101A68001A6C42F080521A641B6C03F08053019385
:101A7800019B0125284B1B6813F4807F23D0A368A2
:101A8800012B34D0052B38D0214B1A6F22F00102DC
:101A98001A671A6F22F004021A67A368002B3DD058
:101AA800FFF782FD06461A4B1B6F13F0020F46D153
:101AB800FFF77AFD801B41F288339842F3D903205F
:101AC800C6E00025D6E7144A136843F48073136010
:101AD800FFF76AFD0646104B1B6813F4807FCED1D2
:101AE800FFF762FD801B0228F5D90320B0E0084A01
:101AF800136F43F001031367CFE7054B1A6F42F0EA
:101B080004021A671A6F42F001021A67C5E700BF9C
:101B1800003802400000474200700040FFF744FDD3
:101B28000646524B1B6F13F0020F08D0FFF73CFD1F
:101B3800801B41F288339842F3D9032088E0EDB93D
:101B4800A369002B00F08380484A926802F00C02D7
:101B5800082A51D0022B17D0454B00221A66FFF7EE
:101B680023FD0446414B1B6813F0007F42D0FFF76A
:101B78001BFD001B0228F5D9032069E03B4A136CC2
:101B880023F080531364DBE7394B00221A66FFF712
:101B98000BFD0546354B1B6813F0007F06D0FFF799
:101BA80003FD401B0228F5D9032051E0E369226AAE
:101BB8001343626A43EA8213A26A5208013A43EA6B
:101BC8000243E26A43EA0263284A5360284B01222F
:101BD8001A66FFF7E9FC0446244B1B6813F0007FE4
:101BE80006D1FFF7E1FC001B0228F5D903202FE0FE
:101BF80000202DE000202BE0012B2BD01B4B5B6835
:101C080003F48001E269914226D103F03F02216A80
:101C18008A4223D1616A47F6C0721A40B2EB811F2B
:101C28001ED103F44031A26A5208013AB1EB024FC7
:101C380018D103F07063E26AB3EB026F14D100208D
:101C480006E001207047012002E0012000E00020AA
:101C580002B070BD0120FBE70120F9E70120F7E79A
:101C68000120F5E70120F3E70120F1E70038024001
:101C78000000474208B5254B9B6803F00C03042B72
:101C88003FD0082B3FD1214B5A6802F03F025B68D6
:101C980013F4800F12D01D4B5968C1F388111C48EA
:101CA8000023A1FB0001FEF7A9FE184B5B68C3F3F4
:101CB800014301335B00B0FBF3F025E0134B596897
:101CC800C1F3881C4FEA4C11B1EB0C006EEB0E0E01
:101CD8004FEA8E1343EA90638101091A63EB0E03FE
:101CE800DB0043EA5173C90011EB0C0C43F100030C
:101CF800990200234FEA8C2041EA9C51FEF77EFEB0
:101D0800D3E7034800E0034808BD00BF003802409D
:101D180040787D010024F400002800F09B8070B515
:101D28000D4604464F4B1B6803F007038B4208D24D
:101D3800CBB24C4A1370136803F007038B4240F090
:101D48008B80236813F0020F17D013F0040F04D010
:101D5800454A936843F4E0539360236813F0080FEF
:101D680004D0414A936843F4604393603E4A9368C1
:101D780023F0F003A1680B439360236813F0010F6D
:101D880032D06368012B21D09A1E012A25D9364A00
:101D9800126812F0020F61D033498A6822F00302F8
:101DA80013438B60FFF700FC06462F4B9B6803F03C
:101DB8000C036268B3EB820F16D0FFF7F5FB801BAC
:101DC80041F288339842F0D9032042E0264A12684B
:101DD80012F4003FE0D101203BE0234A126812F0E0
:101DE800007FD9D1012034E01E4B1B6803F00703A4
:101DF800AB4207D9EAB21B4B1A701B6803F0070302
:101E0800AB422DD1236813F0040F06D0164A93680D
:101E180023F4E053E1680B439360236813F0080F41
:101E280007D0114A936823F46043216943EAC10348
:101E38009360FFF71FFF0C4B9B68C3F303130B4A18
:101E4800D35CD8400A4B18600A4B1868FFF760FB50
:101E5800002070BD012070470120FAE70120F8E753
:101E68000120F6E7003C024000380240342C00080C
:101E78000000002008000020014B1868704700BFD0
:101E88000000002008B5FFF7F7FF044B9B68C3F379
:101E98008223034AD35CD84008BD00BF0038024003
:101EA800442C000808B5FFF7E7FF044B9B68C3F311
:101EB8004233034AD35CD84008BD00BF0038024013
:101EC800442C000830B4036A23F001030362036A58
:101ED8004268846924F073040D682C4323F0020CD3
:101EE8008B6843EA0C03104DA84203D005F58065C2
:101EF800A84205D123F00803CD682B4323F004033F
:101F0800094DA84203D005F58065A84205D122F401
:101F180040724D692A438D692A43426084614A6848
:101F28004263036230BC70470000014030B4036A6A
:101F380023F480730362036A4268C46924F0730C53
:101F48000C6844EA0C0523F400738C6843EA042304
:101F5800114CA04203D004F58064A04206D123F4BA
:101F68000063CC6843EA042323F480630A4CA0424C
:101F780003D004F58064A04207D122F440524C6992
:101F880042EA04128C6942EA04124260C5614A6856
:101F9800C263036230BC70470000014030B4036A7A
:101FA80023F480530362036A4468C26922F4E64258
:101FB8000D6842EA052223F400538D6843EA05338D
:101FC800094DA84203D005F58065A84204D124F440
:101FD80080444D6944EA85144460C2614A680264D9
:101FE800036230BC704700BF0000014010B4036AB0
:101FF800046A24F001040462846924F0F00C4CEAB9
:10200800021223F00A030B43826103625DF8044B5A
:10201800704710B4046A24F0100404628469036AE7
:1020280024F4704C4CEA023223F0A00343EA011373
:10203800826103625DF8044B7047836823F0700384
:102048000B4343F0070383607047000090F83D306E
:10205800DBB2012B37D1022380F83D300268D36808
:1020680043F00103D3600368194A934220D0B3F1C7
:10207800804F1DD0A2F57C42934219D002F58062B0
:10208800934215D002F58062934211D002F578424E
:1020980093420DD002F57052934209D0A2F59432C2
:1020A800934205D01A6842F001021A600020704776
:1020B8009A6802F00702062A07D01A6842F001025D
:1020C8001A6000207047012070470020704700BF49
:1020D800000001407047704770477047704710B55F
:1020E800044603681A6912F0020F11D0DA6812F078
:1020F800020F0DD06FF002021A6101230377036803
:102108009B6913F0030F70D0FFF7E6FF00232377D6
:1021180023681A6912F0040F12D0DA6812F0040F5B
:102128000ED06FF004021A610223237723689B699B
:1021380013F4407F5FD02046FFF7CEFF00232377BC
:1021480023681A6912F0080F12D0DA6812F0080F23
:102158000ED06FF008021A61042323772368DB6925
:1021680013F0030F4ED02046FFF7B6FF0023237766
:1021780023681A6912F0100F12D0DA6812F0100FE3
:102188000ED06FF010021A61082323772368DB69E9
:1021980013F4407F3DD02046FFF79EFF00232377AE
:1021A80023681A6912F0010F03D0DA6812F0010FE0
:1021B80036D123681A6912F0800F03D0DA6812F05A
:1021C800800F34D123681A6912F0400F03D0DA68FF
:1021D80012F0400F32D123681A6912F0200F03D091
:1021E800DA6812F0200F30D110BDFFF774FF2046D7
:1021F800FFF773FF8AE72046FFF76DFF2046FFF7DA
:102208006CFF9BE72046FFF766FF2046FFF765FF58
:10221800ACE72046FFF75FFF2046FFF75EFFBDE70C
:102228006FF001021A612046FEF752FEC1E76FF017
:1022380080021A61204600F0DEFBC3E76FF040021F
:102248001A612046FFF74AFFC5E76FF020021A61BE
:10225800204600F0CFFBC7E70368304A904212D00F
:10226800B0F1804F0FD0A2F57C4290420BD002F51E
:102278008062904207D002F58062904203D002F556
:102288007842904203D123F070034A681343234AEB
:1022980090422AD0B0F1804F27D0A2F57C429042DC
:1022A80023D002F5806290421FD002F580629042EE
:1022B8001BD002F57842904217D002F57052904236
:1022C80013D002F5806290420FD002F580629042EE
:1022D8000BD0A2F59832904207D002F58062904266
:1022E80003D002F58062904203D123F44073CA6898
:1022F800134323F080034A69134303608B68C36266
:102308000B688362054B984203D003F580639842BB
:1023180001D10B6903630123436170470000014049
:1023280040B310B5044690F83D30F3B1022384F869
:102338003D30214651F8040BFFF78EFF012384F846
:10234800463084F83E3084F83F3084F8403084F8D2
:10235800413084F8423084F8433084F8443084F8BB
:10236800453084F83D30002010BD80F83C30FEF741
:10237800CBFFDBE70120704740B310B5044690F867
:102388003D30F3B1022384F83D30214651F8040B67
:10239800FFF762FF012384F8463084F83E3084F862
:1023A8003F3084F8403084F8413084F8423084F873
:1023B800433084F8443084F8453084F83D300020B8
:1023C80010BD80F83C30FFF785FEDBE70120704741
:1023D800002856D0F8B50D46044690F83D30002B3D
:1023E8004AD0022384F83D302268936823F480435E
:1023F80023F007039360214651F8040BFFF72CFFE5
:1024080021688A688B690E6A2868104323F4407C27
:102418002CF0030CAA68AB6942EA032343EA0C03D5
:1024280023F47C4323F0FC03EA69EF6847EA022CB3
:102438004CEA030C2A6A13032A6943EA021343EAA3
:102448000C0326F0AA066A686D6942EA051232434F
:10245800886021688B6123681A62012384F84630FA
:1024680084F83E3084F83F3084F8423084F84330B2
:1024780084F83D300020F8BD80F83C30FEF70EFFB0
:10248800AFE701207047000030B4036A23F010035F
:102498000362036A4468826922F4E6420D6842EAEC
:1024A800052223F020038D6843EA0513114DA84245
:1024B80003D005F58065A84206D123F08003CD68D6
:1024C80043EA051323F040030A4DA84203D005F55B
:1024D8008065A84207D124F440644D6944EA850424
:1024E8008D6944EA8504446082614A6882630362B4
:1024F80030BC70470000014038B590F83C30012BE3
:1025080066D004460D46012380F83C300C2A5AD880
:10251800DFE802F0075959591B5959593059595987
:1025280044000068FFF7CEFC2268936943F0080373
:1025380093612268936923F0040393612268936985
:1025480029690B43936100203EE00068FFF79CFF78
:102558002268936943F4006393612268936923F4C2
:102568008063936122689369296943EA012393612F
:10257800002029E00068FFF7D9FC2268D36943F0FE
:102588000803D3612268D36923F00403D361226866
:10259800D36929690B43D361002015E00068FFF770
:1025A800FDFC2268D36943F40063D3612268D369D0
:1025B80023F48063D3612268D369296943EA01233C
:1025C800D361002000E00120002384F83C3038BDAE
:1025D8000220FCE710B4846824F47F4C42EA03220A
:1025E8000A4342EA0C0282605DF8044B704790F897
:1025F8003C30012B78D010B50446012380F83C30DC
:10260800022380F83D300268936823F47F4323F067
:10261800770393600B68602B4CD029D8402B54D09B
:102628000CD9502B22D1CA6849680068FFF7DEFC34
:1026380050212068FFF701FD002005E0202B0DD078
:1026480009D9302B0AD00120012384F83D3000231A
:1026580084F83C3010BD0BB1102B05D11946206809
:10266800FFF7EBFC0020EFE70120EDE70120EBE7A7
:10267800B3F5805F34D0B3F5005F0CD1CB684A68FE
:1026880089680068FFF7A6FF2268936843F48043CF
:1026980093600020D8E7702B24D1CB684A688968FA
:1026A8000068FFF797FF2268936843F07703936009
:1026B8000020C9E7CA6849680068FFF7AAFC6021DA
:1026C8002068FFF7BAFC0020BEE7CA6849680068BE
:1026D800FFF78CFC40212068FFF7AFFC0020B3E730
:1026E8000020B1E70120AFE70220704701F01F0189
:1026F800012303FA01FC036A23EA0C030362036A59
:1027080002FA01F10B4303627047000010B504465A
:102718000846002942D194F83E30DBB2013B18BF8D
:102728000123002B6ED1002851D1022384F83E30BA
:10273800012201462068FFF7D9FF2368334A9342F4
:1027480003D002F58062934203D15A6C42F40042EE
:102758005A6423682D4A934249D0B3F1804F46D03A
:10276800A2F57C42934242D002F5806293423ED069
:1027780002F5806293423AD002F57842934236D00D
:1027880002F57052934232D0A2F5943293422ED081
:102798001A6842F001021A60002032E0042908D0C9
:1027A80008290DD094F84130DBB2013B18BF012352
:1027B800B7E794F83F30DBB2013B18BF0123B0E71D
:1027C80094F84030DBB2013B18BF0123A9E7042885
:1027D80005D0082807D0022384F84130A8E702234F
:1027E80084F83F30A4E7022384F84030A0E79A68D1
:1027F80002F00702062A07D01A6842F001021A609E
:10280800002010BD0120FCE70020FAE7000001408D
:1028180038B504460D4600220068FFF767FF2368B5
:102828001D4A934218D002F58062934214D023685F
:10283800196A41F21112114208D1196A40F2444250
:10284800114203D11A6822F001021A609DB90123CE
:1028580084F83E30002038BD196A41F21112114245
:10286800E5D1196A40F244421142E0D15A6C22F48F
:1028780000425A64DBE7042D05D0082D07D0012358
:1028880084F84130E6E7012384F83F30E2E701238A
:1028980084F84030DEE700BF0000014038B5044648
:1028A80090F83E00C0B294F83F3094F84220D2B27B
:1028B80094F843C00D46B1B9012849D1012A48D13D
:1028C800022384F83E3084F842307DB3042D39D099
:1028D800012200212068FFF709FF01220421206856
:1028E800FFF704FF27E0DBB25FFA8CFC042912D063
:1028F800012833D1012B2CD1012A31D1BCF1010F90
:1029080030D1022384F83E3084F83F3084F84230D6
:1029180084F84330D9E7012B1CD1BCF1010F1BD13E
:10292800022384F83F3084F84330CEE701220021A7
:102938002068FFF7DBFE2268136843F00103136089
:10294800002006E0012204212068FFF7CFFEF2E70D
:10295800012038BD0120FCE71846FAE70120F8E716
:102968001846F6E71046F4E790F83C30012B3DD0C6
:1029780010B4012380F83C30022380F83D3003680E
:102988005A689C6822F0700C0A6842EA0C025A6085
:102998000368174A93421AD0B3F1804F17D0A2F5B3
:1029A8007C42934213D002F5806293420FD002F525
:1029B800806293420BD002F57842934207D002F529
:1029C8007052934203D0A2F59432934204D124F07A
:1029D80080044A6814439C60012380F83D3000233A
:1029E80080F83C3018465DF8044B70470220704769
:1029F800000001407047704738B504460268136903
:102A080023F44053C1680B4313618368026913437D
:102A180042691343C2691A430168CB6823F4164319
:102A280023F00C031343CB600268536923F440730B
:102A380081690B4353610368314A934206D002F51A
:102A48008062934202D0FFF71DFA01E0FFF72AFAED
:102A5800E369B3F5004F29D00021031849411B1839
:102A680041F10001C90041EA5371DB00181863689D
:102A78004FEA83024FEA937341F10001FDF7BEFF6D
:102A8800204DA5FB00325109642303FB11031B01F0
:102A98003233A5FB03235B0903F0F00202EB0112BA
:102AA80003F00F03216813448B6038BD002302181C
:102AB80043EB0301121841F10001C90041EA5271C8
:102AC800D200101841F10001626892185B41FDF7CD
:102AD80095FF0C4DA5FB00325109642303FB11033C
:102AE800DB003233A5FB03235B095A0002F4F872BA
:102AF80002EB011203F00703216813448B60D4E74B
:102B0800001001401F85EB5158B310B5044690F8EA
:102B18003D300BB3242384F83D302268D36823F476
:102B28000053D3602046FFF767FF2268136923F438
:102B3800904313612268536923F02A035361226882
:102B4800D36843F40053D36000202064202384F822
:102B58003D3084F83E3010BD80F83C30FEF79EFCD6
:102B6800D8E7012070470000DFF834D00D480E493F
:102B78000E4A002302E0D458C4500433C4188C42CF
:102B8800F9D30B4A0B4C002301E013600432A24234
:102B9800FBD3FEF70DFB00F011F8FEF7C1FA704702
:102BA80000000220000000200C0000205C2C00081F
:102BB8000C00002064010020FEE7000070B50D4DF8
:102BC8000D4C641BA4100026A64209D10B4D0C4CD9
:102BD80000F020F8641BA4100026A64205D170BDA1
:102BE80055F8043B98470136EEE755F8043B9847FB
:102BF8000136F2E7542C0008542C0008542C000825
:102C0800582C000802440346934200D1704703F849
:102C1800011BF9E7F8B500BFF8BC08BC9E46704731
:0C2C2800F8B500BFF8BC08BC9E46704721
:102C34000000000000000000010203040607080968
:082C440000000000010203047E
:082C4C00E8DDFF7F010000003C
:042C5400AD010008C6
:042C580089010008E6
:0C2C5C000024F400010000001000000043
:0400000508002B7153
:00000001FF
