:020000040800F2
:1000000000C000206D2B0008011600080316000830
:100010000516000807160008091600080000000071
:100020000000000000000000000000000B160008A7
:100030000D160008000000000F1600081116000839
:10004000B52B0008B52B0008B52B0008B52B000810
:10005000B52B0008B52B0008B52B0008B52B000800
:10006000B52B0008B52B0008B52B0008B52B0008F0
:10007000B52B0008B52B0008B52B0008B52B0008E0
:10008000B52B0008B52B0008B52B0008B52B0008D0
:10009000B52B0008B52B0008B52B0008B52B0008C0
:1000A000B52B0008B52B0008B52B0008B52B0008B0
:1000B000B52B0008B52B0008B52B0008B52B0008A0
:1000C000B52B0008B52B0008B52B0008B52B000890
:1000D000B52B0008B52B000819160008B52B000831
:1000E000B52B0008B52B0008B52B0008B52B000870
:1000F000B52B0008B52B0008B52B0008B52B000860
:10010000B52B0008B52B0008B52B0008B52B00084F
:10011000B52B0008B52B0008B52B0008B52B00083F
:10012000B52B0008B52B0008B52B0008B52B00082F
:1001300000000000000000000000000000000000BF
:1001400000000000000000000000000000000000AF
:10015000000000000000000000000000000000009F
:10016000000000000000000000000000000000008F
:10017000000000000000000000000000000000007F
:10018000000000000000000000000000000000006F
:10019000000000000000000000000000000000005F
:1001A000000000000000000000000000000000004F
:1001B000000000000000000000000000000000003F
:1001C000000000000000000000000000000000002F
:1001D000000000000000000000000000000000001F
:0401E0005FF8E0F1F3
:1001E40010B5054C237833B9044B13B10448AFF36D
:1001F40000800123237010BDFC00002000000000DB
:10020400743C000808B5034B1BB103490348AFF322
:10021400008008BD0000000000010020743C0008BC
:1002240003685A004CBF43F0004323F000431844D2
:10023400704700BF2DE9F84339B34F1E04461546F5
:100244003E464FF0000808EB060101EBD17149105E
:1002540004EBC1094846FFF7E3FF0346C800083032
:100264008F4220440BD0AB420BD8FFF7D9FF0138A3
:10027400A84201F10108E6D34846BDE8F883AB4241
:10028400FAD9884501D04E1EDDE74FF000094846F3
:10029400BDE8F883012807D0022807D0044B0028C2
:1002A4000CBF184600207047024870470248704748
:1002B400890900088D0900089109000830B5244B0C
:1002C400044683B08D1E3BB3284601A9AFF30080DA
:1002D400E8B101992A46FFF7ADFF0146B8B1FFF72F
:1002E4009FFF4B68A064012B2ED0002B27DB081D39
:1002F400FFF796FF0023C4E913030368002B12DB06
:10030400FFF78EFF03460020236103B030BD0023B6
:100314000920236103B030BD0E4B0F491846C91A9A
:10032400C9100191D6E7C3F30360FFF7B3FF0028B8
:10033400034614BF00200920236103B030BD01230C
:10034400081DC4E91303D8E7002305202361DCE773
:1003540000000000703D0008803E0008036810B5EE
:10036400DA07044606D49B0700F1480009D500F0DB
:100374005DFC2368590709D51A070ED5DB0613D58A
:1003840010BD00F04BFC23685907F5D404F1D000EC
:1003940000F054FC23681A07F0D404F5A87000F0A8
:1003A40055FC2368DB06EBD404F5E870BDE8104087
:1003B40000F090BC092070470346006800B118445F
:1003C400704700BF704700BF70B504460E46204614
:1003D400316CFFF773FF054698B9D6F840C0324632
:1003E400214601202369C4F814C098470828EED098
:1003F400072806D12846316CFFF7E4FF301D00F0D2
:1004040001FC02F0D6FB00BF2DE9F0474FF0000AD3
:10041400ADF5727D0DF10C0E01F1040CC768D0F836
:10042400188006461446BCE80F00AEE80F00BCE88E
:100434000F00AEE80F00BCE80F00AEE80F009CE828
:100444000F0002AD8EE80F00C5F800A021E02B6C70
:100454004FF4F072294673617AA802F0DBFB31464F
:10046400504633697AAA9847889C82466C6433461E
:10047400324649460120CDE90058B8470446F0B950
:100484004FF4F07228467AA902F0C4FBBAF1080FBF
:100494001BD13046296CFFF711FF04F109095FFAFB
:1004A40089FA04460028D2D0A96B334669643246DF
:1004B4000120CDE900584AF01001B84700B10924E1
:1004C40020460DF5727DBDE8F087BAF1070FF6D12D
:1004D4002046296CFFF776FF03A800F093FB00BFCA
:1004E400406C7047F0B54FF0FF37CB6BF9B00B643D
:1004F40001AC01F1040C0E460546BCE80F000FC424
:10050400BCE80F000FC4BCE80F000FC49CE80F0048
:1005140084E80F00009706E06A4629462B6998474D
:100524000828044608D128461099FFF7C7FE00287A
:10053400F2D0092079B0F0BD6846FFF70FFF062C12
:10054400F7D131462846FFF73FFF00BF10B41446E9
:100554008461DC6BC16000221C64194610BC53E743
:1005640070B54369C6680B64AEB90A4603690446AC
:100574000D46014602209847072805D008280FD1C8
:1005840029462046FFF720FF3046296CFFF71AFF63
:10059400281D00F037FB0122FFF736FF02F009FBAC
:1005A40002F007FBC2682AB1D1F83CC00022C1F8AE
:1005B40040C029E796E700BF704700BF8368014643
:1005C4000BB1012018477047012912D009D873B91B
:1005D4000F2A0CD800EB820042681846009B1A6070
:1005E40070470339012994BF01200220704702207B
:1005F40070470846704700BF002300B585B00A461F
:1006040003A900911946FFF7DFFF039805B05DF8D1
:1006140004FB00BF012912D009D873B90F2A0CD8E2
:10062400009900EB8202096818465160704703394B
:10063400012994BF01200220704702207047084618
:10064400704700BF002310B584B003AC039200943C
:100654000A461946FFF7DEFF04B010BD70B54FF02F
:10066400FF36D36BADF50E7D13640DF15C0E02F114
:10067400040C05460C46BCE80F00AEE80F00BCE8CD
:100684000F00AEE80F00BCE80F00AEE80F009CE8D6
:100694000F008EE80F00169612E00C2116A86A4689
:1006A400FFF7D0FF214616A8A84778B96946082065
:1006B400049B16AA98470528064608D0092805D0A1
:1006C40068462699FFF7FAFD0028E6D0092616A801
:1006D400FFF744FE30460DF50E7D70BD2DE9F04F59
:1006E4001E46CC6C89B054F8043B0D46174600F006
:1006F40003080694002E79D002228DF81C201A0CCF
:100704008DF81D201B04D2B2059304EB82042B6DDB
:10071400B8F1020F08BFAC6B13F001030CD03846DC
:1007240005A900F071FB18B9082009B0BDE8F08FE5
:10073400092009B0BDE8F08FD4F800A0BAF1000F89
:10074400EDD0019300F008030293022E4AD0B4F8CE
:1007540000A0B4F802900434AA6C0F21384629F0A2
:10076400010B9344FFF748FF834539D82AF001026F
:100774005A44824294BF002001204FEA490303F007
:1007840002030AF0010A43EA0A03012B49D0022BAF
:1007940032D0002BCCD1B8F1000F02D0002840F0A9
:1007A400CE800434D4F800A0BAF1000FCDD138467D
:1007B40005A900F029FB0028BAD1019B002BB3D076
:1007C4000F213846FFF718FF0E2102463846FFF77F
:1007D40039FF38460F216A4AFFF734FF0720A8E79C
:1007E4000020CAE7D4F804900834B5E71B02059347
:1007F4000323ADF81C308AE7236823F0004BB8F1DB
:10080400000F45D128B1029A002A5CD0BBF1000F39
:1008140074D0002B00DA04340BF1010B04EB8B04CD
:10082400C0E7B8F1000F19D1B0B163682268991C10
:100834004FEAD2723FF47CAF05F1580101330491C1
:1008440000F09180201DFFF7B7FD04AB0146284658
:10085400AFF3008000285CD10834A3E70D213846AB
:10086400D5F82090FFF7C8FE8145F5D1AB6A9C42CC
:10087400F2D12046FFF7D4FC0F2102463846FFF799
:10088400E1FE38462A460021FFF7DCFE072050E748
:100894000D213846D5F82090FFF7AEFE814501D0F2
:1008A4002368B6E7AB6A9C42FAD104230022C5E967
:1008B4000B23E318C5F828B06B632368002B5ADBBD
:1008C40001230193A8E705F15803CDF80C80914664
:1008D400B04604F1040A1E460EE050460496FFF7A3
:1008E4006BFD0022014604AB284609F101090AF117
:1008F400040AAFF30080E8B9D945EED10D2138469A
:10090400FFF77AFE0346049A0620C5E909242B6200
:100914000FE781460D213846FFF76EFEB9F1020F4D
:10092400286225D12B46049A43F82C2F6B620620AB
:10093400AC62FEE646462368DDF80C8069E7204693
:10094400FFF76EFC02460434AC6328461446AFF34A
:10095400008000283FF4ECAE384622460F21FFF712
:1009640071FE0720E5E60D213846FFF745FE2862B3
:10097400049B6B62DBE70BF1010004EB800079E779
:10098400000000000023A9E60123A7E60223A5E650
:100994002DE9F043064615461C46C3B0042900F26F
:1009A400B880DFE801F09C56B62D0300002C40F01F
:1009B400B080102A00F2AD800368D80600F1F180FF
:1009C40020AF384600F090F9012438460023B16B7B
:1009D40004FA03F22A4203F1010305D00A4652F84D
:1009E40004CB1146C0F800C0042B00F10400EFD181
:1009F4003846B16300F06EF9002043B0BDE8F083DF
:100A0400032C40F0868094B204EB1243102B4FEA7F
:100A140012457ED803681F0700F1CB8020AF38460B
:100A240000F036F9B26B07EBC50154B10B4601EB8C
:100A3400C401D01AE4001D5843F8045B8B42FAD178
:100A440022443846B26300F001F9002043B0BDE807
:100A5400F083012C4FEA124895B256D0052C58D198
:100A640008EB0509B9F1200F53D8B8F10F0F73D96A
:100A7400A946002D40F08480B36B65B320AF4FF0DE
:100A8400000907EBC807043F03EBC50553F8041B33
:100A9400AB4247F8041FF9D1B9F1000F0FD06F46EC
:100AA4004146102938BF102107EBC101843903EBFB
:100AB400C90553F8040BAB4241F8040FF9D1012CDA
:100AC4007FD0B8F10F0FB56342D9B9F1000F02D04E
:100AD400684600F0B3F8002043B0BDE8F083C4B921
:100AE40023460124826B371DA8B204FA03F10142A4
:100AF4001CBF52F8041B47F823100133102BF4D108
:100B040015F40050E7D1B26304E008EB0503102BA1
:100B140003D9022043B0BDE8F083B8F10F0FF8D831
:100B24003368DA0706D5304623F0030340F8483B20
:100B340000F078F820AF384600F074F8B36B002D5D
:100B44009DD11D4604353846B56300F067F8C2E709
:100B540020A800F06BF8B8E7B9F1100F3FD9A9F15C
:100B640010093368D90708D5304623F0010343F050
:100B7400020340F8483B00F05DF8B9F1000F31D0B2
:100B840033685A071FD4B8F10F0F24D96F46C8F140
:100B94001005384600F056F8002DB36B80DD20AF09
:100BA4006FE723F01003336006F5E87000F09CF85B
:100BB40006E723F00803036000F5A87000F068F866
:100BC4002CE720AFBEE7304623F0040340F8D03BC7
:100BD40000F038F8D7E720A800F02CF8D6E74FF05B
:100BE4000009BEE7B8F10F0F3FF646AF20AF384615
:100BF40000F020F8B36B002D7FF441AF384600F0CD
:100C040015F868E700F1340191E838009C46A646DF
:100C14004CF8045D90E8FF0FE54600BD90EC210B15
:100C2400704700BF80EC210B704700BF90EC200B95
:100C3400704700BF80EC200B704700BFD0EC200B46
:100C4400704700BFC0EC200B704700BFF0EC0201FE
:100C5400F0EC0211F0EC0221F0EC0231F0EC024174
:100C6400F0EC0251F0EC0261F0EC0271F0EC028164
:100C7400F0EC0291F0EC02A1F0EC02B1F0EC02C154
:100C8400F0EC02D1F0EC02E1F0EC02F1704700BFAD
:100C9400E0EC0201E0EC0211E0EC0221E0EC0231B4
:100CA400E0EC0241E0EC0251E0EC0261E0EC0271A4
:100CB400E0EC0281E0EC0291E0EC02A1E0EC02B194
:100CC400E0EC02C1E0EC02D1E0EC02E1E0EC02F184
:100CD400704700BFB0FC0181B0FC0191B0FC01A1E0
:100CE400B0FC01B1704700BFA0FC0181A0FC0191E0
:100CF400A0FC01A1A0FC01B1704700BFEC4600B507
:100D04002DE900502DE9FF1F4FF000032DE90C00E1
:100D140001A9FFF7E7FBDDF840E012B0704700BF20
:100D2400EC4600B52DE900502DE9FF1F4FF00003FC
:100D34002DE90C0001A9FFF713FCDDF840E012B027
:100D4400704700BFEC4600B52DE900502DE9FF1FA8
:100D54004FF000032DE90C0001A9FFF723FCDDF897
:100D640040E012B0704700BFEC4600B52DE90050DA
:100D74002DE9FF1F4FF000032DE90C0001ABFFF735
:100D8400E5FBDDF840E012B0704700BFEC4600B56B
:100D94002DE900502DE9FF1F4FF000032DE90C0051
:100DA40001AAFFF75BFCDDF840E012B0704700BF1A
:100DB400027A03467AB9427AA2B14FF0030C416831
:100DC400013A427208680A1D5A60020283F808C098
:100DD400000E1A6070470068013A1A7202021A6023
:100DE400000E7047B0207047002300B585B003A9FA
:100DF40000910C221946FFF7E7FB039805B05DF854
:100E040004FB00BFF0E700BF2DE9F0434FF00008FA
:100E140005460E4685B03046FFF7CAFFB0280446A3
:100E240000F0BA80070620D500F0F003802B4DD0E7
:100E3400902B36D0A02B60D0B02B73D0C02B00F0F9
:100E44008A8000F0F803D02B0BD100F007020132A6
:100E540005230121284642F40022FFF799FD0028CA
:100E6400D9D0092005B0BDE8F0838300DBB21F1D93
:100E740000230DF10C0919460D222846CDF80090E7
:100E8400FFF7A2FB039B60064CBFDF1BFF18002388
:100E94000D2228461946CDF800900397FFF7BAFBB8
:100EA400B9E700F00D030D2BDBD0002303AF194687
:100EB40000F00F0200972846FFF786FB00230D225F
:100EC400284619460097FFF7A5FBA4E73046FFF72D
:100ED4006FFF24022043B0F5004FC2D00023040169
:100EE40019462846A2B2FFF753FD0028B9D114F4DD
:100EF400004F18BF4FF001088DE7C3434FF47F62E2
:100F040003F007031A410023010702F47F6248BF7C
:100F140042F4804228461946FFF73AFD00283FF480
:100F24007AAF9EE7B1283CD0B22800F0B080B32855
:100F34004AD000F0FC03B42B93D0012300F0070245
:100F44001A442846194642F40022FFF721FD0028DE
:100F54003FF461AF85E7C6284FD0C72861D000F0C1
:100F6400F803C02B70D0C8287CD0C9287FF479AF8F
:100F74003046FFF71DFF05230246012128461403CE
:100F840002F00F0204F470240A442243FFF700FD28
:100F940000283FF440AF64E7B8F1000F1CD00020F4
:100FA40060E73046FFF704FF024600283FF459AFDC
:100FB40010F0F0037FF455AF19462846FFF7E8FC1C
:100FC40000283FF428AF4CE73046FFF7F1FE012339
:100FD400024619462846D2E703AC43460E22414650
:100FE40028460094FFF7F0FA43460F22284641466C
:100FF4000094FFF70FFB404634E73046FFF7D8FE76
:1010040002460323140302F00F0204F47024013295
:10101400284619462243FFF7BBFC00283FF4FBAEE9
:101024001FE73046FFF7C4FE024600283FF419AF1D
:1010340010F0F0037FF415AF04212846FFF7A8FC55
:1010440000283FF4E8AE0CE7032300F00F0201325E
:101054002846194642F42022FFF79AFC00283FF460
:10106400DAAEFEE63046FFF7A3FE0246012102F0A7
:10107400F00402F00F0210340A440523284642EA21
:101084000432FFF785FC00283FF4C5AEE9E60023EF
:101094000DF10C090D2219462846CDF80090FFF7F2
:1010A40093FA3046FFF784FE02064FF002040CD593
:1010B400039B00F07F00A040184403903046FFF7E4
:1010C40077FE030604F10704F2D4039B00F07F02C9
:1010D400A24003F501731A440023039228460D220B
:1010E4001946CDF80090FFF795FA94E60B464FF0B9
:1010F400030C00B5C26C1846536885B008320292DE
:1011040001A91A0E1B028DF80CC001938DF80D2055
:10111400FFF77AFE05B05DF804FB00BF08B5FFF7E2
:1011240071FE806C08BD00BF08B5FFF76BFEC06C94
:10113400C379023300EB830008BD00BF84B010B54F
:1011440004460DF10C0C8CE80E004822614601F0B7
:1011540061FD012384F84830002384F8493084F881
:101164004A302046BDE8104004B0704790F849006A
:1011740018B11812087013707047181210700B70A1
:10118400704790F8493013B142EA0120704741EAB0
:10119400022070472DE9F04385B006460F461C46F1
:1011A4009DF8308000238DF80730FF238DF8083038
:1011B4008DF8093090F848308DF80A308DF80C809D
:1011C4001546C2B1E31C5FFA83F98DF80B908DF8D4
:1011D4000D104FF6FF73062202A901F0CFF996F81D
:1011E40048304B44DBB24344DBB2D9198DF80710C5
:1011F400F5B1002113E04FF002098DF80B904FF682
:10120400FF73052202A901F0B9F9E8E715F801C056
:101214009DF807309C448DF807C00131C9B2A14242
:10122400F4D34FF6FF7322462946304601F0A6F95F
:101234009DF80730DB438DF807304FF6FF7301222A
:101244000DF10701304601F099F905B0BDE8F083CE
:1012540000B585B00023ADF80E30202300930DF1C6
:101264000E0392B201F0E9F9BDF80E0005B05DF885
:1012740004FB10B582B003240094FFF78BFF002019
:1012840002B010BD30B583B005460024ADF804406B
:1012940003E00134E4B20A2C14D801220DF1070151
:1012A4002846FFF7D5FF80B19DF804208DF805206E
:1012B4009DF807308DF80430FF2BEAD1FF2AE8D1DE
:1012C400012000E0002003B030BD0020FBE770B532
:1012D40086B0044615468DF80F300223009301238F
:1012E4000DF10F02FFF756FF2046FFF7CBFF06462E
:1012F40010B9304606B070BD032205A92046FFF799
:10130400A7FF032801D00026F3E79DF80F20294604
:101314002046FFF79DFF06469DF80F30834201D01B
:101324000026E6E701220DF117012046FFF790FFA2
:1013340001281AD19DF814209DF815301A44D2B210
:101344009DF816301A44D2B20023B34205DAE95CA0
:101354000A44D2B20133DBB2F7E7D243D2B29DF8EA
:1013640017309342C5D00026C3E70026C1E710B565
:1013740082B00446022301AAFFF7A9FF022809D17B
:101384009DF805209DF804102046FFF7FAFE80B270
:1013940002B010BD4FF0FF30FAE730B583B0044619
:1013A40015461A460B1E1FDB8DF800200DF10202B4
:1013B4000DF101012046FFF7D9FE002301AA0DF12A
:1013C40003012046FFF7D2FE2B460DF106020DF174
:1013D40005012046FFF7CAFE07236A462921204655
:1013E400FFF747FF03B030BD59426FEA41416FEA4E
:1013F40051410BB2D8E710B50446002380F84A30B7
:101404003821FFF7B4FFB0F1FF3F09D094F84A3018
:101414002BB910F4004F02D020F40040404210BD1C
:10142400012384F84A30F1E730B403461046D3F878
:101434008050D3F88440A542F9D04FF0000C01E06D
:101444000CF1010C84451ADAD3F88050D3F88440A7
:10145400A54213D0D3F88040651CC3F880501C5DAE
:1014640001F8014BD3F88050064CD4F88840A542CB
:10147400E6DB044A0024C2F88040E1E7604630BC61
:10148400704700BF0000002070B506460D461446A4
:101494004FF0FF3322462946304601F06FF8022808
:1014A400F6D070BD10B51446012808D002280CD01F
:1014B40001F086FB092303604FF0FF3004E092B291
:1014C4000548FFF7E1FF204610BD92B20248FFF73E
:1014D400DBFF2046F8E700BF18010020002A0CDDDE
:1014E40008B518B90648FFF79FFF08BD01F068FB6F
:1014F400092303604FF0FF30F7E70020704700BF77
:101504000000002082B00A4B9A6942F020029A61DE
:101514009A6902F020020092009A9A6942F0040249
:101524009A619B6903F004030193019B02B0704725
:101534000010024072B6FEE700B591B028220021E7
:1015440006A801F075FB002301930293039304930F
:101554000593012206924FF4803307930A920222E4
:101564000D920E934FF4E0130F9306A800F0DCFBEA
:1015740080B90F23019302210291002303934FF4B6
:1015840080620492059301A800F000FE20B911B016
:101594005DF804FBFFF7CEFFFFF7CCFF08B500F0C2
:1015A4000FF9FFF7C9FFFFF7ADFF00F03DF800F0BA
:1015B40055F801F0A3FAFEE782B00E4B9A6942F0A7
:1015C40001029A619A6902F001020092009ADA69B2
:1015D40042F08052DA61DB6903F080530193019B8E
:1015E400054A536823F0E06343F00073536002B08C
:1015F400704700BF0010024000000140FEE7FEE714
:10160400FEE7FEE7FEE770477047704708B500F055
:10161400E9F808BD08B5024801F02CF908BD00BF7F
:10162400600100207047000008B50A480A4B0360B7
:101634004FF4E133436000238360C36003610C22F1
:1016440042618361C36100F069FF00B908BDFFF71F
:1016540071FFFBE7180100200038014008B50A4873
:101664000A4B03604FF4E133436000238360C3609B
:1016740003610C2242618361C36100F04FFF00B932
:1016840008BDFFF757FFFBE760010020004400405E
:1016940030B589B000230493059306930793036838
:1016A400304A934204D0304A93422BD009B030BD23
:1016B4002E4B9A6942F480429A619A6902F48042FC
:1016C4000092009A9A6942F004029A619B6903F0BD
:1016D40004030193019B4FF40073049302230593C5
:1016E40003230793224C04A9204600F0E7F94FF4A2
:1016F4008063049300230593069304A9204600F015
:10170400DDF9D3E7194BDA6942F40032DA61DA69B8
:1017140002F400320292029A9A6942F004029A6137
:101724009B6903F004030393039B042304930223A0
:101734000593032307930E4D04A9284600F0BEF930
:101744000823049300240594069404A9284600F071
:10175400B5F922462146262000F07CF8262000F028
:10176400B1F8A3E7003801400044004000100240F3
:101774000008014010B504460E4B18784FF47A73F4
:10178400B3FBF0F30C4A1068B0FBF3F000F0A8F8D8
:1017940068B90F2C01D901200AE0002221464FF03C
:1017A400FF3000F057F8054B1C60002000E00120DA
:1017B40010BD00BF900000208C0000209400002089
:1017C40008B5074A136843F010031360032000F0C0
:1017D4002FF80F20FFF7CEFFFFF7EEFE002008BD25
:1017E40000200240034A1168034B1B780B4413602A
:1017F400704700BFA801002090000020014B18682A
:10180400704700BFA801002038B50446FFF7F6FF73
:101814000546B4F1FF3F02D0044B1B781C44FFF78C
:10182400EDFF401BA042FAD338BD00BF900000205A
:10183400074AD36823F4E0631B041B0C000200F482
:10184400E060034343F0BF6343F40033D360704765
:1018540000ED00E000B5194BDB68C3F30223C3F1CC
:10186400070CBCF1040F28BF4FF0040C03F1040E65
:10187400BEF1060F18D9033B4FF0FF3E0EFA0CFCE5
:1018840021EA0C0199400EFA03F322EA03031943F7
:1018940000280BDB0901C9B200F1604000F561408A
:1018A40080F800135DF804FB0023E5E700F00F0067
:1018B4000901C9B2024B1954F4E700BF00ED00E07E
:1018C40014ED00E0002807DB00F01F0240090123AB
:1018D4009340024A42F82030704700BF00E100E024
:1018E4000138B0F1807F0BD24FF0E0235861054AF4
:1018F400F02182F823100020986107221A617047B2
:101904000120704700ED00E090F82130DBB2022B9B
:1019140006D004238363002380F82030012070471D
:101924000268136823F00E0313600268136823F03F
:1019340001031360036CC16B012202FA03F34B60D1
:1019440080F82120002380F82030184670470000DA
:1019540008B590F82130DBB2022B03D00423836353
:10196400012008BD0268136823F00E0313600268A7
:10197400136823F00103136003684C4A93424ED961
:10198400783A934224D01432934230D014329342A2
:101994002FD0143293422FD0143293422FD01432CA
:1019A40093422FD0143293422FD002F562729342A5
:1019B4002ED0143293422DD0143293422CD01432B0
:1019C400934202D04FF4803203E04FF4805200E09F
:1019D4000122374B5A60012380F82130002380F81C
:1019E4002030436B002B5ED098470020B9E71022CB
:1019F400EFE74FF48072ECE74FF48052E9E74FF4DD
:101A04008032E6E74FF48012E3E74FF08072E0E7BC
:101A14000122DEE71022DCE74FF48072D9E7254A81
:101A2400934224D01432934225D01432934224D0CA
:101A34001432934224D01432934224D01432934269
:101A440024D01432934224D002F56272934223D0FC
:101A54001432934222D01432934221D0143293424E
:101A640002D04FF4803203E04FF4805200E00122B0
:101A7400114B5A60AFE71022FAE74FF48072F7E790
:101A84004FF48052F4E74FF48032F1E74FF48012C0
:101A9400EEE74FF08072EBE70122E9E71022E7E777
:101AA4004FF48072E4E700205BE700BF800002404F
:101AB40000040240080002400000024070B582B0F9
:101AC4000024A446B0E0874DAA4210D007D9864D21
:101AD400AA420CD005F58035AA4208D013E0A5F53A
:101AE4008015AA4203D005F57025AA4207D18A6859
:101AF400002A62D0012A5BD04361082403E0A5F5E3
:101B04008015AA42F3D0BEF1FF0F58D80646BEF1A5
:101B1400FF0F56D84FEA8C0233680F25954023EA0D
:101B2400050304FA02F2134333604B6813F0805F39
:101B340078D06E4B9A6942F001029A619B6903F076
:101B440001030193019B4FEA9C02951C684B53F8D7
:101B540025600CF003039D000F23AB4026EA030627
:101B6400644B984233D003F58063984200F0988028
:101B740003F58063984200F0958003F580639842F2
:101B840000F0928003F58063984200F08F8003F5A3
:101B94008063984219D006231AE0CC68B3E7CC6876
:101BA4000434B0E7CC680834ADE7CC680C34AAE759
:101BB40003610824A7E70024A5E70424A3E7061D7E
:101BC400A5E7ACF108029200A6E7052300E0002394
:101BD400AB4033430232464D45F822304B6813F490
:101BE400801F65D0444A936843EA0E0393604B68B0
:101BF40013F4001F62D0404AD36843EA0E03D36053
:101C04004B6813F4003F5FD03B4A536843EA0E032A
:101C140053604B6813F4803F5CD0374A136843EA3F
:101C24000E0313600CF1010C0A6832FA0CF357D05E
:101C3400012303FA0CF302EA030E33EA0202F1D1A0
:101C44004A68122A3FF63FAF122A3FF65CAF01A55D
:101C540055F822F0F31A00089F1B0008A91B00087E
:101C6400BB1B00080B1B00080B1B00080B1B000808
:101C74000B1B00080B1B00080B1B00080B1B0008A8
:101C84000B1B00080B1B00080B1B00080B1B000898
:101C94000B1B00080B1B0008A31B0008AF1B00084C
:101CA400012395E7022393E7032391E704238FE7B6
:101CB400114A936823EA0E03936098E70E4AD368A7
:101CC40023EA0E03D3609BE70B4A536823EA0E030F
:101CD40053609EE7084A136823EA0E031360A1E7E2
:101CE40002B070BD0000221000003110001002404C
:101CF40000000140000801400004014082B0084B8C
:101D04001B68084AA2FB03235B0A00FB03F301934D
:101D140000BF019B5A1E0192002BF9D102B07047FB
:101D24008C000020D34D6210002800F0F18170B5C2
:101D340082B00446036813F0010F2CD0994B5B6802
:101D440003F00C03042B1DD0964B5B6803F00C03CB
:101D5400082B12D06368B3F5803F41D0002B55D1D6
:101D640003F1804303F504331A6822F480321A60C5
:101D74001A6822F480221A6037E08A4B5B6813F4F5
:101D8400803FE7D0874B1B6813F4003F03D06368A0
:101D9400002B00F0BF81236813F0020F75D0814B34
:101DA4005B6813F00C0F5FD07E4B5B6803F00C0391
:101DB400082B54D02369002B00F08A807A4B01222F
:101DC4001A60FFF71BFD0546764B1B6813F0020FE4
:101DD40075D1FFF713FD401B0228F5D903209EE1BE
:101DE400704A136843F480331360636843B3FFF7A6
:101DF40005FD05466B4B1B6813F4003FCBD1FFF781
:101E0400FDFC401B6428F5D9032088E1B3F5A02F1D
:101E140009D0644B1A6822F480321A601A6822F4DA
:101E240080221A60E1E703F18043A3F53C331A688A
:101E340042F480221A601A6842F480321A60D4E7AD
:101E4400FFF7DCFC0546574B1B6813F4003FA2D098
:101E5400FFF7D4FC401B6428F5D903205FE1514B04
:101E64005B6813F4803FA5D14E4B1B6813F0020F3F
:101E740003D02369012B40F04F814A4A136823F0B1
:101E8400F803616943EAC1031360236813F0080F80
:101E940033D0A369002B5CD0434B0122C3F88024C8
:101EA400FFF7ACFC05463F4B5B6A13F0020F21D1F0
:101EB400FFF7A4FC401B0228F5D903202FE1394A7F
:101EC400136823F0F803616943EAC1031360DCE794
:101ED400354B00221A60FFF791FC0546314B1B6815
:101EE40013F0020FD1D0FFF789FC401B0228F5D96B
:101EF400032014E10120FFF701FF236813F0040F0E
:101F040000F09680274BDB6913F0805F34D1254BBA
:101F1400DA6942F08052DA61DB6903F0805301939D
:101F2400019B0125214B1B6813F4807F26D0E368B5
:101F3400012B3DD0002B53D103F1804303F504332F
:101F44001A6A22F001021A621A6A22F004021A6260
:101F540033E0154B0022C3F88024FFF74FFC0546FD
:101F6400104B5B6A13F0020FC7D0FFF747FC401B0E
:101F74000228F5D90320D2E00025D3E70B4A1368E1
:101F840043F480731360FFF739FC0646074B1B6864
:101F940013F4807FCBD1FFF731FC801B6428F5D983
:101FA4000320BCE0001002400000424200700040E8
:101FB4005F4A136A43F001031362E36833B3FFF724
:101FC4001DFC06465A4B1B6A13F0020F2FD1FFF774
:101FD40015FC801B41F288339842F3D903209EE01C
:101FE400052B09D0524B1A6A22F001021A621A6AAE
:101FF40022F004021A62E0E74D4B1A6A42F004022E
:102004001A621A6A42F001021A62D6E7FFF7F6FB77
:102014000646474B1B6A13F0020F08D0FFF7EEFB8E
:10202400801B41F288339842F3D9032077E0E5B965
:10203400E369002B72D03E4A526802F00C02082A6F
:1020440056D0022B17D03B4B00221A66FFF7D6FB63
:102054000446374B1B6813F0007F47D0FFF7CEFBD5
:10206400001B0228F5D9032059E0314AD36923F033
:102074008053D361DCE72F4B00221A66FFF7BEFBC7
:1020840005462B4B1B6813F0007F06D0FFF7B6FB09
:10209400401B0228F5D9032041E0236AB3F5803FB1
:1020A4001AD023494B6823F47413226A606A0243EA
:1020B40013434B601F4B01221A66FFF79FFB044634
:1020C4001B4B1B6813F0007F0ED1FFF797FB001B1F
:1020D4000228F5D9032022E0154A536823F400337B
:1020E400A1680B435360DCE7002018E0002016E0F1
:1020F400012B16D00E4B5B6803F48031226A9142A7
:1021040011D103F47013626A93420ED1002006E0E9
:1021140001207047012002E0012000E0002002B00D
:1021240070BD0120FBE70120F9E70120F7E700BFBC
:1021340000100240000042420F4B5B6803F00C02A7
:10214400082A01D00D487047C3F383420C49885CC8
:1021540013F4803F0BD0084B5B68C3F34043094A38
:10216400D35C064A02FB00F0B0FBF3F07047064B69
:1021740003FB00F0704700BF0010024000127A0019
:10218400A43C0008B43C000800093D00002800F00D
:10219400A08070B50D460446524B1B6803F007033C
:1021A4008B420BD24F4A136823F007030B4313608F
:1021B400136803F007038B4240F08D80236813F00B
:1021C400020F17D013F0040F04D0474A536843F4A6
:1021D400E0635360236813F0080F04D0424A536845
:1021E40043F460535360404A536823F0F003A168FA
:1021F4000B435360236813F0010F31D06368012B44
:1022040020D0022B25D0384A126812F0020F64D075
:1022140035494A6822F0030213434B60FFF7EEFA94
:102224000646314B5B6803F00C036268B3EB820F24
:1022340016D0FFF7E3FA801B41F288339842F0D9B5
:10224400032045E0284A126812F4003FE0D101203F
:102254003EE0254A126812F0007FD9D1012037E010
:10226400204B1B6803F00703AB420AD91D4A1368CD
:1022740023F007032B431360136803F00703AB42F7
:102284002DD1236813F0040F06D0174A536823F4A2
:10229400E063E1680B435360236813F0080F07D031
:1022A400114A536823F46053216943EAC10353601C
:1022B400FFF742FF0C4B5B68C3F303130B4AD35C79
:1022C400D8400B4B18600B4B1868FFF753FA0020EB
:1022D40070BD012070470120FAE70120F8E70120D2
:1022E400F6E700BF00200240001002408C3C0008CA
:1022F4008C00002094000020014B1868704700BF38
:102304008C00002008B5FFF7F7FF044B5B68C3F3AC
:102314000223034AD35CD84008BD00BF001002402A
:102324009C3C000808B5FFF7E7FF044B5B68C3F368
:10233400C223034AD35CD84008BD00BF001002404A
:102344009C3C0008026802F10C0353E8003F23F4AC
:1023540090730C3242E800310029F3D1026802F193
:10236400140353E8003F23F00103143242E8003120
:102374000029F3D1036B012B05D0202380F84230D0
:10238400002303637047026802F10C0353E8003F23
:1023940023F010030C3242E800310029F3D1ECE7BA
:1023A40090F84130DBB2212B01D0022070478368C2
:1023B400B3F5805F17D0036A5A1C02621A78036867
:1023C4005A60C38C9BB2013B9BB2C3844BB9026875
:1023D400D36823F08003D3600268D36843F04003DA
:1023E400D360002070470369002BE4D1036A1B8883
:1023F4000268C3F308035360036A02330362E0E72D
:1024040010B504460268136923F44053C1680B43B2
:10241400136183680269134342691A430168CB68F4
:1024240023F4B05323F00C031343CB6002685369C5
:1024340023F4407381690B4353610268134B9A423E
:1024440020D0FFF75FFF024602EB820202EB82021A
:1024540063689B00B2FBF3F20D48A0FB023149090B
:10246400642303FB11231B013233A0FB03235B0909
:1024740003F0F00202EB011203F00F03216813448E
:102484008B6010BDFFF74EFF0246DDE700380140C8
:102494001F85EB512DE9F84305460F46164699462C
:1024A400DDF820802C68246837EA04030CBF4FF061
:1024B400010C4FF0000CB4452DD1B8F1FF3FF1D021
:1024C400B8F1000F05D0FFF799F9A0EB09004045DA
:1024D400E8D92A6802F10C0353E8003F23F4D073CF
:1024E4000C3242E800310029F3D12A6802F11403C6
:1024F40053E8003F23F00103143242E8003100297D
:10250400F3D1202385F8413085F84230002385F843
:102514004030032000E00020BDE8F88360B310B52C
:10252400044690F8413013B3242384F841302268E0
:10253400D36823F40053D3602046FFF761FF226879
:10254400136923F4904313612268536923F02A0327
:1025540053612268D36843F40053D360002060645D
:10256400202384F8413084F84230606310BD80F841
:102574004030FFF78DF8D7E7012070472DE9F0418F
:1025840082B01E4690F84130DBB2202B4BD104467A
:102594000D46904600294AD00AB9012044E00023A0
:1025A4004364212380F84130FFF728F90746A4F853
:1025B4002480A4F82680A368B3F5805F02D04FF08E
:1025C40000080FE02369FBB14FF000080AE038F877
:1025D400023B2268C3F308035360E28C92B2013ACF
:1025E40092B2E284E38C9BB28BB100963B4600220C
:1025F40080212046FFF74EFFD8B9002DE7D015F80B
:10260400012B23685A60E8E7A8460025EAE700960C
:102614003B46002240212046FFF73CFF58B92023C7
:1026240084F8413000E0022002B0BDE8F0810120CE
:10263400FAE70320F8E70320F6E72DE9F04383B037
:102644001E460A9F90F84230DBB2202B7FD104460D
:102654000D46914600297ED00AB9012078E0002376
:102664004364222280F84220012202634363FFF77D
:10267400C5F88046A4F82C90A4F82E90A368B3F56E
:10268400805F04D04FF000090023338022E02369E7
:1026940013B14FF00009F7E7A9460025F4E7022338
:1026A4006363202384F84230002051E05368C3F36D
:1026B400080329F8023B02E053682B700135338884
:1026C40001333380E38D9BB2013B9BB2E385B7F1C9
:1026D400FF3F25D1E28D92B2002A2ED022681368E2
:1026E40013F0100F09D0002301931368019353686A
:1026F4000193019B3388002BD1D1136813F0200F71
:10270400E5D0002DD2D0A368B3F5805FD4D013B93F
:102714002369002BD0D0536803F07F032B70CDE7DF
:10272400FFF76CF8A0EB0800B84201D8002FD1D114
:10273400202384F8423003200AE0A38DE28D92B274
:102744009B1A3380202384F84230002000E00220CA
:1027540003B0BDE8F0830120FAE7704708B50168CB
:10276400CA6822F04002CA60202280F84120FFF7A4
:10277400F4FF002008BD7047704708B5406A002385
:10278400C385C384FFF7F8FF08BD704790F8423053
:10279400DBB2222B69D18368B3F5805F4FD0826AA4
:1027A400B3F5805F04D0002B56D10369002B53D1BD
:1027B40003685B681370836A01338362C38D9BB2C1
:1027C400013B9BB2C385002B51D100B583B0026895
:1027D400D36823F02003D3600268D36823F48073A2
:1027E400D3600268536923F001035361202380F806
:1027F400423000234363036B012B33D10023036373
:10280400026802F10C0353E8003F23F010030C327A
:1028140042E800310029F3D103681A6812F0100F5E
:1028240006D0002201921A6801925B680193019B11
:10283400818DFFF7AAFF002003B05DF804FB026955
:10284400002AACD1826A03685B68C3F3080313806F
:10285400836A02338362B1E703685B6803F07F0332
:102864001370A8E7FFF787FFE5E702207047002011
:102874007047000030B583B0044602681368D0681E
:10288400516913F00F0505D113F0200F02D010F099
:10289400200F19D12DB111F0010119D110F4907F3D
:1028A40016D1216B01297DD013F0800F03D010F0D5
:1028B400800F40F0188113F0400F03D010F0400F48
:1028C40040F0158103B030BD2046FFF75FFFF9E704
:1028D40013F0010F06D010F4807F03D0626C42F035
:1028E4000102626413F0040F04D019B1626C42F067
:1028F4000202626413F0020F04D019B1626C42F058
:102904000402626413F0080F07D010F0200F00D106
:1029140019B1626C42F008026264626C002AD1D080
:1029240013F0200F02D010F0200F29D123685B6927
:1029340003F04003626C12F0080F00D163B3204629
:10294400FFF700FD23685B6913F0400F20D0226875
:1029540002F1140353E8003F23F04003143242E829
:1029640000310029F3D1E36B73B1634A5A63E06B1E
:10297400FEF7EEFF0028A5D0E06B436B9847A1E774
:102984002046FFF703FFD1E72046FFF7F5FE99E75E
:102994002046FFF7F1FE95E72046FFF7EDFE002302
:1029A40063648FE713F0100F3FF47EAF10F0100F45
:1029B4003FF47AAF002301931368019353680193A2
:1029C400019B536913F0400F51D0E26B13685B68AD
:1029D4009BB2002B3FF476AFA18D99427FF672AF84
:1029E400E3859369202B37D0226802F10C0353E866
:1029F400003F23F480730C3242E800310029F3D104
:102A0400226802F1140353E8003F23F00103143257
:102A140042E800310029F3D1226802F1140353E89B
:102A2400003F23F04003143242E800310029F3D17F
:102A3400202384F8423000232363226802F10C032C
:102A440053E8003F23F010030C3242E80031002920
:102A5400F3D1E06BFEF758FF02236363A18DE38D8E
:102A64009BB2C91A89B22046FFF78FFE2AE7A18DCF
:102A7400E38D9BB2C91A89B2E38D9BB2002B3FF45C
:102A840021AF00293FF41EAF226802F10C0353E882
:102A9400003F23F490730C3242E800300028F3D155
:102AA400226802F1140353E8003F23F001031432B7
:102AB40042E800300028F3D1202384F84230002378
:102AC4002363226802F10C0353E8003F23F0100350
:102AD4000C3242E800300028F3D10223636320461D
:102AE400FFF753FEEEE62046FFF75AFCEAE62046DF
:102AF400FFF734FEE6E600BF7F27000810B5A8B054
:102B0400174CEC4604F10C0EBEE80F00ACE80F00C5
:102B1400BEE80F00ACE80F00BEE80F00ACE80F0001
:102B24009EE807008CE8070094E80E0011A8FEF761
:102B340005FB64231A464FF47A6111A8FEF72DFCB5
:102B44004FF47A70FEF760FE11A8FEF754FC0146BC
:102B5400044800F075F84FF47A70FEF755FEE8E784
:102B640060010020B83C0008FEF75CFD0B480C49EE
:102B74000C4A002302E0D458C4500433C4188C42D5
:102B8400F9D3094A094C002301E013600432A2423C
:102B9400FBD300F01BF8FEF701FD70470000002096
:102BA400FC000020883E0008FC000020C00100203A
:102BB400FEE7062008B500F083F8012001F056F87E
:102BC400014B1868704700BF9800002070B50026BC
:102BD4000C4D0D4C641BA410A64209D101F048F819
:102BE40000260A4D0A4C641BA410A64205D170BDF0
:102BF40055F8043B98470136EEE755F8043B9847EF
:102C04000136F2E7803E0008803E0008803E00085E
:102C1400843E00080A44914200F1FF3300D170471A
:102C240010B511F8014B914203F8014FF9D110BDD1
:102C340003460244934200D1704703F8011BF9E7AD
:102C44000FB40A4B13B51C6824B1A36913B9204609
:102C540000F0AAF805AB2046049AA168019300F09D
:102C6400FFF902B0BDE8104004B07047980000209E
:102C74001F2938B504460D4604D9162303604FF0C6
:102C8400FF3038BD426C12B152F821304BB92046A6
:102C940000F030F82A4601462046BDE8384000F0EE
:102CA40017B8012B0AD0591C03D116230360012045
:102CB400E7E70024284642F8254098470020E0E74B
:102CC400024B01461868FFF7D3BF00BF98000020ED
:102CD40038B50023064D0446084611462B6000F023
:102CE400A7FF431C02D12B6803B1236038BD00BF8A
:102CF400B801002000F08CBF002310B50446C0E9E1
:102D04000033C0E90433836081814366C2818361F7
:102D1400194608225C30FFF78BFF054B246263627F
:102D2400044BA362044BE362044B236310BD00BF56
:102D340011360008333600086B3600088F36000859
:102D4400014900F0AFB800BF61390008682270B5CE
:102D54004D1E55430E4605F1740100F0E5F8044696
:102D640040B10021C0E900160C30A06005F16802F2
:102D7400FFF75EFF204670BD014800F0B3B800BF06
:102D8400AD010020014800F0AEB800BFAD01002045
:102D9400014800F0A7B800BFAE010020014800F0D0
:102DA400A2B800BFAE01002010B50446FFF7F0FF43
:102DB400A3691BB1BDE81040FFF7F0BFC4E91233AB
:102DC4002365134B134A1B68A262A34208BF012365
:102DD400204608BFA36100F01FF86060204600F0A1
:102DE4001BF8A060204600F017F800220421E060E0
:102DF4006068FFF781FF01220921A068FFF77CFFCB
:102E040002221221E068FFF777FF0123A361D1E7D3
:102E1400C03C0008452D0008F8B50746FFF7ACFF95
:102E24001E4B1E68B36913B93046FFF7BDFF483621
:102E3400D6E90134013B03D533680BB33668F7E7B1
:102E4400B4F90C50D5B9164B04F15800E36065662B
:102E540000F047F8FFF796FF08222946C4E9015518
:102E6400C4E904552560A56104F15C00FFF7E0FEA8
:102E7400C4E90D55C4E912552046F8BD6834D9E7B4
:102E840004213846FFF762FF044630600028D5D19C
:102E9400FFF778FF0C233B60EEE700BFC03C00085F
:102EA4000100FFFF2DE9F84306468846002700F19C
:102EB4004804D4E90195B9F1010905D52468002C29
:102EC400F7D13846BDE8F883AB89012B07D9B5F9AA
:102ED4000E30013303D029463046C04707436835D6
:102EE400E9E770477047704770B50E4E0C4631687D
:102EF400054611B900F07AFB30602146284600F0FF
:102F040075FB431C0AD0C41C24F00304A04207D060
:102F1400211A284600F06AFB013001D14FF0FF343A
:102F2400204670BDB40100202DE9F041CD1C25F0F0
:102F3400030508350C2D38BF0C25002D074601DB91
:102F4400A94205D90C2300263B603046BDE8F08138
:102F54002E4E00F0C5FD33681C4634BB2946384666
:102F6400FFF7C2FF431C04464DD134682646002EA9
:102F740040D123683146384604EB030800F036FBA1
:102F840080453AD1216803356D1A25F003050835CB
:102F94000C2D38BF0C2538462946FFF7A5FF013014
:102FA4002BD023682B4423600EE02268521B1ED4CE
:102FB4000B2A16D96119A342256018BF59606368AA
:102FC40008BF316062514B60384604F10B0600F0D3
:102FD4008DFD26F00706231DF21AB6D09B1BA350C5
:102FE400B3E76268A3420CBF32605A60ECE7234641
:102FF4006468B2E734467668B9E70C2338463B6028
:1030040000F074FDA1E72560DEE700BFB0010020F9
:10301400936810B4013B002B936007DA9469A342D0
:1030240001DB0A2902D110BC00F034BB1368581C20
:1030340010601970084610BC7047F8B506460F4674
:103044001446D518AC4201D1002007E03A46304678
:1030540014F8011BFFF7DCFF431CF3D1F8BD00009B
:103064002DE9F04F0D461446984606469DB018B11A
:1030740083690BB9FFF798FE894B9D421BD1756894
:103084006B6ED90705D4AB899A0502D4A86DFFF7F6
:1030940029FFAB891B0701D52B69EBB929463046BB
:1030A40000F05CFBC0B16B6EDC070ED54FF0FF3057
:1030B4001DB0BDE8F08F7B4B9D4201D1B568DFE7C1
:1030C400794B9D4208BFF568DAE7AB899805EDD4E2
:1030D400A86DFFF708FFE9E70023099320238DF883
:1030E400293030234FF00109CDF80C80DFF8BC8182
:1030F4008DF82A3023469A4613F8012B0AB1252A63
:10310400F9D1BAEB040B0BD05B4622462946304674
:10311400FFF793FF013000F0AA80099A5A440992FC
:103124009AF80030002B00F0A28000234FF0FF3209
:10313400CDE905230AF1010A049307938DF853306E
:103144001A935446052214F8011B584800F0BAFC9F
:10315400049AD8B9D10644BF20238DF853301307FD
:1031640044BF2B238DF853309AF800302A2B15D006
:10317400544600204FF00A0C079A214611F8013BEF
:10318400303B092B4ED9B0B1079214E0A0EB0803F1
:1031940009FA03F31343A2460493D2E7039B191DD0
:1031A4001B680391002BBBBF5B4242F002020793F2
:1031B4000793B8BF049223782E2B0CD163782A2B63
:1031C40035D1039B02341A1D1B680392002BB8BF30
:1031D4004FF0FF330593DFF8D8A00322504621783F
:1031E40000F070FC40B14023A0EB0A0003FA00F0A9
:1031F400049B01340343049314F8011B06222D4855
:103204008DF8281000F05EFC00283FD02A4B1BBB31
:10321400039B073323F0070308330393099B3B44C1
:10322400099367E70C4601200CFB0232A5E7002353
:103234004FF00A0C194601340593204610F8012B6F
:10324400303A092A03D9002BC5D00591C3E70446B7
:1032540001230CFB0121F0E703AB00932A4630461F
:10326400164B04A9AFF300800746781CD6D16B6EC9
:10327400D90705D4AB899A0502D4A86DFFF733FEAC
:10328400AB895B063FF512AF099811E703AB0093D6
:103294002A463046094B04A900F082F8E4E700BF4F
:1032A400E43C0008043D0008C43C0008243D000838
:1032B4002A3D00082E3D0008000000003F300008B1
:1032C4002DE9F047164699468A680B6907469342EA
:1032D400B8BF1346336091F843200C46DDF82080D4
:1032E4000AB1013333602368990642BF336802335D
:1032F4003360256815F0060506D104F1190AE36860
:1033040032689B1AAB4228DC94F84320131E2268CF
:1033140018BF012392062DD44946384604F14302CE
:10332400C047013020D02368E56803F00603042B6E
:1033340018BF002532684FF00006A36808BFAD1A15
:10334400226908BF25EAE5759342C4BF9B1AED18AC
:103354001A34B5421AD1002008E0012352464946E6
:103364003846C047013003D14FF0FF30BDE8F08745
:103374000135C4E73020E11881F843005A1C94F861
:1033840045102244023382F84310C5E70123224644
:1033940049463846C0470130E6D00136D9E7000037
:1033A4002DE9FF470F7E9146782F80460C469A46BA
:1033B4000C9D01F1430207D8622F0AD8002F00F0B8
:1033C400D980582F00F0A48004F1420584F842709B
:1033D4003AE0A7F16303152BF6D801A151F823F0C5
:1033E4003D34000851340008CD330008CD330008C3
:1033F400CD330008CD33000851340008CD33000824
:10340400CD330008CD330008CD3300085F35000804
:103414008134000841350008CD330008CD3300085D
:1034240081350008CD33000881340008CD3300080D
:10343400CD330008493500082B681A1D1B682A6023
:1034440004F1420584F842300123A4E0206829688D
:10345400060601F104030AD50E682B60002E03DA78
:103464002D23764284F843300A235E4819E00E681F
:1034740010F0400F2B6018BF36B2EFE72B682068BE
:10348400191D2960010601D51E6802E04606FBD518
:103494001E886F2F0CBF08230A235248002184F88A
:1034A40043106568002DA8BF2168A560A4BF21F062
:1034B400040121600EB9002D4DD01546B6FBF3F181
:1034C40003FB1167C75D05F8017D3746BB420E4615
:1034D400F4D9082B0BD12368DE0708D5236961686A
:1034E4009942DEBF302305F8013C05F1FF35521B3C
:1034F40022614B4621464046CDF800A003AAFFF7BF
:10350400DFFE01304CD14FF0FF3004B0BDE8F0874E
:10351400344881F845702968236851F8046B2960A0
:103524001D0614D5DF0744BF43F0200323601EB9F2
:10353400236823F0200323601023AFE7236843F0BC
:10354400200323607823284884F84530E3E75906AC
:1035540048BFB6B2E6E71546BBE72B682668181DD8
:103564006169286035061B6801D5196002E07006A0
:10357400FBD51980002315462361BAE72B68002187
:103584001A1D2A601D686268284600F09BFA08B17B
:10359400401B606063682361002384F84330A8E71C
:1035A4002A46494640462369D0470130ABD02368B8
:1035B4009B0713D4E068039B9842B8BF1846A4E75E
:1035C4000123324649464046D04701309BD001355D
:1035D400E36803995B1AAB42F2DCEBE7002504F1E4
:1035E4001906F5E7353D0008463D000838B50023C7
:1035F400054D044608462B6000F02AFB431C02D10B
:103604002B6803B1236038BDB801002010B50C4607
:10361400B1F90E1000F0B8FA0028ABBF636DA389AE
:103624001B1823F48053ACBF6365A38110BD2DE93F
:10363400F0411F468B890546DB050C46164605D529
:1036440002230022B1F90E1000F0C4F9A389324616
:1036540023F48053A38128463B46B4F90E10BDE8F9
:10366400F04100F069B810B50C46B1F90E1000F045
:10367400B1F9431CA38915BF606523F4805343F457
:103684008053A38118BFA38110BDB1F90E1000F0BF
:10369400D3B80000F8B50E461446054618B1836940
:1036A4000BB9FFF781FB214B9C422BD16C68A369BA
:1036B400A360A3891A072FD523696BB323692068F4
:1036C400F6B2C01A63693746834204DC21462846B1
:1036D40000F044F930BBA3680130013BA3602368C8
:1036E4005A1C22601E706369834204D0A389DB07DD
:1036F40006D50A2E04D12146284600F02FF988B9B0
:103704003846F8BD0A4B9C4201D1AC68CFE7094B5F
:103714009C4208BFEC68CAE72146284600F01EF820
:103724000028CBD04FF0FF37EAE700BFE43C0008A5
:10373400043D0008C43C000838B504460846114658
:103744000022054D2A601A46FDF7ACFE431C02D147
:103754002B6803B1236038BDB8010020324B70B52B
:103764001D6806460C4625B1AB6913B92846FFF718
:103774001BFB2E4B9C420FD16C68A389B4F90C201F
:1037840019072CD4DD0611D40923336042F0400319
:103794004FF0FF30A3813EE0254B9C4201D1AC6841
:1037A400EBE7244B9C4208BFEC68E6E7580712D5C8
:1037B400616B41B104F14403994202D0304600F0F8
:1037C4009BF900236363A38923F02403A3810023CB
:1037D400636023692360A38943F00803A3812369F9
:1037E4004BB9A38903F42073B3F5007F03D02146BA
:1037F400304600F027F9A089B4F90C2010F0010339
:103804000AD00023A36063695B42A361236943B9BF
:1038140010F08000BAD170BD810758BF6369A360FE
:10382400F4E70020F7E700BF98000020E43C00081C
:10383400043D0008C43C000838B50023054D044687
:1038440008462B6000F0D4F9431C02D12B6803B165
:10385400236038BDB80100208A89F8B505461007F1
:103864000C4657D44B68002B04DC0B6C002B01DC9A
:103874000020F8BDE66A002EFAD0002312F480522C
:103884002F682B6032D0606DA3895A0705D5636811
:10389400C01A636B0BB1236CC01A00230246E66A9C
:1038A4002846216AB047431CA38906D129681D29EB
:1038B4002CD8294ACA40D60728D50022626022693A
:1038C400D904226004D5421C01D12B6803B9606578
:1038D400616B2F600029CBD004F14403994202D0DC
:1038E400284600F009F900206063C2E7216A012339
:1038F4002846B047411CC7D12B68002BC4D01D2BD0
:1039040001D0162B01D12F60B2E7A38943F0400305
:10391400A381AEE70F69002FAAD0930718BF002335
:103924000E6808BF4B69F61B0F608B60002E9FDD8D
:1039340033463A462846216AD4F828C0E04700288E
:1039440006DCA3894FF0FF3043F04003A38190E7E6
:103954000744361AEAE700BF0100402038B50B6976
:1039640005460C4613B90025284638BD18B18369AD
:103974000BB9FFF719FA144B9C421BD16C68B4F9CC
:103984000C30002BEFD0626ED00704D4990502D41A
:10399400A06DFFF7A7FA28462146FFF75DFF636E87
:1039A4000546DA07E0D4A3899B05DDD4A06DFFF7B3
:1039B4009AFAD9E7054B9C4201D1AC68DFE7044B86
:1039C4009C4208BFEC68DAE7E43C0008043D0008C8
:1039D400C43C000838B50446084611460022054D8B
:1039E4002A601A4600F02CF9431C02D12B6803B15B
:1039F400236038BDB801002070B50E46B1F90E1031
:103A0400144600291D4696B008DA0022B6F90C3097
:103A14002A601A0610D44FF480630EE06A4600F060
:103A2400C5F80028F1DB019A02F47042A2F50053B4
:103A34005A425A412A60EEE740230020236016B020
:103A440070BD00008B8973B59D0706460C4607D5EB
:103A540004F14703236023610123636102B070BD55
:103A64006A4601ABFFF7C8FF009905463046FFF7E9
:103A74005BFA48B9B4F90C309A05EFD423F0030388
:103A840043F00203A381E3E70D4BB362A3892060F3
:103A940043F08003A381009B20616361019B5BB1C0
:103AA4003046B4F90E1000F093F828B1A38923F03E
:103AB400030343F00103A381A0890543A581CDE756
:103AC400452D0008034610B5C9B202449342184676
:103AD40001D1002003E0047801338C42F6D110BDFB
:103AE4000148FFF7FFB900BFAC0100200148FFF710
:103AF400FAB900BFAC01002038B50546002940D012
:103B040051F8043C0C1F002BB8BFE418FFF7E8FF82
:103B14001C4A136833B9636014602846BDE8384012
:103B2400FFF7E4BFA34208D9206821188B4201BFE4
:103B340019685B6809182160EDE71A465B680BB1E8
:103B4400A342FAD911685018A0420BD1206801444D
:103B5400501883421160E0D118685B680144116019
:103B64005360DAE702D90C232B60D6E720682118CA
:103B74008B4201BF19685B68091821606360546057
:103B8400CBE738BDB001002038B5044608461146DD
:103B94000022054D2A601A46FDF7A0FC431C02D101
:103BA4002B6803B1236038BDB801002038B5002369
:103BB400064D0446084611462B6000F021F8431CCC
:103BC40002D12B6803B1236038BD00BFB8010020C7
:103BD40038B50023054D044608462B6000F020F854
:103BE400431C02D12B6803B1236038BDB801002007
:103BF4005822024B4FF0FF301A607047B801002082
:103C04005822024B4FF0FF301A607047B801002071
:103C14005822024B4FF0FF301A607047B801002061
:103C24005822024B00201A60704700BFB8010020E0
:103C34005822024B4FF0FF301A607047B801002041
:103C44005822024B4FF0FF301A607047B801002031
:103C5400044A05491368002B08BF0B46184410603A
:103C640018467047BC010020C0010020FEE700BFD9
:103C7400F8B500BFF8BC08BC9E467047F8B500BF55
:083C8400F8BC08BC9E46704725
:103C8C000000000000000000010203040607080900
:103C9C0000000000010203040203040506070809E2
:103CAC000A0B0C0D0E0F10100102000025640D0AFA
:103CBC00000000009C00002000000000000000003C
:103CCC0000000000000000000000000000000000E8
:103CDC0000000000000000000000000000000000D8
:103CEC0000000000000000000000000000000000C8
:103CFC0000000000000000000000000000000000B8
:103D0C0000000000000000000000000000000000A7
:103D1C000000000000000000232D302B2000686CF8
:103D2C004C006566674546470030313233343536D2
:103D3C00373839414243444546003031323334350B
:0C3D4C0036373839616263646566000038
:103D580008B10181B0B000840000000008B1018101
:083D6800B0B00084000000006F
:103D7000B4C4FF7F0100000048C5FF7FB0A90280E6
:103D8000E0C5FF7FB0B0A88030C6FF7F0100000013
:103D90003CC6FF7FB0B0AA8074C6FF7FAE71B28010
:103DA00044C7FF7F0100000040C7FF7FAB3F388062
:103DB000A0C7FF7F01000000ACC7FF7FB0B0AA80A2
:103DC000E8C7FF7F0100000098C8FF7FAA0DB280FE
:103DD00010C9FF7FB0AF0880B0CBFF7F01000000AB
:103DE000B4CBFF7FAD3F028020CEFF7F01000000FB
:103DF000FCCFFF7F0084048010D0FF7F0100000013
:103E00000CD0FF7FB0AD0480E8D2FF7F0084048037
:103E100010D3FF7F44FFFF7F14D3FF7F48FFFF7F56
:103E200020D3FF7F0100000070D3FF7FB0AD04807E
:103E300024D4FF7F008404803ED4FF7FB0A801809B
:103E400048D4FF7FB0A902808AD4FF7FB0AA058042
:103E500022D5FF7FB0A8018046D5FF7FB0A90280A0
:103E60009AD5FF7FB0B0A880C4D5FF7F01000000C5
:103E700090ECFF7FB0A82780F4ECFF7F01000000EA
:043E8000090200082B
:043E8400E50100084C
:103E8800000000000000000000000000000000002A
:103E9800000000000000000000000000000000001A
:103EA800000000000000000000000000000000000A
:103EB80000000000000000000000000000000000FA
:103EC80000000000000000000000000000000000EA
:103ED80000000000000000000000000000000000DA
:103EE80000000000000000000000000000000000CA
:103EF80000000000000000000000000000000000BA
:103F08000000000000000000800000000024F40011
:103F180001000000100000009C00002000000000CC
:103F2800E43C0008043D0008C43C00080000000010
:103F38000000000000000000000000000000000079
:103F48000000000000000000000000000000000069
:103F58000000000000000000000000000000000059
:103F68000000000000000000000000000000000049
:0C3F78000000000000000000000000003D
:0400000508002B6D57
:00000001FF
