:020000040800F2
:10000000C009002045020008995600085D5200080A
:10001000955600083D1D0008C96200080000000058
:10002000000000000000000000000000155A000859
:10003000411D0008000000003D5800086D5A0008EE
:100040005F0200085F0200085F0200085F0200080C
:100050005F0200085F0200085F0200085F020008FC
:100060005F0200085F0200085F0200085F020008EC
:100070005F0200085F0200085F0200085F020008DC
:100080005F0200085F020008E11B00085F02000831
:100090005F0200085F0200085F0200085F020008BC
:1000A0005F0200085F0200085F0200085F020008AC
:1000B0005F0200085F0200085F0200085F0200089C
:1000C0005F0200085F0200085F0200085F0200088C
:1000D0005F0200085F0200085F0200085F0200087C
:1000E0005F0200085F0200085F02000800F002F8EB
:1000F00000F098F80AA090E8000C82448344AAF12A
:100100000107DA4501D100F08DF8AFF2090EBAE827
:100110000F0013F0010F18BFFB1A43F0010318473B
:100120002487000044870000103A24BF78C878C1B3
:10013000FAD8520724BF30C830C144BF04680C60ED
:10014000704700000023002400250026103A28BF35
:1001500078C1FBD8520728BF30C148BF0B60704739
:100160006E2900F06381702900F09982662907F0FA
:10017000AA86652907F0A786672907F0A486612962
:1001800007F0A38603681B0A28BF41F08001692994
:1001900000F01081642900F00D81752900F00A81BA
:1001A0006F2900F02782782900F06582E92900F0A4
:1001B000C181E42900F0BE81F52900F0BB81EF295F
:1001C00000F02482F82900F064820368DB0928BF6C
:1001D00041F08001632900F07D87732900F0828758
:1001E000E32900F08D87F32900F092870020704703
:1001F0001FB59DE8030001F085FA01F07FF80400C7
:100200000020002107F09EF8401C606000200021C3
:1002100007F082F8E06000F083FF1FBD10B500F02A
:10022000E8FF10BD01F03CF81146FFF7E1FF06F0D2
:1002300033FB01F003FA03B4FFF7F0FF03BC01F056
:1002400013FC00000948804709480047FEE7FEE725
:10025000FEE7FEE7FEE7FEE7FEE7FEE7FEE7FEE776
:1002600004480549054A064B70470000055B000835
:10027000ED000008C0030020C0090020C0050020D8
:10028000C00500200FB4044910B503AA029800F07D
:10029000E1F810BC5DF814FB6C0000204FF0000288
:1002A00000B5134694469646203922BFA0E80C506C
:1002B000A0E80C50B1F12001BFF4F7AF090728BF47
:1002C000A0E80C5048BF0CC05DF804EB890028BFC3
:1002D00040F8042B08BF704748BF20F8022B11F0EC
:1002E000804F18BF00F8012B704770477047704768
:1002F00070B5044685690068C10601D5302600E066
:100300002026C00707D070BDD4E9012130469047B0
:10031000206A401C20626D1EF6D570BD70B5044683
:1003200085690078C00707D170BDD4E9012120207C
:100330009047206A401C20626D1EF6D570BD09688A
:100340004A0501D540B27047C905FCD500B27047D7
:1003500009684A0501D5C0B27047C905FCD580B20D
:10036000704770B50C460546012A05D028788006EE
:1003700000D5EA69002302E0012305E05B1C9342FB
:1003800002D2E05C0028F9D1A869E618C01AA86179
:10039000286A184428622846FFF7AAFF04E0D5E936
:1003A000012114F8010B9047B442F8D32846FFF717
:1003B000B5FF70BD2DE9F04106460024106875298F
:1003C000314616A510D0FFF7BAFF002802DA4042E6
:1003D00013A507E031688A0701D512A502E0490795
:1003E00004D511A5012401E0FFF7B2FF00210A2284
:1003F00006F1240709E0B0FBF2FCB0FBF2F302FBCC
:100400001C00303078541846491C0028F3D123468C
:100410002A463046BDE8F04100F055BA0000000021
:100420002D0000002B000000200000001168026871
:10043000006A530501D508700AE0D30501D508808C
:1004400006E0130603D5C217C1E9000200E0086008
:1004500001207047074B70B50D467B4400F01DFE30
:100460000446284600F058FE10B14FF0FF3070BD32
:10047000204670BD0B6300002DE9FF5F15468A46DC
:100480000446DFF8AC80F8440027D8E900103E4667
:10049000CDE9001010E03AF816106A4602A800F004
:1004A000DBFE411C07D02178890603D5E2693918A3
:1004B00091420DD80744761C2078800602D5E06969
:1004C000B84205DDAE42E6DB3AF816000028E2D17C
:1004D000A069C01BA0612046FFF70AFFD8E9001001
:1004E000CDE90010002017E03AF818106A4602A87B
:1004F00000F0B2FEB0F1FF3F81460BD000250DF1B8
:10050000080B05E0D4E901211BF8050090476D1C9C
:100510004D45F7D308F10100B0428046E4DB206A84
:10052000384420622046FFF7F9FEBDE8FF9F000037
:10053000467A00002DE9F0418046D21D22F00702E4
:100540000025D2E90002F52915A614D0011E72F18A
:10055000000106DA0023D0EB030063EB020211A6D0
:1005600008E0D8F800108B0701D50FA602E0490774
:1005700001D50EA601251146002408F1240704E048
:1005800000F05CF930323A55641C50EA0102F7D1B0
:100590002B46324621464046BDE8F04100F093B973
:1005A000000000002D0000002B00000020000000D3
:1005B00030B4002100F1240408E002F00705D2085D
:1005C000303542EA4372DB086554491C52EA0305A0
:1005D000F3D10468002310A2250708D504F02004F5
:1005E0000C4304D0C46901230CA2641EC46130BC56
:1005F00000F069B910B5044621461068FFF7A8FE5F
:1006000002462046BDE810400023D1E7D21D22F06B
:100610000701D1E90023CBE7000000003000000013
:10062000F0B40D460188090502D5214C7C4402E056
:100630001F4C7C440E34002100F1240608E002F037
:100640000F071209E75D42EA03721B097754491C40
:1006500052EA0307F3D102780023120704D5702D64
:1006600006D009B1022311342246F0BC00F02BB9A8
:1006700001231034F8E770B504460D462146106892
:10068000FFF766FE024629462046BDE8704000237B
:10069000C6E7D21D22F00703D3E90023C0E70368B1
:1006A000126843F0200303600823C3610023B7E707
:1006B000A87800002DE9F05F894604464FF0000A53
:1006C000DFF874B1FB44C0F820A02046E1688847F9
:1006D000002874D0252806D0D4E901219047206A4B
:1006E000401C2062F1E700265F462046E16888470B
:1006F0002028054607DB312D05D2781910F8200C8B
:1007000008B10643F1E7B00701D526F00406C4F8A6
:100710001CA00027C4F818A02A2D09D0284606F0EE
:10072000F3FD38B304EB8708303DC8F8185019E0E2
:1007300059F8041B204604EB87029161E168884761
:10074000012F054618D1E069002820DA26F020069E
:100750001DE0D8F8180000EB800005EB40003038B1
:10076000C8F818002046E1688847054606F0CCFD29
:100770000028EED1012F0AD02E2D08D12046E168A5
:1007800088477F1C0546022F46F02006C4DBA0697F
:10079000002803DA404246F00106A061F00701D0CC
:1007A00026F010066C2D0BD0682D09D04C2D39D0B9
:1007B0006A2D35D0742D35D07A2D33D016E038E03F
:1007C000E1682F4620468847B842054609D16C2F7C
:1007D00026D04FF48060E1680643204688470546EE
:1007E00004E06C2F1AD04FF4807006430DB3A5F1CE
:1007F0004100192802D8203546F400664A462946A9
:10080000204626604E46FFF7ABFC80B101280BD096
:10081000F61D26F0070000F1080956E74020E4E73E
:100820008020D8E70020D6E706F104094DE72846E6
:1008300052E7206ABDE8F09F3878000030B5B0F18B
:100840000A0271F100034FEA900E4EEA817EB0EB8E
:100850000E0061EB91014FEA101E4EEA017E10EB93
:100860000E0041EB11114FEA102E4EEA016E10EB13
:100870000E0041EB11214FEA104E4EEA014E10EBF3
:100880000E0041EB1141401841F100014FEAD00048
:1008900040EA41704FEAD1014FEA810444EA907482
:1008A00010EB800544EB01046D1944EB0404521B6A
:1008B000A3414FF0000348BF0A3200D530BD401CB1
:1008C00041F1000130BD2DE9F0470D4699469246B1
:1008D000044600F124080168880604D5E06921F087
:1008E0001001216000E00120A84201DD471B00E06B
:1008F0000027A1697A1902EB0900081AA061207883
:10090000C00602D42046FFF7F3FC002608E0D4E935
:1009100001211AF806009047206A401C761C2062CC
:100920004E45F4DB2078C0060AD52046FFF7E0FCF0
:1009300006E0D4E9012130209047206A401C206263
:10094000381EA7F10107F4DC07E0D4E9012118F80B
:1009500005009047206A401C2062281EA5F1010571
:10096000F3DC2046FFF7DAFC2078000602D50220EF
:10097000BDE8F0870120FBE72DE9FF4F0C461E463E
:100980004FF0FF378BB0D2E90001DDF860800A90AC
:100990008A46C1F30A5505B93D46002108464FF085
:1009A0000000BAF1000F00F4400005DA00EB80000F
:1009B0004FF4400101EA50004FEA9059B9F1010F9C
:1009C00000DDB9460A9850EA4A000ED044F61050AD
:1009D000A5F2FF3545432F14B8F1000F1ED0754224
:1009E000291E1EDDC9F100021CE0B8F1010F4FF015
:1009F000000001D0302103E0F24305E02154401C07
:100A0000B042FBDB30460022002121540B99C1F893
:100A10000880C1E900200FB0BDE8F08FBD1B6D1C40
:100A2000DEE74A4600DA694206A800F0D3FC06ABCE
:100A300093E8070003AB83E8070050460A9906F0E5
:100A400086F88DE80700A0F500501F380090039845
:100A5000002D0ADD42F21F014A460844002303A983
:100A60000390684606F0F0FA09E0A0F500504A4607
:100A70001F38002303A90390684606F0FAFA8DE8B0
:100A800007000004000C03D04FF0FF30410800E0E5
:100A90001046B8F1000F03D00022009215461EE068
:100AA000751E05D4FFF7CAFE303262556D1EF9D5AA
:100AB000B3460122084302D000227F1C04E02078C4
:100AC000302801D100227F1E002A099784D01DE022
:100AD000112D07DAFFF7B2FE303262556D1C50EA75
:100AE0000102F5D1084302D00098C8B10EE0002100
:100AF000681E05E0235C625C63542254401E491C5E
:100B00008142F7DBAB46A81B401E0990002004F889
:100B10000B000B98099AC0F80880C0E9002B7AE70F
:100B200011264FF0000857E72DE9F04F884604469C
:100B3000D21D22F0070191B0D1E90001CDE90A01EF
:100B400006F0CEFB02460B98C00F01D02D2007E027
:100B50002068810701D52B2002E0202101EAC00096
:100B6000032A099001D0072A05DB034641462046A7
:100B700000F0F0FB0BE12078800601D5E06900E091
:100B80000620B8F1650F814606D0B8F1660F18D07F
:100B9000B8F1670F70D131E00020B9F1110F00906A
:100BA00001DB112301E009F101030AAA01A90CA844
:100BB000FFF7E2FEDDE90C70002609F1010583462E
:100BC00047E001204B4600904FF000470AAA01A9D8
:100BD0000CA8FFF7D1FEDDE90DB00C995D460026AB
:100BE00010B909F101000D18B9EB050003D4C0F1EB
:100BF000FF3609F10105A5EB09002BE0B9F1010F62
:100C000001DA4FF001090020B9F1110F00904846B8
:100C100001DD112300E003460AAA01A90CA8FFF791
:100C2000ABFEDDE90C704D460026834620780007B8
:100C30000AD4AB4500DA5D4601A8012D04DD411957
:100C400011F8011C302907D04F4502DA17F1040FC3
:100C500004DA012082460FE06D1EEEE7002F02DC71
:100C6000ED1B3E4403E0781CA84200DD7D1CB81B50
:100C700000F1010A4FF000472078000703D4AA458D
:100C800001DB4FF0FF3A0021B7F1004F0DF14308AF
:100C90008DF8431024D002202B23002F01DA7F424D
:100CA0002D230A21021EA0F1010000DC5FB197FB99
:100CB000F1FC97FBF1F201FB1C7C17460CF1300CA8
:100CC00008F801CDEEE7A8F10100037021880905BD
:100CD00001D5452100E06521A0F1010800F8011CC3
:100CE00009980FA9A1EB0807FF1D00B101204119C8
:100CF00001EBEA70A1693844081A401EA06120780F
:100D0000C00602D42046FFF7F3FA099828B1D4E9C7
:100D100001219047206A401C20622078C00622D51D
:100D20002046FFF7E5FA1EE0002E04DBB34502DDA6
:100D300001A8805D00E03020D4E901219047206ABD
:100D4000401C2062761CAAF101005FEA000A0AD169
:100D500000F0D4FAC0680168405CD4E901219047F2
:100D6000206A401C2062281EA5F10105DCDC07E09A
:100D7000D4E9012118F8010B9047206A401C206239
:100D8000381EA7F10107F3DC2046FFF7C7FA03205E
:100D900011B041E62DE9F04F04460D46D21D22F078
:100DA000070089B0D0E900974846394606F098FA1E
:100DB0000246F80F01D02D2307E02068810701D5F6
:100DC0002B2302E0202101EAC0038DF820300BB173
:100DD000012000E00020032A824601D0072A04DB1C
:100DE0002946204600F0B6FA3FE12078800601D47B
:100DF0000D2500E0E569C7F30A560D2D49DA0021FB
:100E00004FEA175B08464FF00000002F00F4400047
:100E100007DA00EB80004FF4400100EBD07001EAEC
:100E200060008115012901DD4FF0FF3100224FEAFA
:100E3000850CBCF1180F06D31346ACF118004FF027
:100E40008052C24003E04FF4801323FA0CF30CF1FC
:100E50000C0CBCF1200F04D3ACF1200C09FA0CF0FF
:100E600001E007FA0CF000294FF0004801DD18B945
:100E70000FE00ED140450CD319EB02095F4121B9B7
:100E8000404502D19F4329EA0209BBEB175F00D01E
:100E9000761C2088000502D57B48784402E07A4819
:100EA0007844193808AA302302F80A30037C0AF182
:100EB0000101002E0AF1020A53546A4602DC4FF087
:100EC000300101E04FF031014FF001088DF80010C2
:100ED00002D0A6F2FF3603E059EA470100D06B4E7C
:100EE000002D02DC2178090704D54FF002082E21DD
:100EF0008DF80110C44600210BE0C7F303433F0106
:100F0000C35C491C6D1E02F80830052908F1010870
:100F100001DA002DF1DC00210CE000EB1973491C13
:100F20001B786D1E082902F808304FEA091908F1EC
:100F3000010801DA002DF0DC21688B0602D516E0ED
:100F4000A8F10108E04505DD02EB080313F8013CB8
:100F5000302BF5D0B8F1000F09DD02EB080313F8D0
:100F6000013C2E2B03D1090701D4A8F10108002D63
:100F700005DD3E2102F808106D1E08F10108407CD5
:100F8000002E02F8080008F1010804DA2D2076424C
:100F900002F8080002E02B2002F808000A214FF4B2
:100FA0007A70864208F101080BDB96FBF0F33033D0
:100FB00002F8083096FBF0F308F1010800FB136615
:100FC00001E0642E0CDB642096FBF0F3303302F872
:100FD000083096FBF0F308F1010800FB136601E00E
:100FE0000A2E06DB96FBF1F0303002F8080008F11B
:100FF000010896FBF1F001FB1060303002F80800A8
:10100000A16908F1010808EB050202EB0A00081AC1
:10101000A0612078C00602D42046FFF769F9216A52
:1010200008AE01EB0A00206204E0D4E9012116F8C1
:10103000010B9047BAF1010AF7D22078C00602D519
:101040002046FFF755F96E4609E016F8010B3E28D9
:101050000FD0D4E901219047206A401C2062B8F1EA
:101060000108F2D22046FFF759F909B00320BDE884
:10107000F08F206A2844206203E0D4E90121302067
:1010800090476D1EEBD3F8E78670000002FCFFFF6F
:1010900001694A1C02610878704700B58FB0CDE93C
:1010A00001310021059105497944CDE9031011462C
:1010B0006846FFF7FFFA0FB000BD0000E5FFFFFF35
:1010C00010B5436913B1AFF3008001E0FFF749F9B0
:1010D000012010BD127800F124010A7000224A702C
:1010E0000122EDE711684FF0FF32E9E710B54369DF
:1010F00013B1AFF3008001E0FFF7BEF9012010BD8E
:10110000128800F1240182840022C2840122EDE7CA
:1011100011684FF0FF32E9E7007B00F08000704774
:1011200010B542485421FFF7B9F841485421FFF760
:10113000B5F840485421FFF7B1F83F493B483C4AD5
:101140003F4B08603D490A603A491960531C0365EA
:10115000481C1065012008653B48344A39A1784491
:1011600000F0CEF920B9384878440A3800F06FFA18
:1011700037482F4A35A1784400F0C2F920B93448E5
:1011800078440A3800F063FA32482A4A2FA178449A
:1011900000F0B6F920B92F4878440A3800F057FA21
:1011A00040232248DC000021224600F085F920B1CE
:1011B00025487844543800F04AFA1D482246402316
:1011C000002100F079F920B121487844543800F02A
:1011D0003EFA184822461023002100F06DF900283D
:1011E00006D01C487844BDE81040563800F02FBAAD
:1011F00010BD104870B5006D20F001040B4800F0E0
:10120000F7F90B4800F0F4F90A4800F0F1F909E0A9
:10121000206D20F00105204600F0EAF9204600F09C
:1012200071F82C46002CF3D170BD0000180000208E
:101230006C000020C00000200000002004000020FE
:101240000800002072000000D56D0000770000004B
:10125000C16D0000AD6D00002DE9F04116460C4651
:10126000054600F043F8036893F80101012807D010
:10127000FF2C12D8185D80B101202C70BDE8F081E0
:10128000D3F807013246214603F20713C718284650
:10129000BC46BDE8F041002360474FF0FF30EDE76A
:1012A000754600F00FFAAE4605006946534620F039
:1012B0000700854618B020B5FEF7D2FFBDE82040F4
:1012C0004FF000064FF000074FF000084FF0000B02
:1012D000AC46ACE8C009ACE8C009ACE8C009ACE871
:1012E000C00921F007018D467047000010B500F0DD
:1012F00005F8001D10BD00BF4D600000004870479C
:101300003401002070B50446051F00F0DFF90068C5
:10131000002C14BF446870BD002C18BFAC423CBF09
:1013200020466468F8D301680A18AA4218BF4560CD
:1013300003D12A6805461144016028684119A14279
:101340001CBF6C6070BD61686960216808442860DA
:1013500070BD00002DE9F0411F46044603260168D8
:10136000072A01F4006004DB08B116A505E016A504
:1013700003E008B115A500E015A521F010002060DC
:10138000A069C01EA0610FB1401EA0612046FEF7FB
:10139000AFFF4FB1D4E9012138469047206A401C85
:1013A0002062C01C206206E0206AFAE7D4E901212D
:1013B00015F8010B9047761EF8D22046FEF7AEFFD7
:1013C000BDE8F0814E414E006E616E00494E460010
:1013D000696E66002DE9F047814616468AB03548A9
:1013E00078440DC88DE80D0032487844801C03AC69
:1013F0000DC884E80D0041F69B300844372190FB6E
:10140000F1F290FBF1F5A5F1800501FB12041B3C04
:1014100002D56442012000E00020DFF898A0804659
:101420000027FA44AAF1BE0A0EE0E0070AD03246CD
:10143000684607EB470101230AEB810105F019FE1D
:101440008DE8070064107F1C002CEED1194F7F44FB
:10145000AE3F19E0E80715D007EB04100DF1180AAC
:1014600090E80E008AE80E00C068F04201D1981999
:1014700008903246012306A903A805F0FAFD03AB44
:1014800083E807006D10641C002DE3D14FF00103C9
:1014900032466946B8F1000F03A802D005F0D4FD2A
:1014A00001E005F0E6FDC9E90001C9F808200AB02D
:1014B000BDE8F087DC6B000070B5C468A50713D0E9
:1014C000650211D4B2F5807F09D0B2F5007F06D055
:1014D000B2F5806F08D1012300F1240106E05D1E02
:1014E0006FF07F46B54201D3012070BD0161C36139
:1014F000416024F470611143C160002070BD0000A0
:101500002DE9F0410C461646070047D0104600F082
:101510006FF82078611C61280AD0722802D07728E1
:101520003CD102E00125002405E00225042402E06C
:10153000082448F2020511F8010B2B2806D0622876
:1015400009D011F8010C74280AD00BE045F003050E
:1015500044F00204EFE745F0040544F00104EAE733
:1015600044F010043846214600F078F8411C15D0AC
:101570000021316171604FF40071F560F1617061BB
:10158000200704D530460222002100F019F9306D01
:1015900040F0010030653046BDE8F0810020FBE7F7
:1015A0002DE9F0410D460646104C206DC10704D0D0
:1015B000410804D020F00104F7E722460EE0542051
:1015C00000F0CFF807000ED0206D47F0010108436E
:1015D000542120653846FEF761FE3A4629463046DA
:1015E000BDE8F0418CE70020D6E70000180000209D
:1015F0002DE9F04704464FF000094FF0FF37C5686A
:10160000D4E90486A80707D0204600F089F93046BF
:1016100000F02EF8002802DA3846BDE8F0872805E9
:1016200002D54046FFF76EFE4C212046FEF736FEFF
:10163000206D20F0010020654846EEE710B5044615
:10164000AFF300802046BDE81040FEF7F4BD10B5B2
:1016500000F0B0F9BDE8104000F0A6B90EB5CDE934
:10166000000100F06AFA029069460120ABBE0EBD8F
:1016700008B5694600900220ABBE08BD1FB58DE8D5
:10168000070069460520ABBE04B010BD1FB58DE84C
:101690000F0069460620ABBEF6E708B56946009024
:1016A0000920ABBE08BD1CB5CDE9000169460A2082
:1016B000ABBE1CBD704708B5694600900C20ABBEA0
:1016C00008BD000000487047140100200048704722
:1016D0001C010020704770477047704738B50446BA
:1016E0000A4600206946AFF30080002808BF38BDD5
:1016F00002460099204600F0C5F9012038BD0120BE
:1017000000F014BAF8B5AFF30080054600200C468F
:10171000102000BF0646A819A0420DD932466946DE
:101720000020AFF30080070008BF00F0FFF9009829
:10173000A04218BF0546C419FFF7C8FF0560074659
:10174000F01D20F007004619284600F094F9B44235
:1017500008BFF8BDA21B31463868BDE8F84000F06C
:1017600091B970B50646FFF7B1FF056806F10B00A9
:1017700020F00704B4429CBF002070BD2B466A686D
:10178000BAB11068A04210D304F1080188423CBFEE
:101790005068586007D35168101941601168091BDF
:1017A000016058601460101D70BD13465268002A15
:1017B000E7D121462846FFF791FF0028DED170BD12
:1017C0002DE9F041044616460D464769007B800727
:1017D0002ED03846FFF761FF50BB3EB3012E02D03A
:1017E000022E25D104E0204600F066F905441DE0F4
:1017F0003846FFF760FFE168002841F01001E16022
:1018000005DA204600F058F80120BDE8F081C90350
:101810000BD56268E16A914200D81146A269114471
:101820002269891A814200DD08460544002D01DA4B
:101830000220EAE7E16A6068E268814206D2910329
:10184000E06203D522F4003141F01002A6690027BE
:10185000AE4213DCE16A814201D90B4600E0034647
:1018600003EB060C2369ACEB030CAC4506DD8142AF
:1018700001D98C4600E084469C4505D1A7602760CD
:1018800042F02000A5620DE0AD1BE669AE1B81426F
:10189000A66000D90846C01A281A2060581960604E
:1018A00022F0200003490840E060002084F84870DE
:1018B000ABE70000BFCFD7FFC16821F4001141F0B2
:1018C0008001C16000218160016070472DE9F0470F
:1018D000814614460E464FF0FF383248D5685769A6
:1018E000054209D03846A169FFF7DDFE002811DB6B
:1018F0002C48C0430540E5602B46324649463846F1
:10190000FFF7BCFEA16920F00042B21A1144002882
:10191000A16103D02046FFF7CFFF4046BDE8F08726
:1019200070B504460569C06A6168884200D80846F7
:10193000E16821F42011E160C90312D5A84208D062
:101940002246411B2846FFF7C1FF10B14FF0FF3080
:1019500070BD0020E562C4E90150E06820F48030E9
:10196000E060002070BD10B50446C06820F0200083
:10197000E060A16AA06988420DD02046FFF7D0FF41
:10198000E06820F4405040F01000E060A06AA061E0
:101990002069E062606044F24001E0688843E060F2
:1019A00010BD000010000200002801D000F05CB85B
:1019B0007047000010B5014602A000F09EF801201B
:1019C00010BD000053494752545245443A205265D5
:1019D0006469726563743A2063616E2774206F7066
:1019E000656E3A20000000004FF0013C50F8042BD7
:1019F00051F8043B9A4221D1A2EB0C03934313EA22
:101A0000CC1317D150F8042B51F8043B9A4215D14E
:101A1000A2EB0C03934313EACC130BD150F8042B25
:101A200051F8043B9A4209D1A2EB0C03934313EA09
:101A3000CC13DBD04FF00000704700BFD01A01BAC2
:101A4000B1FA81F101F0180122FA01F0CB40DBB2CA
:101A5000C0B2C01AC1F120012CFA01F3D11A91438E
:101A600011EAC311E6D1704701491820ABBEFEE769
:101A700026000200704700210160C0E90110704794
:101A800010207047034640688C46002818BF8842E3
:101A90003CBF03464068F8D318681844884207D012
:101AA0000CF1030020F00700001D411A521A0146F4
:101AB000081D0A60FFF726BC10B50146C2689007F2
:101AC00003D0900607D5886A0AE000F05DF801218E
:101AD0000160881E10BD8B69486818440B69C01AE4
:101AE00091F848301BB191F84910401A10BD11030C
:101AF000FCD50028FADD401E10BD70B505460C4629
:101B00000A2000E06D1C00F037F835B12878002875
:101B1000F8D102E0641C00F02FF814B120780028FE
:101B2000F8D1BDE870400A2000F026B810B500F0EA
:101B30002FF8BDE81040FFF737BF10B5431C02E097
:101B400010F8011B71B18107FAD14FF0013202C8C0
:101B50008C1A8C4314EAC211F9D0C01A0A0603D0B9
:101B6000C01E10BDC01A10BD0A0401D0801E10BDD9
:101B70000902FCD0401E10BD08B569468DF8000072
:101B80000320ABBE08BD00000048704714010020D0
:101B900010B5012805D0002103A0FFF7AEFF0120FA
:101BA00010BD09A1F8E7000053494752544D454D77
:101BB0003A204F7574206F662068656170206D65EE
:101BC0006D6F7279000000003A2048656170206DE9
:101BD000656D6F727920636F7272757074656400E1
:101BE00080B540F2BC10C2F2000000F021FF40F2CC
:101BF000EC10C2F2000000F01BFF80BD80B584B085
:101C0000029000200190029800688068C00770B3BD
:101C1000FFE702980168886820F00100886001F001
:101C200029FB0190FFE7029800688068C007E8B1CF
:101C3000FFE701F01FFB0199401A032815D3FFE7C6
:101C4000029800688068C00770B1FFE70299886A4F
:101C500040F0100088620299C86A40F00100C86232
:101C600001208DF80F0006E0FFE7DCE7FFE700202A
:101C70008DF80F00FFE79DF80F0004B080BD000055
:101C800080B584B002900020019000900298006816
:101C90008068C007002849D1FFE70298016888687A
:101CA00040F00100886040F20C00C2F200000068C1
:101CB0004DF68361C4F21B31A0FB0110800C009033
:101CC000FFE7009820B1FFE7009801380090F8E79F
:101CD00001F0D0FA0190FFE7029800688068C00721
:101CE00018BBFFE701F0C6FA0199401A03281BD37D
:101CF000FFE7029800688068C007A0B9FFE7029973
:101D0000886A40F0100088620299C86A40F00100B9
:101D1000C862FFE70299002081F82400FFE7012054
:101D20008DF80F0006E0FFE7D6E7FFE700208DF80B
:101D30000F00FFE79DF80F0004B080BDFFE7FEE74E
:101D40007047000080B588B0079006A803F088FAB5
:101D500006980799C860079908798A6850430A6805
:101D6000C96804F0B1FD0799886107990491C868B2
:101D7000096906F033F8049948610798406940F60C
:101D8000DB71C4F2490105F07DFD60B9FFE70798FA
:101D90000390406940F6DB71CCF2C90105F0F4FC18
:101DA0000399486116E00798406940F6DB71CCF270
:101DB000490105F060FD60B9FFE7079802904069AE
:101DC00040F6DB71C4F2C90105F0DEFC02994861FE
:101DD000FFE7FFE70798406905F0AAFC44F22D32BF
:101DE000CEF61C3243F2E263C3F63A7305F0F2FA20
:101DF00005F0BEFA05900799C868086105984CF689
:101E0000CD41C3F6CC5105F01DFF0090079801901D
:101E1000C06946F26661C3F6667105F013FF0146BC
:101E2000009805F0B1FC0199C86108B080BD0000C0
:101E300084B003908DF80B10019200939DF80B0075
:101E400003990871019803998860009803990860C4
:101E500004B0704781B0EFF3108072B60090FFE7D6
:101E6000FEE7000080B586B0049000208DF80F00DA
:101E70000190FFE7049890F82400012804D1FFE7BF
:101E800002208DF81700AEE00499012081F82400AB
:101E9000FFE7FFE70498FFF7B1FE8DF80F00049805
:101EA000FFF7EEFE8DF80F009DF80F00002840F0C0
:101EB0008F80FFE70498806A40F0020020F4885089
:101EC0000499886240F20C00C2F2000000680090A1
:101ED000022001F08DFA01460098B0FBF1F04000BD
:101EE0000190FFE7019820B1FFE7019801380190C8
:101EF000F8E704980168886840F00800886001F0FD
:101F0000B9F90290FFE7049800688068000700288C
:101F100022D5FFE701F0AEF90299401A0B281AD337
:101F2000FFE70498006880680007002812D5FFE7E3
:101F30000498806A40F0100020F002000499886242
:101F4000FFE70499002081F82400FFE701208DF8C5
:101F5000170048E0FFE7D6E704980168886840F07A
:101F60000400886001F086F90290FFE70498006899
:101F700080684007002822D5FFE701F07BF902992D
:101F8000401A0B281AD3FFE70498006880684007BE
:101F9000002812D5FFE70498806A40F0100020F076
:101FA000020004998862FFE70499002081F8240068
:101FB000FFE701208DF8170015E0FFE7D6E704984A
:101FC000806A40F0010020F0020004998862FFE777
:101FD000FFE70499002081F82400FFE79DF80F0037
:101FE0008DF81700FFE79DF8170006B080BD0000D0
:101FF00086B00490039100208DF80B0001900498A6
:10200000806808B1FFE7FFE7FFE7049890F8240035
:10201000012804D1FFE702208DF8170077E1049929
:10202000012081F82400FFE7FFE704988068E0B909
:10203000FFE70398406801280DD1FFE70498006886
:10204000806B6FF315000399096840EAC130049969
:102050000968886308E00499886A40F02000886273
:1020600001208DF80B00FFE739E003994868096902
:1020700088421FD8FFE704980068806B039B1A68AA
:102080005968D3F810C0A1EB0C0101EB810101F1FB
:102090000F031F219940884320F440100021CFF600
:1020A000F07101EB0C519A401143084304990968FF
:1020B000886313E004980068806B039A5168126982
:1020C000891A01EB810101F10F021F219140884320
:1020D00020F44010049909688863FFE7FFE704983B
:1020E00000688068C00768B9FFE7049800688068E6
:1020F00047F20101884303998969084304990968F3
:102100008860FFE70398407D012817D1FFE7039817
:102110008069B0F5E04F07D1FFE70498016848688F
:1021200040F48060486008E00499886A40F020002C
:10213000886201208DF80B00FFE7FFE70398007D20
:10214000012815D1FFE70398407D38B9FFE70498CF
:102150000168486840F48050486008E00499886A43
:1021600040F02000886201208DF80B00FFE7FFE7B8
:10217000039800680A2812D3FFE704980068C06833
:1021800003990A68896802EB42021E3A07239340CA
:1021900098439140084304990968C86010E0049886
:1021A0000068006903990A68896802EB4202072304
:1021B0009340984391400843049909680861FFE7F8
:1021C00003980068102805D0FFE7039800681128DD
:1021D00007D1FFE704980168886840F40000886030
:1021E000FFE70398406801380146009103282CD886
:1021F0000099DFE801F0020F1C290498006840698B
:1022000040F6FF7188430399C96808430499096837
:10221000486127E004980068806940F6FF718843B0
:102220000399C96808430499096888611AE0049809
:102230000068C06940F6FF7188430399C968084384
:1022400004990968C8610DE0FFE704980068006A16
:1022500040F6FF7188430399C968084304990968E7
:102260000862FFE703980068102805D0FFE703988D
:102270000068112840D1FFE70498006842F200414D
:10228000C4F2010188422DD1FFE7049800688068FC
:102290000002002825D4FFE704980168886840F40C
:1022A0000000886003980068102819D1FFE740F209
:1022B0000C00C2F2000000684DF68361C4F21B31CD
:1022C000A0FB0110800C00EB800040000190FFE7B4
:1022D000019820B1FFE7019801380190F8E7FFE786
:1022E000FFE708E00499886A40F020008862012036
:1022F0008DF80B00FFE7FFE7FFE70499002081F866
:102300002400FFE79DF80B008DF81700FFE79DF80C
:10231000170006B07047000080B596B0159040F6E3
:102320000000C4F201004FF48051002200F08AFF47
:102330001598006842F20041C4F20101884240F061
:10234000E880FFE740F2A230C2F2000000780028E7
:1023500063D1FFE740F27410C2F20000016801315E
:1023600001600068D8B1FFE740F2BC10C2F2000083
:102370000068C26B40F28011C2F20001086810448C
:10238000086040F2EC10C2F200000068C26B40F23C
:102390008C11C2F20001086810440860FFE740F2A7
:1023A0007410C2F200000068B0F57A7F34D1FFE704
:1023B00040F28010C2F200001390006805F0C6FBE6
:1023C0000021C4F27A41129105F076FA40F27C11B4
:1023D000C2F20001086040F28C10C2F200001490BA
:1023E000006805F0B3FB129905F066FA139A149988
:1023F00040F28813C2F20003186040F2A233C2F226
:1024000000030120187000201060086040F2741171
:10241000C2F200010860FFE77AE040F2BC10C2F2AD
:1024200000000068C16B40F27810C2F20000016049
:10243000006805F08BFB40F27C11C2F200010968D4
:1024400005F0CCFC4FF08B410F9105F035FA43F2CB
:102450003331C4F25301109105F0F4FB40F2043122
:10246000C2F200011191086040F2EC10C2F20000CB
:102470000068C16B40F28410C2F200000160006885
:1024800005F064FB40F28811C2F20001096805F012
:10249000A5FC0F9905F010FA109905F0D3FB1199DE
:1024A00048600868496805F06FF90146119881F0A5
:1024B000004181600168084605F0C4FB4FF083418C
:1024C00005F0D2F9E0B9FFE740F20430C2F20000B3
:1024D0004168084605F0B6FB4FF0834105F0C4F9AA
:1024E00070B9FFE740F20430C2F20000816808468C
:1024F00005F0A8FB4FF0834105F0C4F938B9FFE7B8
:1025000040F2A031C2F2000100200870FFE7FFE7AF
:10251000FFE740F29C10C2F200000B90FFF712FCA4
:102520000B9940F29C30C2F20000026840F2703019
:10253000C2F2000007900261C969C16040F2A03197
:10254000C2F200010E9109784BF21772C3F6D11254
:10255000099203F0D9F80B98826940F20430C2F274
:10256000000040F21031C2F20001089103F00EFFAA
:10257000089B099A0E9940F21830C2F200000690AA
:102580004FF0000CC0F810C01B68C360097803F05E
:10259000BBF8DDF818C00798089B099A0E99DCF87B
:1025A00020C040F2B03EC2F2000ECDF830E0CEF8CE
:1025B00000C0D0F820C040F24430C2F200000A90BF
:1025C000C0F810C05B68C360097803F09DF80A9AF0
:1025D0000B990C98126A42608A6940F2A431C2F2E7
:1025E00000010D9104F018F80D9840F29012C2F21B
:1025F00000020021C4F2401104F064F80E98007843
:10260000012841D1FFE740F29010C2F20000039090
:102610000068019042F62C40C4F20100049000686A
:1026200005F094FA0146019805F00CFB05F056FA06
:1026300003990246049842F63443C4F201031A6037
:1026400049680291006805F081FA0146029805F098
:10265000F9FA05F043FA03990246049842F6384322
:10266000C4F201031A6089680591006805F06EFAEA
:102670000146059805F0E6FA05F030FA42F63C41CD
:10268000C4F20101086017E042F62C41C4F20101D6
:10269000086842F63442C4F20102002010600A6861
:1026A00042F63842C4F201021060096842F63C4129
:1026B000C4F201010860FFE740F60000C4F2010027
:1026C0004FF48051012200F0BDFD16B080BD000026
:1026D00080B584B0029000208DF80700FFE70298D3
:1026E00090F82400012804D1FFE702208DF80F00A4
:1026F0008FE00299012081F82400FFE7FFE70298AC
:10270000FFF7BEFA8DF807009DF80700002874D186
:10271000FFE70298806A40F4805042F2010188434A
:10272000029988620298006842F60001C4F2010131
:10273000884209D1FFE742F20440C4F20100006878
:1027400010F4702F03D008E0002030B9FFE70299A1
:10275000886A20F48010886205E00299886A40F453
:1027600080108862FFE70298806AC005002804D4C0
:10277000FFE702990020C862FFE7FFE70299002007
:1027800081F82400FFE7029801686FF004000860F8
:10279000029800684068400500282DD4FFE70298A1
:1027A0000068806800F4E040B0F5E04F1CD1FFE71E
:1027B0000298006842F60001C4F20101884209D182
:1027C000FFE742F20440C4F20100006810F4702FE9
:1027D00003D009E0002038B9FFE702980168886853
:1027E00040F40210886006E002980168886840F4AE
:1027F00000408860FFE7FFE706E0FFE7029900205E
:1028000081F82400FFE7FFE79DF807008DF80F002F
:10281000FFE79DF80F0004B080BD000080B584B0D4
:10282000029000208DF80700FFE7029890F824003E
:10283000012804D1FFE702208DF80F0095E00299EE
:10284000012081F82400FFE7FFE70298FFF718FA5C
:102850008DF807009DF8070000287AD1FFE702985D
:10286000806A40F4805042F20101884302998862F4
:102870000298006842F60001C4F20101884209D1C1
:10288000FFE742F20440C4F20100006810F4702F28
:1028900003D008E0002030B9FFE70299886A20F4ED
:1028A0008010886205E00299886A40F4801088628E
:1028B000FFE70298806AC005002804D4FFE7029968
:1028C0000020C862FFE7FFE70299002081F824009A
:1028D000FFE7029801686FF0040008600298016841
:1028E000486840F0800048600298006840684005F1
:1028F00000282DD4FFE702980068806800F4E040CB
:10290000B0F5E04F1CD1FFE70298006842F60001E5
:10291000C4F20101884209D1FFE742F20440C4F247
:102920000100006810F4702F03D009E0002038B9CE
:10293000FFE702980168886840F40210886006E0AA
:1029400002980168886840F400408860FFE7FFE76C
:1029500006E0FFE70299002081F82400FFE7FFE787
:102960009DF807008DF80F00FFE79DF80F0004B0F9
:1029700080BD000080B590B00E900D9100208DF8C4
:10298000330068463021FDF789FCFFE70E9890F888
:102990002400012804D1FFE702208DF83F003EE02B
:1029A0000E99012081F82400FFE7FFE742F60000BE
:1029B000C4F2010000900E9800688068C007D0B98A
:1029C000FFE700988068C007A8B9FFE70E98006885
:1029D00042F20041C4F2010188420CD1FFE70E9897
:1029E0000068406820F470200D99096808430E992A
:1029F0000968486008E00E99886A40F02000886203
:102A000001208DF83300FFE7FFE70E99002081F8E1
:102A10002400FFE79DF833008DF83F00FFE79DF8A5
:102A20003F0010B080BD000081B0009001B0704741
:102A300080B584B003900398006800680290039802
:102A40000068406801909DF804008006002841D588
:102A5000FFE79DF80800800700283AD5FFE70398B4
:102A6000806AC006002806D4FFE70399886A40F40C
:102A700000708862FFE703980068806800F46020B7
:102A8000B0F5602F1CD1FFE70398007BC0B9FFE7CA
:102A900003980168486820F0200048600399886A1C
:102AA00020F4807088620398806AC004002806D4ED
:102AB000FFE70399886A40F001008862FFE7FFE7BB
:102AC0000398FFF7B1FF039801686FF012000860E8
:102AD000FFE7FFE79DF804000006002851D5FFE757
:102AE0009DF80800400700284AD5FFE70398806A50
:102AF000C006002806D4FFE70399886A40F4005016
:102B00008862FFE703980068806800F4E040B0F551
:102B1000E04F14D0FFE703980068406840050028A4
:102B200025D4FFE703980068806800F46020B0F5C2
:102B3000602F1CD1FFE70398007BC0B9FFE7039823
:102B40000168486820F0800048600399886A20F492
:102B5000805088620398806AC005002806D4FFE789
:102B60000399886A40F001008862FFE7FFE7039855
:102B7000FFF7D2FB039801686FF00C000860FFE7D5
:102B8000FFE79DF804004006002814D5FFE79DF8F4
:102B90000800C00770B1FFE70399886A40F48030ED
:102BA0008862039800F014F9039801686FF001003F
:102BB0000860FFE7FFE704B080BD000080B588B083
:102BC000069000208DF8170004900390029006985C
:102BD00020B9FFE701208DF81F00F4E00698806817
:102BE00030B1FFE70698007D08B1FFE7FFE7FFE798
:102BF0000698806A50B9FFE706990020C8620699D6
:102C000081F82400069800F0E7F8FFE70698FEF741
:102C1000F5FF8DF817000698806AC006002800F1BD
:102C2000C480FFE79DF81700002840F0BE80FFE752
:102C30000698806A40F0020020F488500699886265
:102C400006994868CA691043097B40EA4101039824
:102C500008430390069881680120B1F5807F0190B8
:102C600008D0FFE7069880680138B0FA80F0400984
:102C70000190FFE701990498CA0740F48071002A87
:102C800018BF084604900698007D01281ED1FFE772
:102C90000698007B70B9FFE7069881694EF2000044
:102CA000CFF6FF7000EB41300499084340F4006018
:102CB00004900AE00699886A40F02000886206992C
:102CC000C86A40F00100C862FFE7FFE706980068A5
:102CD000406820F4694004990843069909684860EF
:102CE0000698006880684FF2FD71CFF6E1710840E8
:102CF000039908430699096888600698816801204D
:102D0000B1F5807F009008D0FFE706988068013811
:102D1000B0FA80F040090090FFE7009800F0010051
:102D2000002818BF4FF48070B0F5807F09D1FFE70D
:102D3000069801690020CFF6F07000EB0150029078
:102D4000FFE706980068C06A20F470000299084303
:102D500006990968C86206980068806840F6FE61B6
:102D6000CFF61F710840039988420CD1FFE70699FE
:102D70000020C8620698806A40F0010020F002003E
:102D80000699886210E00698806A40F0100020F0F2
:102D90000200069988620699C86A40F00100C8627C
:102DA00001208DF81700FFE708E00699886A40F0D7
:102DB0001000886201208DF81700FFE79DF81700CA
:102DC0008DF81F00FFE79DF81F0008B080BD0000D0
:102DD00081B0009001B0704780B58CB00B9000209E
:102DE0000A900990089007900B98006842F2004101
:102DF000C4F20101884233D1FFE7FFE741F2180036
:102E0000C4F20200016841F400710160006800F43E
:102E1000007006900698FFE7FFE741F21800C4F241
:102E20000200016841F004010160006800F0040044
:102E300005900598FFE7012007900320089040F6D1
:102E40000000C4F2010007A900F06CF81220029003
:102E50000022114600F0AAFA029800F09DFA3CE028
:102E60000B98006842F60001C4F20101884233D198
:102E7000FFE7FFE741F21800C4F20200016841F4E5
:102E800080610160006800F4806004900498FFE7AE
:102E9000FFE741F21800C4F20200016841F00401AA
:102EA0000160006800F0040003900398FFE702202F
:102EB00007900320089040F60000C4F2010007A923
:102EC00000F030F8122001900022114600F06EFA56
:102ED000019800F061FAFFE7FFE70CB080BD000049
:102EE00080B584B0039000F0C5F90290039801907A
:102EF0000198013048B1FFE740F21000C2F2000033
:102F00000178019808440190FFE7FFE700F0B2F96B
:102F10000299401A0199884201D2FFE7F6E704B00E
:102F200080BD000090B00F900E9100200D90099090
:102F3000FFE70E9800680D99C840002800F07F81D7
:102F4000FFE70D99012088400C900E9800680C99BD
:102F500008400B900B980C99884240F06C81FFE779
:102F60000E9840680590002851D0FFE70598012889
:102F70003AD0FFE7059802283FD0FFE705980328DD
:102F80005FD0FFE70598112832D0FFE70598122897
:102F900038D0FFE705980021C1F21101884236D0F0
:102FA000FFE705980021C1F2120188422FD0FFE708
:102FB00005980021C1F22101884228D0FFE7059839
:102FC0000021C1F22201884221D0FFE705980021AB
:102FD000C1F2310188421AD0FFE705980021C1F201
:102FE0003201884213D02FE00E98C06809902CE07F
:102FF0000E98C0680430099027E00E98C068083029
:10300000099022E00E98C0680C3009901DE00E98DF
:10301000806818B9FFE70420099011E00E988068D5
:10302000012806D1FFE7082009900C980F99086144
:1030300005E0082009900C980F994861FFE7FFE729
:1030400003E00020099000E0FFE70B98FF2803D879
:10305000FFE70F98049003E00F9804300490FFE717
:10306000049808900B98FF2804D8FFE70D9880007B
:10307000039006E00D996FF01F0000EB81000390B4
:10308000FFE70398079008980068079A0F2191407E
:103090008843099991400843089908600E98C079BF
:1030A000C006002840F1C680FFE7FFE741F21800A4
:1030B000C4F20200016841F001010160006800F003
:1030C000010006900698FFE70D9820F00300082104
:1030D000C4F2010140580A900D9800F003008100ED
:1030E0000F2000FA01F10A9888430A900F9840F6E1
:1030F0000001C4F20101884203D1FFE700200290E1
:1031000026E00F9840F60041C4F20101884203D145
:10311000FFE70120019018E00F9841F20001C4F28E
:103120000101884203D1FFE7022000900AE00F99D5
:1031300041F20042C4F201020420914208BF032080
:103140000090FFE700980190FFE701980290FFE7E9
:1031500002980D9901F00301890000FA01F10A9823
:1031600008430A900A980D9921F003010822C4F23D
:10317000010288500E988079C006002809D5FFE723
:103180000B9A40F20841C4F201010868104308603C
:1031900008E00B9A40F20841C4F20101086890432C
:1031A0000860FFE70E9880798006002809D5FFE7C0
:1031B0000B9A40F20C41C4F2010108681043086008
:1031C00008E00B9A40F20C41C4F2010108689043F8
:1031D0000860FFE70E9880798007002809D5FFE78F
:1031E0000B9A40F20441C4F20101086810430860E0
:1031F00008E00B9A40F20441C4F2010108689043D0
:103200000860FFE70E988079C00748B1FFE70B9A86
:1032100040F20041C4F2010108681043086008E070
:103220000B9A40F20041C4F2010108689043086023
:10323000FFE7FFE7FFE70D9801300D9079E610B04A
:103240007047000082B00190ADF802108DF80120A7
:103250009DF8010028B1FFE7BDF80200019908615F
:1032600005E0BDF80200000401990861FFE702B023
:103270007047000040F2B830C2F2000000687047AA
:1032800040F21000C2F20000027840F2B831C2F2FF
:1032900000010868104408607047000080B542F2E1
:1032A0000001C4F20201086840F010000860032029
:1032B00000F096F80F2000F005F800F03BF8002031
:1032C00080BD000080B582B0009040F20C00C2F2D8
:1032D0000000006840F21001C2F200010A784FF4C9
:1032E0007A71B1FBF2F1B0FBF1F001F0BBF920B162
:1032F000FFE701208DF8070018E000980F280DD88F
:10330000FFE700994FF0FF30002200F04FF80098DF
:1033100040F21401C2F20001086003E001208DF8C0
:10332000070003E000208DF80700FFE79DF8070085
:1033300002B080BD83B0FFE741F21800C4F2020082
:10334000016841F001010160006800F00100029095
:103350000298FFE7FFE741F21C00C4F20200016897
:1033600041F080510160006800F0805001900198A8
:10337000FFE7FFE70421C4F201010868009000980C
:1033800020F0E0600090009840F0007000900098FD
:103390000860FFE703B0704780B582B08DF8070082
:1033A0009DF9070002F092FF02B080BD80B586B0A3
:1033B0008DF81700049103920020029002F09EFF06
:1033C00002909DF91700019002980499039A02F067
:1033D00065F90146019802F099FF06B080BD000032
:1033E00080B582B00190019802F0B2FF02B080BDBA
:1033F00080B588B007900020069005900490039057
:10340000029007980190012866D0FFE701980228F2
:1034100000F0A580FFE70198102840F0B080FFE79A
:1034200041F20400C4F202000068039041F200007F
:10343000C4F202000068C00100284CD5FFE70398E1
:10344000C0F3834147F6F070C0F60000405C049082
:103450009DF80E00C007F0B1FFE741F20400C4F28E
:1034600002000068C0F3404148F20000C0F60000CE
:10347000405C06909DF80E00C00758B1FFE7069922
:1034800041F20020C0F27A00B0FBF1F00499484309
:103490000590FFE707E0049840F60011C0F23D01F7
:1034A00048430590FFE741F20400C4F202000068BF
:1034B0004002002803D5FFE7059802900AE005982E
:1034C00040004AF6AB21CAF6AA21A0FB0110400831
:1034D0000290FFE7FFE753E041F22000C4F2020050
:1034E00000680390039800F44070B0F5807F0AD123
:1034F000FFE79DF80C008007002804D5FFE74FF494
:10350000004002902AE0039800F44070B0F5007F7C
:103510000DD1FFE741F22400C4F2020000688007E9
:10352000002804D5FFE749F64040029015E00398D3
:1035300000F44070B0F5407F0DD1FFE741F200008C
:10354000C4F2020000688003002804D5FFE74FF2B0
:103550002440029000E0FFE7FFE7FFE710E000F003
:103560003BFA41F20401C4F20201096801F440424D
:10357000022101EB5231B0FBF1F0029000E0FFE7D5
:10358000029808B080BD000080B586B0049000208D
:103590000390029004980078C007002800F0AC80E7
:1035A000FFE700208DF8070041F21C00C4F2020082
:1035B0000068C000002813D4FFE7FFE741F21C00B9
:1035C000C4F20200016841F080510160006800F01F
:1035D000805000900098FFE701208DF80700FFE77A
:1035E00047F20000C4F200000068C005002822D4A1
:1035F000FFE747F20001C4F20001086840F4807060
:103600000860FFF737FE0390FFE747F20000C4F2BF
:1036100000000068C00500280CD4FFE7FFF72AFE71
:103620000399401A652804D3FFE703208DF817009B
:103630008AE0EAE7FFE741F22000C4F202000068F6
:1036400000F4407002900298E0B3FFE702980499FA
:10365000496801F44071884234D0FFE741F220010B
:10366000C4F20201086820F44070029040F2404227
:10367000C4F242220120106000201060029808600D
:103680009DF80800C007E0B1FFE7FFF7F3FD0390E6
:10369000FFE741F22000C4F2020000688007002822
:1036A0000ED4FFE7FFF7E6FD0399401A41F2893196
:1036B000884204D3FFE703208DF8170044E0E8E7D1
:1036C000FFE7FFE741F22001C4F20201086820F49D
:1036D0004070049A5268104308609DF80700012862
:1036E00009D1FFE741F21C01C4F20201086820F091
:1036F00080500860FFE7FFE7049800788007002803
:103700000CD5FFE741F20401C4F20201086820F47D
:103710004040049A926810430860FFE704980078DC
:10372000C00600280CD5FFE741F20401C4F20201F3
:10373000086820F48000049AD26810430860FFE70C
:1037400000208DF81700FFE79DF8170006B080BD38
:1037500080B584B002900191029820B9FFE7012062
:103760008DF80F001BE1019842F20001C4F2020142
:10377000096801F00701884216D9FFE742F200000C
:10378000C4F20200016821F00701019A11430160AF
:10379000006800F007000199884204D0FFE701208B
:1037A0008DF80F00FBE0FFE7029800788007002803
:1037B0002AD5FFE7029800784007002809D5FFE7DF
:1037C00041F20401C4F20201086840F4E0600860BC
:1037D000FFE7029800780007002809D5FFE741F2CB
:1037E0000401C4F20201086840F460500860FFE779
:1037F00041F20401C4F20201086820F0F000029ACC
:10380000926810430860FFE702980078C00700281C
:1038100060D0FFE70298406801280ED1FFE741F22F
:103820000000C4F2020000688003002804D4FFE70F
:1038300001208DF80F00B2E021E0029840680228D4
:103840000ED1FFE741F20000C4F2020000688001DF
:10385000002804D4FFE701208DF80F009FE00DE061
:1038600041F20000C4F2020000688007002804D47E
:10387000FFE701208DF80F0091E0FFE7FFE741F23D
:103880000401C4F20201086820F00300029A5268A1
:1038900010430860FFF7EEFC0090FFE741F20400E0
:1038A000C4F20200006800F00C0002994968B0EB15
:1038B000810F0ED0FFE7FFF7DDFC0099401A41F2BF
:1038C0008931884204D3FFE703208DF80F0066E0BA
:1038D000E4E7FFE7019842F20001C4F2020109683F
:1038E00001F00701884216D2FFE742F20000C4F25D
:1038F0000200016821F00701019A1143016000688C
:1039000000F007000199884204D0FFE701208DF8FC
:103910000F0044E0FFE702980078400700280CD52C
:10392000FFE741F20401C4F20201086820F4E060FC
:10393000029AD26810430860FFE7029800780007F7
:1039400000280DD5FFE741F20401C4F20201086826
:1039500020F46050029A126940EAC2000860FFE752
:1039600000F04CF841F20401C4F202010968C9B246
:103970000A0947F6D871C0F60001895CC84040F2D8
:103980000C01C2F20001086040F21400C2F2000013
:103990000068FFF797FC00208DF80F00FFE79DF807
:1039A0000F0004B080BD000040F20C00C2F2000025
:1039B0000068704780B5FFF7F7FF41F20401C4F2D9
:1039C00002010968C1F3022247F6E871C0F600015E
:1039D000895CC84080BD000080B5FFF7E5FF41F27B
:1039E0000401C4F202010968C1F3C22247F6E8717A
:1039F000C0F60001895CC84080BD000086B0002090
:103A00000590049003900290019041F20400C4F2EA
:103A1000020000680590059800F00C000146009136
:103A200000283FD0FFE70098042804D0FFE7009863
:103A3000082806D037E041F20020C0F27A00019059
:103A400037E00598C0F3834148F20200C0F6000059
:103A5000405C02909DF81600C007C0B1FFE741F23C
:103A60000400C4F202000068C0F3404148F21200B2
:103A7000C0F60000405C0490029841F20021C0F2C0
:103A80007A0148430499B0FBF1F0039007E00298F3
:103A900040F60011C0F23D0148430390FFE7039850
:103AA000019006E0FFE741F20020C0F27A000190A9
:103AB000FFE7019806B0704780B586B0049004987F
:103AC00020B9FFE701208DF817002EE30498007855
:103AD000C007002800F0AE80FFE741F20400C4F206
:103AE0000200006800F00C00042813D0FFE741F248
:103AF0000400C4F20200006800F00C0008281BD18A
:103B0000FFE741F20400C4F202000068C00300288D
:103B100012D5FFE741F20000C4F202000068800302
:103B2000002808D5FFE70498406820B9FFE7012086
:103B30008DF81700F9E27CE0FFE704984068B0F5E3
:103B4000803F09D1FFE741F20001C4F20201086899
:103B500040F48030086032E00498406868B9FFE7BC
:103B600041F20001C4F20201086820F480300860CC
:103B7000086820F48020086020E004984068B0F5D0
:103B8000A02F0DD1FFE741F20001C4F20201086845
:103B900040F480200860086840F4803008600CE041
:103BA00041F20001C4F20201086820F4803008608C
:103BB000086820F480200860FFE7FFE7FFE7FFE7E1
:103BC00004984068D0B1FFE7FFF754FB0390FFE78C
:103BD00041F20000C4F202000068800300280CD407
:103BE000FFE7FFF747FB0399401A652804D3FFE777
:103BF00003208DF8170098E2EAE719E0FFF73AFB97
:103C00000390FFE741F20000C4F202000068800365
:103C100000280CD5FFE7FFF72DFB0399401A652814
:103C200004D3FFE703208DF817007EE2EAE7FFE701
:103C3000FFE7FFE7049800788007002840F18D80B7
:103C4000FFE741F20400C4F20200006810F00C0F1C
:103C500013D0FFE741F20400C4F20200006800F054
:103C60000C00082829D1FFE741F20400C4F2020049
:103C70000068C003002820D4FFE741F20000C4F22E
:103C8000020000688007002809D5FFE70498006952
:103C9000012804D0FFE701208DF8170045E241F22A
:103CA0000001C4F20201086820F0F800049A526989
:103CB00040EAC2000860FFE74EE00498006958B38C
:103CC000FFE70021C4F2422101200860FFF7D2FA89
:103CD0000390FFE741F20000C4F202000068800791
:103CE00000280CD4FFE7FFF7C5FA0399401A032810
:103CF00004D3FFE703208DF8170016E2EAE741F24C
:103D00000001C4F20201086820F0F800049A526928
:103D100040EAC20008601EE00021C4F242210020F7
:103D20000860FFF7A7FA0390FFE741F20000C4F232
:103D300002000068800700280CD5FFE7FFF79AFA19
:103D40000399401A032804D3FFE703208DF81700D6
:103D5000EBE1EAE7FFE7FFE7FFE7049800780007F9
:103D6000002848D5FFE70498806918B3FFE740F2C0
:103D70008041C4F2422101200860FFF77BFA0390E2
:103D8000FFE741F22400C4F2020000688007002827
:103D90000CD4FFE7FFF76EFA0399401A032804D307
:103DA000FFE703208DF81700BFE1EAE7012001F0EB
:103DB00047FD1FE040F28041C4F24221002008602C
:103DC000FFF758FA0390FFE741F22400C4F2020023
:103DD0000068800700280CD5FFE7FFF74BFA03992E
:103DE000401A032804D3FFE703208DF817009CE155
:103DF000EAE7FFE7FFE7049800784007002840F172
:103E0000D880FFE700208DF8070041F21C00C4F2C3
:103E100002000068C000002813D4FFE7FFE741F26A
:103E20001C00C4F20200016841F08051016000688A
:103E300000F0805000900098FFE701208DF8070007
:103E4000FFE747F20000C4F200000068C005002848
:103E500022D4FFE747F20001C4F20001086840F4F1
:103E600080700860FFF706FA0390FFE747F2000052
:103E7000C4F200000068C00500280CD4FFE7FFF77B
:103E8000F9F90399401A652804D3FFE703208DF858
:103E900017004AE1EAE7FFE7FFE70498C068012856
:103EA00009D1FFE741F22001C4F20201086840F0A5
:103EB0000100086031E00498C06868B9FFE741F28A
:103EC0002001C4F20201086820F0010008600868BF
:103ED00020F0040008601FE00498C06805280DD198
:103EE000FFE741F22001C4F20201086840F004003B
:103EF0000860086840F0010008600CE041F2200111
:103F0000C4F20201086820F001000860086820F08F
:103F100004000860FFE7FFE7FFE7FFE70498C068D9
:103F2000E0B1FFE7FFF7A6F90390FFE741F22000B9
:103F3000C4F202000068800700280ED4FFE7FFF7F4
:103F400099F90399401A41F28931884204D3FFE775
:103F500003208DF81700E8E0E8E71BE0FFF78AF997
:103F60000390FFE741F22000C4F2020000688007DE
:103F700000280ED5FFE7FFF77DF90399401A41F2BB
:103F80008931884204D3FFE703208DF81700CCE085
:103F9000E8E7FFE79DF80700012809D1FFE741F2B4
:103FA0001C01C4F20201086820F080500860FFE79D
:103FB000FFE70498C069002800F0B380FFE741F2F2
:103FC0000400C4F20200006800F00C00082800F0B1
:103FD0008280FFE70498C06902285CD1FFE7602176
:103FE000C4F2422100200860FFF744F90390FFE784
:103FF00041F20000C4F202000068800100280CD5E4
:10400000FFE7FFF737F90399401A032804D3FFE7C6
:1040100003208DF8170088E0EAE70498006AB0F5FD
:10402000803F0CD1FFE741F20401C4F202010868AD
:1040300020F40030049A926810430860FFE741F2D0
:104040000401C4F20201086820F47410049B1A6A87
:104050005B6A1A43104308606021C4F242210120C8
:104060000860FFF707F90390FFE741F20000C4F290
:1040700002000068800100280CD4FFE7FFF7FAF87F
:104080000399401A032804D3FFE703208DF8170093
:104090004BE0EAE71EE06021C4F242210020086004
:1040A000FFF7E8F80390FFE741F20000C4F20200D6
:1040B0000068800100280CD5FFE7FFF7DBF80399C3
:1040C000401A032804D3FFE703208DF817002CE0E3
:1040D000EAE7FFE724E00498C069012804D1FFE77C
:1040E00001208DF8170020E041F20400C4F2020024
:1040F00000680290029800F480300499096A8842AE
:1041000008D1FFE7029800F470100499496A8842C8
:1041100004D0FFE701208DF8170006E0FFE7FFE776
:10412000FFE700208DF81700FFE79DF8170006B0A5
:1041300080BD000080B584B00290029820B9FFE7EE
:1041400001208DF80F006DE00298406A60B9FFE72A
:1041500002984068B0F5827F01D1FFE703E0029941
:104160000020C861FFE705E002990020086102997C
:104170004861FFE7029900208862029890F8510098
:1041800040B9FFE70299002081F85000029800F042
:104190004DF8FFE70299022081F85100029801686A
:1041A000086820F040000860029A01921168506887
:1041B000D2F808C0D36800F482700CF4044C604458
:1041C00003F400631844136903F0020318445369AD
:1041D00003F001031844936903F400731844D3698E
:1041E00003F038031844136A03F080031843926AFB
:1041F00002F40052104308600299488B00F004005A
:104200000968486002980168C86920F40060C861C4
:10421000029900204865029A012182F851108DF818
:104220000F00FFE79DF80F0004B080BD80B58AB095
:104230000990002008900790069005900998006862
:1042400043F20001C4F20101884237D1FFE7FFE7E2
:1042500041F21800C4F20200016841F4805101608B
:10426000006800F4805004900498FFE7FFE741F2F3
:104270001800C4F20200016841F004010160006806
:1042800000F0040003900398FFE7A02005900220AF
:1042900006900320089040F60000C4F2010001904F
:1042A00005A90291FEF73EFE01980299402205926F
:1042B000002206920792FEF735FEFFE70AB080BDA6
:1042C00080B58CB0DDF838C00A9009910892ADF83D
:1042D0001E3001200390FEF7CDFF04900A9890F85D
:1042E00051008DF817000A9840680690BDF81E002E
:1042F000ADF81C009DF81700012812D0FFE70698C2
:10430000B0F5827F09D1FFE70A98806828B9FFE7F6
:104310009DF81700042804D0FFE702208DF82F0035
:104320009BE1099838B1FFE7089820B1FFE7BDF895
:104330001E0020B9FFE701208DF82F008DE1FFE777
:104340000A9890F85000012804D1FFE702208DF868
:104350002F0082E10A99012081F85000FFE7FFE772
:104360000A9890F85100042805D0FFE70A99052023
:1043700081F85100FFE70A990020486508990A9AD8
:104380009163BDF81E100A9AD187BDF81E100A9AD3
:10439000918709990A9A1163BDF81E100A9AD1866D
:1043A000BDF81E100A9A91860A9908640A99486411
:1043B0000A980068006800F04000402807D0FFE736
:1043C0000A980168086840F040000860FFE70A9812
:1043D000C068B0F5006F40F08180FFE70A98406840
:1043E00028B1FFE7BDF81C0001280ED1FFE70A98AD
:1043F0000168006B0088C8600A99086B0230086386
:104400000A99C88E0138C886FFE7FFE70A98C18E6F
:104410000120019039B9FFE70A98C08F002818BF22
:1044200001200190FFE70198C007002855D0FFE761
:104430000A98006880688007002818D5FFE70A9866
:10444000C08EA0B1FFE70398012810D1FFE70A98BA
:104450000168006B0088C8600A99086B0230086325
:104460000A99C88E0138C88600200390FFE70A9891
:1044700000688068C007A8B1FFE70A98C08F88B1BC
:10448000FFE70A980068C0680A99896B08800A9952
:10449000886B023088630A99C88F0138C887012069
:1044A0000390FFE7FEF7E6FE0499401A0E99884252
:1044B00012D3FFE70E98013070B1FFE70A9901208F
:1044C00081F85100FFE70A99002081F85000FFE7CA
:1044D00003208DF82F00C0E098E782E00A9840683A
:1044E00028B1FFE7BDF81C0001280ED1FFE70A98AC
:1044F0000168006B007808730A99086B0130086343
:104500000A99C88E0138C886FFE7FFE70A98C18E6E
:104510000120009039B9FFE70A98C08F002818BF22
:1045200001200090FFE70098C007002858D0FFE75F
:104530000A98006880688007002818D5FFE70A9865
:10454000C08EA0B1FFE70398012810D1FFE70A98B9
:104550000168006B007808730A99086B01300863E2
:104560000A99C88E0138C88600200390FFE70A9890
:1045700000688068C007A8B1FFE70A98C08F88B1BB
:10458000FFE70A980068C0680A99896B08700A9961
:10459000886B013088630A99C88F0138C887012069
:1045A0000390FFE7FEF766FE0499401A0E998842D1
:1045B00004D3FFE70E98013018B9FFE70E9870B9E1
:1045C000FFE70A99012081F85100FFE70A990020CE
:1045D00081F85000FFE703208DF82F003DE095E7BC
:1045E000FFE70A980E99049A01F048F968B1FFE7CD
:1045F0000A9920204865FFE70A99002081F85000B9
:10460000FFE701208DF82F0027E00A98806870B935
:10461000FFE7FFE7002002900A980068C068029058
:104620000A980068806802900298FFE7FFE70A99FD
:10463000012081F85100FFE70A99002081F850001D
:10464000FFE70A98406D20B1FFE701208DF82F00A9
:1046500003E000208DF82F00FFE79DF82F000CB03D
:1046600080BD000080B582B00190019801F0D4F9BE
:1046700002B080BD84B00290019100200090FFE75D
:10468000029890F83C00012804D1FFE702208DF841
:104690000F0044E00299012081F83C00FFE7FFE7AA
:1046A000009820F0FF000199C96808430090009825
:1046B00020F440700199896808430090009820F424
:1046C00080600199496808430090009820F40060D8
:1046D0000199096808430090009820F480500199DE
:1046E000096908430090009820F400500199496935
:1046F00008430090009820F480400199C96908435C
:1047000000900098029909684864FFE70299002028
:1047100081F83C00FFE700208DF80F00FFE79DF8CF
:104720000F0004B07047000085B003900291FFE7CE
:10473000039890F83C00012804D1FFE702208DF88F
:1047400013005BE00399012081F83C00FFE7FFE7DD
:104750000399022081F83D000398006840680190A9
:104760000398006880680090019820F07000019024
:10477000029801680198084301900198039909681B
:1047800048600398006842F60041C4F20101884283
:1047900018D0FFE703980068B0F1804F12D0FFE710
:1047A0000398006840F20041C4F20001884209D039
:1047B000FFE70398006840F60001C4F20001884258
:1047C0000ED1FFE7009820F0800000900298416829
:1047D0000098084300900098039909688860FFE7F3
:1047E0000399012081F83D00FFE70399002081F83B
:1047F0003C00FFE700208DF81300FFE79DF8130051
:1048000005B0704780B58AB008900791079828B91D
:10481000FFE7089890F8420005901CE007980428EC
:1048200005D1FFE7089890F84300049010E007983E
:10483000082805D1FFE7089890F84400039004E0A9
:10484000089890F845000390FFE703980490FFE76D
:1048500004980590FFE70598012804D0FFE70120A0
:104860008DF8270070E0079828B9FFE70899022023
:1048700081F842001EE00798042806D1FFE7089956
:10488000022081F84300029012E00798082806D120
:10489000FFE70899022081F84400019005E008999B
:1048A000022081F845000190FFE701980290FFE7A0
:1048B0000298FFE7089800680799042201F0C4F9FC
:1048C00008980168486C40F4004048640898006803
:1048D00042F60041C4F20101884218D0FFE708986F
:1048E0000068B0F1804F12D0FFE70898006840F2EE
:1048F0000041C4F20001884209D0FFE7089800682F
:1049000040F60001C4F20001884212D1FFE7089886
:104910000068806800F0070006900698062807D017
:10492000FFE708980168086840F001000860FFE7A9
:1049300006E008980168086840F001000860FFE799
:1049400000208DF82700FFE79DF827000AB080BD02
:1049500080B582B00090009820B9FFE701208DF863
:1049600007003FE0009890F83D0040B9FFE700994C
:10497000002081F83C00009800F038F8FFE700992B
:10498000022081F83D00009951F8040B01F0BCF8B9
:104990000099012081F84600FFE70099012081F885
:1049A0003E00009981F83F00009981F8400000998D
:1049B00081F84100FFE7FFE70099012081F84200FC
:1049C000009981F84300009981F84400009981F82A
:1049D0004500FFE70099012081F83D0000208DF897
:1049E0000700FFE79DF8070002B080BD82B001908C
:1049F0000198006842F60041C4F20101884210D1DA
:104A0000FFE7FFE741F21800C4F20200016841F439
:104A100000610160006800F4006000900098FFE70A
:104A2000FFE702B07047000083B00190019890F852
:104A30003D00012804D0FFE701208DF80B0041E084
:104A40000199022081F83D000198006842F600417A
:104A5000C4F20101884218D0FFE701980068B0F164
:104A6000804F12D0FFE70198006840F20041C4F285
:104A70000001884209D0FFE70198006840F6000174
:104A8000C4F20001884212D1FFE7019800688068F3
:104A900000F0070000900098062807D0FFE7019873
:104AA0000168086840F001000860FFE706E001982F
:104AB0000168086840F001000860FFE700208DF8F9
:104AC0000B00FFE79DF80B0003B0704780B586B080
:104AD0000490039100208DF80B00FFE7049890F8F4
:104AE0003C00012804D1FFE702208DF81700ABE05D
:104AF0000499012081F83C00FFE7FFE704990220B8
:104B000081F83D000498006880680190019820F0C9
:104B100077000190019820F47F400190019804995A
:104B200009688860039800680090002872D0FFE749
:104B3000009810286ED0FFE7009820286AD0FFE781
:104B40000098302866D0FFE70098402855D0FFE74E
:104B50000098502837D0FFE70098602840D0FFE742
:104B6000009870280BD0FFE70098B0F5805F05D063
:104B7000FFE70098B0F5005F16D052E055E00498CA
:104B80000068039B5A689968DB6801F079F804981B
:104B9000006880680190019840F0770001900198CA
:104BA00004990968886040E004980068039B5A688B
:104BB0009968DB6801F064F804980168886840F43B
:104BC0008040886031E004980068039A5168D26898
:104BD00001F012FA04980068502101F06BF824E00B
:104BE00004980068039A5168D26801F02DFA04987D
:104BF0000068602101F05EF817E004980068039AED
:104C00005168D26801F0F8F904980068402101F079
:104C100051F80AE0049800680399096801F04AF81D
:104C200003E001208DF80B00FFE70499012081F8D3
:104C30003D00FFE70499002081F83C00FFE79DF864
:104C40000B008DF81700FFE79DF8170006B080BD38
:104C500080B586B0059000200490039002900190EA
:104C60000598006842F60041C4F2010188421DD156
:104C7000FFE7FFE741F21800C4F20200016841F0CB
:104C800004010160006800F0040000900098FFE754
:104C90004FF4E060019002200290049040F6000082
:104CA000C4F2010001A9FEF73DF9FFE706B080BD9F
:104CB00080B586B004900391029200208DF8070021
:104CC000FFE7049890F83C00012804D1FFE7022098
:104CD0008DF8170089E00499012081F83C00FFE776
:104CE000FFE7029800900C2800F270800099DFE83E
:104CF00001F0076D6D6D206D6D6D3A6D6D6D53003A
:104D000004980068039900F0EBFF04980168886933
:104D100040F00800886104980168886920F0040068
:104D20008861039802690498016888691043886162
:104D300050E004980068039901F03AF8049801687B
:104D4000886940F40060886104980168886920F4EB
:104D5000806088610398026904980168886940EA64
:104D60000220886136E004980068039901F08CF80D
:104D700004980168C86940F00800C8610498016897
:104D8000C86920F00400C8610398026904980168AA
:104D9000C8691043C8611DE004980068039901F0D8
:104DA000DFF804980168C86940F40060C86104989D
:104DB0000168C86920F48060C8610398026904989A
:104DC0000168C86940EA0220C86103E001208DF84B
:104DD0000700FFE7FFE70499002081F83C00FFE7A8
:104DE0009DF807008DF81700FFE79DF8170006B043
:104DF00080BD000080B582B00090009820B9FFE728
:104E000001208DF807003FE0009890F83D0040B980
:104E1000FFE70099002081F83C00009800F038F886
:104E2000FFE70099022081F83D00009951F8040B3A
:104E300000F06AFE0099012081F84600FFE7009922
:104E4000012081F83E00009981F83F00009981F827
:104E50004000009981F84100FFE7FFE70099012039
:104E600081F84200009981F84300009981F84400DC
:104E7000009981F84500FFE70099012081F83D0085
:104E800000208DF80700FFE79DF8070002B080BD05
:104E900081B0009001B0704780B58AB0089007914A
:104EA000079828B9FFE7089890F83E0005901CE0A5
:104EB0000798042805D1FFE7089890F83F00049070
:104EC00010E00798082805D1FFE7089890F84000FF
:104ED000039004E0089890F841000390FFE70398DE
:104EE0000490FFE704980590FFE70598012804D097
:104EF000FFE701208DF827007AE0079828B9FFE73F
:104F00000899022081F83E001EE00798042806D187
:104F1000FFE70899022081F83F00029012E007980D
:104F2000082806D1FFE70899022081F84000019087
:104F300005E00899022081F841000190FFE70198FF
:104F40000290FFE70298FFE708980068079901229E
:104F500000F05EFE0898006842F60041C4F20101CC
:104F6000884207D1FFE708980168486C40F4004088
:104F70004864FFE70898006842F60041C4F2010166
:104F8000884218D0FFE708980068B0F1804F12D02F
:104F9000FFE70898006840F20041C4F2000188422F
:104FA00009D0FFE70898006840F60001C4F200014C
:104FB000884212D1FFE708980068806800F0070077
:104FC00006900698062807D0FFE708980168086849
:104FD00040F001000860FFE706E0089801680868F3
:104FE00040F001000860FFE700208DF82700FFE790
:104FF0009DF827000AB080BD80B582B0009000986F
:1050000020B9FFE701208DF8070040E00098806993
:1050100008B1FFE700E0FFE7009890F8410040B9D1
:10502000FFE70099002081F84000009800F034F874
:10503000FFE70099242081F8410000980168C868C2
:1050400020F40050C860009801F072F800980168E0
:10505000086920F49040086100980168486920F0D0
:105060002A00486100980168C86840F40050C86090
:10507000009900204864009A202182F84110009A8B
:1050800082F84210009948638DF80700FFE79DF809
:10509000070002B080BD000080B58AB009900020F2
:1050A00008900790069005900998006844F2004126
:1050B000C4F20001884237D1FFE7FFE741F21C004C
:1050C000C4F20200016841F400310160006800F49C
:1050D000003004900498FFE7FFE741F21800C4F2A3
:1050E0000200016841F004010160006800F0040062
:1050F00003900398FFE70420059002200690032008
:10510000089040F60000C4F20100019005A9029148
:10511000FDF708FF019802990822059200220692E5
:105120000792FDF7FFFEFFE70AB080BD80B58AB0A9
:1051300008900791ADF81A20059300200290089876
:1051400090F84100202840F08180FFE7079820B1C7
:10515000FFE7BDF81A0020B9FFE701208DF827000E
:1051600078E00899002048640899212081F84100DE
:10517000FEF780F80290BDF81A0008998884BDF8FF
:105180001A000899C88408988068B0F5805F09D132
:10519000FFE70898006928B9FFE700200490079806
:1051A000039004E00798049000200390FFE7FFE7D6
:1051B0000898C08C78B3FFE70898029B05996A4667
:1051C00011608021002201F011F840B1FFE7089939
:1051D000202081F8410003208DF827003AE0049850
:1051E00058B9FFE7039800886FF35F2008990968B2
:1051F000486003980230039008E00498007808990A
:1052000009684860049801300490FFE70899C88C49
:105210000138C884CCE70898029B05996A4611605A
:105220004021002200F0E2FF40B1FFE70899202072
:1052300081F8410003208DF827000BE00899202019
:1052400081F8410000208DF8270003E002208DF84E
:105250002700FFE79DF827000AB080BDFFE7FEE7C3
:1052600080B588B0079040F60000C4F201000390BA
:10527000102102910022FDF7E5FF69464FF0FF3053
:10528000086040F21C20C2F200000DF11902032355
:105290001146FFF715F8029903980122FDF7D2FF96
:1052A0009DF81B0000F03F008DF815009DF81900D7
:1052B0009DF81A209DF81B10000440EA02200844C3
:1052C00080090490049801F06FF99DF81510884248
:1052D00001D0FFE719E09DF819109DF81A00800829
:1052E00040EA8110ADF81600BDF9160002F016FC78
:1052F00040F6DB71C4F2C90102F0A4FC4FF08D410D
:1053000002F0DAFA07990860FFE708B080BD0000F4
:1053100080B58AB000220092099208920792069204
:10532000059204920392029240F2BC10C2F2000075
:10533000019042F20041C4F201010160826001214A
:10534000017302754FF46023C36142600161FDF790
:1053500035FC18B1FFE7FCF77DFDFFE74FF4A02017
:10536000099040F2BC10C2F2000009A9FDF702FB4F
:1053700018B1FFE7FCF76EFDFFE700200290012166
:1053800003910691049108908DF81D008DF81C0082
:10539000059040F2BC10C2F2000002A9FCF728FE02
:1053A00018B1FFE7FCF756FDFFE70AB080BD00002B
:1053B00080B58AB000220192099208920792069263
:1053C00005920492039240F2EC10C2F200000290A7
:1053D00042F60001C4F20101016082600121017303
:1053E00002754FF46023C36142600161FDF7E6FB83
:1053F00018B1FFE7FCF72EFDFFE7012003900490B2
:105400000790059000208DF821008DF8200006906F
:1054100040F2EC10C2F2000003A9FCF7E9FD18B15C
:10542000FFE7FCF717FDFFE70AB080BD80B58AB043
:1054300000200990089007900690FFE741F21800BD
:10544000C4F20200016841F020010160006800F030
:10545000200005900598FFE7FFE741F21800C4F22D
:105460000200016841F004010160006800F00400DE
:1054700004900498FFE740F60000C4F20100039096
:1054800041F21001019100220292FDF7DBFE019A28
:10549000029903980692012207920891022109912C
:1054A00006A9FDF73FFD0AB080BD000080B582B0BF
:1054B00040F21C20C2F20000019043F20001C4F24D
:1054C000010101604FF48271416000218160C1607F
:1054D0000161012242614FF4007282610822C261BF
:1054E0000162416281620A21C162FEF723FE18B1A6
:1054F000FFE7FCF7AFFCFFE702B080BD80B598B0D6
:105500000021019117911691159114911391129107
:10551000119110910F910E910D910C910B910A9197
:10552000099108910791069105910491039140F228
:105530007420C2F20000029042F60042C4F201025E
:1055400002604160202282604FF46172C26001619A
:105550001F21416180218161FFF7FAF918B1FFE74E
:10556000FCF778FCFFE74FF48050149040F2742071
:10557000C2F2000014A9FFF7A9FA18B1FFE7FCF77F
:1055800069FCFFE740F27420C2F20000FFF732FC32
:1055900018B1FFE7FCF75EFCFFE720201290002027
:1055A000139040F27420C2F2000012A9FFF7BCF879
:1055B00018B1FFE7FCF74EFCFFE760200B900022DC
:1055C0000C920D920E920F921092119240F2742052
:1055D000C2F200000BA9FFF76BFB18B1FFE7FCF765
:1055E00039FCFFE740F27420C2F200000BA904224C
:1055F000FFF75EFB18B1FFE7FCF72CFCFFE740F27A
:105600007420C2F200000BA90822FFF751FB18B169
:10561000FFE7FCF71FFCFFE70020039004900590D4
:10562000069007904FF4005108910A9040F27420C0
:10563000C2F2000003A9FFF71DF818B1FFE7FCF75D
:1056400009FCFFE740F27420C2F20000FFF700FB04
:1056500018B080BD80B582B040F2BC20C2F200001C
:10566000019044F20041C4F2000101604FF4E131C5
:10567000416000218160C16001610C224261816151
:10568000C161FFF7B9FC18B1FFE7FCF7E3FBFFE7E7
:1056900002B080BDFFE7FEE7FFE7FEE788B00790B6
:1056A00006910592079800F0070004900498C0F155
:1056B0000700052803D3FFE70420019004E00498C5
:1056C000C0F107000190FFE70198039004980430AF
:1056D000062803D8FFE70020009003E00498033871
:1056E0000090FFE70098029006980399012202FAC1
:1056F00001F101390840029B984005999A40013A0E
:105700001140084308B0704780B58EB00D908DF8F9
:1057100033100B929DF83300012869D1FFE70D98F3
:105720000190C168006902F059FB019948610D9927
:105730000991086802904868039088680790486952
:105740000690C969059102F049FB0146029802F0F2
:1057500079FA0146039804910B9902F073FA0699BD
:1057600002F070FA0146049802F00EF805990890CC
:10577000084602F009F80146069802F02FFB099945
:10578000896902F001F80146079802F05BFA0146C8
:10579000089801F0F9FF01460998006A01F0F4FF4A
:1057A000099908620D99C86988610D980A90C168C5
:1057B000006902F013FB0A99C8610D99086A496AE9
:1057C00002F060F820B9FFE70D99486A0862FFE728
:1057D0000D99086A496A81F0004102F04CF830B92D
:1057E000FFE70D99486A80F000400862FFE70DE08E
:1057F0000D99002008610D99C8600D9908620D99F6
:1058000048610D9988610D99C861FFE70EB080BDB0
:1058100084B0DDF810C003900291019200930298C9
:10582000039908600198039948600098039988607B
:1058300004980399486204B0704700007047000064
:1058400082B00190019840F20C01C2F20001096897
:10585000C90844F6D352C1F26202A1FB02218909B0
:1058600048430090FFE700BFFFE70098411E00910A
:105870000028F8D1FFE702B07047000080B586B07D
:105880000490039102920498039B02996A46116066
:105890000221012200F028F848B1FFE70499486D81
:1058A00040F02000486503208DF8170017E00498A9
:1058B000039B02996A4611608021002200F014F8CF
:1058C00048B1FFE70499486D40F020004865032087
:1058D0008DF8170003E000208DF81700FFE79DF812
:1058E000170006B080BD000080B58AB0DDF830C07A
:1058F000089007918DF81B20059305980190FDF7FE
:10590000B9FC024601980C99891A08440390FDF7E6
:10591000B1FC0290039840F20C01C2F20001096848
:10592000C1F3CB3148430490FFE7089800688068D2
:1059300007990840401AB0FA80F040099DF81B1002
:1059400088425ED0FFE705980130002858D0FFE775
:10595000FDF790FC0299401A0399884204D2FFE7B0
:105960000398002842D1FFE708980168486820F0B2
:10597000E000486008984068B0F5827F13D1FFE7E7
:1059800008988068B0F5004F06D0FFE70898806857
:10599000B0F5806F07D1FFE708980168086820F02C
:1059A00040000860FFE70898806AB0F5005F0FD1FB
:1059B000FFE7FFE708980168086820F400500860D6
:1059C00008980168086840F400500860FFE7FFE7A6
:1059D0000899012081F85100FFE70899002081F81B
:1059E0005000FFE703208DF827000EE0049818B957
:1059F000FFE700200390FFE7049801380490FFE7D9
:105A000093E700208DF82700FFE79DF827000AB0F4
:105A100080BD00007047000080B582B00090009803
:105A20000138B0F1807F03D3FFE70120019019E036
:105A3000009801384EF21401CEF2000108604FF0D8
:105A4000FF300F2100F062FC4EF21801CEF200018F
:105A5000002008604EF21002CEF200020721116011
:105A60000190FFE7019802B080BD000080B5FDF70E
:105A700007FC80BD80B596B00CA801902821FAF7EC
:105A80000DFC0198002302930B930A93099308934A
:105A90000793069305930493039301220C924FF40A
:105AA00080310D910E9310920222139214914FF4B3
:105AB000E0111591FEF700F818B1FFE7FCF7CAF9FD
:105AC000FFE70F20079002210891002009904FF472
:105AD00080620A920B9007A8FDF73AFE18B1FFE723
